:020000040800F2
:10000000F8BD0020614C000851B001084D4C0008BB
:100010004D4C00084D4C00084D4C00084D4C00085C
:10002000000000000000000000000000414D00083A
:100030004D4C000800000000E94C00087960000801
:100040008D4E00088D4E00088D4E00088D4E000824
:100050008D4E00088D4E00088D4E00088D4E000814
:100060008D4E00088D4E00088D4E00088D4E000804
:100070008D4E00088D4E00088D4E00088D4E0008F4
:100080008D4E00088D4E00088D4E00088D4E0008E4
:100090008D4E00088D4E00088D4E00088D4E0008D4
:1000A0008D4E00088D4E00088D4E00088D4E0008C4
:1000B0008D4E00088D4E00088D4E00088D4E0008B4
:1000C0008D4E00088D4E00088D4E00088D4E0008A4
:1000D0008D4E00088D4E00088D4E00088D4E000894
:1000E0008D4E00088D4E00088D4E00088D4E000884
:1000F0008D4E00088D4E00088D4E00088D4E000874
:100100008D4E00088D4E00088D4E00088D4E000863
:100110008D4E00088D4E00088D4E00088D4E000853
:100120008D4E00088D4E00088D4E00088D4E000843
:100130008D4E00088D4E00088D4E00088D4E000833
:100140008D4E00088D4E00088D4E00088D4E000823
:100150008D4E00088D4E00088D4E00088D4E000813
:100160008D4E00088D4E00088D4E00088D4E000803
:100170008D4E00088D4E00088D4E00088D4E0008F3
:100180008D4E00088D4E00088D4E00088D4E0008E3
:100190008D4E00088D4E00088D4E00088D4E0008D3
:1001A0008D4E00088D4E00088D4E00088D4E0008C3
:1001B0008D4E00088D4E00088D4E00088D4E0008B3
:1001C0008D4E00088D4E00088D4E00088D4E0008A3
:1001D0008D4E00088D4E00088D4E00088D4E000893
:1001E0008D4E00088D4E00088D4E00088D4E000883
:1001F000844641EA000313F0030349D1403A23D374
:100200000B6803604B6843608B688360CB68C36096
:100210000B6903614B6943618B698361CB69C3617E
:100220000B6A03624B6A43628B6A8362CB6AC36266
:100230000B6B03634B6B43638B6B8363CB6BC3634E
:1002400040304031403ADBD230320BD30B68036090
:100250004B6843608B688360CB68C360103010319B
:10026000103AF3D20C3205D351F8043B40F8043B6A
:10027000043AF9D2043208D0D2071CBF11F8013B6E
:1002800000F8013B01D30B8803806046704700BF34
:10029000082A13D38B07B1D010F00303AED0C3F1FB
:1002A0000403D21ADB071CBF11F8013B00F8013B25
:1002B000A4D331F8023B20F8023B9FE7043AD9D39C
:1002C000013A11F8013B00F8013BF9D20B780370B9
:1002D0004B7843708B7883706046704780EA010CDE
:1002E0001CF0030F37D110F0030C20F0030021F0B5
:1002F000030150F8042B08BF51F8043B0ED08CF0DA
:10030000030C6FF07F434FEACC0C23FA0CFC51F83E
:10031000043B42EA0C0243EA0C0300BFA2F1013C99
:100320009A4201BF2CEA020C1CF0803F50F8042BCB
:1003300051F8043BF2D04FEA02604FEA1222012842
:1003400028BFB0EB036F08BF1B0AF4D003F0FF0314
:10035000000EC01A704710F0030F0AD010F8012BDE
:1003600011F8013B012A28BF9A42F4D0A2EB030006
:1003700070474DF8045D50F8042B01F0030521F09F
:10038000030151F8043B022D26D04DD822F07F45C1
:10039000B5EB132FA2F1013C2CEA020C0DD11CF09D
:1003A000803C08BF51F8043B0AD185EA0205B5EB51
:1003B000036F0CD150F8042BE8E74FEA13235BE0FE
:1003C0003CF07F4C54D10B784FEA126554E04FEA71
:1003D000126503F0FF034FE04FEA0245A2F1013C32
:1003E0004FEA15452CEA020CB5EB134F18D11CF05F
:1003F000803C08BF51F8043B07D185EA0205B5EB04
:10040000034F09D150F8042BE6E75FEA0C4C2FD1DB
:100410000B884FEA12452FE04FEA03434FEA12459B
:100420004FEA134328E000BF02F0FF05B5EB136F5E
:10043000A2F1013C2CEA020C0DD11CF0803C08BF5B
:1004400051F8043B0AD185EA0205B5EB032F0AD126
:1004500050F8042BE8E74FEA13630DE012F0FF0FAA
:1004600006D051F8043B4FEA122523F07F4303E006
:100470004FF0000020BC704705F0FF0203F0FF00C2
:10048000012828BF904204BF2D0A1B0AF4D0A2EB1A
:10049000000020BC704700BF81F0004102E000BFB7
:1004A00083F0004330B54FEA41044FEA430594EA34
:1004B000050F08BF90EA020F1FBF54EA000C55EA6F
:1004C000020C7FEA645C7FEA655C00F0E2804FEA40
:1004D0005454D4EB5555B8BF6D420CDD2C4480EA22
:1004E000020281EA030382EA000083EA010180EA52
:1004F000020281EA0303362D88BF30BD11F0004FA0
:100500004FEA01314FF4801C4CEA113102D04042D5
:1005100061EB410113F0004F4FEA03334CEA133310
:1005200002D0524263EB430394EA050F00F0A78028
:10053000A4F10104D5F1200E0DDB02FA0EFC22FA23
:1005400005F2801841F1000103FA0EF2801843FA17
:1005500005F359410EE0A5F120050EF1200E012A08
:1005600003FA0EFC28BF4CF0020C43FA05F3C01846
:1005700051EBE37101F0004507D54FF0000EDCF1BF
:10058000000C7EEB00006EEB0101B1F5801F1BD368
:10059000B1F5001F0CD349085FEA30004FEA3C0C6C
:1005A00004F101044FEA445212F5800F80F09A8062
:1005B000BCF1004F08BF5FEA500C50F1000041EB66
:1005C000045141EA050130BD5FEA4C0C404141EB6A
:1005D0000101013C28BFB1F5801FE9D291F0000F65
:1005E00004BF01460020B1FA81F308BF2033A3F114
:1005F0000B03B3F120020CDA0C3208DD02F1140C0B
:10060000C2F10C0201FA0CF021FA02F10CE002F145
:100610001402D8BFC2F1200C01FA02F120FA0CFC3E
:10062000DCBF41EA0C019040E41AA2BF01EB045187
:10063000294330BD6FEA04041F3C1CDA0C340EDC85
:1006400004F11404C4F1200220FA04F001FA02F3C8
:1006500040EA030021FA04F345EA030130BDC4F186
:100660000C04C4F1200220FA02F001FA04F340EA7B
:100670000300294630BD21FA04F0294630BD94F02C
:10068000000F83F4801306BF81F480110134013D13
:100690004EE77FEA645C18BF7FEA655C29D094EA84
:1006A000050F08BF90EA020F05D054EA000C04BF02
:1006B0001946104630BD91EA030F1EBF00210020ED
:1006C00030BD5FEA545C05D14000494128BF41F08C
:1006D000004130BD14F580043CBF01F5801130BDF0
:1006E00001F0004545F0FE4141F470014FF000007B
:1006F00030BD7FEA645C1ABF194610467FEA655C2C
:100700001CBF0B46024650EA013406BF52EA0335CD
:1007100091EA030F41F4002130BD00BF90F0000FBB
:1007200004BF0021704730B54FF4806404F13204F7
:100730004FF000054FF0000150E700BF90F0000FB0
:1007400004BF0021704730B54FF4806404F13204D7
:1007500010F0004548BF40424FF000013EE700BFA7
:1007600042004FEAE2014FEA31014FEA02701FBF37
:1007700012F07F4393F07F4F81F06051704732F069
:100780007F4208BF704793F07F4F04BF41F40021C0
:10079000704730B54FF4607401F0004521F000411E
:1007A0001CE700BF50EA010208BF704730B54FF0A8
:1007B00000050AE050EA010208BF704730B511F0A9
:1007C000004502D5404261EB41014FF4806404F1E1
:1007D00032045FEA915C3FF4D8AE4FF003025FEA67
:1007E000DC0C18BF03325FEADC0C18BF033202EBEB
:1007F000DC02C2F1200300FA03FC20FA02F001FA45
:1008000003FE40EA0E0021FA02F11444BDE600BFE7
:1008100070B54FF0FF0C4CF4E06C1CEA11541DBF96
:100820001CEA135594EA0C0F95EA0C0F00F0DEF861
:100830002C4481EA030621EA4C5123EA4C5350EA46
:10084000013518BF52EA033541F4801143F4801397
:1008500038D0A0FB02CE4FF00005E1FB02E506F028
:100860000042E0FB03E54FF00006E1FB03569CF07D
:10087000000F18BF4EF0010EA4F1FF04B6F5007F83
:1008800064F5407404D25FEA4E0E6D4146EB0606F5
:1008900042EAC62141EA55514FEAC52040EA5E507E
:1008A0004FEACE2EB4F1FD0C88BFBCF5E06F1ED828
:1008B000BEF1004F08BF5FEA500E50F1000041EB5F
:1008C000045170BD06F0004646EA010140EA02000C
:1008D00081EA0301B4EB5C04C2BFD4EB0C0541EA2E
:1008E000045170BD41F480114FF0000E013C00F343
:1008F000AB8014F1360FDEBF002001F0004170BD67
:10090000C4F10004203C35DA0C341BDC04F114047F
:10091000C4F1200500FA05F320FA04F001FA05F20B
:1009200040EA020001F0004221F0004110EBD370D8
:1009300021FA04F642EB06015EEA430E08BF20EA04
:10094000D37070BDC4F10C04C4F1200500FA04F3A7
:1009500020FA05F001FA04F240EA020001F0004139
:1009600010EBD37041F100015EEA430E08BF20EAAC
:10097000D37070BDC4F1200500FA05F24EEA020EF4
:1009800020FA04F301FA05F243EA020321FA04F023
:1009900001F0004121FA04F220EA020000EBD370DA
:1009A0005EEA430E08BF20EAD37070BD94F0000FDA
:1009B0000FD101F00046400041EB010111F4801F0E
:1009C00008BF013CF7D041EA060195F0000F18BFBF
:1009D000704703F00046520043EB030313F4801FFB
:1009E00008BF013DF7D043EA0603704794EA0C0FB5
:1009F0000CEA135518BF95EA0C0F0CD050EA4106CB
:100A000018BF52EA4306D1D181EA030101F0004147
:100A10004FF0000070BD50EA410606BF104619466F
:100A200052EA430619D094EA0C0F02D150EA01367B
:100A300013D195EA0C0F05D152EA03361CBF1046BC
:100A400019460AD181EA030101F0004141F0FE415B
:100A500041F470014FF0000070BD41F0FE4141F4DF
:100A6000780170BD70B54FF0FF0C4CF4E06C1CEADF
:100A700011541DBF1CEA135594EA0C0F95EA0C0F94
:100A800000F0A7F8A4EB050481EA030E52EA03354F
:100A90004FEA013100F088804FEA03334FF0805570
:100AA00045EA131343EA12634FEA022245EA11159D
:100AB00045EA10654FEA00260EF000419D4208BF4E
:100AC000964244F1FD0404F5407402D25B084FEAFB
:100AD0003202B61A65EB03055B084FEA32024FF4A7
:100AE00080104FF4002CB6EB020E75EB030E22BF04
:100AF000B61A754640EA0C005B084FEA3202B6EBC4
:100B0000020E75EB030E22BFB61A754640EA5C0072
:100B10005B084FEA3202B6EB020E75EB030E22BF02
:100B2000B61A754640EA9C005B084FEA3202B6EB03
:100B3000020E75EB030E22BFB61A754640EADC00C2
:100B400055EA060E18D04FEA051545EA16754FEA24
:100B500006164FEAC30343EA52734FEAC2025FEA42
:100B60001C1CC0D111F4801F0BD141EA00014FF0D1
:100B700000004FF0004CB6E711F4801F04BF0143A2
:100B80000020B4F1FD0C88BFBCF5E06F3FF6AFAEBE
:100B9000B5EB030C04BFB6EB020C5FEA500C50F14E
:100BA000000041EB045170BD0EF0004E4EEA1131D1
:100BB00014EB5C04C2BFD4EB0C0541EA045170BDD8
:100BC00041F480114FF0000E013C90E645EA060E1C
:100BD0008DE60CEA135594EA0C0F08BF95EA0C0F4A
:100BE0003FF43BAF94EA0C0F0AD150EA01347FF492
:100BF00034AF95EA0C0F7FF425AF104619462CE769
:100C000095EA0C0F06D152EA03353FF4FDAE1046CB
:100C1000194622E750EA410618BF52EA43067FF41C
:100C2000C5AE50EA41047FF40DAF52EA43057FF4AC
:100C3000EBAE12E74FF0FF3C06E000BF4FF0010CB7
:100C400002E000BF4FF0010C4DF804CD4FEA410C1B
:100C50007FEA6C5C4FEA430C18BF7FEA6C5C1BD0E8
:100C600001B050EA410C0CBF52EA430C91EA030F69
:100C700002BF90EA020F0020704710F1000F91EAC6
:100C8000030F58BF994208BF90422CBFD8176FEA94
:100C9000E37040F0010070474FEA410C7FEA6C5C62
:100CA00002D150EA013C07D14FEA430C7FEA6C5C69
:100CB000D6D152EA033CD3D05DF8040B704700BF95
:100CC0008446104662468C461946634600E000BFE3
:100CD00001B5FFF7B7FF002848BF10F1000F01BDB5
:100CE0004DF808EDFFF7F4FF0CBF012000205DF880
:100CF00008FB00BF4DF808EDFFF7EAFF34BF012005
:100D000000205DF808FB00BF4DF808EDFFF7E0FF9D
:100D100094BF012000205DF808FB00BF4DF808EDEE
:100D2000FFF7CEFF94BF012000205DF808FB00BF55
:100D30004DF808EDFFF7C4FF34BF012000205DF837
:100D400008FB00BF4FEA410C7FEA6C5C02D150EA1D
:100D5000013C0AD14FEA430C7FEA6C5C02D152EAB3
:100D6000033C02D14FF0000070474FF00100704784
:100D70004FEA410212F5001215D211D56FF47873C3
:100D8000B3EB625212D94FEAC12343F0004343EA66
:100D9000505311F0004F23FA02F018BF4042704741
:100DA0004FF00000704750EA013005D111F00040CB
:100DB00008BF6FF0004070474FF00000704700BF61
:100DC00080F0004002E000BF81F0004142001FBF00
:100DD0005FEA410392EA030F7FEA226C7FEA236C09
:100DE0006AD04FEA1262D2EB1363C1BFD2184140FE
:100DF00048404140B8BF5B42192B88BF704710F094
:100E0000004F40F4000020F07F4018BF404211F036
:100E1000004F41F4000121F07F4118BF494292EA9E
:100E2000030F3FD0A2F1010241FA03FC10EB0C00CA
:100E3000C3F1200301FA03F100F0004302D5494257
:100E400060EB4000B0F5000F13D3B0F1807F06D304
:100E500040084FEA310102F10102FE2A51D2B1F1FC
:100E6000004F40EBC25008BF20F0010040EA0300F1
:100E70007047490040EB0000013A28BFB0F5000F71
:100E8000EDD2B0FA80FCACF1080CB2EB0C0200FA27
:100E90000CF0AABF00EBC25052421843BCBFD04076
:100EA0001843704792F0000F81F4000106BF80F4F0
:100EB00000000132013BB5E74FEA41037FEA226CB3
:100EC00018BF7FEA236C21D092EA030F04D092F07E
:100ED000000F08BF0846704790EA010F1CBF0020B2
:100EE000704712F07F4F04D1400028BF40F000400F
:100EF000704712F100723CBF00F50000704700F02F
:100F0000004343F0FE4040F4000070477FEA226255
:100F100016BF08467FEA23630146420206BF5FEA26
:100F2000412390EA010F40F4800070474FF0000326
:100F300004E000BF10F0004348BF40425FEA000CED
:100F400008BF704743F0964301464FF000001CE095
:100F500050EA010208BF70474FF000030AE000BFEB
:100F600050EA010208BF704711F0004302D5404229
:100F700061EB41015FEA010C02BF8446014600209B
:100F800043F0B64308BFA3F18053A3F50003BCFAB6
:100F90008CF2083AA3EBC25310DB01FA02FC634463
:100FA00000FA02FCC2F12002BCF1004F20FA02F26A
:100FB00043EB020008BF20F00100704702F120025D
:100FC00001FA02FCC2F1200250EA4C0021FA02F2BE
:100FD00043EB020008BF20EADC7070474FF0FF0CC3
:100FE0001CEAD0521EBF1CEAD15392EA0C0F93EABE
:100FF0000C0F6FD01A4480EA010C400218BF5FEA60
:1010000041211ED04FF0006343EA501043EA5111D2
:10101000A0FB01310CF00040B1F5000F3EBF4900CC
:1010200041EAD3715B0040EA010062F17F02FD2AD0
:101030001DD8B3F1004F40EBC25008BF20F00100B3
:10104000704790F0000F0CF0004C08BF49024CEACA
:10105000502040EA51207F3AC2BFD2F1FF0340EA5C
:10106000C250704740F400004FF00003013A5DDCCD
:1010700012F1190FDCBF00F000407047C2F100020E
:10108000410021FA02F1C2F1200200FA02FC5FEAFB
:10109000310040F1000053EA4C0308BF20EADC7045
:1010A000704792F0000F00F0004C02BF400010F4B7
:1010B000000F013AF9D040EA0C0093F0000F01F064
:1010C000004C02BF490011F4000F013BF9D041EA86
:1010D0000C018FE70CEAD15392EA0C0F18BF93EA88
:1010E0000C0F0AD030F0004C18BF31F0004CD8D1B2
:1010F00080EA010000F00040704790F0000F17BF39
:1011000090F0004F084691F0000F91F0004F14D07E
:1011100092EA0C0F01D142020FD193EA0C0F03D1D6
:101120004B0218BF084608D180EA010000F00040D9
:1011300040F0FE4040F40000704740F0FE4040F4B4
:10114000400070474FF0FF0C1CEAD0521EBF1CEA53
:10115000D15392EA0C0F93EA0C0F69D0A2EB030271
:1011600080EA010C49024FEA402037D04FF080530B
:1011700043EA111143EA10130CF000408B4238BFD0
:101180005B0042F17D024FF4000C8B4224BF5B1ADE
:1011900040EA0C00B3EB510F24BFA3EB510340EA2C
:1011A0005C00B3EB910F24BFA3EB910340EA9C00DA
:1011B000B3EBD10F24BFA3EBD10340EADC001B014A
:1011C00018BF5FEA1C1CE0D1FD2A3FF650AF8B42EE
:1011D00040EBC25008BF20F0010070470CF0004CFB
:1011E0004CEA50207F32C2BFD2F1FF0340EAC25026
:1011F000704740F400004FF00003013A37E792F0E7
:10120000000F00F0004C02BF400010F4000F013A44
:10121000F9D040EA0C0093F0000F01F0004C02BF3F
:10122000490011F4000F013BF9D041EA0C0195E7A8
:101230000CEAD15392EA0C0F08D142027FF47DAF41
:1012400093EA0C0F7FF470AF084676E793EA0C0F31
:1012500004D14B023FF44CAF08466EE730F0004C2F
:1012600018BF31F0004CCAD130F000427FF45CAFBF
:1012700031F000437FF43CAF5FE700BF4FEA40022C
:10128000B2F1FE4F0FD34FF09E03B3EB12620DD9B4
:101290004FEA002343F0004310F0004F23FA02F01E
:1012A00018BF404270474FF00000704712F1610FC5
:1012B00001D1420205D110F0004008BF6FF000409C
:1012C00070474FF0000070477BB972B90029BEBF6C
:1012D00000204FF0004106E008BF00281CBF6FF05F
:1012E00000414FF0FF3000F057B8ADF1080C6DE948
:1012F00004CE002909DB002B1ADB00F04FF8DDF8E3
:1013000004E0DDE9022304B07047404261EB410193
:10131000002B1BDB00F042F8DDF804E0DDE90223DE
:1013200004B0404261EB4101524263EB430370471A
:10133000524263EB430300F031F8DDF804E0DDE9ED
:10134000022304B0404261EB41017047524263EB1B
:10135000430300F023F8DDF804E0DDE9022304B0E4
:10136000524263EB4303704753B94AB9002908BF9F
:1013700000281CBF4FF0FF314FF0FF3000F00CB8D9
:10138000ADF1080C6DE904CE00F008F8DDF804E0DA
:10139000DDE9022304B07047704700BF2DE9F04734
:1013A00086468C460846089E154674461946002B0C
:1013B00040F0C1808542B2FA82F245D94AB1C2F109
:1013C000200300FA02FC954094402EFA03F343EA0E
:1013D0000C0C4FEA154EA8B2230CBCFBFEF80EFB1A
:1013E00018CC08FB00F943EA0C43994528D9EB18BF
:1013F00008F1FF3704D2994502D9A8F102072B441E
:10140000A3EB0903A4B2B3FBFEFC0EFB1C330CFBE5
:1014100000F044EA0344A04214D92C190CF1FF3324
:1014200004D2A04202D9ACF102032C44241A43EAAC
:1014300007401EB1D440002334607360BDE8F087DC
:101440004746DDE76346F1E792BB431B01214FEAC4
:10145000154EAFB2200CB3FBFEFC0EFB1C330CFB95
:1014600007F840EA0343984561D9EB180CF1FF30C7
:1014700004D2984502D9ACF102002B44A3EB080337
:10148000A4B2B3FBFEFC0EFB1C330CFB07F744EAD3
:101490000344A7424DD92C190CF1FF3304D2A742C3
:1014A00002D9ACF102032C44E41B43EA0040C0E73C
:1014B000C2F120039540944020FA03F12EFA03F381
:1014C0004FEA154E9040AFB20343B1FBFEFC0EFB5A
:1014D0001C10190C0CFB07F841EA0041884522D981
:1014E00069180CF1FF3004D2884502D9ACF1020032
:1014F0002944A1EB08019BB2B1FBFEFC0EFB1C11C1
:101500000CFB07F743EA01439F420ED9EB180CF19D
:10151000FF3104D29F4202D9ACF102012B44DB1B04
:1015200041EA004193E76046E3E76146F7E760463A
:10153000A4E76346B8E7834206D916B900210846F6
:101540007CE7C6E900E0F9E7B3FA83F78FB9834295
:1015500001D3724508D8BEEB020460EB03030120FF
:101560009C461EB9002169E73846FAE7C6E9004CF7
:10157000F8E7C7F1200CBB400EFA07F522FA0CF48D
:101580002EFA0CF1BA401C4320FA0CF3B8404FEA93
:10159000144901431FFA84FEB3FBF9F809FB183024
:1015A0000B0C08FB0EFA43EA00439A4540D9E318B6
:1015B00008F1FF3004D29A4502D9A8F10200234471
:1015C000A3EB0A0389B2B3FBF9F809FB183308FB54
:1015D0000EFE41EA03418E452CD9611808F1FF3314
:1015E00004D28E4502D9A8F10203214443EA004007
:1015F000A1EB0E01A0FB02984145CE46434602D323
:1016000006D14D4504D20138B9EB020E68EB040354
:10161000002EA7D0B5EB0E0261EB030101FA0CFC22
:1016200022FA07F3F9404CEA0303C6E9003199E7CF
:101630004046C5E74346D9E710B5374BBAB00193EA
:10164000364B374A374900930120374B07F0E4F90E
:1016500006A807F045F9002206AB11460BA807F0D3
:101660004DF8024620B13921304812F0F7FAFEE772
:101670002F4A30490BAB04A807F08AF8024620B184
:101680003D212A4812F0EAFAFEE707F0E3FE294B73
:10169000024604A9284807F0B7F8024620B14021C5
:1016A000224812F0DBFAFEE7244B0BA9009303A8B3
:1016B00017A3D3E9002307F0DBF8024620B1492144
:1016C0001A4812F0CBFAFEE7012206AB0BA918A8C4
:1016D00000F03AF8024620B15121144812F0BEFA47
:1016E000FEE703A918A806F019FE024620B1522110
:1016F0000E4812F0B3FAFEE7114B124C1860642248
:10170000002318A806F09AFE204603F0EBFEF6E749
:1017100000CA9A3B00000000956400085BBB01080A
:10172000256400089806002057BB0108A5D70108CA
:1017300031D90108CED701081452002081290008B0
:1017400010520020A086010000285BD02DE9F04354
:101750000D46B1B0002951D00446184616461F4622
:1017600007F0CEF8002849D0002E47D00FF2A80984
:10177000D9E90089882226490EA8FEF739FD88227A
:101780000EA92046FEF734FD25606D466846A6602A
:101790000CF0DCFD0FCD04F1140CACE80F000FCD04
:1017A000ACE80F000FCDACE80F002B68B001CCF80F
:1017B0000030C4E91A8927613B683969984760603D
:1017C00010B3002500E0606800EB8510314601355C
:1017D00006F082FFAE42F6D104F1480006F072FF37
:1017E00000230C496268C4E91E132AB122691AB1A8
:1017F000A2680AB184F88030002000E00B2031B0EC
:10180000BDE8F0830B2070470A20F8E7AFF30080B3
:10181000E8C60108D17F000800CA9A3B000000001A
:10182000002800F04B812DE9F04F066B05468FB084
:10183000002E00F0FB8019464368924673B9C368D6
:1018400063B9436953B9C36943B9436A33B9C36AD6
:1018500023B940F285300FB0BDE8F08FBAF1010F27
:1018600071F10003D6F840C0C0F2D880D0460F46D0
:10187000BCF1000F00F0288100240791A3463046F8
:101880006146CDE9054A14E00028E4D1DDE90A23E8
:10189000424573EB070103DA1F4601239046059387
:1018A000286B016C01344BF1000B8C427BF100037F
:1018B00030D22B69A60053F8242003EB8403002ABE
:1018C000F0D0EA68D0F814C022445CF822200AA9BB
:1018D0003AB103694CF823200369013303612B6992
:1018E00033444FF0FF396FF0004ACDE90A9A186887
:1018F0000CF0F2FC40F221339842C5D100222B6952
:1019000001349A51286B4BF1000B016C8C427BF136
:101910000003CED3DDE906A15AEA01030646DDF84D
:10192000149040F0888000200021CDE90A01CDE923
:101930000C010AAB0293F26B06F13403CDE90032DD
:1019400006F1100106F11C0306F12802301D0FF00C
:1019500089FA2B6B80461A6CCAB1002427462A6983
:10196000A60052F8240070B10DF127018DF8277000
:101970000CF07AFC00287FF46EAF9DF827300BB98D
:101980002A6993512B6B1A6C0134A242E7D838F0C4
:10199000020066D16C6802463CB1996851F8221089
:1019A00000296AD00132A242F7D3EC68002244B188
:1019B0002B6B596951F82210002967D00132A242DD
:1019C000F7D3EC69002244B12B6B196A51F822104D
:1019D000002963D00132A242F7D36C6A002244B1DD
:1019E0002B6BD96A51F8221000295FD00132A24234
:1019F000F7D3EC6A002244B12B6B996B51F822109B
:101A0000002932D00132A242F7D3B8F1020F7FF49D
:101A100022AF89F0010A4FEA4A001CE7BCF1000F2F
:101A200054D04FF0FF386FF0004725E74FF4617056
:101A30000FB0BDE8F08FBAF1010F71F100033FDB89
:101A400027A3D3E90023002FABBF4046002039462F
:101A50000021FFF739FCCDE90C23CDE90A010AABDF
:101A600068E701200FB0BDE8F08FAB6A43F82210A1
:101A7000EC6A0132A242BFD3C7E72B6843F82210B9
:101A80006C680132944290D92B6B86E7AB6843F8BF
:101A90002210EC68013294428AD892E7AB6943F88D
:101AA0002210EC69013294428ED896E72B6A43F8F3
:101AB00022106C6A0132A24292D39AE70B2070473F
:101AC0004B46002BBCD135E7E146B9E75AEA0102A3
:101AD00001D1E14627E76346E1462BE7AFF30080FB
:101AE00000CA9A3B000000002DE9F04F016C9BB04A
:101AF00016461F46279D0490CDE9026749B1426C06
:101B00000123044693404A608B6017F05FF800237E
:101B10002364B7F10009C0F2B68000232B607E4B2E
:101B200033EA090300F0BA800022DDE902341846E6
:101B300021460023CDE90801FFF7D2F8804668B1BD
:101B40000123269A1360289B13B1744B289A1360C3
:101B5000DFF8CC8140461BB0BDE8F08F18AB04988D
:101B6000019319AB0093DDE9082317F05DFB834671
:101B70005FEA195540F0A980DDE91885454405F272
:101B80003243202B40F34D82C3F1400309FA03F99D
:101B900005F2124326FA03F349EA0300FEF7BEFDFD
:101BA000013D0123A1F1F871109300225D4BFEF776
:101BB00077FC53A3D3E90023FEF72AFE52A3D3E90F
:101BC0000023FEF76FFC06460F462846FEF7B6FDDB
:101BD0004FA3D3E90023FEF71BFE02460B46304617
:101BE0003946FEF75FFC06460F46FFF7C1F80022B4
:101BF0008246002330463946FFF77CF8002840F043
:101C00000382A8EB0508BAF1160F08F1FF3306931B
:101C100000F2A781444E06EBCA06DDE90801D6E9C9
:101C20000023FFF767F8002800F0848000230AF102
:101C3000FF3A0F9308F1FF33002BC0F29981002384
:101C40000A93BAF1000F7BDA0A9BCDF82CA0A3EB24
:101C50000A030A93CAF100034FF0000A0E93249B73
:101C6000092B77D8052B40F3E181043B002724930F
:101C7000249B023B032B00F25986DFE813F0540447
:101C8000510447042C04012329F000492B60224B06
:101C9000CDF80C9033EA09037FF446AFC9F313097A
:101CA00042F20F73269A59EA060913601DD0289B49
:101CB000DFF87880002B3FF44DAF08F10303289A3A
:101CC000404613601BB0BDE8F08FDDE90812CDF887
:101CD0004080A5F2FF35C2F313030846DDF86080AB
:101CE00043F07F5141F440115FE7289BDFF84080CB
:101CF000002B3FF42FAF08F10803E0E7AFF30080BB
:101D000061436F63A787D23FB3C8608B288AC63F01
:101D1000FB799F501344D33F0000F07FD5D50108D5
:101D2000D4D501080000F83FE8C7010824D601080F
:101D300018D60108B8F1000F40F3B1840F900A9053
:101D4000069BCDF82CA05344069300230E93249BAE
:101D5000092B87D900230127CDE924334FF0FF3326
:101D60000C970793049B00215964079B11930498D7
:101D700016F006FF0590002800F0E185079B0E2B6A
:101D80008CBF002707F00107DDE904321A64002F39
:101D900000F01B810B9A002A40F34A81BC4E02F0EE
:101DA0000F03D4054FEA221806EBC303D3E90067FB
:101DB00040F17083B74B08F00F080325D3E90823DF
:101DC000DDE90801FEF74EFECDE91201B8F1000F82
:101DD00012D0DFF8C09218F0010F08D03046394613
:101DE0000135D9E90023FEF713FD06460F465FEAE9
:101DF000680809F10809EED132463B46DDE91201D7
:101E0000FEF730FE804689460F9B43B10022A24B6D
:101E100040464946FEF76EFF002840F047842846BA
:101E2000FEF78CFC42464B46FEF7F2FC9B4B002231
:101E3000FEF738FB079B0646A1F15077002B00F018
:101E4000AB80079B0B9C1293059B404612995D1C2F
:101E5000CDE914678E4E06EBC10353E90212CDE9BA
:101E600016124946FEF784FF00F13007FEF766FCC4
:101E700002460B4640464946FFB2FEF711FB894633
:101E80000C998046DDE91623002900F00F8100201F
:101E90008349FEF7E7FDDDE91423FEF701FB059E0C
:101EA00042464B46377006460F46FEF741FF002874
:101EB00040F02F850023CDF858A0CDF850B09A46B9
:101EC000DDF848B012942BE00AF1010ADA4580F2FD
:101ED000BD84304639460022724BFEF799FC002241
:101EE000704B06460F4640464946FEF791FC894630
:101EF0008046FEF73DFF0446FEF720FC02460B46F7
:101F0000303440464946FEF7CBFA32463B4605F8A8
:101F1000014B80468946FEF7EDFE002840F09C8488
:101F200042464B4600205C49FEF7BAFA32463B4631
:101F3000FEF7E0FE0028C7D0DDF850B02F46129C17
:101F4000059902E08F4200F05F843A4617F8013DA0
:101F5000392BF7D00133DBB23B70DDF814800592EA
:101F60006BE101230F9308F1FF33002BBFF667AE3F
:101F7000C8F101030A930023069362E62846FEF7A0
:101F8000DDFB42464B46FEF743FC0022434BFEF787
:101F900089FA0646A1F15077404649460022424B55
:101FA000FEF77EFA32463B4680468946FEF7C0FE83
:101FB000002840F0AD8340464946324607F10043D1
:101FC000FEF798FE002840F0D5810B9A199B0E2A47
:101FD00002DC002B80F2AD810C9A002A00F0B58063
:101FE000249A012A40F38583079A0E9B551EAB4223
:101FF000C0F2C782002AA3EB050580F25B840A9B2E
:10200000079AA3EB0208C9E25046FEF797FB324657
:102010003B46FEF765FE00287FF4F3AD0AF1FF3A78
:10202000EFE5C3F1200306FA03F0B7E501271FE649
:1020300000F0A3820B9B164E5D4205F00F0306EBEA
:10204000C303DDE90801D3E90023FEF7E1FB2E110C
:10205000CDE9120100F052840E4C00230225804687
:102060008946F00709D5404649460135D4E90023A1
:10207000FEF7CEFB3B4680468946761004F1080405
:10208000EFD1002B7FF4C0AEDDE91289BCE600BFC2
:10209000E8C70108C0C701080000F03F00001C406D
:1020A0000000E03F0000244000001440DDE914017E
:1020B000FEF7AEFB059B1F70129B012BCDE90C01B7
:1020C00000F00984129F059BCDF840A01F44002218
:1020D000AA4B40464946FEF79BFB89468046FEF7E1
:1020E00047FE8246FEF72AFB02460B460AF1300AFB
:1020F00040464946FEF7D4F905F801ABAF428046A9
:102100008946E4D1DDF840A000229D4BDDE90C01B9
:10211000FEF7C8F942464B46FEF7ECFD002840F0BA
:102120007B8300209649DDE90C23FEF7B9F942468E
:102130004B46FEF7FDFD002840F01982199B002B4D
:1021400003DB0B9B0E2B40F3F58000230E9DDDF887
:1021500028801E460C93B8F1000F0DDD069900296A
:102160000B4609DD41450A9AA8BF4346D21AA8EB9F
:102170000308CB1A0A9206930E9B53B10C9B13B122
:10218000002D40F01E8259460E9A049816F0AEFEBD
:1021900083460121049816F0C9FD0746BAF1000FE5
:1021A00040F06381249B012B40F37A81012306993F
:1021B0000B4413F01F0308D0C3F12002042A00F3DC
:1021C000B5810AD0C3F13C0300E01C230A9A98446D
:1021D0001A440A92069A1A4406920A9B002B05DDBD
:1021E00059461A46049816F0DBFE8346069B002BE0
:1021F00005DD39461A46049816F0D2FE0746249BA0
:10220000022B0F9BD4BF00250125002B40F0BE8080
:10221000079B002B24DC1DB3079B002B00F08F8154
:10222000259BDDF81480DC433946049816F0CEFC7B
:102230001EB13146049816F0C9FC5946049816F0B0
:10224000C5FC00220599631C0A70269A1360289B1E
:10225000002B3FF47FAC404619601BB0BDE8F08F07
:102260000C9B002B00F0AF80B8F1000F00F3C08191
:10227000BAF1000F40F0D382B146059D079C6B1E5A
:102280001C44029B089403F00103049C0A93394602
:10229000584615F075FE31468246584616F0F4FE53
:1022A0004A4639468046204616F00EFFC26801466F
:1022B0000AF13003002A40F0A281CDE90603584616
:1022C00016F0E2FE06990690204616F07FFC249B4D
:1022D000069A52EA0301079B40F0C2810A9A002A3B
:1022E00000F0F282B8F1000FC0F2AD81089AA84662
:1022F000AA4208F8013B00F0D282594600230A2284
:10230000204616F06DFC4E45834631464FF00003E3
:102310004FF00A02204600F09D8116F061FC49460C
:10232000064600230A22204616F05AFC45468146FE
:10233000ADE7144E0B9B06EBC306D6E90034CDE99E
:102340000234259B002B80F2E881079B002B00F3D1
:10235000E481079B73B900220B4BDDE90201FEF714
:1023600057FA02460B46DDE90801FEF7CDFC0028CE
:1023700000F0CE8100273E4652E700BF0000244017
:102380000000E03FE8C70108000014403946584605
:1023900016F07AFE0028BFF63BAF0B9B59460A2287
:1023A0000498013B0B93002316F01AFC0C9B834608
:1023B000002B40F09282119B002B119B079302DCB3
:1023C000002D7FF429AFDDF814800125079CDDF88E
:1023D000109007E0594600230A22484616F000FCF8
:1023E000013583463946584615F0CAFDA54200F12D
:1023F000300308F8013BEDDB079A0025002ACCBF2B
:1024000090464FF00108059A9044594601220498DD
:10241000029316F0C5FD3946834616F035FE0028B6
:1024200040F3E481059A02E0904500F0D48118F869
:10243000013CC24608F1FF38392BF5D001330B9C23
:1024400088F800303946049816F0C0FB002E00F0E2
:10245000C8812DB1B54203D02946049816F0B6FBC9
:10246000DDF81480CDF814A0E3E601465246049846
:1024700016F03CFD249B0746012B40F395804FF05E
:10248000000A3B6907EB8303186916F0FBFBC0F1F8
:1024900020038CE6DDE908340225CDE9123495E409
:1024A000029B002B7FF482AEDDE90212C2F313031C
:1024B000002B7FF47BAEAD4B134033B10A9B01334D
:1024C0000A93069B013306930123BAF1000F40F0F3
:1024D000F9819A466AE601230C93259B0B9A1344D3
:1024E00011930133012B1D460793B8BF0125172D0A
:1024F00040F31382012204235B001146013203F1F1
:102500001400A842F8D9049B596430E401230C93C9
:10251000259B002B40F3BE801D4611930793E6E7F1
:1025200000230C93D9E700230C93F1E7C3F11C03BC
:102530000A9A19441A4498440A9206914DE639467B
:102540000522049816F04CFB07465846394616F00B
:102550009BFD00287FF764AEDDF81480059B0B9C83
:10256000013301340593312388F800305CE63A46A4
:1025700017F8013D302BFAD0EFE40225DDE9088998
:1025800042E40E9B0E95EB1A00259A44DDE90632D3
:10259000134406930A9B984613440A930121049816
:1025A00016F0C4FB0646D6E5029B002B7FF467AF0E
:1025B000DDE90201C1F313030A46002B3FF47BAFB0
:1025C0005DE7049C31462A46204616F08FFC0646FD
:1025D0005A462046314616F0D7FB594683462046D8
:1025E00016F0F4FA0E9B5B1B0E933FF4D2ADCAE5D6
:1025F00031464246049816F0D3FC064638E6049865
:10260000069316F0E3FAB8F1000F069B08DB029A76
:10261000249902F0010248EA010852EA08022ED188
:10262000594601220498029316F0BAFC39468346B3
:1026300016F02AFD0028029B40F36581392B00F03B
:1026400031810AF13103AA460B9C35464E460AF801
:10265000013BF7E616F0C4FA45460646814616E603
:10266000B8F1000FC0F25E81249948EA01080A9986
:1026700051EA080800F05681002A7FF737AE392B5F
:1026800000F01081AA46013335460B9C4E460AF8ED
:10269000013BD7E6012325930793FFF763BBC8F1FE
:1026A000010306900F900A93FFF74ABB079B002B8C
:1026B0003FF464AC119B002B7FF787AC0B9A40462C
:1026C00049461293541E2A4B0022FEF7A1F8804679
:1026D0008946681CFEF732F842464B46FEF798F8EA
:1026E0000022244BFDF7DEFE0646A1F15077FFF7EE
:1026F000ABBB109A002A00F08B8003F23343069A9A
:102700000E9D1A4406920A9A90461A440A9245E788
:102710000027DDF814803E4620E7DDE90889DDE981
:10272000022340464946FEF79DF9059FFEF720FB30
:102730000546FEF703F8DDE90223FEF769F80B46CC
:10274000024649464046FDF7ABFE05F1300307F867
:10275000013B079B012B00F08980CDF818B00126C2
:10276000DDF81C90DDE902AB22E000BF0000F07F45
:102770000000244000001C4052465B46204629468B
:10278000FEF770F90136FEF7F3FA8046FDF7D6FF43
:1027900052465B46FEF73CF80B4602462946204669
:1027A000FDF77EFE08F13003B14507F8013B5AD032
:1027B0000022704BFEF72CF80022002304460D4641
:1027C000FEF78EFA0028D7D0DDF818B0DDF81480B7
:1027D0000B9C059731E50B9C3123059A013413704E
:1027E00030E6DDF81480CDF814A026E503D1029B75
:1027F000DB073FF517AE18F8013CC24608F1FF3879
:10280000302BF8D00B9C1DE601343123FFF7A4BB1D
:10281000189BC3F1360372E70599FFF796BB716801
:10282000049816F0ADF90546002800F08F80336952
:1028300006F10C010C3002339A00FDF7D9FC294651
:102840000122049816F0ACFB814616E5DDF858A08D
:10285000DDF850B0FFF7B9BBDDF81480DDF850B0FB
:10286000129C0595E9E4DDF818B0454602460B4692
:10287000FDF718FE80468946DDE90223FEF758FA87
:1028800048B940464946DDE90223FEF729FA002807
:102890009CD0E9079AD50B9C0599FFF756BB3546A6
:1028A0004E46B2E5A84639233546059A4E4608F805
:1028B000013BBCE5069B134406930A9B98461344D0
:1028C0000A936BE69A46DCE5392BEBD0B8F1000FA2
:1028D0003FF7B7AEB7E62F4616E4314600230A228B
:1028E000049816F07DF9119B0646002B119B079367
:1028F0003FF7BAAC002D7FF48FACB5E4DDE9128967
:102900000225FFF781BA7FF49EAEDA077FF59BAE12
:1029100094E6DDF8148005958FE40021049B59644A
:10292000FFF725BA002A3FF77BAE8CE6049B002513
:10293000184629465D6416F023F9059068B90E4BD8
:1029400000224FF4D5710D4817F012FD02460A4BD4
:1029500040F2EA21094817F00BFDDDE90432259524
:102960001A644FF0FF33012211930C920793FFF783
:102970002CBB00BF0000244028D601083CD601082B
:1029800008B570B100220749074805F00FF9024663
:1029900018B12521054811F061F9024A1368013385
:1029A000136008BD10520020145200207AD701088D
:1029B0002DE9F04F91B0009302F004030293C2F3AB
:1029C000C2030133840705460E46DDF86880039292
:1029D000059340F0BB81041D30B1072909D86FF081
:1029E0001B0011B0BDE8F08F01F007063444C6F1BA
:1029F0000806009B4FF000094FF0040A591E4FF0E3
:102A0000FF334F460193CB465346CDF810900DB19E
:102A1000009A22600598002800F3E8809848009A00
:102A2000824203D397488242C0F0E080039AA4EB2D
:102A3000050E92074FEA9E0000F103810F2F00F26E
:102A4000B180002D00F0058107F140020DEB020C72
:102A5000019A0CF8200C0CF8102C0498013004900A
:102A6000E7E07A285DD84B280ED8472859D829287E
:102A70002DD8252852D054D820287AD02338D0F108
:102A8000000B4BEB000B74E04C382E2849D8DFE8E4
:102A900000F07048484848484848484848484B482B
:102AA0004848484848484859484B4B595959704B31
:102AB0006D487048184B184848827F4B48484B482F
:102AC0007F0000204FF0000B4FF0040A38E0012295
:102AD0002A38C0B202FA00F010EA0E0F49D110F005
:102AE000625C2FD110EA020B43D06046013C544493
:102AF000B4FBFAF40AFB04F4002D61D0A3EB050C3F
:102B0000A444B4453FF66BAF002868D1042B47D1ED
:102B100058F8043B2360042304342AE0019A013A64
:102B200001924FF0000B24E011F8010C6C2834D115
:102B3000002011F8023C83466C2BC5D14FF0080AE7
:102B40005346D3E708F1070828F00708073424F0B4
:102B50000704F8E802AB35B106982044B0423FF6CE
:102B60003EAFC4E900AB4FF0000B08344FF0080A49
:102B7000534611F8010F002878D0BBF1000F7FF405
:102B800070AF2528F5D14FF0010B019B0133019364
:102B90004FF0040AECE7584694E700208346A5E787
:102BA000082B02D06FF015001BE708F1070828F08A
:102BB0000708F8E80223C4E9002308230834D8E70B
:102BC00068B9042B02D108F10408A4E7082BE9D165
:102BD00008F1070828F0070808F10808EDE7059A4A
:102BE000013A059258F8042B009210E7039A9007D7
:102BF00020D54FF0010CA4EB050E4FEA9E00BEF568
:102C0000007FCFD20F2FCDD8F5B107F140020DEBE9
:102C1000020E019AC0B20EF8200C0EF8102CBCF176
:102C2000000F3FF41AAF60F07F000EF8200C09F19E
:102C300001090137C5F108024FF6DA7E0434069225
:102C400097E74FF0000CDAE7BCF1000F01D0013636
:102C5000EFE7029802360028EBD10098CDE9063163
:102C600011F058FBDDE906310644E2E7631BB3F5DA
:102C7000806F97D245B9A6F10804E018B1E600BF0D
:102C800058C0010894E10108029A9B0828602B7043
:102C90009DF81030C2B1EB7085F80290B9F1000FC9
:102CA00005D0002208A8C5F1010C97420ED14FF0C3
:102CB000000AC5F101030DF1200801930DF1300B5D
:102CC000574512D1601B8CE66B70E5E710F8013BAD
:102CD000190608D50CEB040EB64503F07F033FF64A
:102CE0007EAE04F8013B0132DFE7B9F1000F03D0FB
:102CF00098F90020002A17DB029BD3B11AF80B20A9
:102D000004F8012B0022019B18191044B0423FF631
:102D100066AE98F80000009904F8010B2046039273
:102D2000FDF766FA039A14440AF1010A08F1010852
:102D3000C6E798F8002055F822300093029B0098CF
:102D400045F8223011F0E6FA421CDCE76FF00D0086
:102D500047E600BF2DE9F04F97B000AFD7F880B03D
:102D60003B62CBF3C0030446894690F802A0FA62A6
:102D7000BB6141B9457800780AEB800020444D459D
:102D800017D8A0EB0409E378FB61BAF1000F02D079
:102D90001BF0010F16D1FB6953BBFB6A1BB14946FF
:102DA00020463A6A98474D4628465C37BD46BDE8FE
:102DB000F08F461C304611F0ADFA0130304409F175
:102DC0000109DCE7626823787A62FA6A990079611E
:102DD00004EB8301002A40F001810E464FF0000809
:102DE0004D4601EB0A094E454CD101EB0A0610E0B5
:102DF0001BF0020FD1D023789A007A61626804EB4D
:102E000083017A62FA6A002A77D14D46904601EB37
:102E10000A061BF0050F0CBF02230123FB62FB69AE
:102E200006EB430A0BF00203BB625645BCD016F812
:102E3000021B16F8013C54F82390994B994502D394
:102E4000984B994536D3BB69002B40D0786A17F070
:102E5000E6FB00283BD0E9468AB06A46924B5361B4
:102E60007B6AC2E906314FF4007313848F4B42F83A
:102E7000103F00234FF412518D4801F085F9023DB7
:102E8000CD46D2E716F8013BF96254F8230011F061
:102E900041FAD7F88430F96A01304BB1D7F888305D
:102EA00098453EBFD7F8843023F8180008F1010890
:102EB000054498E7BB6923B1786A17F0B0FB002896
:102EC000C9D11BF0010F05D1FB6AED1AADE7BB6A52
:102ED000002BAAD0484611F01DFAD7F8843053B120
:102EE000D7F8883098453FBFD7F88420431C22F894
:102EF000183008F10108054497E7BAF1000F73D0C4
:102F00001BF0040673D0D046002607F14800524655
:102F10003B61B962FDF76CF9B96A3B6901EB0A02E2
:102F2000BA62FA69F9695200FA60BA6A02EB4102C0
:102F30003A610BF00202BA603A69B96A8A4258D122
:102F400062781BF0020F18BF00217A6208BF4FEAB7
:102F50005801B2181BF0010FD2B240F09F801BF055
:102F6000040F14BF40460020BB616270A070E17086
:102F700020463A6A7969FB6A9847051EFFF614AF46
:102F8000BB69414623707B6A3A6A6370FB6984F8C7
:102F900002A0E37007F14800FB6A9847B0F100080F
:102FA000C0F2BA807B69A9EB0A01C91AFB683A6AC8
:102FB000C91AD7E90A0398470028C0F2AF804FF03A
:102FC000000BA84408EB000507F1380AB34571D39C
:102FD00000213A6A0846FB6A9847E5E656464FF0F4
:102FE000000807F1380092E75646D04696E7B0460B
:102FF00094E7BA6A12F8021B12F8015CBA6254F83C
:103000002500274A904202D3264A90421ED3BA692D
:1030100032B1786A7B6017F002FB7B6800288BD1A5
:10302000BA6802BB08F1280207F1300C08F1010070
:10303000944407F1580208F1020852FA80F00CF8A3
:10304000101C5FFA88F800F8105C75E7BA693AB1AD
:10305000786A7B6017F0E3FA7B6800287FF46CAF36
:103060001BF0010F09D006F1280207F13000711C96
:10307000161806F8205CCEB25EE71BF0040F3FF492
:103080005BAF08F1280207F1300008F1010102EB03
:10309000000808F8105C5FFA81F84DE7002063E74C
:1030A00058C0010894E10108E5D7010804000001B7
:1030B00094C501081BF80A3054F8239087F837307C
:1030C000D7F884302BB3D7F888309B4521D2D7F876
:1030D000843033F81B8001213A6AFB6A07F137001C
:1030E000984700281ADB0544B8F1000F06D148467E
:1030F00011F010F900F101081FFA88F8414648461E
:103100003A6AFB6A9847002808DB05440BF1010B7B
:103110005CE74FF00008DEE7454645E6054643E636
:10312000014B1860704700BFA006002030B5002595
:1031300087B0CDE903010446009503A9054805952C
:1031400000F0AEF9DDE904309842B8BF255407B06D
:1031500030BD00BF6DA601080F2808B506D917F0CD
:10316000DEFF092303604FF0FF3008BD3022044B1F
:1031700002FB0033D3E8AF3F002BF0D00020F4E790
:10318000AC0600200EB42DE9F741302545431B4C19
:1031900005F10C0626444FF0FF324FF0FF3304EBED
:1031A00005080746304617F0B4FAD8F804306059DD
:1031B0000AAA40F20111DB6801929847051E10DB54
:1031C000D8F82C3003F47042B2F5E04F05D011D896
:1031D00003F45043B3F5804F03D1302303FB07447E
:1031E000A562304617F097FA284603B0BDE8F041D3
:1031F00003B07047B2F5004FEEE700BFA406002011
:103200002DE9F74F0C9E0546884691460193FFF73E
:10321000A3FF002855DB302101FB05FB2A4C0BF1F5
:103220000C0727444FF0FF334FF0FF32384617F0BA
:1032300070FA04EB0B03DB6A03F47043B3F5E04F61
:1032400014D11EBB4FF0010A0BF12801214430209C
:103250006843019A23185B68E2B1D3F804B0BBF16C
:10326000000F1AD117F05BFF052303E066B117F0DA
:1032700056FF86234FF0FF380360384617F04BFAAD
:10328000404603B0BDE8F08FB246DDE731464FF06F
:10329000010ADCE7D3F800B0E1E70B684A46414693
:1032A0002058D84700288046E7DDBAF1000FE4D067
:1032B000002EE2D1302303FB0544A36A0344A3623A
:1032C000DBE74FF0FF38DBE7A40600203023434361
:1032D00030B50D4908330B44D3E8AF2F92B1541EDB
:1032E000D3E8EF5F954204D1C3E8EC4FBCF1000F87
:1032F000F6D1F1D1012A05D13023584300230A1811
:103300000B50536030BD00BFA4060020F8B5054641
:10331000FFF722FF002824DB30246C43124F04F116
:103320000C063E444FF0FF324FF0FF33304617F0AB
:10333000F0F93A1953689B688BB1D26A385912F484
:10334000404F0AD0294698470446304617F0E3F923
:103350002846FFF7BBFF2046F8BD9847F4E71C4618
:10336000F3E74FF0FF34F6E7A406002070B50446FB
:103370000D46FFF7F1FE00280DDB302303FB04F0C0
:1033800006492B460C184FF4837209586068BDE853
:10339000704017F0AFB94FF0FF3070BDA4060020A9
:1033A00073B504460D461646FFF7D6FE00280EDB21
:1033B0003022084B40F2011102FB04339B6A2A467B
:1033C000009320463346FFF7DDFE02B070BD4FF09C
:1033D000FF30FAE7A4060020F0B5024601680A278C
:1033E0000020074E0B461C780131355D6D0701D476
:1033F0001360F0BD07FB0043A3F13000F2E700BF0C
:103400008DD401082DE9F84F15469A46D378234A02
:103410006F2B12F803B081460F460BF0030B2BD035
:1034200026D8582B0CBF10260A26DDF828803246F5
:10343000002348463946FDF797FF092A08F1FF386F
:10344000D4B21ED83034B145E4B277F1000788F821
:10345000004001D3D04511D82B789B0605D5082E06
:1034600015D1AB7843F00803AB704046BDE8F88F48
:1034700003F0F703702BD5E70826D6E781460F4601
:10348000D5E7BBF1010F0CBF37345734DBE7102E03
:10349000EBD1AB7843F01003E6E700BF8DD4010811
:1034A0002DE9F04F8A4616461C46002597B003903A
:1034B000307808B9284655E325280AD05146039BA1
:1034C00098470028C0F24E83731C01350493049E74
:1034D000EEE71822002110A810F060FB7378252B6E
:1034E00000F0A380002398469E469C461846711C17
:1034F0000F4611F8012B2B2A00F0C68000F2BD8088
:10350000202A00F0C480232A00F0C4802BB19DF84B
:10351000483043F040038DF84830B8F1000F05D033
:103520009DF8483043F020038DF84830BEF1000F7D
:1035300005D09DF8483043F010038DF84830BCF1B9
:10354000000F05D09DF8483043F008038DF848304F
:1035500028B19DF8483043F004038DF848309DF8B9
:10356000483003F04401442903D16FF386138DF8EA
:1035700048309DF848302A2A43F0800309978DF897
:10358000483040F08C809DF8493043F001038DF8BD
:1035900049307B1C1A782E2A0CBF012100219DF88E
:1035A000492061F341028DF849200CD15A1C09923F
:1035B0005A782A2A40F083809DF84920023342F04D
:1035C00004028DF849201A786C2A00F0A48000F2D9
:1035D0008680682A00F08C806A2A00F0A5804C2A38
:1035E00000F0AA801A4612F8013B782B04928DF85D
:1035F0004B309DF8492000F217816D2B00F2A98015
:10360000692B00F21181572B00F2BE80412B03D0B1
:10361000453B022B00F2088104229DF84A3062F3F8
:1036200002038DF84A300123CAE08DF84B30B31CF9
:1036300004939DF84930D90740F1FD8054F8048B7C
:10364000B8F1000F07DA9DF84820C8F1000842F0F1
:1036500004028DF848205A0740F1F68054F804BB64
:10366000BBF1000F80F2F5809DF849306FF3410304
:103670008DF849304FF0FF3BEBE02D2A0DD0302A7A
:103680007FF444AF012333E74FF0010C30E74FF0F4
:10369000010E2DE74FF001082AE7012028E709A8CD
:1036A000FFF79AFE099BBB423FF474AF9DF8482098
:1036B0001390C00F60F341028DF848206AE709A813
:1036C000FFF78AFE9DF848301490C3F3400242EAA7
:1036D000D07262F341038DF84830099B73E7742A76
:1036E00026D07A2A7FF47EAF06219DF849200CE08F
:1036F0005A78682A9DF8492006D1012161F3C60253
:103700008DF8492002336DE7022161F3C6028DF87E
:103710004920013366E75A786C2A9DF8492001D187
:103720000421EBE70321F0E705219DF84920ECE7B0
:1037300007219DF84920E8E7BDF8482022F4F0422F
:1037400022F0020242F4804242F00202ADF8482028
:10375000DFE76E3BD9B201238B4040F282410B423E
:1037600038D113F0240F52D1DF075DD503219DF826
:103770004A3061F302038DF84A3002F07803A3F176
:103780004000434243411BE00120A3F15801C9B26C
:1037900000FA01F111F4624F7FF43EAF40F60107E9
:1037A00039421DD111F4043F3ED09DF84A3060F3F8
:1037B000020302F07802402A8DF84A3034D0002308
:1037C0009DF84820C2F340010B4363F341028DF89A
:1037D00048202EE702219DF84A3061F30203E8E712
:1037E00002209DF84A1002F0780260F30201402A9C
:1037F0008DF84A1002BF9DF8481041F001018DF884
:103800004810632BDBD1131E18BF0123D8E7032117
:103810009DF84A3012F0780F61F302038DF84A30B8
:1038200014BF01230023CBE79DF8483043F0010388
:103830008DF84830C3E79DF94820002AACBF4FF00F
:10384000FF38DDF84C8006E79F077FF513AFDDF802
:1038500050B00023CDE913339DF84A309DF849104C
:1038600003F00703012BC1F3C30132D1CB1E042B9C
:1038700004D8DFE803F02045452020002368012913
:103880004FEAE372CDE910321BD19DF94030DA17CF
:10389000CDE9103204349DF8483013F003074FD0BF
:1038A00032465146049B039816F047FF0028C0F2A9
:1038B000598105440BE654F8043BDA17CDE9103280
:1038C000E9E70229E6D11AB243F3C033CDE9102368
:1038D000E0E7022B24D1CB1E042B04D8DFE803F051
:1038E00018101018180001294FF0000254F8043B7A
:1038F00014D00229CDE91032CDD19BB21093CAE782
:10390000073424F00704F4E80223CDE91023C2E7CA
:1039100054F8043B109300231193BCE7DBB2CDE7CE
:10392000042B08D1073424F00704D4E90023083419
:10393000CDE91023AFE7032BADD154F8043BDDE70D
:103940009DF84B0078283FF6C2AD62281ED8252886
:1039500050D058287FF4BBADDDE910010DF13E03D6
:10396000009312AA0AABFFF74DFDBBF1000F814691
:1039700080F2C180B9F1000F3FF4A9AD0DF13E0610
:10398000A6EB0903002F7BD0013379E063381528BB
:103990003FF69DAD01A252F820F000BF6F3A00083B
:1039A000CD3A0008CF340008CF340008CF340008E7
:1039B000CF340008CD3A0008CF340008CF340008D7
:1039C000CF340008CF340008193B0008F13A000852
:1039D0002D3A0008CF340008CF340008053A00081B
:1039E000CF340008F13A0008CF340008CF34000883
:1039F000F13A00085146039B98470028C0F2B28074
:103A0000013564E5BBF1000FDDF840900ADB594653
:103A1000484610F023FDB9F1000F3FF458AD09EB13
:103A2000000620E0484610F075FCF8E710980028E2
:103A300000F086800DF13E060AAB0021009612AA26
:103A4000FFF7E0FCBDF84A30BBF1000F03F0EF03D5
:103A500043F4F04343F010038146ADF84A3049DAAD
:103A600000283FF434AD0027A6EB090308E0109BC3
:103A700000278DF8283001230DF129060DF12809C2
:103A80009DF84A1011F0100206925FD00233139A8B
:103A9000134405924A0644BF14995B18B8F1000F0D
:103AA0006DDDA8EB03089DF848305807C3F3800B81
:103AB00065D4590659D53FB151463846039B9847BE
:103AC00000284FDB5F46013530234FE01E075ABF09
:103AD000C3F300135F012B27DDE91023002BBFF692
:103AE0003BAF524263EB43032D27CDE9102333E76D
:103AF000002731E700279DF848100DF13E03A3EBA6
:103B000009036FF386119B458DF848107FF632AF9D
:103B1000ABEB030313932DE7109B07293FF6D7ACBC
:103B2000DFE801F00C04060C08080C0C1D70CEE454
:103B30001D80CCE4EA17C3E90052C8E41D60C6E466
:103B4000304E07460523A6F1050999E7080748BF47
:103B500001339CE7184607935146039B984700287A
:103B6000079B04DA17B0BDE8F08F2023C3465946FF
:103B700000290BF1FF3BEDDC4544D8466D1A37B107
:103B800051463846039B98470028EBDB01359DF8EA
:103B90004A30DA0601D41B0706D551463020039B74
:103BA00098470028DEDB0135069B3BB151469DF866
:103BB0004B00039B98470028D4DB0135059F2F4419
:103BC00006E051463020039B98470028CADB0135A8
:103BD0007B1B002BF5DC33464A465146039816F012
:103BE000ACFD0028BEDB0544A844A8EB0503002B70
:103BF0007FF76DAC51462020039B98470028B1DB2E
:103C00000135F2E79ED80108034A0020536823F0EB
:103C100002035360704700BF004004E0104B82B0C5
:103C20005A68D207FCD41A6842F001021A600D4BA0
:103C30000D4A1A600D4B9A6D42F080529A659B6D49
:103C400003F080530193019B094B1A6822F4C06270
:103C50001A609A6842F480429A6002B0704700BFCE
:103C600000040340FC09002000093D000010024050
:103C7000007000402DE9F047044607464FF0010967
:103C8000DFF8508014B93846BDE8F08794FAA4F5FF
:103C9000B5FA85F509FA05F32E0108EB05156FEA6B
:103CA000030A24EA03042B7B002BEBD058F80630E0
:103CB0001B694BB94644736804222846196807EA11
:103CC0000A0717F08AF8DDE7284698470028D9D177
:103CD000F0E700BF1CC6010830B5002289B00F49CB
:103CE0000F4818F023F9002200230024CDE9062311
:103CF0000E230C4DCDE903344FF440722846CDE934
:103D00000144094B0949009403F08AF80849284600
:103D100017F0DEFF204609B030BD00BF353D00087A
:103D200078110020F00C002035400008B861002018
:103D3000A3D80108014802F0AFBE00BFD40C002098
:103D40002DE9F047804620480F4617F022F8064636
:103D5000002832D000252846BDE8F087237B83B1B8
:103D60002368DB680BB120469847636883F80690A8
:103D700023681B69CBB9636804222046196817F0D1
:103D80002CF8013610345445E8D3B8F1000FE2D0D6
:103D9000002DDFD02846FFF76DFF0546002FF7D036
:103DA0000021642003F042FBF2E7204698470028F8
:103DB000E1D009FA06F31D43E3E705464FF0010998
:103DC000024CDFF80CA0DEE7285200201CC60108D8
:103DD0002CC60108014B53F820007047D4C80108D5
:103DE00008B5034608462BB1044A136000F066FC90
:103DF000002008BD6FF01500FBE700BFA4090020FC
:103E000010B5044C237813B9034802F045FE012392
:103E1000237010BDA4590020D40C002010B5044616
:103E2000094816F0B6FF3CB1084BD3E8EF1F013943
:103E3000C3E8E21F002AF8D1054818F083F8BDE86E
:103E40001040044802F028BE2052002024520020D6
:103E500078110020D40C002000200146034BD3E849
:103E6000EF0FC3E8E21F002AF9D17047205200206B
:103E700070B5FFF7F1FF0546074C084EB44200D37A
:103E800070BD63685B792BB123685B6813B1294609
:103E9000204698471034F1E71CC601082CC60108DB
:103EA00010B5044C0449204616F05AFD034B1C6023
:103EB00010BD00BF4C0C0020C0C8010818520020E3
:103EC00000230D4A10B513700C4A4FF47A71136039
:103ED0000B4A0C481360FFF783FFFFF7E1FF0A4B23
:103EE0000A4918468B4200D310BD1A1A5C68121199
:103EF000013222711033F5E7A5590020205200202D
:103F000024520020A5AD01081CC601082CC60108DA
:103F1000014600220023014816F043BD4C0C00204E
:103F2000014816F0D9BD00BF4C0C0020024B0146E1
:103F3000186816F025BE00BF18520020014816F080
:103F40005ABE00BF4C0C002070B5234B18780028D7
:103F500040D0FFF7E5FF054670B1204BD3E8EF1FD7
:103F60000139C3E8E21F002AF8D11D4C1D4EB442AE
:103F700026D32846FFF7DAFF1B4B1C4C1B68002B8F
:103F800012DD17F0D1FF0A220023FDF7EDF9D4E985
:103F90000032C01A40F2E93361EB0201984271F13C
:103FA000000101D3FFF764FFD4E9003213F57A73FF
:103FB00042F10002C4E90032BDE87040FFF7BEBF25
:103FC00063685B7923B12368294620461B689847BC
:103FD0001034CCE770BD00BFA4590020245200204B
:103FE0001CC601082CC601082052002070110020B8
:103FF00070B50D4D297861B90120FFF7A1FE0B4C7A
:104000000B4EB44206D3FFF79FFF0028FBD10123DC
:104010002B7070BD63685B791BB1236820469B6879
:1040200098471034EDE700BFA55900201CC60108D1
:104030002CC6010800212DE9F0470846FFF780FE55
:10404000044648B34FF4FA784FF0000903F00CFA35
:104050001A4B186030B11A4B1B68092B02DD194846
:1040600002F01AFD0025184FDFF858A044B1204691
:10407000FFF700FE044618B94FF0FF384FF0FF3944
:10408000FFF762FF064628B9B5B942464B4650468F
:1040900002F036FD3546E9E74FF0FF384FF0FF39C3
:1040A000D4E72B689B691BB100222846114698472C
:1040B0001035BD42F5D3E8E7044DFAE71C52002065
:1040C00024520020D40C00202CC601081CC6010874
:1040D00013B5184816F05DFE174B1B7873B1EFF35C
:1040E0001184202383F31288BFF36F8FFFF72CFF17
:1040F00084F31188BFF36F8F02B010BD0F4B1B68A4
:10410000002BF9D050B9002200230D48CDE900233F
:1041100042F21072002303F011FCEDE70928EBD105
:10412000074817F00FFF074802B0BDE8104002F043
:10413000B3BC00BF24520020A55900201C5200200F
:1041400078110020D40C002010B5064B04461B68E3
:1041500098472146A060044816F09FFCBDE8104037
:10416000FFF7B6BFA40900204C0C0020044A054B01
:104170009B1AB1EBD30F34BF52F8310000207047C7
:1041800094C501081CC601082DE9F04F8FB0C1F39A
:104190004A2804AF0D469146B8607B600C0DB8F11B
:1041A000000F63D000264FF0040B4FF00A0A07F10E
:1041B0001403C7F80C80C7E907667E620193CDF847
:1041C00008B0CDF800A007F11C0332464846F96854
:1041D000FEF7C0FDB0F5006F03461CD36C468AB0F5
:1041E000D9F8041004AB26481A46C3E9050140F289
:1041F000FF71D9614FF400711984224B42F8103FCE
:104200004FF4125133462048FFF7BEFFA5462C3726
:10421000BD46BDE8F08FC0F30A0804F1170018444A
:1042200020F0070080083B60FFF772FE68F353251B
:10423000044690B13B6800F11001C7E9083607F168
:104240001403F961CDE900A3CDF808B048460F4A40
:10425000F96807F11C03FEF77DFD68F353252A4634
:1042600020467B68B96816F0D7FDD0E704F1170047
:1042700020F007008008FFF74BFE0446EDE700BF83
:10428000B8D8010804000001A4C50108EDAD01087B
:104290002DE9F04F87B00446DDE9105ADDE91279C7
:1042A000934698460391BFB13B46524610210020E9
:1042B000CDF80090CDF81490FEF77AFBB0F5006FC2
:1042C00006460AD340F2FF730221174A174807B087
:1042D000BDE8F04F16F0F9BD3E4605F11700304439
:1042E00020F007008008FFF713FE04F007040BF02E
:1042F000070BE40044EA8B1444EA462444EA0554DC
:10430000054640B13FB13B4652463146CDF800909C
:104310001030FEF74DFB434622462846039907B06E
:10432000BDE8F04F16F078BDF7D80108A4C5010824
:10433000406820B1034BC01A40F3CF0070474FF0E4
:10434000FF30704794C501080EB403B503AB53F8B2
:10435000042B01460448019316F0DCFD02B05DF821
:1043600004EB03B0704700BF23AF0108CA0605D4B1
:104370008B064CBF02490349FFF7E6BF704700BFF9
:1043800030D901082FD901082DE9F04F89B09A469C
:10439000149B9DF84CB00693159B04460593169B01
:1043A0000D469046179E0493BBF1000F00F09D80D0
:1043B00006F48073079316F00EFD06F0020902461C
:1043C00000283ED020469249FFF7BEFF0746B9F1CC
:1043D000000F08D016F0440F35D12A4620468D49EB
:1043E000FFF7B2FF074406F0010353B18A4B2046A2
:1043F00053F82B20894B8A49002A08BF1A46FFF739
:10440000A3FF06F48073002B49D006F00803002BAD
:1044100063D1B8F1000F66D0424620468149FFF7CC
:1044200093FF0546069B3D44002B6DD1049B002B5A
:1044300073D1F30700F1E58031462046FFF796FF80
:10444000D9E00746C3E7784B18680028CAD0774BF5
:104450004FF47A791B684FF46161B5FBF3F5B5FB56
:10446000F0F300FB135509FB05F5B3FBF1F2B5FBC7
:10447000F0FE4FF03C0C01FB123100FB1E55B1FB6E
:10448000FCF309FB05F5B5FBF0F50CFB1311204619
:104490000091CDE901E56649FFF756FFA2E706F076
:1044A0000803EBB1634B204653F82B206249FFF71A
:1044B0004BFF0546B8F1000F05D04246204659494A
:1044C000FFF742FF0544BAF1000FABD05246204639
:1044D0005A49FFF739FF0544A4E74FF0000AE1E726
:1044E00006F00805E6E745469CE7BAF1010F069B92
:1044F00006D1002B65D1049B002B7CD000250CE05D
:10450000002BF8D04E485DE04E48069B22464E49AF
:1045100016F054F8049B002B69D0DFF83081DFF8E7
:104520003091049F3146102F204628BF10274FF0AE
:10453000000AFFF71BFF554546DC059B4946204610
:104540001A78FFF701FF4FF0010A1AF0070F03D1A5
:1045500041462046FFF7F8FE57453CD9059B4946A2
:10456000204613F80A20FFF7EFFE0AF1010ABAF11C
:10457000100FEAD14FF0000A20463649FFF7E4FE5B
:104580005246059B20469A5C334B995C11F0970F7D
:1045900008BF2E223149FFF7D7FE0AF1010ABAF10E
:1045A000100F1DD01AF0070F03D141462046FFF728
:1045B000CBFE57455246E4D841462046FFF7C4FE9D
:1045C000EBE720485D46A0E741462046FFF7BCFEEA
:1045D0000AF1010AAFE720462149FFF7B5FEC4E71B
:1045E000059B3B440593049BDB1B049399D1BBF1D2
:1045F000000F7FF41EAF204609B0BDE8F04F16F063
:104600007CBC2046054A0649FFF79EFE14E700BF22
:1046100037D901083BD90108E4C8010832D901089B
:1046200060D9010863D90108305200202C520020C3
:1046300044D90108F8C8010867D901086DD90108F3
:1046400051AF010823AF010815AF01087AD901085D
:1046500072D901087CD901088DD401087ED90108DE
:1046600078D9010842F20F7373B58B4228BF0B460D
:1046700005680446052168460D4A16F016F80646F8
:10468000636828460B225B680A4916F028FC6368B9
:104690003246694628465B6816F021FC63681B2297
:1046A00028465B68044916F01AFC02B070BD00BFD2
:1046B0008EDA01089DD9010881D901080021012362
:1046C000064A904206D8064A01B901231360054BF9
:1046D00018607047012140085B00F2E740420F007C
:1046E0002C52002030520020F8B50D460446064FEB
:1046F0004618B44201D12846F8BD14F8011BBB6826
:1047000001485B689847F4E7FCC10108014B03606E
:104710000020704740C901082DE9F04706460C46C5
:1047200000AF002936D0D1E90012E9468AB06D46C3
:10473000A3684FF0050AA8461F48C5E90723C5E945
:10474000050148F810AF002342464FF421511B48A1
:10475000FFF71AFDD4E90312CD466369AD46184848
:10476000C5E90723C5E90501C5F810A000234246A5
:104770004FF421511148FFF707FDCD46E3690121B0
:10478000104A0E4816F0A1FBA36901210E4A0B48FE
:1047900016F09BFB012E07D1EFF305830B4A314640
:1047A0000648103B16F091FB2146304601F0E0FE32
:1047B000BD46BDE8F08700BFE3D90108C4C50108C4
:1047C00012DA010841DA010850DA01087EDA01083C
:1047D00030BFFFF7FDBF00BF074A936893F90E1083
:1047E000002907DB526993421FBF044A536843F014
:1047F00080535360704700BF0455002000ED00E077
:1048000070B52A4C06460D4629482A4916F027FC61
:10481000A36ADB0647D52648274916F020FC11205D
:10482000A36A1C0704D52248244916F018FC12205C
:104830001E4CA36A990712D521491D4816F00FFC9A
:10484000636BA26A120609D501211E4A184816F0A8
:104850003CFB1EB1A36A23F08003A3621320134C18
:10486000A36ADE0704D51248174916F0F8FB142096
:10487000A36A9C0604D50E48144916F0F0FB1520D7
:104880000A4B9A6AD10658BF9A6A9A6A920642BF40
:104890005A6A22F400525A629A6A42F0FF029A62FD
:1048A00000232B7070BD1020BAE700BF00ED00E0C0
:1048B000C4C5010891DA0108A7DA0108DADA0108AB
:1048C000EDDA010805DB01081BDB01083ADB010812
:1048D00010B5244C2449254816F0C1FBA36A990160
:1048E0003ED52248224916F0BAFB1E20A36ADA01FF
:1048F00004D51E481F4916F0B2FB1F20194CA36AAD
:10490000DB0204D519481C4916F0A9FB0220A36A52
:104910001C0304D51548194916F0A1FB2120114CA0
:10492000A36A590304D51148154916F098FB2220B3
:10493000A36A9A0304D50D48124916F090FB232070
:10494000084CA36ADB0304D508480F4916F087FB1F
:104950002420A36A6FEA03436FEA1343A36210BDE6
:104960001D20C3E700ED00E069DB0108C4C50108B4
:1049700081DB010894DB0108AEDB0108D8DB01080C
:10498000F6DB01081BDC010835DC010870B5294C99
:1049900006460D462848294916F061FBA36AD9044A
:1049A0003CD52548264916F05AFB1720A36A1A055C
:1049B00004D52148234916F052FB18201D4CA36A48
:1049C0009B0512D51C48204916F049FBA36BA26A2F
:1049D000100409D501211D4A174816F076FA1EB1B8
:1049E000A36A23F40043A3621920124CA36A590559
:1049F00004D51148164916F032FB1A20A36ADA05CD
:104A00000ED50D48134916F02AFB1B20094A936A5C
:104A100043F47F43936200232B7070BD1620C5E7DB
:104A2000A36A9B04F2D504480B4916F018FB1C201E
:104A3000ECE700BF00ED00E0C4C5010860DC010840
:104A400076DC0108DADA010887DC0108A0DC01085D
:104A5000B5DC0108D0DC01083ADB01082DE9F041A2
:104A60008AB0654B0446D3F80480002600AFC8F333
:104A7000080586F31188BFF36F8F02F07F43B3F10F
:104A80007F4F07D102F00C03082B12D15B495C4821
:104A900016F0E5FA002634460023FB71EB1E092BC5
:104AA00000F28980DFE803F00A7F827B87878787AF
:104AB000878510074CBF0C460126EDE75149504849
:104AC00016F0CDFA00234C4DFB71EB6A9A0705D521
:104AD0004D494B4816F0C3FA002331E0EB6A002B36
:104AE00001DA4A49F5E7EB6A5B00F5D548494448E5
:104AF00016F0B5FA6B69A26943F480736B61BFF37A
:104B00004F8FBFF36F8F6B6932F8022C23F48073E1
:104B10006B61BFF34F8FBFF36F8F4DF602739A42F5
:104B200007D0AB6ADBB26BB30120F91DFFF768FE5B
:104B300037E023680121374A314816F0C6F9236867
:104B4000FA79DAB907F1080504F1200C2A46206841
:104B50006168083403C264451546F7D17A6A002EAD
:104B600045D0C2F3080121B96FEA52226FEA42220E
:104B70007A62184607F10801FFF7CEFD2837BD46D7
:104B8000BDE8F081AB6A13F47F4F04D00120F91D1A
:104B9000FFF7FCFE05E0AB6AB3F5803F9CD3FFF75F
:104BA00097FE0346CCE70020F91DBFE70020F91D62
:104BB000EEE719498DE7194A18F4F87FE8468AB0FC
:104BC000174B18BF13466A461649103DC2E9051334
:104BD0004FF400731384144BD56142F8103F002347
:104BE0004FF411510648FFF7CFFAC54674E722F497
:104BF000FF7222F00102BBE700ED00E016DD0108C4
:104C0000C4C5010841DD010858DD010879DD01084E
:104C100087DD0108A6DD0108C2DD0108FDDC010811
:104C2000E8DC0108E6DD010804000001064B5A69D2
:104C300042F010025A615A6942F480625A615A691C
:104C400022F008025A61704700ED00E0EFF308809F
:104C5000EFF3098101B57246FFF700FF01BD00BF08
:104C6000202080F3118808484FF40061401880F339
:104C70000988EFF314800221084380F31488BFF3FE
:104C80006F8F00F093F80000B8640020084B9B6819
:104C900083420BD1EFF3058343B1064B5A6842F0D0
:104CA00080525A605A6A22F400425A6217F0DFB802
:104CB0000455002000ED00E06FF00A01084A9368F7
:104CC000D967084998674B6843F080534B600023CD
:104CD00083F31188BFF36F8F9368D86F704700BF5D
:104CE0000455002000ED00E013498A684FF03000C1
:104CF0001044EFF3098C80E8F01F202080F3128825
:104D0000BFF36F8F0D4F4FF000664A698A603E60B7
:104D1000906F0023936780F3118802F1300090E8D0
:104D2000F01F8CF3098802F1000004B516F09FF91A
:104D3000BDE80440704700000455002004ED00E089
:104D40001EF0040F0CBFEFF30880EFF309808169B8
:104D500011F8021C0229FFD001B5724616F074F951
:104D600001BD00BF40B2002807DB01234109034A0F
:104D700000F01F00834042F82130704700E100E05E
:104D800040B2002801F10101ACBF00F16040064BC8
:104D90004FEA4111C9B2ABBF00F5614000F00F000E
:104DA00080F800131954704714ED00E00F4A08B55D
:104DB0000F4B22F07F029A60BFF34F8FBFF36F8FCC
:104DC000D3F8882022F47002C3F88820EFF314830C
:104DD00023F0040383F31488BFF36F8F01F0B4FC56
:104DE00002F0E0FB00F046F801F0EEFC00000008E5
:104DF00000ED00E042F8203C009B0B4942F81C3CCF
:104E0000019B21F0010142F8183C029B42F8081C6A
:104E100042F8143C4FF0807342F8043C0023203ADF
:104E200002658367704700BFC5A6010800B50B4B3C
:104E30000E4698601546836E83F30B882C4686F3E6
:104E400009884FF00000064B984720464FF00001BC
:104E50004FF000024FF00003024C204704550020A1
:104E600077B00108C5A601081022014B1A617047EE
:104E700000ED00E0002320210348C21801336C2B11
:104E800082F80013F9D1704700E100E008B5EFF3B4
:104E90000583064A103B02EBC30152F83300496810
:104EA0008847BDE80840FFF797BC00BF24C201084F
:104EB0001FB5094C094A23460121094800F012F99F
:104EC00000230393074B0121E41A01A801930294E4
:104ED00000F012F904B010BD000003200000002013
:104EE00040C90108F00C002010B50C7A0B6804F0E2
:104EF0001F0223F01F031A43CB68640923F01F032A
:104F0000054943EA440343F00103C1F89800C1F89E
:104F10009C20C1F8A03010BD00ED00E010B50A4B98
:104F2000D3F89030C3F30723013B984208D90121FD
:104F30000346064A064815F0C8FF6FF0150010BD7D
:104F4000FFF7D2FFFBE700BF00ED00E0FDDD010849
:104F5000BCC501082DE9F04F8946144606464FF0BE
:104F60000008514D85B0C84527DAD6F804A0BAF13B
:104F7000000F44D0BAF11F0F17D91AF01F0F14D128
:104F8000D6F800B01BF01F0F0FD1584616F087F867
:104F900007460AEB0B00013816F081F8874210D063
:104FA0006FF01507414A3B4601E04346404A012164
:104FB000404815F08AFF6FF01504204605B0BDE8A3
:104FC000F08F17F1160FEDD0BC42EBDDC5F89870ED
:104FD000D5F89C10C5F89870D5F8A03021F01F01C5
:104FE00043F01F0BD6E900321A44994202F1FF3A0E
:104FF0001DD1D34507D13146F8B216F059F808F162
:1050000001080C36AFE73146C5F89870D5F89C30EA
:1050100022F01F0203F01F031343C5F89C30E0B2D7
:1050200016F046F810F1160FC5D0441CE7E7C5F896
:105030009870D5F8A020013B23F01F0302F01F0257
:105040001343D3453146E0B2C5F8A030E8D016F09E
:105050002FF810F1160FAED0C5F89870D5F89C2037
:105060009DF808300BF1FF3B62F304038DF8083024
:10507000D5F8A0309DF808205B0863F347128DF83F
:105080000820D6E900321344009323F01F035B4449
:10509000A3EB0A03013023F01F036946C0B2039358
:1050A000FFF73CFFBEE700BF00ED00E046DE010871
:1050B00023DE0108BCC501080522044BC3F8942077
:1050C000BFF34F8FBFF36F8F704700BF00ED00E05D
:1050D000BFF35F8F0022024BC3F89420704700BFDC
:1050E00000ED00E010B5034C2278FFF733FF20708D
:1050F00010BD00BFA75900202DE9F74F294D8A4662
:1051000006464FF00008AB46274FD0451BDAD6F8CD
:105110000490B9F1000F3FD031680846019115F0B5
:10512000BEFF0199044609EB0100013815F0B7FFF5
:1051300084424FF014021D4B08D002FB08F36FF0BD
:1051400015024BF8032003B0BDE8F08F14F1160FE1
:105150002C60F8D01978A142F5DD02FB08B0C7F841
:105160009840C7F89840D7F89C4000F10801007BB0
:1051700064F304000871D7F8A0000C79400860F3CC
:1051800047140C71D7F89C1021F01F016960D7F803
:10519000A01021F01F01296108F1010814350C3617
:1051A000B3E700BF6052002000ED00E0A7590020E7
:1051B000F0B54149414CD1F890302568C3F307233D
:1051C0009D4287B075D80020FFF782FF3C4BC1F8A5
:1051D000C030854216D13B4C01A82570FFF796FAE6
:1051E00000250646384FAE4213D1002023783249BD
:1051F000D1F89020C2F30722934254DBFFF75CFF03
:1052000000202FE0616801EB0011FFF76DFE013017
:10521000DFE70199280101EB0513DA683A40B2F59E
:10522000001F21D0B2F5800F2BD0B2F5801F38D1EE
:105230005A689B680958013B22F01F000344012073
:10524000844623F01F0340EA4C10CDE902218DF87B
:10525000100002A920780593FFF760FE00281DDAF0
:105260006FF0150007B0F0BD5A689B680958013B04
:1052700022F01F0003444FF0020C012023F01F0313
:10528000E1E75A689B680958013B22F01F0003447C
:105290004FF0000C062023F01F03D4E723780133DE
:1052A000237001359FE7C1F89830C1F8A0000133A1
:1052B0009EE74FF0FF30D5E700ED00E04CC9010854
:1052C000AAFF4400A75900200000F0FF014B18601E
:1052D000704700BFB0090020F8B50D46094F461EC3
:1052E000C0F10104A3199D4201DC2846F8BD737882
:1052F0000A2B02D10D203B6898473B6816F8010F36
:105300009847EFE7B009002010B5074C2368C21892
:105310000648C0F1005101F540318A4236BF226093
:105320004FF0FF30C01810BD74520020F8C50020A7
:1053300008B5054815F0ACF9002383F31188BFF3D5
:105340006F8F0423184602DF78DE010838B5002588
:10535000074C204616F076FC04F11400013516F0D7
:10536000ADFC052D04F12404F3D1002038BD00BFAD
:10537000785200202DE9F8430D46064608B301B3E4
:105380003D210EF001FFE0B90F4BD3F80090B9F1C9
:10539000000F04D0C846444658F8047B17B96FF094
:1053A00001000CE02A46314638460EF0E1FF0028A5
:1053B000F1D17B5D3D2BEED1A4EB09008010BDE85F
:1053C000F8836FF01500FAE72C53002070B50546FE
:1053D000E0B10EF09FFF0446EFF31186202383F324
:1053E0001288BFF36F8F21462846FFF7C3FF0028BE
:1053F000A3BF074B01341B680020A4BF53F8200053
:10540000001986F31188BFF36F8F70BD0446E3E780
:105410002C530020012838B50C4609D0042817D198
:1054200000230022C1E9002300238B60002038BD47
:10543000EFF31185202383F31288BFF36F8F084B9E
:105440000FCB84E80F0085F31188BFF36F8FEDE772
:1054500015F065FE162303604FF0FF30E7E700BF4D
:10546000B011002030B501280C4685B01FD00428AB
:1054700021D100230022CDE900230023029316F05E
:1054800053FD42F210720023FBF76EFF009B124D9A
:10549000C018019B43EB0101029BC4E9000105FB1D
:1054A00002320E4BA2609A420DD8002009E06946F4
:1054B000FFF7B0FFE3E715F032FE162303604FF06D
:1054C000FF3005B030BD064B013041F100011344FF
:1054D000C4E90001A360E8E7A0860100FFC99A3B88
:1054E000003665C408B50A4B984206D915F017FE78
:1054F000162303604FF0FF3008BD16F0A7FC00280C
:1055000003DD15F00CFE0423F3E70020F4E700BFF1
:105510003F420F0038B50024054D2846013416F0EF
:10552000CDFB052C05F10805F7D1002038BD00BFE3
:105530003053002038B50024054D2846013416F0BC
:1055400081FB052C05F11405F7D1002038BD00BF03
:10555000585300200A4B30B51C460025094A191B38
:10556000B1F5387F01D9002030BD506803F18801C2
:10557000C3E922200160B83303F8085C5160EEE70C
:10558000C0110020B4090020F8B505460024104ED3
:10559000104F01232A7852FA84F2D1B203FA01F0B3
:1055A000F36830EA030303D0336930EA030308D118
:1055B000F060306157F832301BB107EBC20251681E
:1055C00098476A780134E3B29A42E2D2F8BD00BF4C
:1055D00000F40240BC530020014B1954704700BF37
:1055E000200C0020034670B1B0FA80F2C2F11F0215
:1055F000D2B206498856064AD2F880100B43C2F848
:105600008030FFF7AFBBFF22F3E700BF200C002084
:1056100000F40240034AD2F8803023EA0003C2F8C3
:105620008030704700F40240032921D8DFE801F000
:10563000020C10190F4B1A6822EA00021A605A680D
:1056400022EA00025A6070470A4B1A680243F5E7E3
:10565000084B5A6802435A601A6822EA00021A602C
:105660007047044B1A6802431A605A681043586026
:10567000704700BF00F4024030B5B0B1B0FA80F31B
:10568000C3F11F03DBB20B4850F833408C4204D106
:1056900000EBC3056D68954205D044B940F833105E
:1056A00000EBC3004260002030BDFF23EBE76FF04A
:1056B0000F00F9E7BC53002060B1B0FA80F3C3F1EA
:1056C0001F03DBB20021044A42F8331002EBC3028D
:1056D00051607047FF23F5E7BC530020C300074A21
:1056E000C0F38100183052F8202003F0180007237F
:1056F0008340134023FA00F0704700BF00F40240DB
:1057000010B51F4B144618680B68072B15D00A2BD1
:105710000AD893B1013B092B0FD8DFE803F0161527
:1057200015152F270E192121582B0ED008D84C2BD8
:105730000BD0502B09D0482B07D06FF0850006E026
:105740005C2B02D0602BF7E700202060002010BD0A
:1057500000F0C4F8372358430723B0FBF3F0F4E715
:1057600000F0BCF8372358434008EEE7054B064AE3
:105770001B68C3F3031352F82300E6E70348E4E78A
:10578000FC090020001002409CCB0108006CDC02E8
:10579000F8B54E4F00F0BAF8384615F0F0FD00F0BD
:1057A00037FD4B4C4B4AA3681578C3F30313D35C06
:1057B00047FA05F520FA03F6AE4202D2284600F079
:1057C0007FFD236843F008032360236823F0F00380
:1057D00043F060032360636823F47F4363602368BE
:1057E0009A0706D4236843F00103236023689B07CC
:1057F000FCD5D4F8983043F00103C4F89830D4F8BD
:1058000098309807FBD5A36803F00C030C2B18D134
:105810002368590506D4236843F480732360236802
:105820005A05FCD5A36823F0030343F00103A360EA
:10583000A36803F00C03042BFAD1A36823F0F00350
:10584000A360236823F080732360E36823F0605330
:1058500023F4003343F06053E360E36843F48033A0
:10586000E360E36823F4C003E360E36843F4801378
:10587000E36000F039F8236843F080732360236805
:105880009B01FCD5A36823F0F00343F08003A360E1
:10589000A36843F00303A360A36803F00C030C2B7D
:1058A000FAD1A368AE4223F0F003A36002D32846E6
:1058B00000F006FD084B00201F60A36823F4E0639E
:1058C000A360A36823F46053A360F8BD80778E06BD
:1058D0000010024089E00108FC090020014B986992
:1058E000704700BF9CCB0108064A074BD1680B40AC
:1058F00043F45C5343F00103D360D36843F08073F7
:10590000D3607047001002400C80FFF9064B82B054
:105910009A6D42F080529A659B6D03F0805301931B
:10592000019B02B0704700BF0010024008B5074855
:1059300016F025F938B10648FFF7C8FC0448FDF712
:10594000EFFB002008BD6FF01200FBE7FCC101086F
:10595000555900080A2838B50446074D04D1AB68EC
:105960000D2128465B689847AB6803485B68E1B245
:105970009847204638BD00BFFCC101082DE9F84317
:10598000D0F804801746D0F81090D8F808000D46DB
:105990001E4615F065FCB7F5001F044616D12846D3
:1059A000D8F80840FFF79AFE84420CD1294615F03A
:1059B00057FC0446FFF72EFE2046FFF77DFE002130
:1059C0002046FFF731FE0020BDE8F883B7F5800FD1
:1059D00020D0B6F1806F19D0B6F1C06F18D0B6F1F3
:1059E000007F1AD102264A4620460F49FFF744FE9F
:1059F000B0B92846D8F8081015F035FC20463146D5
:105A0000FFF712FE2046FFF7EDFDDCE70126EAE78F
:105A10000326E8E76FF08500D6E76FF01500D3E7BF
:105A20006FF00F00D0E700BF39B6010838B5036941
:105A3000044658600A4D284616F0A1F868B1094A94
:105A40002846536843F4007353606168AB680C31B7
:105A50001B68984700EAE07038BD6FF01200FBE762
:105A600020C10108007000402DE9F04704460025E0
:105A70001D4F00EBC106B44201D1002014E02068A4
:105A8000C30600F01F0911D4656845F02005C0F376
:105A9000481AC0F344200F2823D857F82080B8F1C3
:105AA000000F0DD16FF01200BDE8F087B9F1100FB3
:105AB00004D0B9F1110FEAD16568E8E73025E6E7CF
:105AC000404616F05CF80028ECD04B462A4640468B
:105AD0000AF00F0115F0C6FD002804F10804CADA27
