:020000040800F2
:1000000008BE0020FDE300081B900208E9E3000899
:10001000E9E30008E9E30008E9E30008E9E3000890
:10002000000000000000000000000000DDE4000807
:10003000E9E300080000000085E4000815F8000866
:1000400029E6000829E6000829E6000829E6000854
:1000500029E6000829E6000829E6000829E6000844
:1000600029E6000829E6000829E6000829E6000834
:1000700029E6000829E6000829E6000829E6000824
:1000800029E6000829E6000829E6000829E6000814
:1000900029E6000829E6000829E6000829E6000804
:1000A00029E6000829E6000829E6000829E60008F4
:1000B00029E6000829E6000829E6000829E60008E4
:1000C00029E6000829E6000829E6000829E60008D4
:1000D00029E6000829E6000829E6000829E60008C4
:1000E00029E6000829E6000829E6000829E60008B4
:1000F00029E6000829E6000829E6000829E60008A4
:1001000029E6000829E6000829E6000829E6000893
:1001100029E6000829E6000829E6000829E6000883
:1001200029E6000829E6000829E6000829E6000873
:1001300029E6000829E6000829E6000829E6000863
:1001400029E6000829E6000829E6000829E6000853
:1001500029E6000829E6000829E6000829E6000843
:1001600029E6000829E6000829E6000829E6000833
:1001700029E6000829E6000829E6000829E6000823
:1001800029E6000829E6000829E6000829E6000813
:1001900029E6000829E6000829E6000829E6000803
:1001A00029E6000829E6000829E6000829E60008F3
:1001B00029E6000829E6000829E6000829E60008E3
:1001C00029E6000829E6000829E6000829E60008D3
:1001D00029E6000829E6000829E6000829E60008C3
:1001E00029E6000829E6000829E6000829E60008B3
:1001F000844641EA000313F0030349D1403A23D374
:100200000B6803604B6843608B688360CB68C36096
:100210000B6903614B6943618B698361CB69C3617E
:100220000B6A03624B6A43628B6A8362CB6AC36266
:100230000B6B03634B6B43638B6B8363CB6BC3634E
:1002400040304031403ADBD230320BD30B68036090
:100250004B6843608B688360CB68C360103010319B
:10026000103AF3D20C3205D351F8043B40F8043B6A
:10027000043AF9D2043208D0D2071CBF11F8013B6E
:1002800000F8013B01D30B8803806046704700BF34
:10029000082A13D38B07B1D010F00303AED0C3F1FB
:1002A0000403D21ADB071CBF11F8013B00F8013B25
:1002B000A4D331F8023B20F8023B9FE7043AD9D39C
:1002C000013A11F8013B00F8013BF9D20B780370B9
:1002D0004B7843708B7883706046704780EA010CDE
:1002E0001CF0030F37D110F0030C20F0030021F0B5
:1002F000030150F8042B08BF51F8043B0ED08CF0DA
:10030000030C6FF07F434FEACC0C23FA0CFC51F83E
:10031000043B42EA0C0243EA0C0300BFA2F1013C99
:100320009A4201BF2CEA020C1CF0803F50F8042BCB
:1003300051F8043BF2D04FEA02604FEA1222012842
:1003400028BFB0EB036F08BF1B0AF4D003F0FF0314
:10035000000EC01A704710F0030F0AD010F8012BDE
:1003600011F8013B012A28BF9A42F4D0A2EB030006
:1003700070474DF8045D50F8042B01F0030521F09F
:10038000030151F8043B022D26D04DD822F07F45C1
:10039000B5EB132FA2F1013C2CEA020C0DD11CF09D
:1003A000803C08BF51F8043B0AD185EA0205B5EB51
:1003B000036F0CD150F8042BE8E74FEA13235BE0FE
:1003C0003CF07F4C54D10B784FEA126554E04FEA71
:1003D000126503F0FF034FE04FEA0245A2F1013C32
:1003E0004FEA15452CEA020CB5EB134F18D11CF05F
:1003F000803C08BF51F8043B07D185EA0205B5EB04
:10040000034F09D150F8042BE6E75FEA0C4C2FD1DB
:100410000B884FEA12452FE04FEA03434FEA12459B
:100420004FEA134328E000BF02F0FF05B5EB136F5E
:10043000A2F1013C2CEA020C0DD11CF0803C08BF5B
:1004400051F8043B0AD185EA0205B5EB032F0AD126
:1004500050F8042BE8E74FEA13630DE012F0FF0FAA
:1004600006D051F8043B4FEA122523F07F4303E006
:100470004FF0000020BC704705F0FF0203F0FF00C2
:10048000012828BF904204BF2D0A1B0AF4D0A2EB1A
:10049000000020BC704700BF81F0004102E000BFB7
:1004A00083F0004330B54FEA41044FEA430594EA34
:1004B000050F08BF90EA020F1FBF54EA000C55EA6F
:1004C000020C7FEA645C7FEA655C00F0E2804FEA40
:1004D0005454D4EB5555B8BF6D420CDD2C4480EA22
:1004E000020281EA030382EA000083EA010180EA52
:1004F000020281EA0303362D88BF30BD11F0004FA0
:100500004FEA01314FF4801C4CEA113102D04042D5
:1005100061EB410113F0004F4FEA03334CEA133310
:1005200002D0524263EB430394EA050F00F0A78028
:10053000A4F10104D5F1200E0DDB02FA0EFC22FA23
:1005400005F2801841F1000103FA0EF2801843FA17
:1005500005F359410EE0A5F120050EF1200E012A08
:1005600003FA0EFC28BF4CF0020C43FA05F3C01846
:1005700051EBE37101F0004507D54FF0000EDCF1BF
:10058000000C7EEB00006EEB0101B1F5801F1BD368
:10059000B1F5001F0CD349085FEA30004FEA3C0C6C
:1005A00004F101044FEA445212F5800F80F09A8062
:1005B000BCF1004F08BF5FEA500C50F1000041EB66
:1005C000045141EA050130BD5FEA4C0C404141EB6A
:1005D0000101013C28BFB1F5801FE9D291F0000F65
:1005E00004BF01460020B1FA81F308BF2033A3F114
:1005F0000B03B3F120020CDA0C3208DD02F1140C0B
:10060000C2F10C0201FA0CF021FA02F10CE002F145
:100610001402D8BFC2F1200C01FA02F120FA0CFC3E
:10062000DCBF41EA0C019040E41AA2BF01EB045187
:10063000294330BD6FEA04041F3C1CDA0C340EDC85
:1006400004F11404C4F1200220FA04F001FA02F3C8
:1006500040EA030021FA04F345EA030130BDC4F186
:100660000C04C4F1200220FA02F001FA04F340EA7B
:100670000300294630BD21FA04F0294630BD94F02C
:10068000000F83F4801306BF81F480110134013D13
:100690004EE77FEA645C18BF7FEA655C29D094EA84
:1006A000050F08BF90EA020F05D054EA000C04BF02
:1006B0001946104630BD91EA030F1EBF00210020ED
:1006C00030BD5FEA545C05D14000494128BF41F08C
:1006D000004130BD14F580043CBF01F5801130BDF0
:1006E00001F0004545F0FE4141F470014FF000007B
:1006F00030BD7FEA645C1ABF194610467FEA655C2C
:100700001CBF0B46024650EA013406BF52EA0335CD
:1007100091EA030F41F4002130BD00BF90F0000FBB
:1007200004BF0021704730B54FF4806404F13204F7
:100730004FF000054FF0000150E700BF90F0000FB0
:1007400004BF0021704730B54FF4806404F13204D7
:1007500010F0004548BF40424FF000013EE700BFA7
:1007600042004FEAE2014FEA31014FEA02701FBF37
:1007700012F07F4393F07F4F81F06051704732F069
:100780007F4208BF704793F07F4F04BF41F40021C0
:10079000704730B54FF4607401F0004521F000411E
:1007A0001CE700BF50EA010208BF704730B54FF0A8
:1007B00000050AE050EA010208BF704730B511F0A9
:1007C000004502D5404261EB41014FF4806404F1E1
:1007D00032045FEA915C3FF4D8AE4FF003025FEA67
:1007E000DC0C18BF03325FEADC0C18BF033202EBEB
:1007F000DC02C2F1200300FA03FC20FA02F001FA45
:1008000003FE40EA0E0021FA02F11444BDE600BFE7
:1008100070B54FF0FF0C4CF4E06C1CEA11541DBF96
:100820001CEA135594EA0C0F95EA0C0F00F0DEF861
:100830002C4481EA030621EA4C5123EA4C5350EA46
:10084000013518BF52EA033541F4801143F4801397
:1008500038D0A0FB02CE4FF00005E1FB02E506F028
:100860000042E0FB03E54FF00006E1FB03569CF07D
:10087000000F18BF4EF0010EA4F1FF04B6F5007F83
:1008800064F5407404D25FEA4E0E6D4146EB0606F5
:1008900042EAC62141EA55514FEAC52040EA5E507E
:1008A0004FEACE2EB4F1FD0C88BFBCF5E06F1ED828
:1008B000BEF1004F08BF5FEA500E50F1000041EB5F
:1008C000045170BD06F0004646EA010140EA02000C
:1008D00081EA0301B4EB5C04C2BFD4EB0C0541EA2E
:1008E000045170BD41F480114FF0000E013C00F343
:1008F000AB8014F1360FDEBF002001F0004170BD67
:10090000C4F10004203C35DA0C341BDC04F114047F
:10091000C4F1200500FA05F320FA04F001FA05F20B
:1009200040EA020001F0004221F0004110EBD370D8
:1009300021FA04F642EB06015EEA430E08BF20EA04
:10094000D37070BDC4F10C04C4F1200500FA04F3A7
:1009500020FA05F001FA04F240EA020001F0004139
:1009600010EBD37041F100015EEA430E08BF20EAAC
:10097000D37070BDC4F1200500FA05F24EEA020EF4
:1009800020FA04F301FA05F243EA020321FA04F023
:1009900001F0004121FA04F220EA020000EBD370DA
:1009A0005EEA430E08BF20EAD37070BD94F0000FDA
:1009B0000FD101F00046400041EB010111F4801F0E
:1009C00008BF013CF7D041EA060195F0000F18BFBF
:1009D000704703F00046520043EB030313F4801FFB
:1009E00008BF013DF7D043EA0603704794EA0C0FB5
:1009F0000CEA135518BF95EA0C0F0CD050EA4106CB
:100A000018BF52EA4306D1D181EA030101F0004147
:100A10004FF0000070BD50EA410606BF104619466F
:100A200052EA430619D094EA0C0F02D150EA01367B
:100A300013D195EA0C0F05D152EA03361CBF1046BC
:100A400019460AD181EA030101F0004141F0FE415B
:100A500041F470014FF0000070BD41F0FE4141F4DF
:100A6000780170BD70B54FF0FF0C4CF4E06C1CEADF
:100A700011541DBF1CEA135594EA0C0F95EA0C0F94
:100A800000F0A7F8A4EB050481EA030E52EA03354F
:100A90004FEA013100F088804FEA03334FF0805570
:100AA00045EA131343EA12634FEA022245EA11159D
:100AB00045EA10654FEA00260EF000419D4208BF4E
:100AC000964244F1FD0404F5407402D25B084FEAFB
:100AD0003202B61A65EB03055B084FEA32024FF4A7
:100AE00080104FF4002CB6EB020E75EB030E22BF04
:100AF000B61A754640EA0C005B084FEA3202B6EBC4
:100B0000020E75EB030E22BFB61A754640EA5C0072
:100B10005B084FEA3202B6EB020E75EB030E22BF02
:100B2000B61A754640EA9C005B084FEA3202B6EB03
:100B3000020E75EB030E22BFB61A754640EADC00C2
:100B400055EA060E18D04FEA051545EA16754FEA24
:100B500006164FEAC30343EA52734FEAC2025FEA42
:100B60001C1CC0D111F4801F0BD141EA00014FF0D1
:100B700000004FF0004CB6E711F4801F04BF0143A2
:100B80000020B4F1FD0C88BFBCF5E06F3FF6AFAEBE
:100B9000B5EB030C04BFB6EB020C5FEA500C50F14E
:100BA000000041EB045170BD0EF0004E4EEA1131D1
:100BB00014EB5C04C2BFD4EB0C0541EA045170BDD8
:100BC00041F480114FF0000E013C90E645EA060E1C
:100BD0008DE60CEA135594EA0C0F08BF95EA0C0F4A
:100BE0003FF43BAF94EA0C0F0AD150EA01347FF492
:100BF00034AF95EA0C0F7FF425AF104619462CE769
:100C000095EA0C0F06D152EA03353FF4FDAE1046CB
:100C1000194622E750EA410618BF52EA43067FF41C
:100C2000C5AE50EA41047FF40DAF52EA43057FF4AC
:100C3000EBAE12E74FF0FF3C06E000BF4FF0010CB7
:100C400002E000BF4FF0010C4DF804CD4FEA410C1B
:100C50007FEA6C5C4FEA430C18BF7FEA6C5C1BD0E8
:100C600001B050EA410C0CBF52EA430C91EA030F69
:100C700002BF90EA020F0020704710F1000F91EAC6
:100C8000030F58BF994208BF90422CBFD8176FEA94
:100C9000E37040F0010070474FEA410C7FEA6C5C62
:100CA00002D150EA013C07D14FEA430C7FEA6C5C69
:100CB000D6D152EA033CD3D05DF8040B704700BF95
:100CC0008446104662468C461946634600E000BFE3
:100CD00001B5FFF7B7FF002848BF10F1000F01BDB5
:100CE0004DF808EDFFF7F4FF0CBF012000205DF880
:100CF00008FB00BF4DF808EDFFF7EAFF34BF012005
:100D000000205DF808FB00BF4DF808EDFFF7E0FF9D
:100D100094BF012000205DF808FB00BF4DF808EDEE
:100D2000FFF7CEFF94BF012000205DF808FB00BF55
:100D30004DF808EDFFF7C4FF34BF012000205DF837
:100D400008FB00BF4FEA410C7FEA6C5C02D150EA1D
:100D5000013C0AD14FEA430C7FEA6C5C02D152EAB3
:100D6000033C02D14FF0000070474FF00100704784
:100D70004FEA410212F5001215D211D56FF47873C3
:100D8000B3EB625212D94FEAC12343F0004343EA66
:100D9000505311F0004F23FA02F018BF4042704741
:100DA0004FF00000704750EA013005D111F00040CB
:100DB00008BF6FF0004070474FF00000704700BF61
:100DC00080F0004002E000BF81F0004142001FBF00
:100DD0005FEA410392EA030F7FEA226C7FEA236C09
:100DE0006AD04FEA1262D2EB1363C1BFD2184140FE
:100DF00048404140B8BF5B42192B88BF704710F094
:100E0000004F40F4000020F07F4018BF404211F036
:100E1000004F41F4000121F07F4118BF494292EA9E
:100E2000030F3FD0A2F1010241FA03FC10EB0C00CA
:100E3000C3F1200301FA03F100F0004302D5494257
:100E400060EB4000B0F5000F13D3B0F1807F06D304
:100E500040084FEA310102F10102FE2A51D2B1F1FC
:100E6000004F40EBC25008BF20F0010040EA0300F1
:100E70007047490040EB0000013A28BFB0F5000F71
:100E8000EDD2B0FA80FCACF1080CB2EB0C0200FA27
:100E90000CF0AABF00EBC25052421843BCBFD04076
:100EA0001843704792F0000F81F4000106BF80F4F0
:100EB00000000132013BB5E74FEA41037FEA226CB3
:100EC00018BF7FEA236C21D092EA030F04D092F07E
:100ED000000F08BF0846704790EA010F1CBF0020B2
:100EE000704712F07F4F04D1400028BF40F000400F
:100EF000704712F100723CBF00F50000704700F02F
:100F0000004343F0FE4040F4000070477FEA226255
:100F100016BF08467FEA23630146420206BF5FEA26
:100F2000412390EA010F40F4800070474FF0000326
:100F300004E000BF10F0004348BF40425FEA000CED
:100F400008BF704743F0964301464FF000001CE095
:100F500050EA010208BF70474FF000030AE000BFEB
:100F600050EA010208BF704711F0004302D5404229
:100F700061EB41015FEA010C02BF8446014600209B
:100F800043F0B64308BFA3F18053A3F50003BCFAB6
:100F90008CF2083AA3EBC25310DB01FA02FC634463
:100FA00000FA02FCC2F12002BCF1004F20FA02F26A
:100FB00043EB020008BF20F00100704702F120025D
:100FC00001FA02FCC2F1200250EA4C0021FA02F2BE
:100FD00043EB020008BF20EADC7070474FF0FF0CC3
:100FE0001CEAD0521EBF1CEAD15392EA0C0F93EABE
:100FF0000C0F6FD01A4480EA010C400218BF5FEA60
:1010000041211ED04FF0006343EA501043EA5111D2
:10101000A0FB01310CF00040B1F5000F3EBF4900CC
:1010200041EAD3715B0040EA010062F17F02FD2AD0
:101030001DD8B3F1004F40EBC25008BF20F00100B3
:10104000704790F0000F0CF0004C08BF49024CEACA
:10105000502040EA51207F3AC2BFD2F1FF0340EA5C
:10106000C250704740F400004FF00003013A5DDCCD
:1010700012F1190FDCBF00F000407047C2F100020E
:10108000410021FA02F1C2F1200200FA02FC5FEAFB
:10109000310040F1000053EA4C0308BF20EADC7045
:1010A000704792F0000F00F0004C02BF400010F4B7
:1010B000000F013AF9D040EA0C0093F0000F01F064
:1010C000004C02BF490011F4000F013BF9D041EA86
:1010D0000C018FE70CEAD15392EA0C0F18BF93EA88
:1010E0000C0F0AD030F0004C18BF31F0004CD8D1B2
:1010F00080EA010000F00040704790F0000F17BF39
:1011000090F0004F084691F0000F91F0004F14D07E
:1011100092EA0C0F01D142020FD193EA0C0F03D1D6
:101120004B0218BF084608D180EA010000F00040D9
:1011300040F0FE4040F40000704740F0FE4040F4B4
:10114000400070474FF0FF0C1CEAD0521EBF1CEA53
:10115000D15392EA0C0F93EA0C0F69D0A2EB030271
:1011600080EA010C49024FEA402037D04FF080530B
:1011700043EA111143EA10130CF000408B4238BFD0
:101180005B0042F17D024FF4000C8B4224BF5B1ADE
:1011900040EA0C00B3EB510F24BFA3EB510340EA2C
:1011A0005C00B3EB910F24BFA3EB910340EA9C00DA
:1011B000B3EBD10F24BFA3EBD10340EADC001B014A
:1011C00018BF5FEA1C1CE0D1FD2A3FF650AF8B42EE
:1011D00040EBC25008BF20F0010070470CF0004CFB
:1011E0004CEA50207F32C2BFD2F1FF0340EAC25026
:1011F000704740F400004FF00003013A37E792F0E7
:10120000000F00F0004C02BF400010F4000F013A44
:10121000F9D040EA0C0093F0000F01F0004C02BF3F
:10122000490011F4000F013BF9D041EA0C0195E7A8
:101230000CEAD15392EA0C0F08D142027FF47DAF41
:1012400093EA0C0F7FF470AF084676E793EA0C0F31
:1012500004D14B023FF44CAF08466EE730F0004C2F
:1012600018BF31F0004CCAD130F000427FF45CAFBF
:1012700031F000437FF43CAF5FE700BF4FEA40022C
:10128000B2F1FE4F0FD34FF09E03B3EB12620DD9B4
:101290004FEA002343F0004310F0004F23FA02F01E
:1012A00018BF404270474FF00000704712F1610FC5
:1012B00001D1420205D110F0004008BF6FF000409C
:1012C00070474FF0000070477BB972B90029BEBF6C
:1012D00000204FF0004106E008BF00281CBF6FF05F
:1012E00000414FF0FF3000F057B8ADF1080C6DE948
:1012F00004CE002909DB002B1ADB00F04FF8DDF8E3
:1013000004E0DDE9022304B07047404261EB410193
:10131000002B1BDB00F042F8DDF804E0DDE90223DE
:1013200004B0404261EB4101524263EB430370471A
:10133000524263EB430300F031F8DDF804E0DDE9ED
:10134000022304B0404261EB41017047524263EB1B
:10135000430300F023F8DDF804E0DDE9022304B0E4
:10136000524263EB4303704753B94AB9002908BF9F
:1013700000281CBF4FF0FF314FF0FF3000F00CB8D9
:10138000ADF1080C6DE904CE00F008F8DDF804E0DA
:10139000DDE9022304B07047704700BF2DE9F04734
:1013A00086468C460846089E154674461946002B0C
:1013B00040F0C1808542B2FA82F245D94AB1C2F109
:1013C000200300FA02FC954094402EFA03F343EA0E
:1013D0000C0C4FEA154EA8B2230CBCFBFEF80EFB1A
:1013E00018CC08FB00F943EA0C43994528D9EB18BF
:1013F00008F1FF3704D2994502D9A8F102072B441E
:10140000A3EB0903A4B2B3FBFEFC0EFB1C330CFBE5
:1014100000F044EA0344A04214D92C190CF1FF3324
:1014200004D2A04202D9ACF102032C44241A43EAAC
:1014300007401EB1D440002334607360BDE8F087DC
:101440004746DDE76346F1E792BB431B01214FEAC4
:10145000154EAFB2200CB3FBFEFC0EFB1C330CFB95
:1014600007F840EA0343984561D9EB180CF1FF30C7
:1014700004D2984502D9ACF102002B44A3EB080337
:10148000A4B2B3FBFEFC0EFB1C330CFB07F744EAD3
:101490000344A7424DD92C190CF1FF3304D2A742C3
:1014A00002D9ACF102032C44E41B43EA0040C0E73C
:1014B000C2F120039540944020FA03F12EFA03F381
:1014C0004FEA154E9040AFB20343B1FBFEFC0EFB5A
:1014D0001C10190C0CFB07F841EA0041884522D981
:1014E00069180CF1FF3004D2884502D9ACF1020032
:1014F0002944A1EB08019BB2B1FBFEFC0EFB1C11C1
:101500000CFB07F743EA01439F420ED9EB180CF19D
:10151000FF3104D29F4202D9ACF102012B44DB1B04
:1015200041EA004193E76046E3E76146F7E760463A
:10153000A4E76346B8E7834206D916B900210846F6
:101540007CE7C6E900E0F9E7B3FA83F78FB9834295
:1015500001D3724508D8BEEB020460EB03030120FF
:101560009C461EB9002169E73846FAE7C6E9004CF7
:10157000F8E7C7F1200CBB400EFA07F522FA0CF48D
:101580002EFA0CF1BA401C4320FA0CF3B8404FEA93
:10159000144901431FFA84FEB3FBF9F809FB183024
:1015A0000B0C08FB0EFA43EA00439A4540D9E318B6
:1015B00008F1FF3004D29A4502D9A8F10200234471
:1015C000A3EB0A0389B2B3FBF9F809FB183308FB54
:1015D0000EFE41EA03418E452CD9611808F1FF3314
:1015E00004D28E4502D9A8F10203214443EA004007
:1015F000A1EB0E01A0FB02984145CE46434602D323
:1016000006D14D4504D20138B9EB020E68EB040354
:10161000002EA7D0B5EB0E0261EB030101FA0CFC22
:1016200022FA07F3F9404CEA0303C6E9003199E7CF
:101630004046C5E74346D9E710B5374BBAB00193EA
:10164000364B374A374900930120374B10F0B2FD33
:1016500006A810F013FD002206AB11460BA810F0EF
:101660001BFC024620B15F2130481CF091FBFEE7D5
:101670002F4A30490BAB04A810F058FC024620B1A9
:1016800063212A481CF084FBFEE711F0B1FA294BD4
:10169000024604A9284810F085FC024620B16621C4
:1016A00022481CF075FBFEE7244B0BA9009303A80E
:1016B00017A3D3E9002310F0A9FC024620B16F2143
:1016C0001A481CF065FBFEE7012206AB0BA918A81F
:1016D00000F0EAF8024620B1772114481CF058FBCC
:1016E000FEE703A918A810F0E7F9024620B1782117
:1016F0000E481CF04DFBFEE7114B124C18606422A3
:10170000002318A810F068FA20460DF0B9FAF6E7A1
:1017100000CA9A3B0000000031FC0008259B02082B
:10172000C1FB000898060020219B02086D360308C3
:101730001E3D0308963603081C520020E12A0008CB
:1017400018520020A08601002DE9F04F012984469F
:101750008E4687B064D8002942D033A3D3E9002352
:1017600033A7D7E9006734A5D5E900450FF2D00BC0
:10177000DBE900AB34A1D1E90001CDE9042334A3B6
:10178000D3E90023CDE9002333A3D3E90023CDE936
:10179000022333A3D3E900234FF000084FF00009E0
:1017A000CCE90A01DDE90401CCE90C01DDE9000125
:1017B000CCE90E01DDE90201CCE910010020CCE901
:1017C0000089CCE90289CCE90467CCE90645CCE97B
:1017D00008ABCCE91223CCF8D0E007B0BDE8F08F1D
:1017E00021A3D3E9002322A7D7E90067CDE9042389
:1017F00021A5D5E9004522A3D3E900230FF2880BE8
:10180000DBE900ABCDE9002321A1D1E9000122A34E
:10181000D3E90023CDE9022321A3D3E90023BBE7C9
:101820006FF07400D9E700BF310BC0FF6726336744
:10183000D89E05C15D9DBBCB07D57C362A299A620F
:1018400017DD70305A01599139590EF7D8EC2F1520
:1018500011155868874AB48EA78FF9640D2E0CDBDA
:10186000A44FFABE1D48B547D182E6AD7F520E5156
:1018700008C9BCF367E6096A3BA7CA8485AE67BBA3
:101880001F6C3E2B8C68059B2BF894FE72F36E3C0C
:10189000F1361D5F3AF54FA56BBD41FBABD9831FF8
:1018A00079217E1319CDE05B00285BD02DE9F04350
:1018B0000D46B1B0002951D00446184616461F46C1
:1018C00010F0ECFB002849D0002E47D00FF2A809F9
:1018D000D9E90089882226490EA8FEF789FC8822CA
:1018E0000EA92046FEF784FC25606D466846A6607A
:1018F00016F0E2F90FCD04F1140CACE80F000FCD97
:10190000ACE80F000FCDACE80F002B68B001CCF8AD
:101910000030C4E91A8927613B68396998476060DB
:1019200010B3002500E0606800EB851031460135FA
:1019300010F0A0FAAE42F6D104F1480010F090FA8F
:1019400000230C496268C4E91E132AB122691AB146
:10195000A2680AB184F88030002000E00B2031B08A
:10196000BDE8F0830B2070470A20F8E7AFF3008052
:1019700078A902086D17010800CA9A3B0000000010
:10198000002800F04B812DE9F04F066B05468FB023
:10199000002E00F0FB8019464368924673B9C36875
:1019A00063B9436953B9C36943B9436A33B9C36A75
:1019B00023B940F285300FB0BDE8F08FBAF1010FC6
:1019C00071F10003D6F840C0C0F2D880D0460F466F
:1019D000BCF1000F00F0288100240791A346304697
:1019E0006146CDE9054A14E00028E4D1DDE90A2387
:1019F000424573EB070103DA1F4601239046059326
:101A0000286B016C01344BF1000B8C427BF100031D
:101A100030D22B69A60053F8242003EB8403002A5C
:101A2000F0D0EA68D0F814C022445CF822200AA959
:101A30003AB103694CF823200369013303612B6930
:101A400033444FF0FF396FF0004ACDE90A9A186825
:101A500016F0F8F840F221339842C5D100222B69E4
:101A600001349A51286B4BF1000B016C8C427BF1D5
:101A70000003CED3DDE906A15AEA01030646DDF8EC
:101A8000149040F0888000200021CDE90A01CDE9C2
:101A90000C010AAB0293F26B06F13403CDE900327C
:101AA00006F1100106F11C0306F12802301D18F0A2
:101AB0008FFE2B6B80461A6CCAB1002427462A6918
:101AC000A60052F8240070B10DF127018DF827709F
:101AD00016F080F800287FF46EAF9DF827300BB920
:101AE0002A6993512B6B1A6C0134A242E7D838F063
:101AF000020066D16C6802463CB1996851F8221028
:101B000000296AD00132A242F7D3EC68002244B126
:101B10002B6B596951F82210002967D00132A2427B
:101B2000F7D3EC69002244B12B6B196A51F82210EB
:101B3000002963D00132A242F7D36C6A002244B17B
:101B40002B6BD96A51F8221000295FD00132A242D2
:101B5000F7D3EC6A002244B12B6B996B51F8221039
:101B6000002932D00132A242F7D3B8F1020F7FF43C
:101B700022AF89F0010A4FEA4A001CE7BCF1000FCE
:101B800054D04FF0FF386FF0004725E74FF46170F5
:101B90000FB0BDE8F08FBAF1010F71F100033FDB28
:101BA00027A3D3E90023002FABBF404600203946CE
:101BB0000021FFF789FBCDE90C23CDE90A010AAB2F
:101BC00068E701200FB0BDE8F08FAB6A43F8221040
:101BD000EC6A0132A242BFD3C7E72B6843F8221058
:101BE0006C680132944290D92B6B86E7AB6843F85E
:101BF0002210EC68013294428AD892E7AB6943F82C
:101C00002210EC69013294428ED896E72B6A43F891
:101C100022106C6A0132A24292D39AE70B207047DD
:101C20004B46002BBCD135E7E146B9E75AEA010241
:101C300001D1E14627E76346E1462BE7AFF3008099
:101C400000CA9A3B000000002DE9F04F016C9BB0E8
:101C500016461F46279D0490CDE9026749B1426CA4
:101C60000123044693404A608B6020F015FD002359
:101C70002364B7F10009C0F2B68000232B607E4BCD
:101C800033EA090300F0BA800022DDE90234184685
:101C900021460023CDE90801FFF722F8804668B10C
:101CA0000123269A1360289B13B1744B289A136062
:101CB000DFF8CC8140461BB0BDE8F08F18AB04982C
:101CC000019319AB0093DDE9082321F013F8834653
:101CD0005FEA195540F0A980DDE91885454405F211
:101CE0003243202B40F34D82C3F1400309FA03F93C
:101CF00005F2124326FA03F349EA0300FEF70EFD4C
:101D0000013D0123A1F1F871109300225D4BFEF714
:101D1000C7FB53A3D3E90023FEF77AFD52A3D3E90F
:101D20000023FEF7BFFB06460F462846FEF706FDDA
:101D30004FA3D3E90023FEF76BFD02460B46304666
:101D40003946FEF7AFFB06460F46FFF711F80022B3
:101D50008246002330463946FEF7CCFF002840F08B
:101D60000382A8EB0508BAF1160F08F1FF330693BA
:101D700000F2A781444E06EBCA06DDE90801D6E968
:101D80000023FEF7B7FF002800F0848000230AF14B
:101D9000FF3A0F9308F1FF33002BC0F29981002323
:101DA0000A93BAF1000F7BDA0A9BCDF82CA0A3EBC3
:101DB0000A030A93CAF100034FF0000A0E93249B12
:101DC000092B77D8052B40F3E181043B00272493AE
:101DD000249B023B032B00F25986DFE813F05404E6
:101DE000510447042C04012329F000492B60224BA5
:101DF000CDF80C9033EA09037FF446AFC9F3130919
:101E000042F20F73269A59EA060913601DD0289BE7
:101E1000DFF87880002B3FF44DAF08F10303289AD8
:101E2000404613601BB0BDE8F08FDDE90812CDF825
:101E30004080A5F2FF35C2F313030846DDF8608049
:101E400043F07F5141F440115FE7289BDFF8408069
:101E5000002B3FF42FAF08F10803E0E7AFF3008059
:101E600061436F63A787D23FB3C8608B288AC63FA0
:101E7000FB799F501344D33F0000F07F9D3403084B
:101E80009C3403080000F83F78AA0208EC340308E9
:101E9000E0340308B8F1000F40F3B1840F900A90CA
:101EA000069BCDF82CA05344069300230E93249B4D
:101EB000092B87D900230127CDE924334FF0FF33C5
:101EC0000C970793049B00215964079B1193049876
:101ED00020F0BCFB0590002800F0E185079B0E2B4D
:101EE0008CBF002707F00107DDE904321A64002FD8
:101EF00000F01B810B9A002A40F34A81BC4E02F08D
:101F00000F03D4054FEA221806EBC303D3E9006799
:101F100040F17083B74B08F00F080325D3E908237D
:101F2000DDE90801FEF79EFDCDE91201B8F1000FD1
:101F300012D0DFF8C09218F0010F08D030463946B1
:101F40000135D9E90023FEF763FC06460F465FEA38
:101F5000680809F10809EED132463B46DDE9120175
:101F6000FEF780FD804689460F9B43B10022A24BBD
:101F700040464946FEF7BEFE002840F0478428460A
:101F8000FEF7DCFB42464B46FEF742FC9B4B002231
:101F9000FEF788FA079B0646A1F15077002B00F068
:101FA000AB80079B0B9C1293059B404612995D1CCE
:101FB000CDE914678E4E06EBC10353E90212CDE959
:101FC00016124946FEF7D4FE00F13007FEF7B6FBC5
:101FD00002460B4640464946FFB2FEF761FA894683
:101FE0000C998046DDE91623002900F00F810020BE
:101FF0008349FEF737FDDDE91423FEF751FA059E0C
:1020000042464B46377006460F46FEF791FE0028C3
:1020100040F02F850023CDF858A0CDF850B09A4657
:10202000DDF848B012942BE00AF1010ADA4580F29B
:10203000BD84304639460022724BFEF7E9FB002290
:10204000704B06460F4640464946FEF7E1FB89467F
:102050008046FEF78DFE0446FEF770FB02460B46F7
:10206000303440464946FEF71BFA32463B4605F8F7
:10207000014B80468946FEF73DFE002840F09C84D7
:1020800042464B4600205C49FEF70AFA32463B4680
:10209000FEF730FE0028C7D0DDF850B02F46129C66
:1020A000059902E08F4200F05F843A4617F8013D3F
:1020B000392BF7D00133DBB23B70DDF81480059289
:1020C0006BE101230F9308F1FF33002BBFF667AEDE
:1020D000C8F101030A930023069362E62846FEF73F
:1020E0002DFB42464B46FEF793FB0022434BFEF787
:1020F000D9F90646A1F15077404649460022424BA5
:10210000FEF7CEF932463B4680468946FEF710FE82
:10211000002840F0AD8340464946324607F100436F
:10212000FEF7E8FD002840F0D5810B9A199B0E2A96
:1021300002DC002B80F2AD810C9A002A00F0B58001
:10214000249A012A40F38583079A0E9B551EAB42C1
:10215000C0F2C782002AA3EB050580F25B840A9BCC
:10216000079AA3EB0208C9E25046FEF7E7FA3246A7
:102170003B46FEF7B5FD00287FF4F3AD0AF1FF3AC8
:10218000EFE5C3F1200306FA03F0B7E501271FE6E8
:1021900000F0A3820B9B164E5D4205F00F0306EB89
:1021A000C303DDE90801D3E90023FEF731FB2E115B
:1021B000CDE9120100F052840E4C00230225804626
:1021C0008946F00709D5404649460135D4E9002340
:1021D000FEF71EFB3B4680468946761004F1080454
:1021E000EFD1002B7FF4C0AEDDE91289BCE600BF61
:1021F00078AA020850AA02080000F03F00001C4024
:102200000000E03F0000244000001440DDE914011C
:10221000FEF7FEFA059B1F70129B012BCDE90C0106
:1022200000F00984129F059BCDF840A01F440022B6
:10223000AA4B40464946FEF7EBFA89468046FEF730
:1022400097FD8246FEF77AFA02460B460AF1300AFB
:1022500040464946FEF724F905F801ABAF428046F7
:102260008946E4D1DDF840A000229D4BDDE90C0158
:10227000FEF718F942464B46FEF73CFD002840F0B9
:102280007B8300209649DDE90C23FEF709F94246DD
:102290004B46FEF74DFD002840F01982199B002B9C
:1022A00003DB0B9B0E2B40F3F58000230E9DDDF826
:1022B00028801E460C93B8F1000F0DDD0699002909
:1022C0000B4609DD41450A9AA8BF4346D21AA8EB3E
:1022D0000308CB1A0A9206930E9B53B10C9B13B1C1
:1022E000002D40F01E8259460E9A049820F064FB9F
:1022F00083460121049820F07FFA0746BAF1000FC7
:1023000040F06381249B012B40F37A8101230699DD
:102310000B4413F01F0308D0C3F12002042A00F37A
:10232000B5810AD0C3F13C0300E01C230A9A98440B
:102330001A440A92069A1A4406920A9B002B05DD5B
:1023400059461A46049820F091FB8346069B002BC1
:1023500005DD39461A46049820F088FB0746249B81
:10236000022B0F9BD4BF00250125002B40F0BE801F
:10237000079B002B24DC1DB3079B002B00F08F81F3
:10238000259BDDF81480DC433946049820F084F95D
:102390001EB13146049820F07FF95946049820F088
:1023A0007BF900220599631C0A70269A1360289B0A
:1023B000002B3FF47FAC404619601BB0BDE8F08FA6
:1023C0000C9B002B00F0AF80B8F1000F00F3C08130
:1023D000BAF1000F40F0D382B146059D079C6B1EF9
:1023E0001C44029B089403F00103049C0A933946A1
:1023F00058461FF0D1FE31468246584620F0AAFBCF
:102400004A4639468046204620F0C4FBC268014651
:102410000AF13003002A40F0A281CDE906035846B4
:1024200020F098FB06990690204620F035F9249B71
:10243000069A52EA0301079B40F0C2810A9A002AD9
:1024400000F0F282B8F1000FC0F2AD81089AA84600
:10245000AA4208F8013B00F0D282594600230A2222
:10246000204620F023F94E45834631464FF00003C5
:102470004FF00A02204600F09D8120F017F94946EE
:10248000064600230A22204620F010F945468146E0
:10249000ADE7144E0B9B06EBC306D6E90034CDE93D
:1024A0000234259B002B80F2E881079B002B00F370
:1024B000E481079B73B900220B4BDDE90201FEF7B3
:1024C000A7F902460B46DDE90801FEF71DFC0028CE
:1024D00000F0CE8100273E4652E700BF00002440B6
:1024E0000000E03F78AA0208000014403946584630
:1024F00020F030FB0028BFF63BAF0B9B59460A2269
:102500000498013B0B93002320F0D0F80C9B8346EA
:10251000002B40F09282119B002B119B079302DC51
:10252000002D7FF429AFDDF814800125079CDDF82C
:10253000109007E0594600230A22484620F0B6F8DA
:1025400001358346394658461FF026FEA54200F164
:10255000300308F8013BEDDB079A0025002ACCBFC9
:1025600090464FF00108059A90445946012204987C
:10257000029320F07BFA3946834620F0EBFA0028DC
:1025800040F3E481059A02E0904500F0D48118F808
:10259000013CC24608F1FF38392BF5D001330B9CC2
:1025A00088F800303946049820F076F8002E00F0C4
:1025B000C8812DB1B54203D02946049820F06CF8AB
:1025C000DDF81480CDF814A0E3E6014652460498E5
:1025D00020F0F2F9249B0746012B40F395804FF041
:1025E000000A3B6907EB8303186920F0B1F8C0F1DA
:1025F00020038CE6DDE908340225CDE9123495E4A8
:10260000029B002B7FF482AEDDE90212C2F31303BA
:10261000002B7FF47BAEAD4B134033B10A9B0133EB
:102620000A93069B013306930123BAF1000F40F091
:10263000F9819A466AE601230C93259B0B9A134471
:1026400011930133012B1D460793B8BF0125172DA8
:1026500040F31382012204235B001146013203F18F
:102660001400A842F8D9049B596430E401230C9368
:10267000259B002B40F3BE801D4611930793E6E790
:1026800000230C93D9E700230C93F1E7C3F11C035B
:102690000A9A19441A4498440A9206914DE639461A
:1026A0000522049820F002F807465846394620F0E3
:1026B00051FA00287FF764AEDDF81480059B0B9C6F
:1026C000013301340593312388F800305CE63A4643
:1026D00017F8013D302BFAD0EFE40225DDE9088937
:1026E00042E40E9B0E95EB1A00259A44DDE9063272
:1026F000134406930A9B984613440A9301210498B5
:1027000020F07AF80646D6E5029B002B7FF467AFEF
:10271000DDE90201C1F313030A46002B3FF47BAF4E
:102720005DE7049C31462A46204620F045F90646DE
:102730005A462046314620F08DF8594683462046B9
:102740001FF0AAFF0E9B5B1B0E933FF4D2ADCAE5B0
:1027500031464246049820F089F9064638E6049846
:1027600006931FF099FFB8F1000F069B08DB029A51
:10277000249902F0010248EA010852EA08022ED127
:10278000594601220498029320F070F93946834695
:1027900020F0E0F90028029B40F36581392B00F01E
:1027A00031810AF13103AA460B9C35464E460AF8A0
:1027B000013BF7E61FF07AFF45460646814616E6DE
:1027C000B8F1000FC0F25E81249948EA01080A9925
:1027D00051EA080800F05681002A7FF737AE392BFE
:1027E00000F01081AA46013335460B9C4E460AF88C
:1027F000013BD7E6012325930793FFF763BBC8F19D
:10280000010306900F900A93FFF74ABB079B002B2A
:102810003FF464AC119B002B7FF787AC0B9A4046CA
:1028200049461293541E2A4B0022FDF7F1FF8046C1
:102830008946681CFDF782FF42464B46FDF7E8FFDC
:102840000022244BFDF72EFE0646A1F15077FFF73C
:10285000ABBB109A002A00F08B8003F23343069A38
:102860000E9D1A4406920A9A90461A440A9245E727
:102870000027DDF814803E4620E7DDE90889DDE920
:10288000022340464946FEF7EDF8059FFEF770FA31
:102890000546FDF753FFDDE90223FDF7B9FF0B46BF
:1028A000024649464046FDF7FBFD05F1300307F8B7
:1028B000013B079B012B00F08980CDF818B0012661
:1028C000DDF81C90DDE902AB22E000BF0000F07FE4
:1028D0000000244000001C4052465B46204629462A
:1028E000FEF7C0F80136FEF743FA8046FDF726FFF3
:1028F00052465B46FDF78CFF0B46024629462046B2
:10290000FDF7CEFD08F13003B14507F8013B5AD081
:102910000022704BFDF77CFF0022002304460D4689
:10292000FEF7DEF90028D7D0DDF818B0DDF8148006
:102930000B9C059731E50B9C3123059A01341370EC
:1029400030E6DDF81480CDF814A026E503D1029B13
:10295000DB073FF517AE18F8013CC24608F1FF3817
:10296000302BF8D00B9C1DE601343123FFF7A4BBBC
:10297000189BC3F1360372E70599FFF796BB7168A0
:1029800004981FF063FE0546002800F08F8033692D
:1029900006F10C010C3002339A00FDF729FC2946A0
:1029A0000122049820F062F8814616E5DDF858A06F
:1029B000DDF850B0FFF7B9BBDDF81480DDF850B09A
:1029C000129C0595E9E4DDF818B0454602460B4631
:1029D000FDF768FD80468946DDE90223FEF7A8F988
:1029E00048B940464946DDE90223FEF779F9002857
:1029F0009CD0E9079AD50B9C0599FFF756BB354645
:102A00004E46B2E5A84639233546059A4E4608F8A3
:102A1000013BBCE5069B134406930A9B984613446E
:102A20000A936BE69A46DCE5392BEBD0B8F1000F40
:102A30003FF7B7AEB7E62F4616E4314600230A2229
:102A400004981FF033FE119B0646002B119B079341
:102A50003FF7BAAC002D7FF48FACB5E4DDE9128905
:102A60000225FFF781BA7FF49EAEDA077FF59BAEB1
:102A700094E6DDF8148005958FE40021049B5964E9
:102A8000FFF725BA002A3FF77BAE8CE6049B0025B2
:102A9000184629465D641FF0D9FD059068B90E4BB4
:102AA00000224FF4D5710D4821F07EF902460A4B01
:102AB00040F2EA21094821F077F9DDE90432259551
:102AC0001A644FF0FF33012211930C920793FFF722
:102AD0002CBB00BF00002440F03403080435030879
:102AE00008B570B10022074907480EF02DFC0246D8
:102AF00018B1282105481BF04BF9024A136801332D
:102B0000136008BD185200201C52002042360308F2
:102B100070B505469CB010B900201CB070BD684669
:102B20000BF09CF90028F7D00D4C0E4EB4F5806FD9
:102B30002246684628BF4FF48062311B26F0E6F932
:102B40000028E9D0A4F5806414F55E7FEED16946D3
:102B5000284626F001FA003818BF0120DDE700BF43
:102B6000885C0300885C03087FB508230393074B48
:102B70000492029340230193054B0A4600932023BD
:102B8000194621F0D0F907B05DF804FBAD36030813
:102B90001937030810B586B01C460493022303932B
:102BA000084B029340230193074B009313460A46B8
:102BB000142121F0B8F918B9237803F07F032370AA
:102BC00006B010BDB6360308D93603082DE9F04F1C
:102BD0001D46F9B0044666480E46904625F0B8FCFE
:102BE0002B460DF1DC0C05F1400E62461868596861
:102BF000083303C273459446F7D195F84830002B4B
:102C000040F0898005F149030DF58E7C05F1890EB0
:102C1000624618685968083303C273459446F7D171
:102C200005F194030DF5AE7C05F1D40E62461868EB
:102C30005968083303C273459446F7D195F8DC30E0
:102C40000DF29D128DF89C3105F21D1105F1DD0389
:102C500053F8040B8B4242F8040BF9D10DF15C0BD5
:102C60005B4640F20112204637A921F04BF9074696
:102C700000285DD10DF19C094B468122204657A9C1
:102C800021F040F90746002852D1859B4FF0400AB9
:102C900004930A230393374B3246029320232046A2
:102CA0001946CDE900BA21F03EF9074600283FD188
:102CB000869B42460493082303932F4B2046CDE97D
:102CC00001A32023CDF80090194621F02CF90746E6
:102CD00070BB839B1BB9849B0BB9829B43B331466A
:102CE000204607AAFFF740FF074608BB2046859904
:102CF0000FAAFFF739FF0746D0B9849B20460293FD
:102D0000839B07AA0193829B0FA900932B4600F097
:102D100073F807460CE0D5F88C1039B32046D5F887
:102D2000902047AB21F0EEF8074600283FF478AF3B
:102D3000204637AA40F2011121F08DF8204617AA4B
:102D4000402121F088F8204627AA402121F083F86D
:102D5000204607AA202121F07EF8204620210FAA34
:102D600021F079F8384679B0BDE8F08F0127DFE728
:102D7000B9360308C5360308D036030830B5044613
:102D80009DB002200D4603F061FD0146284603F088
:102D900069FD60BB03A824F069F80B2002F088FEEF
:102DA00022460146202303A824F0BAF8044630B195
:102DB000032403A824F045F920461DB030BD01AB23
:102DC00095E8030083E80300184624F004FB02386A
:102DD000022888BF21464FF0030098BF0299054A98
:102DE00003AB23F0FBFA04460028E2D0E0E703241B
:102DF000E2E700BF337002082DE9F04F1446ADF54D
:102E00008E5D83B0054606A80E46984624F0B4FAB7
:102E100008A824F0B1FA44A825F056F9204606A9DE
:102E2000FFF7ACFF0446002840F0C38128460AAAF9
:102E300006A921F03DF80446002840F0BA814A492D
:102E400028A81BF0EDFA282314210DEB03000DF147
:102E5000AD0200F0EBF91AAB10330DF15009CDF8CB
:102E6000C839494614230AAA0DF6C8108DF8D54072
:102E700021F0E5F8041E72AFC0F29A81224649465D
:102E80000DF6C81021F06AF8B0F1000AC0F2908186
:102E9000802249460DF6C81021F084F80028C0F2BF
:102EA000878154440444224649460DF6C81021F057
:102EB00055F80028C0F27C813022494604440DF6C2
:102EC000C81021F06FF80028C0F2728123181A464A
:102ED000DDF8C819484604931AF07AFE304608A96E
:102EE000FFF74CFF0446002840F0638128460FAAF4
:102EF00008A920F0DDFF0446002840F05A811A4955
:102F000036A81BF08DFA282314210DF1E5020FA835
:102F100000F08CF922AB18330DF1780ACDF8C839DE
:102F2000514614230FAA0DF6C81007F8BB4C21F028
:102F300089F9031E0393C0F23B811A46DDF8C819D4
:102F400050460DF6C81559AE1AF042FE39463046C5
:102F500098F8DC2047F8645C21F009F9B0F1000B27
:102F600004DA1BF16C0F22E15937030857F8643C6F
:102F70000A2201333946304647F8643C21F012F802
:102F8000051EC0F23C810BF1FF3B5D442A463946E9
:102F9000304620F0E3FF031EC0F23381A6223946FB
:102FA0003046059320F0FEFFB0F1000BD9DB059B06
:102FB0001D445D446B1C00F0FB80D8F8D82052B152
:102FC000009733460520D8F8D41020F04CFF002895
:102FD000C0F219810544334640220420009708F1CD
:102FE000940120F040FFB0F1000BBADB98F84830B4
:102FF000AB44012B40F0F1800B2002F059FDD8E9E1
:1030000023120DF6C81302F077FE0546002840F0A3
:10301000DF8000973346D8E92312032020F023FFF6
:10302000051EC0F2C38033464022022000970DF6F1
:10303000C81120F018FF0028C0F2E5805D4405EBC0
:10304000000BD8F844205AB172AB009301203346EC
:10305000D8F8401020F007FF0028C0F2D480834445
:1030600072AB0093402233464146002020F0FBFE25
:103070000028C0F2C88000EB0B052A46304672A932
:1030800020F06CFFB0F10008C0F2B680302230466C
:1030900072A920F087FF0028C0F2B580454405449E
:1030A0002A4657F8641C38461AF092FD594A5A4984
:1030B00044A808F0ADFB00287AD128A944A825F03F
:1030C0002CF8002874D136A944A825F023F88046AE
:1030D00000286DD108A944A825F018F806A944A82D
:1030E00025F016F8092144A825F00DF8049B0322C9
:1030F000CDE900934949434644A825F011F8034619
:10310000002855D1039A4649CDE900A244A80322DC
:1031100025F006F800284BD1042144A808F0E8FB6C
:10312000002845D14FF0FF32012144A808F096FB5A
:1031300000283DD101230A22CDE90075394944A870
:1031400024F0EEFFA0BB304623F090FE0B2002F0EF
:10315000AFFC52460146039B304623F0E1FE4FF49C
:103160000062314B0DF6C811009644A808F0F2FB3E
:103170000546304623F065FF002D19DB0DF58F5312
:1031800018331B681D600DF58F5310331B689D426B
:1031900021D80DF6C813C5F5006119440DF58F53FC
:1031A0002A4658691433FDF723F802E06C3512D033
:1031B000032444A824F092FF06A824F0E1F808A80C
:1031C00024F0DEF820460DF58E5D03B0BDE8F08FEB
:1031D00010F16C0F19D10224EBE7002B7FF431AF13
:1031E000334640220320009708F1490120F03BFEBE
:1031F000002808DB834424E718F16C0FD7E7AB46BF
:10320000AFE69B46ADE66C30D1E70028BFF648AF8D
:10321000CEE700BF67370308763703088537030812
:10322000893703088D37030833700208F0B585B07D
:1032300004460E46EC46154D05F1100E674628680B
:103240006968083503C77545BC46F7D12046264452
:103250000024B04201D09C4201D305B0F0BD0178FA
:1032600004AF07EB111111F8101C651CAB4211558E
:1032700008D9017801F00F011031694411F8101CD0
:103280005155A51C2C460130E3E700BF98370308D1
:103290002DE9F04F834699B00F4618460021164697
:1032A000039321F009FB002800F089810024012507
:1032B000774B30461493039915ABCDE90B45CDE917
:1032C0000D45CDE90F45CDE91145139321F07DFA68
:1032D000A04228DABBF1000F05D1E7B9002420464F
:1032E00019B0BDE8F08F2146584621F0B1F90446E7
:1032F0000028F2D00BA821F099F80DA821F096F83B
:103300000FA821F093F811A821F090F80C2115A82E
:1033100003F0C2FBE3E73146384621F064F9044686
:103320000028E7D1DAE731460BA821F05CF9044622
:103330000028DFD103990DA821F055F90446002893
:10334000D8D1F1880FA80231ADF83850ADF830501F
:1033500021F07AF804460028CCD101460FA821F0CC
:1033600077F904460028C5D1F18811A8023121F06F
:103370006BF804460028BDD10DA821F0D4F900F067
:103380001F001F2873D0C0F11F0319460BA801931B
:1033900021F0F5F904460028ACD101990DA821F0DF
:1033A000EEF904460028A5D1BDF83250BDF83A80A8
:1033B0000DA8A5EB080A4FEA4A19494621F0DFF9A2
:1033C0000446002896D14FEA8A0A0DA90BA821F0DD
:1033D0002BFA00284DDA49460DA821F0EDF90446F4
:1033E000002887D108F1FF3305939B0005F1FF3AD0
:1033F000069305F1804508F18043023B013D9B00A7
:10340000A5EB08050893AB000293059B9A4541D8AC
:10341000BBF1000F0DD058460FA921F0E4F80028A9
:1034200040F0C980039AB388928813FB02F3ABF88B
:103430000430002F3FF45EAF01990BA821F0BCF9D6
:10344000002840F0B880B3880BA93846ADF830307A
:1034500021F0C9F80146002840F0AF80384621F03D
:103460002BFA00287FF446AF0123BB8042E701948A
:103470009AE70F9A0BA952F80A300846013342F82E
:103480000A300DAA21F0FDFA044600289DD031E74C
:10349000010003000D9B069A04931344DDF82C9061
:1034A0000793049B4FEA8A089A5859F82A10A8F102
:1034B00004030F9D0993029B91421D4476D2A8F10B
:1034C0000400002359F80000FDF74EFF002914BF47
:1034D0004FF0FF330346BAF1010F2B600EBF0023FC
:1034E00009EB080353F8083C1593A8F1040359F8B5
:1034F0000330169359F80830DDF8108017932B68C5
:1035000001332B60089B98442B680021013B2B6002
:1035100011A821F09DF800284DD1059B002B48D023
:10352000D8F80020119B11A91A60079A0846126862
:103530005A602A6821F045FB00283CD113A911A844
:1035400021F072F90028DFDC2A680DA911A821F00A
:1035500038FB80BB029B11A84FEAC308414621F00B
:103560000EF940BB0BA9084611AA21F08AFA0146C0
:1035700018BB0BA821F0A0F9002812DA0DA911A898
:1035800021F031F8B8B9414611A821F0F8F890B906
:103590000BA9084611AA21F071FA60B92B68013B0A
:1035A0002B60029B0AF1FF3A043B2DE74FF0FF33FB
:1035B00091E7059AB6E704469CE60C469AE66FF05A
:1035C0000B048CE6F7B5036804461B68DB0703D4DD
:1035D0006FF00D0003B0F0BD032500260C4F2A4606
:1035E000214601A821F03DFC0028F3D1019B3BB905
:1035F0002946204621F060F90028E9D10120E9E7B9
:1036000017F8013B0136A72E1D44E8D1E2E700BFC1
:10361000A93703088B4228BF0B462DE9F041044629
:103620000020069DC91ADE0803F00703013E05D2FB
:10363000013B44D201394BD2BDE8F08152F8087BFE
:1036400054F808CB52F804EC54F8048CE5FB67C03E
:10365000E5FB6E8044F808CC44F8048C52F8087BF3
:1036600054F808CB52F804EC54F8048CE5FB67C01E
:10367000E5FB6E8044F808CC44F8048C52F8087BD3
:1036800054F808CB52F804EC54F8048CE5FB67C0FE
:10369000E5FB6E8044F808CC44F8048C52F8087BB3
:1036A00054F808CB52F804EC54F8048CE5FB67C0DE
:1036B000E5FB6E8044F808CC44F8048CB6E700BF04
:1036C00052F8046B2768E5FB667044F8047BAFE7AB
:1036D00023681B182CBF0120002044F8043BA9E7F5
:1036E0002DE9F04F054693B000780F4614469846F2
:1036F00022F09BFB002800F0B9806B6B002B00F0E0
:10370000B5800121404621F0D7F8002804DA584955
:10371000084613B0BDE8F08F05F134063146404647
:1037200021F082F80028F2DA0CA822F00BFD06A89E
:1037300020F077FE08A820F074FE0AA820F071FEA1
:103740004FF00C0905F11C0BB9F1010900F08C8058
:103750004FF00C0ABAF1010A00F08680DDE91E2361
:1037600006A9284601F08AFB014600286DD1219B5D
:1037700002900193209B0CA9009328465B4606AA61
:1037800001F070FB014600285FD10CA93246384693
:1037900021F048FA0146002857D1384621F08CF82C
:1037A0000028D7D008A92846DDE91C2322F011FB08
:1037B0000146002849D1DDE920230AA9284601F065
:1037C0005DFB0146002840D139464246204621F0A3
:1037D0008CF90146002838D108A90846224621F074
:1037E0004DF9014688BB08A908460AAA21F07DF9CF
:1037F000014650BB06A908460AAA21F076F90146FF
:1038000018BB06A90846324621F00CFA0146E0B979
:1038100006A93246204621F0E0FC0146A8B921461F
:10382000204608AA21F061F9014670B921463246C6
:10383000204621F0F7F9014638B90590204621F0DD
:103840003BF8059900283FF47FAF0CA8059122F0C2
:10385000B6FC06A820F0EAFD08A820F0E7FD0AA8BB
:1038600020F0E4FD059953E70249EEE702494FE7EE
:1038700080B3FFFF00B3FFFF80B0FFFF2DE9F04FE3
:10388000C5B0046C05469DF84001894692461F4626
:1038900002F00EF907348046E408002843D008A857
:1038A0000AAE20F0BEFD304623F0E0FA224638464C
:1038B00023A920F05EFF834658BBDDE94E2328464E
:1038C00008A922F086FA834618BB23AB22461919B1
:1038D00008A820F04EFF8346D8B941463046630021
:1038E00023AA23F01DFB834698B9539B52460693A7
:1038F000529B49460593519B2846CDE903630B4BE8
:1039000002934F9B01934E9B00933B46FFF7E8FECB
:103910008346304623F095FB08A820F087FD5846E3
:1039200045B0BDE8F08FDFF808B0F8E73370020863
:1039300080B0FFFF2DE9F047054692B00CA80C4679
:10394000DDE91A699246984622F0FCFB04A820F0B3
:1039500068FD06A820F065FD08A820F062FD0AA811
:1039600020F05FFD287822F060FA002800F08880BF
:103970006B6B002B00F084800121304620F09CFF0F
:10398000002813DB05F134073946304620F04CFFA0
:1039900000280BDA0121484620F08EFF002805DBC5
:1039A0003946484620F040FF002813DB354C0CA870
:1039B00022F005FC04A820F039FD06A820F036FD11
:1039C00008A820F033FD0AA820F030FD204612B0F0
:1039D000BDE8F08722465346284604A922F0F9F9AB
:1039E00004460028E3D13A46494606A821F0F5FBF3
:1039F00004460028DBD106AA04A908A821F075F81E
:103A000004460028D3D108A93A46084621F00AF90D
:103A100004460028CBD10DF128093146484606AAB4
:103A200021F063F804460028C1D13A464946484689
:103A300021F0F8F804460028B9D1CDE90180CDF88D
:103A40000090284605F11C0308AA0CA901F0CAF948
:103A500004460028ABD10CA822F023FC0028A5D1F5
:103A60000CA93A46084621F0DDF8044600289ED10C
:103A700031460CA820F0D8FE0446002897D095E7E0
:103A8000014CA3E700B2FFFF80B0FFFF2DE9F0413A
:103A9000AEB0DDF8DC8004460F4615461E46B8F190
:103AA000000F5BD007A820F0BCFC09A820F0B9FCEF
:103AB000399B00950593389B2046CDE90383CDE9DA
:103AC000016704F1600309AA07A9FFF7D7FE0546BD
:103AD000002833D1014687220B900CA81AF0F8F881
:103AE0000DF1B70309AA0BA906A8069320F0BCFAAA
:103AF000041E22DB07AA0BA906A820F0B5FA061EB1
:103B000026DB264432460BA906A820F027FA041E1D
:103B100013DB30220BA906A820F044FA002819DB99
:103B2000359B34440444A34216D322460699349864
:103B3000FCF75EFB369B1C602C46254607A820F050
:103B400075FC09A820F072FC28462EB0BDE8F08173
:103B50003446F2E70446F0E7014CEEE7014DF3E7A7
:103B600000B1FFFF80B0FFFF2DE9F0478AB0924619
:103B700006AF129A804608AE38469D1889460493CF
:103B800020F04FFC304620F04CFC3023294605AA9B
:103B900004A820F0F2FB58B1A0F59F44384620F06D
:103BA00045FC304620F042FC20460AB0BDE8F087D4
:103BB000DDE9043213449D4221D13A46294604A846
:103BC00020F0EFFB0028E7D13246294604A820F078
:103BD000E8FB0028E0D1139B5246CDE9016349463A
:103BE0004046009708F16803FFF7A4FE044600284A
:103BF000D4D1049A034BAA4218BF1C46CEE7024C0C
:103C0000CCE700BF00B4FFFF1AB0FFFF38B50C4689
:103C10000546114620461A4620F067FF38B9AB6CBE
:103C200033B9214620462A1D20F0FCFF48B338BD99
:103C3000B4F90430002B08DB204620F074FDEB6B58
:103C4000B0EB430F08D91A48F1E70146204620F0AF
:103C500033FE0028F0D0F6E72046AB6C98470028EA
:103C6000E5D10435B4F90430002B04DA00212046F4
:103C700020F022FE58B92946204620F0D5FD002824
:103C80000DDA0C4A0020136801331360CFE72A468F
:103C90002146204620F0F2FE0028E3D0C7E72A465E
:103CA0002146204620F068FE0028E4D0BFE700BF90
:103CB00080B0FFFF20520020F0B514461F46064694
:103CC00085B002A80D4620F0ACFB234602210097E8
:103CD000321D02A821F063FA044678B92A46294623
:103CE000304602ABFFF792FF044638B905F11002E7
:103CF0001146304602ABFFF789FF044602A820F0C8
:103D000095FB034814F10E0F18BF204605B0F0BD17
:103D100000B3FFFFF0B514461F46054685B002A864
:103D20000E4620F07EFB2346022100972A1D02A8A2
:103D300021F035FA044648BB06F110021146284628
:103D400002ABFFF763FF044600BB06F108073A46E3
:103D50003946284602ABFFF759FF0446B0B902AB1B
:103D60001A4619462846FFF751FF044670B93246F5
:103D70003146284602ABFFF749FF044630B93A46C0
:103D80003946284602ABFFF741FF044602A820F05F
:103D90004DFB034814F10E0F18BF204605B0F0BDCF
:103DA00000B3FFFF2DE9F04F012A80460E469146F1
:103DB00085B005D8096805B0BDE8F04F22F0EBB832
:103DC0000821104619F068F80746002800F0AA807C
:103DD00002A820F026FB4946384622F047F8316811
:103DE0003846103120F0FFFB0446002846D1B24689
:103DF00007F108014FEAC90507EBC90B5AF8043F60
:103E000040461033A1F108020191FFF7FFFE04467E
:103E1000A0BB019908318B45F0D1A5F108013944C7
:103E2000084608F1040221F0D8F9044630BB103DE1
:103E300009F1FF3A06EB89063D44BAF1000F2BD099
:103E400005F1080B2B465A46404602A9FFF7DEFE55
:103E5000044698B956F8043C5A4629464046103361
:103E6000FFF7D4FE044648B956F8042C4046083201
:103E7000114602ABFFF7CAFE044690B102A820F03B
:103E8000D5FA3846494621F0FDFF384619F05CFB6B
:103E9000204605B0BDE8F08F394602A820F0A3FB0C
:103EA000E0E702AB1A4619464046FFF7AFFE04466C
:103EB0000028E3D156F8042C4046114602ABFFF728
:103EC000A5FE04460028D9D156F8042C40460832F5
:103ED000114602ABFFF79AFE04460028CED1B8F88F
:103EE0000A1056F8040C20F046FB04460028C5D101
:103EF00056F8040CB8F80A10083020F03CFB0446D1
:103F00000028BBD156F8040D0121103020F0A0FB91
:103F100004460028B2D1083DBAF1000FAED00AF134
:103F2000FF3A8AE7004CB3E780B2FFFF2DE9F84F74
:103F30001E468A46824904460B68904601330B6050
:103F4000C36806F10805002B40F0C08002F11003A1
:103F50001A462946FFF75AFE002840F0EF8006F186
:103F600010072B4642463946204622F058F80028D2
:103F700040F0E48006F118092B46424649462046A7
:103F800021F0EAFF002840F0D9804B463A46294606
:103F90002046FFF73BFE002840F0D0800322294650
:103FA000304620F00EFE002840F0C8803146204602
:103FB00022F051F8002840F0C18008F1080B06F10A
:103FC00010075B465A4639462046FFF71FFE002879
:103FD00040F0B4803946204622F05EF8002840F0D8
:103FE000AD803B46424629462046FFF70FFE00289B
:103FF00040F0A4802946204622F04EF8002840F0E8
:104000009D8006F118093B463A4649462046FFF78F
:10401000FDFD002840F092804946204622F03CF801
:10402000002840F08B803346324639462046FFF761
:10403000EDFD002840F082802B463A463946204666
:1040400021F08AFF002879D12B463A46394620468E
:1040500021F082FF002871D13B462A46294620469E
:1040600021F07AFF002869D133462A4629462046A6
:10407000FFF7CCFD002861D14B462A462946204651
:1040800021F06AFF002859D15A464946204608F1D6
:104090001003FFF7BBFD002850D14946204621F010
:1040A000FBFF00284AD13946504620F09CFA0028F0
:1040B00044D129460AF1080020F095FAF0BB4946A0
:1040C0000AF11000BDE8F84F20F08DBA13462946DA
:1040D000FFF79CFD90BB03222946304620F071FD7E
:1040E00060BB3146204621F0B6FF38BB04F10C0717
:1040F0000146384620F0E0FB00283FF45EAF08F1AF
:1041000010031A4629462046FFF780FDB0B906F194
:1041100010092B462A4649462046FFF777FD68B925
:104120003B464A4629462046FFF770FD30B92B46EC
:1041300032463146204621F072FF3BE7BDE8F88F5A
:10414000245200202DE9F14F9A469146774A0446C1
:1041500013680E4601331360DAF810300A9D1BB95C
:10416000734801B0BDE8F08F09F11007002138460F
:1041700020F0A2FB30B95146304601B0BDE8F04F07
:1041800022F062B80AF110080021404620F094FBAA
:1041900008B94946F0E70121404620F08DFB002890
:1041A000DED13B463A4629462046FFF72FFD002840
:1041B000D7D105F108083B462A4641462046FFF77D
:1041C00025FD0028CDD153462A4629462046FFF733
:1041D0001DFD0028C5D14246414620460AF108038C
:1041E000FFF714FD0028BCD14B462A46294620463D
:1041F00021F0B2FE0028B4D109F1080B5B4642461B
:104200004146204621F0A8FE0028AAD100212846D8
:1042100020F052FB014690B9404620F04DFB40B9DA
:104220002B464A463146204601B0BDE8F04FFFF725
:104230007DBE304601B0BDE8F04F22F01EB82B46DF
:104240003A46204606F11001FFF7E0FC002888D12D
:1042500005F110072B462A4639462046FFF7D6FCC3
:1042600000287FF47EAF05F1180A2B463A465146E6
:104270002046FFF7CBFC00287FF473AF4B463A464D
:1042800039462046FFF7C2FC00287FF46AAF394662
:10429000284620F0A8F900287FF463AF294620467D
:1042A00021F0FAFE00287FF45CAF434642463146D7
:1042B0002046FFF7ABFC00287FF453AF2B46324675
:1042C0003146204621F048FE00287FF44AAF53468D
:1042D00032463146204621F03FFE00287FF441AFB0
:1042E00033463A463946204621F036FE00287FF410
:1042F00038AF43463A4639462046FFF787FC002848
:104300007FF42FAF5B46524651462046FFF77EFCB6
:1043100000287FF426AF53463A46204606F10801AE
:1043200001B0BDE8F04F21F017BE00BF28520020B9
:1043300080B0FFFF2DE9F04F0446D9B002939DF8FD
:10434000883108A803939DF88C310D46DDE9646936
:104350000593669B9046049304F1340A20F061F8BB
:104360000EA820F05EF80021504620F08DF90128BB
:1043700005D0DFF8DCB1584659B0BDE8F08F002118
:10438000404620F081F94146074608A820F02BF965
:10439000834630B10EA820F049F808A820F046F86E
:1043A000E9E7424651460EA820F06BFB8346002801
:1043B000F0D1B7FA87F77F093A460EA908A820F08E
:1043C0006CF883460028E5D10146721C16A80DF151
:1043D000580819F07DFCC2465E4540D100224FF0DE
:1043E000010C66453ED20DF13808404620F01EF81B
:1043F00008A820F01BF808A821F0A4FE04214046DC
:1044000021F034FD16AB9B5D294600932046DDE983
:10441000022321F067FD8346002840D008A821F040
:104420002DFE0421404621F02DFDA4E708A8CDE98A
:10443000061320F029F9079B069900FA03FC9AF865
:104440000000013340EA0C008AF800003144059A6C
:104450009342EBD30BF1010B0AF1010ABCE7594679
:104460000023F4E798F8010098F8003080EA020E83
:104470006FEA0E0101F0010113FB01F3104003EAA2
:104480000E0283EA0E0308F8013F18F8013C0243CC
:1044900043EAC11308F8013C0CF1010CA1E7B9F1A2
:1044A000000F08D04A4629462046049BFFF732FCFD
:1044B00083460028B2D10DF1580A0EB9B3461EE06A
:1044C00043462A4629462046FFF730FD013E8346F3
:1044D000A8B916F80A302046009308A9DDE902239E
:1044E00021F000FD834650B92A4629462046CDF8E2
:1044F000008008ABFFF726FE83460028DDD008A821
:1045000021F0BCFD04210EA821F0BCFCBBF1000F82
:104510007FF431AF3A462946204621F0BFFC83465E
:1045200000287FF428AFB9F1000F06D129462046B4
:1045300059B0BDE8F04F21F02EBD4A46294620462D
:10454000049BFFF7E7FB83460028EFD013E700BF8B
:1045500080B0FFFF2DE9F84F012A8346DDE90A69A3
:104560000F46924698465CD8043020F0E0F80546A5
:10457000584621F0DEFD022823D14D45C8F80050F1
:1045800003D9294C2046BDE8F88F2A4631463846E3
:1045900020F0E9F804460028F4D1584621F0C9FD7E
:1045A00001288346EED1002107F1100020F084F9A4
:1045B000044640B9B9F1000FE3D03070C8F800B03C
:1045C000E0E71A4CE9E7BAF1000F19D16B000133AB
:1045D0004B45C8F80030D4D8314604232A46384623
:1045E00001F8013B20F0C5F804460028CAD12A464C
:1045F000691C314407F10800BDE8F84F20F0B9B854
:104600006B1C4B45C8F80030BBD8002107F10800EF
:1046100020F03AF83146023001F8010B2A463846BC
:10462000EAE7034CAEE700BF00B1FFFF80B1FFFF38
:1046300080B0FFFFF0B50E460546012185B006F1BA
:10464000100020F039F9044618B14D4C204605B051
:10465000F0BD284621F06DFD022850D1304620F0F3
:1046600066F82B6C0733B0EBD30FEED821463046FB
:1046700020F022F90028E8DB02A82F781FF0D1FEF5
:10468000314602A81FF0AFFF0446B0B904352946F1
:1046900002A820F0C9F8002807DA012102A820F0BA
:1046A0000BF900280DDC364C07E002A92A46084623
:1046B00020F0E7F904460028E9D002A81FF0B6FE72
:1046C000C4E7092F0ED002A90122084620F0DDF927
:1046D00004460028F1D1294602A820F0A5F80028B8
:1046E000EBD1E0E7274902A820F09EF80028DAD0B5
:1046F000254902A820F098F80028E4D1D3E7012842
:104700003BD12146304620F0D7F800289DDB06F14A
:1047100008072146384620F0CFF8002895DB2C1DED
:104720002146304620F080F800288EDA21463846AF
:1047300020F07AF8002888DA68461FF072FE02A896
:104740001FF06FFE3B463A4669462846FFF75EFA81
:10475000044670B93246284602A921F0ACFC044652
:1047600038B9684602A920F05FF8054B041E18BF4F
:104770001C4668461FF05AFE9FE7044C66E700BFE0
:1047800080B3FFFF48AB020840AB020880B0FFFFD8
:1047900070B5064621F0CDFC02280C4605461DD119
:1047A000002120461FF070FF08B1154870BD01219F
:1047B00020461FF069FF0028F7D120461FF0B3FF05
:1047C000336C5A1C9042F0D1FE2B05D1294620466D
:1047D0001FF05AFF0028E8D10020E7E701280DD19B
:1047E0000146204620F068F80028DEDB204606F16E
:1047F000340120F019F80028EEDBD6E70148D5E7B0
:1048000080B3FFFF80B0FFFF2DE9F04FA1B007910B
:10481000114604469A460C92FFF7BAFF0746D0B9F4
:1048200051462046FFF706FF002840F0D58220467B
:1048300021F07FFC022840F0DF8111A821F082FCEA
:104840000FA81FF0EEFD042118A821F00FFB2A9BF2
:104850002BB9A7F59F47384621B0BDE8F08F5146E8
:104860000FA81FF0C0FE074650B111A821F006FCAA
:104870000FA81FF0DBFD042118A821F003FBEAE7D5
:10488000514611A821F0E0FC07460028EDD1012196
:1048900007981FF0DDFE07460028E6D1079B01467A
:1048A00003F1100528461FF0D3FE07460028DCD18F
:1048B000079B04F1040903F108001FF0B7FD494606
:1048C00011A81FF0B1FF00282EDA2046DDE92A23C7
:1048D00011A9FFF7F1F907460028C6D1D4F84080A6
:1048E000B8F1FF3F40F0A7802046DDE92A23079971
:1048F000FFF7E2F907460028B7D14A46294628467D
:1049000020F06BFC07460028AFD1079A2B461146D2
:104910002046FFF77BF907460028A6D1012128464B
:104920001FF096FE074607E011A94A46084620F008
:1049300023F807460028C2D011A821F09FFB0FA83A
:104940001FF074FD042118A821F09CFA002F82D1D9
:10495000204621F0EEFB012880467FF47CAF04F175
:1049600024010AF108001FF05FFF0890002800F002
:104970004581236CB3F5C07FC0F0868103339B086B
:104980000A93002308934FF0080904264FF0030B05
:10499000CDF824901821099818F07EFA05460028D1
:1049A00000F018820027182202FB0750013721F07F
:1049B000C9FBF9B289454FF01802F5D81C22002135
:1049C00011A819F085F9042118A821F04FFA5146D1
:1049D000284621F039FC074608BB82460A9B03FBA8
:1049E0000BF30B930B9B9A4540F0558111AB184686
:1049F0000B930022012303EB43015B00DBB205EBC9
:104A0000C101994502F1010240F8041BF3D8204688
:104A100011A9FFF7C7F90746002800F09381042188
:104A200018A821F02FFAA36D9D4240F06A810798E3
:104A300021F0C5FB0FE741460C981FF025FEC6B2DA
:104A40003246079811A91FF051FD074600287FF450
:104A500073AF3246284615A91FF048FD07460028C7
:104A60007FF46AAF2B462046079A18A921F0D7FA9F
:104A7000074600287FF460AF2B462046079A1AA904
:104A800021F06AFA074600287FF456AF204615AB9E
:104A900011AA1CA921F0C3FA074600287FF44CAFE5
:104AA000204615AB11AA1EA921F056FA0746002888
:104AB0007FF442AF1EAA1146204618ABFFF7A6F8B6
:104AC000074600287FF438AF1CAA114620461AABCF
:104AD000FFF79CF8074600287FF42EAF18AB1A4664
:104AE00019462046FFF792F8074600287FF424AFC6
:104AF0001AAB1A4619462046FFF788F807460028E1
:104B00007FF41AAF204607991AAB18AAFFF77EF870
:104B1000074600287FF410AF18AA114620461AABAA
:104B200021F01AFA074600287FF406AF29462046EE
:104B300018AB04F10C02FFF769F8074600287FF470
:104B4000FBAE2B46294620461AAA21F068FA0746F2
:104B500000287FF4F1AE20461CAB1EAA11A921F05B
:104B60005EFA074600287FF4E7AE11AB1A461946F5
:104B70002046FFF74BF8074600287FF4DDAE2046BD
:104B80001CAB1EAA15A921F0E7F9074600287FF4FF
:104B9000D3AE15AB1A4619462046FFF737F807463D
:104BA00000287FF4C9AE15AB194620460FAAFFF7BF
:104BB0002DF8074600287FF4BFAE2B462946204635
:104BC00018AAFFF723F8074600287FF4B5AE32464F
:104BD000079811A91FF08AFC074600287FF4ACAEA5
:104BE0003246284615A91FF081FC08F1FF38074618
:104BF00000283FF475AE9FE6784FA9E6504604F1D1
:104C00001C011FF011FE226C134630B1B2F5C07FBB
:104C10003CD3033293080A93B5E6B2F5C07FA16D89
:104C200025D3A1B1E26D6AB30426CDF82080013B03
:104C30003344B3FBF6F3012206F1FF3B02FA0BF219
:104C40000A93089B09929DF8249053B9A2E64FF06D
:104C5000080904264FF0030B033293080A93CDF89A
:104C60002490A56D002D39D10123089392E679B1E6
:104C7000E26D6AB904260122013608929E4228BFDD
:104C80000226D4E70526F6E7002208920426F5E777
:104C9000CDF82080FAE70A9B1821BAFBF3F2012332
:104CA0009340DBB201FB035B0A9901FB12A2002ACD
:104CB00038D05A465946204618ABFFF737F9074611
:104CC00000283CD0042118A821F0DCF8002F7FF444
:104CD000AAAE089B13B1099BA565E3652B9B2046F3
:104CE00004932A9B0C9A03930A9B0799CDE90163CD
:104CF000CDF800902B46FFF71DFBA36D07469D42A4
:104D00000CD00024182606FB0450013421F057FA79
:104D1000E3B29945F7D8284618F016FC002F3FF467
:104D20009AAD84E603F0FE0101EB5301584605EB12
:104D3000C10121F089FA07460028BAD0C2E70AF17A
:104D4000010A4FE6C3460FFA88FA0AEB4A0A05EB56
:104D5000CA03DA460BF1FF3BBAF1000F2AD14FEA42
:104D600048085FFA88F8C145ECD81821099B05F17D
:104D7000180201FB03510B9B43F8042B183291429C
:104D80000B93F8D1099B20465A1E11A9FFF70AF888
:104D9000074600287FF443AE05F1100840460AF1AB
:104DA000010A1FF043FB5FFA8AF1894508F11808F0
:104DB000F4D887E7182202FB0BF118AA00922046CC
:104DC0006A1819440D93FFF7BDF90D9B074600289B
:104DD000BFD077E7024F2AE607463CE580B0FFFFE9
:104DE00080B2FFFF2DE9F04190B00546984621F0D2
:104DF000A0F901280E46144630D102A808AF21F0D0
:104E0000A1F90421384621F031F8224643462846CC
:104E100002A921F04FFA0446A8B9DDE9162331466C
:104E2000284621F047FA044668B9334631462846F9
:104E3000009702AAFFF786F9044620B931462846B2
:104E400021F0A9F804463846042121F01BF802A8F5
:104E500021F014F9204610B0BDE8F081004CF9E7CC
:104E600080B1FFFF10B4019C14B110BCFFF7CCBCA3
:104E7000014810BC704700BF80B0FFFFF7B5064681
:104E80000C46194621F055F9022805462DD1366CFD
:104E90000B46F70801373946204620F0A7F80246AE
:104EA00098BBC6EBC701204601391FF085FC0246BE
:104EB00058BB0122314620461FF0F6FB024620BBBC
:104EC000014620461FF0F0FB0246F0B901212046C2
:104ED0001FF0EAFB0246C0B9FE2E16D12946204635
:104EE00003B0BDE8F0401FF0DFBB012810D113462E
:104EF000009106F134020146204620F050F9054B9E
:104F000010F10E0F14BF02461A46104603B0F0BD52
:104F1000014AFAE700B3FFFF80B0FFFF2DE9F04739
:104F20009A46037805460C461646A0B023B9284C8D
:104F3000204620B0BDE8F0870A789A42F7D101F107
:104F40006809494668301FF06FFC0028EFD104F172
:104F50007008414605F170001FF066FC0028E6D19C
:104F600004F17807394605F178001FF05DFC002850
:104F7000DDD102A821F0E6F808A821F0F1F82146D9
:104F800008A821F077F904F11C0304F16002CDE9CF
:104F9000006A02A908A821F0F0F9044680B9494640
:104FA00002A81FF041FC50B9414604A81FF03CFC88
:104FB00028B9394606A81FF037FC044600B1044C56
:104FC00002A821F05BF808A821F0FDF8B0E700BFC7
:104FD00080B0FFFFF0B5C58804460E2DA3B069D997
:104FE00001230E3DADB20E2DADF80830ADF80A50DC
:104FF00062D813AE3C2200213046019618F068FEBC
:10500000216830463831AA00FBF7F2F80E23002160
:10501000E2889A4249D801AD2A46214620461FF02F
:105020002DFD00283FD195E8030005AB9C4603AF5A
:1050300087E8030003930FCEACE80F000FCEACE877
:105040000F000FCEACE80F0096E803008CE80300D9
:10505000E02138461FF0B0FB28BB3A4621462046E7
:105060001FF00CFDF8B9BDF80A300146062BA3F17C
:1050700007024FEA82021AA898BF002218F028FE01
:105080003A46294628461FF0F9FC60B90F23E02173
:105090002846ADF80A301FF072FB20B92A46214697
:1050A00020461FF0EBFC23B0F0BD226842F823102D
:1050B0000133ADE70020F6E70048F4E780B0FFFFDA
:1050C000F0B5C4880546082C8BB017D9083C082CCD
:1050D00017D80668A70020363A46314602A8FBF7E3
:1050E00087F83A460021304618F0F2FD2623009357
:1050F00009212346286802AAFEF78CFA00200BB08B
:10510000F0BD0148FBE700BF80B0FFFF2DE9F0478D
:10511000C48805469442164690B06FD31FFA82F8B1
:10512000374BA4EB0804A4B2A24238BF4446049310
:10513000012305AF2C22039138460021ADF8083039
:10514000ADF80A40019718F0C3FD2968A20001EBF1
:1051500086013846FBF74CF83346002102344FEA0B
:105160008609ADF80A40EA8893423DD301A9084672
:1051700003AA1FF0BAFC044690BB2946284601AAA0
:105180001FF0B2FB044658BBB5F806A00146AAEBD7
:10519000080A1FFA8AFA564538BFC2462C223846FA
:1051A000ADF80AA018F094FD29684FEA8A02384643
:1051B0004944FBF71DF8BDF812309A44ADF80AA037
:1051C000EB889E4215D301A9084603AA1FF08DFC67
:1051D000044628B92946284601AA1FF085FB044643
:1051E000204610B0BDE8F0872A6842F8231001334A
:1051F000B9E72B6843F826400136E1E70024EFE7E2
:105200000100020006220149FFF780BF90AB0208AF
:1052100007220149FFF77ABF98AB0208082201492B
:10522000FFF774BFA0AB020873B504460D4620F02B
:10523000CAFF204620F094FF2570013D0C2D00F29E
:105240002B83DFE815F00D0037005C008000A40020
:10525000B001D501FA011F02C800EF008901680200
:10526000844B854AA364854B6260A360A361A363FA
:105270002362A362824B834A63624FF0011362612F
:10528000814A23636263814B814AE362E261201DAC
:105290001FF049FAE06304F134001FF044FA0123DF
:1052A00063647C4B2064A3650023E36500252846E6
:1052B00002B070BD784B794AA364794B6261A360F8
:1052C000784B794A6360794B6263A361A36323627D
:1052D000A362774B774A63624FF0011323636B4BF2
:1052E000E261E362201D1FF01EFAE06304F1340066
:1052F0001FF019FA0123206463646F4BD3E76F4BEF
:105300006F4AA364664B6260A360A361A3632362D8
:10531000A3626C4B6C4A63624FF0011362616B4A8B
:1053200023636263594B6A4AE362E261201D1FF006
:10533000FAF9E06304F134001FF0F5F90123206469
:105340006364644BAFE7644B644AA364644B62607C
:10535000A360A361A3632362A362624B624A636298
:105360004FF001136261614A23636263474B604AF5
:10537000E362E261201D1FF0D6F9E06304F134001E
:105380001FF0D1F90123206463645A4B8BE75A4B19
:105390005A4AA3645A4B6260A360A361A363236269
:1053A000A362584B584A63624FF001136261574A37
:1053B00023636263354B564AE362E261201D1FF0AE
:1053C000B2F9E06304F134001FF0ADF90123206469
:1053D0006364504B67E7504A504B62604FF00112D4
:1053E0004F49A364E160254B4E49A3606161A3630B
:1053F0004D492362A3624D4B616363624C49234B69
:105400002261E362A261E1612263201D1FF08BF93A
:10541000E06304F134001FF086F901232064636423
:10542000444B40E7444B4549A364454BE16063600E
:105430004FF0011343491D4A61611949A260A163FC
:1054400041492361A361616322624049A2622363EF
:105450003F4A0E4BE161E3626262201D1FF063F977
:10546000E06304F134001FF05EF9012320646364FB
:10547000384B18E7436D0208C81E030801000600F8
:10548000801E0308B01E0308681E0308E01E030800
:10549000981E0308E8190308856B0208AC19030875
:1054A00001000800C8190308581903080100070083
:1054B0007419030890190308D8130308C368020875
:1054C000B813030858130308981303083813030884
:1054D00078130308B80D030807650208880D030850
:1054E00001000C00F80C0308580D0308C80C030851
:1054F000280D0308C8FD0208A164020884FD020803
:1055000001001100B8FC020840FD020874FC02080A
:10551000FCFC020874E702085CE702080552000878
:1055200058E7020854E702080CE7020824E70208DB
:105530003CE702088CE20208115200086CE2020803
:1055400070E2020868E2020810E202084CE2020877
:1055500030E2020890DC0208A94AAA4B62604FF0D0
:105560000112A949A364E160A84BA949A360616144
:10557000A363A8492362A362A74B61636362A7493F
:10558000A74B2261E362A261E1612263201D1FF04B
:10559000CAF8E06304F134001FF0C5F80123206469
:1055A0006364A04B7FE6994B9F4AA3602361A3618C
:1055B000A3632362A3629D4B626063624FF0011399
:1055C0009B4A2363E2609B4A954B62619A4AE3627D
:1055D00062639A4A201DE2611FF0A5F8E06304F1BE
:1055E00034001FF0A0F8012320646364944B5AE652
:1055F000944B954AA3602361A361A3632362A362D2
:10560000924B626063624FF00113914A2363E26040
:10561000904A834B6261904AE36262638F4A201D25
:10562000E2611FF080F8E06304F134001FF07BF8C2
:105630000123206463648A4B35E68A4B8A4AA3605F
:105640002361A361A3632362A362884B62606362E8
:105650004FF00113864A2363E260864A704B626111
:10566000854AE3626263854A201DE2611FF05BF8B0
:10567000E06304F134001FF056F8012320646364F2
:105680007F4B10E67F4B8049A36404F10C001EF0B1
:10569000DFFF054600284ED1261D012130461EF0B1
:1056A000D7FF0546002846D1FF2130461FF067F896
:1056B000054600283FD11322314630461FF0FDF940
:1056C0000546C0BB30461FF02EF804F13406E063F7
:1056D000102230466D491FF030F8054658BB0122B4
:1056E000FC2130461EF0E0FF054620BB092104F1F5
:1056F0001C001EF0ADFF0546E8B9012104F12C00A5
:105700001EF0A6FF0546B0B904F124001EF08EFE7F
:10571000FE232364CAE55E4B6846A3641EF081FE47
:1057200049F6AA0104F10C001EF092FF054630B1C3
:1057300068461EF07BFE204620F045FDB7E5261D9D
:10574000012130461EF084FF05460028F0D1E021FB
:1057500030461FF014F805460028E9D101223146F1
:1057600030461FF0AAF905460028E1D1E021304675
:105770001FF005F805460028DAD1012231463046EF
:105780001FF09BF905460028D2D130461EF0CBFF12
:105790000521E06304F11C001EF05AFF05460028B5
:1057A000C6D1012104F12C001EF052FF054600284D
:1057B000BED104F1240004F134061EF037FE0122AC
:1057C0004FF4DF7130461EF06FFF05460028AFD161
:1057D0001C2268462F491EF0B0FF05460028A7D1BD
:1057E0006A46314630461FF04CF9054600289FD1E5
:1057F00040F2BF13684623641EF018FE57E500BF51
:1058000070DC02081D5200086CDC02080100080070
:1058100068DC020808DC020828DC020848DC020810
:10582000E01E030888D6020868D60208E8D50208F8
:1058300048D6020828D60208C8D5020808D60208A9
:1058400048D0020801000C0018D0020858CF020806
:10585000E8CF0208B8CF020828CF020888CF020894
:1058600028C0020801001000E8BF0208E8BE0208D4
:10587000A8BF020868BF0208A8BE020828BF020825
:10588000A8AB0208C150000842DB01006C380308D5
:10589000D54F0008503803080023014D237006E55A
:1058A00080B1FFFFF0B50D46002193B006461446C7
:1058B00003A83C221F46029118F00AFA55B914B108
:1058C0000A4813B0F0BD304621F0FDFB0446002825
:1058D000F6D002AD199B22460193189B29460093EE
:1058E00030463B4600F02AFBEBE700BF80A0FFFFFD
:1058F0002DE9F04F97B00546DDE9217A93469846A9
:10590000009127B9344D284617B0BDE8F08F21F03B
:10591000DAFB58450446F5D80028F3D0B8F1000F5B
:1059200003D1CDF88080DFF8B480BAFBF4F604FB35
:1059300016A303B10136FF2EE4D803A821F085FB9E
:105940002946012203A800F0BFF8054600283BD1F4
:105950000146224606A818F0BBF94FF001092B4674
:105960004E4531D35A46009903A801938DF80B9008
:1059700000F01CFA38BB019B06A91A4603A800F0E8
:105980008FFA00BB4146209A03A800F089FAD0B9EB
:1059900001220DF10B0103A800F082FA98B906A9C3
:1059A00003A800F08BFA70B94E4514BF2246524648
:1059B000384606A9FAF71CFC09F101092346AAEBAF
:1059C000040A2744CCE7054603A821F043FB402105
:1059D00006A801F061F896E780A0FFFF1E3D0308CE
:1059E0002DE9F047054692B000680F46904621F039
:1059F0006AFB064697B3B8F1000F0CBF4FF00109E0
:105A00004FF002090023294C05F10C0A99458DF845
:105A100004301BD9284600F07BFA0446B0B9324660
:105A20005146284600F03CFA044678B9012228463F
:105A300001A900F035FA044640B9B9F1020F10D0BF
:105A4000284602A900F03AFA044698B102A840217B
:105A500001F022F8204612B0BDE8F0874FF00109AE
:105A6000D0E742463946284600F01AFA0446002894
:105A7000E6D0EBE73246284602A900F097F9044643
:105A80000028E3D132465146284600F009FA044680
:105A90000028DBD15146284600F010FA04460028C1
:105AA000D4D19DF804300133DBB2AFE700AFFFFF84
:105AB0000338C0B210289ABF024B53F820000020D0
:105AC000704700BFE41E030870B50D461646044635
:105AD00000B109B93A4870BD0023C0E90133016043
