:020000040C01ED
:104000003DB8F3960000000000046B007CE6010060
:1040100000000000000000000000000000000000A0
:10402000FFFFFFFFFFFFFFFFFFFFFFFFFFFFFFFFA0
:10403000FFFFFFFFFFFFFFFFFFFFFFFFFFFFFFFF90
:10404000FFFFFFFFFFFFFFFFFFFFFFFFFFFFFFFF80
:10440000F80B0230B18B010CADA1010C919C020C98
:10441000B19C020CD19C020C119D020CF19C020C6F
:1044200000000000000000000000000059BA010C6C
:10443000D58A010C00000000F3CA010CD78A010CD8
:10444000D98A010CDB8A010CDD8A010CDF8A010CA0
:10445000E18A010CE38A010CE58A010CE78A010C70
:10446000E98A010CEB8A010CED8A010CEF8A010C40
:10447000F18A010CF38A010CF58A010CF78A010C10
:10448000F98A010CFB8A010CFD8A010CFF8A010CE0
:10449000018B010C038B010C058B010C078B010CAC
:1044A000098B010C0B8B010C0D8B010C0F8B010C7C
:1044B000118B010C138B010C158B010C178B010C4C
:1044C000198B010C1B8B010C1D8B010C1F8B010C1C
:1044D000218B010C238B010C258B010C278B010CEC
:1044E000298B010C2B8B010C2D8B010C2F8B010CBC
:1044F000318B010C338B010C358B010C378B010C8C
:10450000398B010C3B8B010C3D8B010C3F8B010C5B
:10451000418B010C438B010C458B010C478B010C2B
:10452000498B010C4B8B010C4D8B010C4F8B010CFB
:10453000518B010C538B010C558B010C578B010CCB
:10454000598B010C5B8B010C5D8B010C5F8B010C9B
:10455000618B010C638B010C658B010C678B010C6B
:10456000698B010C6B8B010C6D8B010C6F8B010C3B
:10457000718B010C00000000738B010C0000000027
:10458000758B010C778B010C798B010C7B8B010CEB
:104590007D8B010C7F8B010C818B010C838B010CBB
:1045A000858B010C878B010C898B010C8B8B010C8B
:1045B0008D8B010C000000008F8B010C918B010C86
:1045C000938B010C00000000958B010C978B010C64
:1045D000998B010C9B8B010C9D8B010C9F8B010C0B
:1045E000A18B010CA38B010CA58B010CA78B010CDB
:1045F000A98B010CFFFFFFFFFFFFFFFFFFFFFFFF86
:104600007FE97FE909F02EB97FE97FE909F03CB93C
:104610007FE97FE909F06EB97FE97FE909F05CB9CC
:104620007FE97FE909F042B90000000000000000C6
:10463000000000000000000000000000000000007A
:1046400000015F5F02000000FE0B0000E9BA010CF0
:104650000004000000000000000000000000000056
:1046600000000000000000000100FFC3000000C4C3
:10467000A0A102300000000001015F5F0301000003
:104680001F010000D548010C0018000000000000C8
:104690000100000001000000000000000000000018
:1046A0000000000000000000F833023000000000AD
:1046B000700000005C1C030C80000000000F000074
:1046C00001000000C149010C0100000001015F5F11
:1046D000050100001F0100002368010C0007000015
:1046E00000000000010000000100000000000000C8
:1046F000000000000000000000000000F84B023045
:104700000000000080000000671C030C2000000077
:10471000030F000001000000B94C010C0100000073
:1047200001015F5F000100001F000000C587010C50
:10473000000700000000000003000000010000006E
:104740000000000000000000000000000000000069
:104750001016023000000000800000007000000011
:10476000400000007F1C030C6000000001070000F7
:1047700001000000617D010C0100000001015F5F8C
:10478000010100001F010000616B010C2007000007
:104790000000000000000000010000000000000018
:1047A000000000000000000000000000F85202308D
:1047B000000000009D1C030C70000000020F0000B0
:1047C000010000000D54010C0100000001015F5FB9
:1047D000040100001F010000F37B010C0005000034
:1047E00000000000000000000100000000000000C8
:1047F000000000000000000000000000185A023015
:1048000000000000C21C030C40000000050700006F
:1048100001000000A579010C01000000FFFFFFFF6F
:104820002DE9F04100F1A0080446C0E926120D462A
:104830004822002140461F46069E15F0C9FA002373
:10484000C4E937330223ED0F2046C4F8D85084F86A
:10485000C830C4F8C07010A3D3E90023C4E93423DE
:1048600096E806001CF077FA2146404602F03BF835
:10487000054640B103280BD019280CBF012503259C
:104880002846BDE8F081052120461CF017FBF7E71C
:104890000425F5E7AFF300805D81FF7F0000000095
:1048A00038B500250648294600F58054D4F8002480
:1048B000C4F8045415F08CFAC4F8005438BD00BF95
:1048C000185F0230024BD3F80434036000207047B5
:1048D000186F023008B500F037F998B900F0CEF93A
:1048E00000F0DAF970B9084815F0FCFA1CF0EBF9A1
:1048F00030B9064815F0F6FABDE808400CF02EBFB6
:104900006FF0920008BD00BF6E7C010C957C010C1D
:1049100037B511460022CDE9002242680346382A05
:10492000046845D1228D150A032D16D0012D36D0ED
:1049300021482468D0F80404AA1ECDE90040072AC3
:1049400030D8DFE802F0040A0E13181D22276A4649
:10495000184601F07DFE03B030BD184601F098FA0C
:10496000F9E76A46184601F054FBF4E76A46184630
:1049700001F0BAF9EFE76A46184601F006FCEAE7EB
:104980006A46184601F009FDE5E76A46184601F057
:1049900059FDE0E76A46184601F096FDDBE701F0B5
:1049A00012FFD8E7054815F09DFA6FF08500D2E7B1
:1049B0006FF08000CFE700BF186F0230D17C010C90
:1049C0002DE9F04F05680446A1B0002D40F0B580F8
:1049D0002022294602A815F0FBF912AF2022294611
:1049E0000AA815F0F5F938222946384615F0F0F9ED
:1049F000E26904F11C039846B2B10426E26A04F1AC
:104A00002C03EAB10425EEB96FF08306304621B0DD
:104A1000BDE8F08F002EF1D053F8041D3246013E60
:104A20000029F7D01646E9E70326F5E7002DEAD07E
:104A300053F8041D2A46013D0029F7D01546E2E748
:104A40000325F5E738233A460021606809F070FA3B
:104A50003828D9D10121DFF8E8A0CDE9027004F1AE
:104A6000100902AF0AF5805B8E4221D10AAF3846A9
:104A70000021344A08EB8509D2F80034A2F5805AA7
:104A8000C84533D109B1C2F80034A3683146C2F831
:104A9000043402A82B460AAAFFF73AFF4FF0000899
:104AA0000646454507F108073ED1FFF7F9FEADE799
:104AB00059F8043F1A1D21D8DBF800C4D81C20F097
:104AC0000300CCF5A052904218D860440CEB0A02C7
:104AD000CBF800046068CDE9001209F029FA019AC8
:104AE0000099F860013147F8082FBDE758F804EF46
:104AF0001EF1040F07D909B1C2F80034FFF7D0FE48
:104B00006FF08C0682E70EF1030C2CF0030CC3F55A
:104B1000A05BDC4500F10800EDD803EB0A0140E999
:104B2000021E63440121ABE7414657E90223606856
:104B300009F008FA08F10108B3E76FF0850665E7A8
:104B4000185F0230186F023008B54FF4B4520021DC
:104B5000024815F03DF9002008BD00BF781D023065
:104B60000023F7B50C6807460E461546019314BBA3
:104B700022B3146001A8FFF7A5FEA8B94FF4347C56
:104B8000104A0CFB04F3D158A646013471B94FF01A
:104B9000010E02EB030C42F803E0019910331344B9
:104BA000CCE9011734602B6003B0F0BD082CE8D1CC
:104BB0006FF08400F8E76FF08800F5E76FF086008B
:104BC000F2E700BF781D02300023F7B505680193B6
:104BD000013D072D036004D96FF08604204603B021
:104BE000F0BD01A8FFF76EFE04460028F6D14FF491
:104BF00034735D430A4E73597719012BECD17A68EF
:104C0000019B9A42E8D105F110004FF43072214621
:104C1000304415F0DDF8C7E901447451DEE700BF08
:104C2000781D0230002373B54C1E072C064615462E
:104C3000019303D96FF0880002B070BDC2B101A822
:104C4000FFF740FE0028F7D14FF4347202FB04F165
:104C5000094B5C585A18012CECD19468B442E9D144
:104C60005468019A9442E5D1103119442960E3E770
:104C70006FF08600E0E700BF781D023010B5044CED
:104C80000F222046034915F07EF8204610BD00BFD4
:104C9000189C0230F67C010C08B54FF41051044802
:104CA00009F012FF034809F057FF002008BD00BFBC
:104CB00018780230E59E020C40F2E93270B50368C4
:104CC0000546934294B008D040F2EA32934231D084
:104CD0006FF08504204614B070BD036A0469B3F513
:104CE000147F04F1FF321E4628BF4FF414763F2A8A
:104CF00023D813B382681E4B00211A6040682346F4
:104D000004AA09F015F9844211D103AB214600939E
:104D1000184A334604A800F083F904460028D9D184
:104D2000039B144A2146686809F00CF9D2E76FF03A
:104D30008304CFE70369042B02D06FF08604C9E730
:104D4000036A042BF9D18168094A40681160002187
:104D500003AA09F0EDF804280646EED1039804A949
:104D600000F082F904460028B4D1334604AAD9E7FA
:104D7000207302302A9C02300023132270B588B0C1
:104D800003AE054631466846CDE90023029306F09E
:104D9000A0FB044650B9009B2846054901AA01968C
:104DA000029301F08CFD204608B070BD0324FAE7A1
:104DB00003DBFEFF202370B58CB004AE0546314600
:104DC00001A8019306F033FB044650B9019B284625
:104DD000054902AA0296039301F071FD20460CB02A
:104DE00070BD0524FAE700BFFEDAFEFF202370B590
:104DF0008CB004AE0546314601A8019306F033FBA2
:104E0000044650B9019B2846054902AA029603931D
:104E100001F055FD20460CB070BD0524FAE700BF37
:104E200008DBFEFF37B50B4B0546019301F023FD70
:104E30006A4601A900F03EF9044638B9009B2BB937
:104E4000012200232846044901F016FD204603B044
:104E500030BD00BF02DBFEFF01DBFEFF38B50446BC
:104E6000002505F09BFC2B4602460349204601F035
:104E700003FD284638BD00BF06DBFEFF37B50546FB
:104E800001A800F0BBFA044628B9019A2846034954
:104E9000D31701F0F1FC204603B030BD07DBFEFF65
:104EA000202370B58CB004AE0546314601A80193AD
:104EB00006F0FAFA044650B9019B2846054902AAB1
:104EC0000296039301F0E7FC20460CB070BD03246A
:104ED000FAE700BF05DBFEFF37B50546684600F080
:104EE00055F9044620B96A462846034901F0D3FC27
:104EF000204603B030BD00BFFFDAFEFF002370B5CF
:104F00008AB002AE054631462020CDE9003306F0D6
:104F1000C6FA044650B920236A462846044900963A
:104F2000019301F0B8FC20460AB070BD0324FAE7F3
:104F300004DBFEFFF0B5BDB004460F462E4802A9C3
:104F4000164609F057F9054690BBBDF8083003F442
:104F50004F42B2F5824F10D1DBB2122B28D1BDF8EF
:104F60000A30B3F5C07F18D0B3F5007F24D0B3F575
:104F7000807F1DD16FF0060311E0B3F5885F17D174
:104F8000BDF80A30B3F5C07F19D0B3F5007F18D053
:104F9000B3F5807F0CD1052301E06FF022030022DE
:104FA0000097114602A8FFF73BFC60B1012821D011
:104FB000052420463DB0F0BD6FF02303EFE7062344
:104FC000EDE70723EBE722460C4902A801F063FC5A
:104FD0000B4F57F8043B02A8984704460028E8D135
:104FE0000135092DF5D1314602A801F01CFC00283D
:104FF000DCD1DEE70224DCE75D81FF7F00DBFEFF22
:10500000187C010C08B500F0B9F8042896BF034BD2
:105010006FF0830033F9100008BD00BF647C010C01
:105020007FB5CDE9022321F01002202ACDE900014D
:1050300001D0402914D19BB1684604AA02A9FFF708
:1050400079FF40B9089B059A1A60064B33F91000A6
:1050500007B05DF804FB0428F7D96FF08300F7E789
:105060000420F2E7647C010C002310B586B0CDE982
:10507000003002936FF00043039320F01003202BC5
:105080000C4601D0402811D1684604AA02A9FFF7B6
:1050900051FF30B9059B2360054B33F9100006B072
:1050A00010BD0428F8D96FF08300F8E70420F3E777
:1050B000647C010C2DE9F04F88461546044685B006
:1050C000002855D0002A53D00026DFF8A8A016608B
:1050D0000DF1080B42F21603BAF800209A4203D0F1
:1050E000032005B0BDE8F08FBAF80230224F5344D8
:1050F000BB420AD80136072EECD12B681BB1042124
:1051000020461BF0F8FE0020EBE704223946584603
:10511000019314F038FEBDF80820BDF80A90C2F3E0
:1051200085118E42019B1FD102F03F023F2AE1D13F
:105130002B680133012B2B600CD1B8F1000F05D087
:10514000D8F800202046D3171BF077FE0421204614
:105150001BF0B4FE0437CDE9027909219BE80C006D
:1051600020461BF07FFEC5E709F104094F44BFE765
:105170000420B6E724730230287302304FF4007223
:105180000120014901F0E5BC2473023070B51F4DC8
:1051900004462B6888B0002B2FD11D4E0193336835
:1051A0007BB91C4802A909F025F810B1032008B00A
:1051B00070BD334641221849164809F03DF80028D1
:1051C000F4D1164901A809F05DF80028EED1326843
:1051D000114901A809F07AF80028E7D1104E2022E1
:1051E00031460A4B01A809F093F80028DED10123CB
:1051F00006F8013C2B6801332B602CB1094B0020D1
:1052000023602B686360D2E70520D0E72875023061
:105210002C7502305D81FF7F9B9E023009000002E9
:105220007B9E02307A9E0230F0B5BDB01E460AABBE
:105230006D460293302385E80600384C1A460299E1
:10524000074616A803931BF086FD042116A81BF041
:1052500035FE20461CF039F8CDE9084008AC0321A2
:1052600094E80C0016A81BF0FDFD95E8030000254E
:1052700084E80300022194E80C0016A81BF0F2FD5C
:10528000CDE90855022194E80C0016A81BF0EAFDB0
:10529000002E34D1CDE90866022194E80C0016A84E
:1052A0001BF0E0FD0125042116A81BF024FE04A933
:1052B00016A81BF051FE70BB07370CBF6FF00F0133
:1052C000002106A800F07CF8B8B9059B5B1B34BF31
:1052D00003460498CDE9080306A894E8060001F007
:1052E0000FFC42AB93E8060006A801F009FCDDE9DB
:1052F0004523449906A801F010FC3DB0F0BD42AB37
:1053000093E8030084E803000B2194E80C0016A83E
:105310001BF0A8FDC7E71520EFE700BF057D010CD6
:1053200082B030B587B00AA9073081E80C00129C22
:1053300016D105AB109D0293119B0A49CDE900538C
:10534000DDE90E230C9809F0B1F801F0BCFB10B9AF
:10535000059B2560636007B0BDE8304002B0704730
:105360000120F8E70906000682B010B586B008A94A
:1053700081E80C00114A52F8043B2BB9012006B019
:10538000BDE8104002B070479842F4D10A9C002159
:105390001822684614F01CFD6946204608F02AFFD2
:1053A00001F091FB40B9BDF80220D308520718BFA5
:1053B00001330C9A5B0013600020E0E73C7C010C99
:1053C00000234FF6FF7210B503600B4B044611F13A
:1053D000100F14BF1146194608F054FF606038B131
:1053E00010F1860F05D010F18A0F14BF042005209C
:1053F00010BD0320FCE700BF09000002024B1B6840
:1054000003600020704700BF207302306FF47A728F
:10541000F0B50368044613448DB0032B7CD8DFE855
:1054200003F002284C6B0369082B02D06FF0800553
:105430005FE08569042DF9D10021406808AA08F0D1
:1054400077FD0828F2D12B460221606806AA08F0F1
:105450006FFD0428EAD16168314A63691160069AD8
:10546000CDE90032DDE90823A06800F021F9054606
:105470003FE00369082BD9D14569042DD6D100211D
:10548000406808AA08F054FD0828CFD12B46012116
:10549000606806AA08F04CFD0428C7D16168204A5C
:1054A000236A116005AACDE90132069B0093A0682A
:1054B000DDE9082300F058F9D9E70369082BB5D1D5
:1054C000076A0C2FB2D10021406806AA08F030FD0F
:1054D0000828ABD1DDE9062308AE0096A06800F0ED
:1054E00095F9054628B901463B463246606808F002
:1054F00029FD28460DB0F0BD0369082B96D1002187
:10550000406808AA08F014FD08288FD1DDE90823B7
:10551000A06800F08DF9AAE76FF08505E9E700BF04
:1055200030750230024603480B460068012108F03E
:10553000FFBC00BF30750230024603480B460068CE
:10554000002108F0FFBC00BF307502301FB550EAE3
:10555000010314461BD0CDE90120042203910E481B
:105560000DEB020114F00FFC08220C480DEB0201B8
:1055700014F009FC0A4B0B480B4AB4F5807F08BFB6
:105580001846054904B0BDE8104001F0D1BB6FF0EA
:10559000860004B010BD00BFDC9E0230E09E0230E9
:1055A000347502304C7502306477023030B5384BB8
:1055B00085B09D6AA8470369082B03D06FF080006F
:1055C00005B030BDA847334C8368A360A847037D6E
:1055D00001A8237605F01DFF0028EFD1019BA268EA
:1055E00063609DF80C3021465343029A2A48B2FB6F
:1055F000F3F22282294AE36001F04AFB0028DFD15E
:10560000254801F079FB002834D1A8470369082B0D
:10561000D4D1A847224C8368A360A847037D01A882
:10562000237605F0E8FE0028C8D1019BA2686360DC
:105630009DF80C3021465343029A1A48B2FBF3F20C
:105640002282164AE36001F023FB0028B8D11548F6
:1056500001F052FB0028B3D0134814F043FC11486A
:1056600001F064FB0028ABD10E4805B0BDE8304026
:1056700001F042BB0D4814F035FC074801F056FB21
:1056800000289DD1044801F037FB0028BDD097E7E2
:10569000D4D2010C5C1D02304C750230447C010CEC
:1056A000401D023034750230367D010C107D010C36
:1056B0002DE9F3471946DDE90A5652EA010304468B
:1056C000104641D0072E42D82246FFF73FFF30B99F
:1056D000204B9B68DB0705D56FF0840031E010F1AB
:1056E0008C0F2ED1DFF86CA01B4F1C4B46F44036BC
:1056F000CAF80860B4F5807F18BF1F460026DFF89F
:105700006080DFF86090CAF80450B5F5007F2C4641
:1057100028BF4FF4007412482146FFF703FF2346C9
:10572000524649463846CDE9006801F015FB40B9BC
:10573000DAF808302D1B23F44033CAF80830264429
:10574000E3D102B0BDE8F0876FF08600F9E76FF0B3
:105750008500F6E764770230347502304C7502300C
:1057600064750230DC9E02302DE9F74F194652EA8B
:10577000010380460C9E1046DDF8389039D0424631
:10578000FFF7E4FE054638BB1B4B1C68B44230D320
:105790000D9BA41B9C4228BF1C46184F184BDFF8DA
:1057A00064A0B8F5807F18BF1F46DFF85C80C9F899
:1057B0000040B4F5007FA34628BF4FF4007B33467A
:1057C0005A4651463846CDF8008001F0CEFB0546DA
:1057D00030B10023C9F80030284603B0BDE8F08F8F
:1057E00059464046FFF7A8FEB4EB0B045E44E0D1F7
:1057F000F2E76FF08605EFE7647702303475023028
:105800004C750230DC9E02306475023038B50546B6
:10581000194610462A46049CFFF798FE28B9034B08
:105820001A689B68C4E90022A36038BD647702301F
:1058300010B50446194610462246FFF787FE80B988
:10584000084B9B68DB070AD40748084B0849B4F5A6
:10585000807F08BF1846BDE8104001F076BB6FF0AE
:10586000840010BD647702304C750230347502300C
:10587000DC9E0230F8B51D46036804465B680E46A0
:10588000174698470B4BC0F3410013F8202063687C
:105890000699E0681D442368B1FBF2F200FB065054
:1058A00039469B6998470028B4BF6FF091000020EB
:1058B000F8BD00BF587C010C2DE9F3470A9C074650
:1058C0009146002C57D0C26840681E183B6802FB06
:1058D00001665B689847294BC0F3410013F82080AC
:1058E000B6FBF8FA08FB0AFA564524D03B680122B9
:1058F00050465B6901A99847002804DA6FF09100CF
:1059000002B0BDE8F087A6EB0A03E218904501AAB1
:1059100002EB030104D92246484614F034FA08E0A9
:10592000A8EB060555442A46484614F02CFA641B99
:1059300002D10020E4E700253B68A0455B690DD853
:10594000B4FBF8FA09EB05015246A819984700285C
:10595000D4DB08FB0AF2A41AEBD015443B68012201
:105960005B6901A9701998470028C7DB224601A985
:1059700009EB0500D1E72046C2E700BF587C010CC7
:105980002DE9F043904600220446ADF5477D04AD75
:105990002846039106AE11461F4600F018FFA26C80
:1059A00040F20311304600F012FF4FF43072002134
:1059B00016A814F00DFA1822002109A814F008FA0C
:1059C0001A2200210DF13E0014F002FA4FF6F8728F
:1059D00041F20103B2EBC70F4FF6FF72ADF8203072
:1059E0004FEAC70338BF134608A80121ADF822309B
:1059F00002F008F90FA84FF4804102F003F94FF4C8
:105A00009053DFF888902146226B03803346C0F81C
:105A10000C900AF007F8044638BB494616A80BF06C
:105A2000B5FC044608BB96E80C0040F2011116A82C
:105A300015F073FA0446C0B9042340F2032103AA07
:105A400016A815F052FA044678B92A4616A908A8ED
:105A50000BF090FC044640B9CE9B4246009395E87B
:105A600003003B4609F0A8FF044616A80BF042F8D5
:105A700096E8030014F060FC95E8030014F05CFC69
:105A800020460DF5477DBDE8F08300BF0901000801
:105A90002DE9F04F00259DB004A8049508F0E2FE22
:105AA0004FF018080646DFF8C090304FB54201D1DC
:105AB000002024E008FB05FA049B03EB0A021169AD
:105AC00049454FD10021946807A853F80A2000F0F7
:105AD0007EFE1C22002109A814F07AF90DF10E02B5
:105AE000049B019206AA53440092D3F814B03021CB
:105AF00003AB05AA10A8D84720B16FF092001DB0E3
:105B0000BDE8F08F4FF6F8714FF6FF72089B0F93C8
:105B1000BDF80C308B4288BF1346ADF82630069B8B
:105B2000079A0C93BDF80E3009A9ADF82430049BF8
:105B300053441B690A9313F0FF0308BF1A4654230A
:105B40005C4304F134000E923C441C22384414F0AF
:105B50001AF92046059A10A914F015F9059B23633C
:105B6000012323650135A1E7010100807077023030
:105B70007FB56B46154683E8030012B30024064642
:105B8000146003A8039408F06DFE039BA04209D0A3
:105B90001A4652F8181B8E4208D1D3E90221931EEF
:105BA0000B4306D16FF08B0004B070BD1346013477
:105BB000ECE75421044B002001FB02331B6B2B60EC
:105BC000F2E76FF08600EFE7707702302DE9F04FD3
:105BD00087B09846109B012807461446DDF844A07C
:105BE000009304D96FF0860007B0BDE8F08F54250C
:105BF00045433C4E73191B6D002B6DD0002AF1D02C
:105C0000D2E905B9002303A8039308F025FE002379
:105C1000039A98424FD0114651F80CCBE3454CD132
:105C2000D2E9011339B1002253F8320081453FD146
:105C300003EBC2035B6805F134011C2231442046AA
:105C4000019314F0A0F85A46494604A800F0BFFD9D
:105C50000499626861610599019BA161D1B221B982
:105C600022F0FF0242F0010262601946204601F074
:105C7000C9FF542303FB07631A6B009B9A422ED87B
:105C8000B8F1000FAED0BAF1000FABD0A368701915
:105C90005B0415D540F20313994511D0424649469D
:105CA000009BCDF840A007B0BDE8F04FFFF768BEFD
:105CB00001329142B8D10023BDE70A460133A8E77B
:105CC0000146404614F05FF8542303FB0766336B2C
:105CD0000020CAF8003087E76FF08B0084E76FF090
:105CE000890081E7707702302DE9F04F4FF000080E
:105CF000D0F8009089B0B9F828A006AF06460D4646
:105D0000D2E900213846CDF8148000F060FDBAF5E4
:105D1000A06F15D12B1D03936B6802932B68019321
:105D2000F3680093B368D9F8042097E803000AF0F9
:105D3000C7FB0446C0B90024204609B0BDE8F08F77
:105D400040F201539A4512D12B1D03936B680293C5
:105D50002B680193F3680093B368D9F8042097E89F
:105D600003000AF059FCE4E7C5F80480E4E7AAF26E
:105D7000025B1FFA8BF3012B1FD8D5F80080B8F116
:105D8000000F02D16FF08004D6E76B68032BF9D9BE
:105D9000D9F8083041460120C8F8003005AAFEF7BE
:105DA000DFFE04460028C7D1BBF1060F6DD8DFE83F
:105DB0000BF0384725314F5A67000120D9F80810F9
:105DC00005AAFEF72FFFAAF20753012B044603D9B9
:105DD0000028B1D18046E7E7D5F80080B8F1000F80
:105DE000D0D06B68032BCDD9D9F80830C8F8003073
:105DF0000028D9D0BAF5A16F9DD09DE705982B1D3D
:105E0000D5E9001214F074FE0446002893D0002354
:105E10006B6091E70598D6E9021214F0BAFE0446C9
:105E20008AE7D9F80430059897E8060014F048FE90
:105E3000044600283FF47FAF4046FEF7C5FE7BE7EF
:105E4000D9F80430059897E8060014F045FEEFE70E
:105E50002B1D01936B68059800932B68D6E90212FD
:105E600014F0B9FED0E7059805F10C03D5E902124C
:105E700014F0D2FE04460028DED00023EB605BE77E
:105E8000059814F00CFE0446D6E76FF0850453E73E
:105E90002DE9F0430026056885B0B5F8289007463F
:105EA000B9F5407F8846029612D10B1D01934B68CD
:105EB00000930B68D0E90212686814F07EFC044677
:105EC000002858D0C8F80460204605B0BDE8F0832B
:105ED00040F20133994509D1436900938168D0E9C3
:105EE0000323686814F07AFC0446EDE740F20233BD
:105EF000994519D10E6816B96FF08004E4E74B6834
:105F0000032BF9D9AB6831460320336002AAFEF7B0
:105F100027FE04460028D7D16968029814F0A3FB35
:105F2000044640B330466EE00320A96802AAFEF79B
:105F300079FE6FF441734B44022B04460BD90028C1
:105F4000C2D10646A9F20333042B5FD8DFE803F081
:105F500015371B283200D8F80060002ECCD0D8F8B6
:105F60000430032BC8D9AB6833600028EAD040F274
:105F700007339945A8D10024A6E70298D7E9021271
:105F800014F0A9FBB0E7029808F10C03D8E902125B
:105F900014F0B9FB044658B10023C8F80C3093E75D
:105FA0000298D7E9021214F0C6FB044600288BD1F0
:105FB0000024B7E7029814F046FB0446B2E700233A
:105FC000D8F800500393002D96D0D8F80430032B56
:105FD00092D9BB68002B8FD0FA68032A8CD91B6832
:105FE000294603202B6003AAFEF7BAFD04460028C9
:105FF0007FF46AAFDDE9020114F01CFC04460028BE
:106000003FF462AF2846FEF7DFFD5DE76FF08504E1
:106010005AE72DE9F04F0025D0F8009089B0B9F883
:1060200028A00DF1180807460E46D2E90021404687
:10603000059500F0CCFBBAF5806F16D1331D0393A4
:106040007368029333680193FB680093BB68D9F8C7
:10605000042098E8030014F0B7FC0446002856D04A
:106060007560204609B0BDE8F08F40F201439A45C3
:106070000ED17B6902933B690193FB680093BB6877
:10608000D9F8042098E8030014F0B3FC0446E8E7CC
:10609000AAF2024B1FFA8BF3012B1AD8356815B9F7
:1060A0006FF08004DDE77368032BF9D9D9F8083065
:1060B000294602202B6005AAFEF752FD044600285F
:1060C000CFD1BBF1050F5DD8DFE80BF02331393FAD
:1060D0004D570220D9F8081005AAFEF7A3FDAAF231
:1060E0000543022B044603D90028BAD10546E8E748
:1060F0003568002DD4D07368032BD1D9D9F8083076
:106100002B600028DDD040F207439A45A9D1002436
:10611000A7E7D9F80430059898E8060014F0BAFB10
:1061200004460028F3D02846FEF74EFD99E7D9F83B
:106130000430059898E8060014F0B8FBF0E70598DD
:10614000D7E9021214F0BEFBA0E7059806F10C0394
:10615000D6E9021214F0D1FB044608B90024E2E7A4
:106160000023F3607DE70598D7E9021214F004FCE0
:10617000044600287FF475AFF0E7059814F074FB2F
:106180000446D0E76FF085046BE72DE9F04F4FF040
:10619000000907688DB0B7F828A00DF12808064659
:1061A0000D46D2E900214046CDF8249000F00FFBC7
:1061B000BAF5C06F1FD12B1D07936B6806932B6830
:1061C0000593F3680493B368039373690293336987
:1061D00001937B6A00937A6807F1140398E803003F
:1061E0000AF096FA0446002868D0C5F804902046C4
:1061F0000DB0BDE8F08F40F201639A4517D12B1D19
:1062000007936B6806932B680593F3680493B36850
:10621000039373690293336901937B6A00937A68ED
:1062200007F1140398E803000AF0C8FADAE7AAF2C3
:10623000026B1FFA8BF3012B20D8D5F80090B9F12F
:10624000000F02D16FF08004D1E76B68032BF9D9FE
:10625000BB6849460520C9F8003009AAFEF780FC52
:1062600004460028C3D1BBF1090F00F29380DFE898
:106270000BF027345662697A6F3B80510520B9686C
:1062800009AAFEF7CFFC6FF4C1635344022B044606
:1062900003D90028ABD18146E5E7D5F80090B9F1E4
:1062A000000FCFD06B68032BCCD9BB68C9F8003086
:1062B0000028D8D040F20B639A4598D1002496E785
:1062C0007B68099898E8060014F0DEFC0446002874
:1062D000F4D04846FEF778FC89E77B68099898E88F
:1062E000060014F0DDFCF1E705F10C030293EB6806
:1062F00009980193AB680093D5E9041205F11403E2
:1063000014F05CFD044608B90024E2E70023EB60CA
:106310006B616CE7099814F0A2FC0446D9E7099870
:106320002B1DD5E9001214F0EEFC04460028C5D060
:1063300000236B605BE70998D6E9021214F0E1FCD8
:10634000044654E70998D7E903120AF03DFBF7E742
:106350002B1D01936B68099800932B68D6E90212F4
:106360000AF092FBE1E70998D6E902120AF05AFB1B
:10637000E6E7F36809980193B3680093D5E9021240
:1063800005F10C0314F053FD04460028BCD0002393
:10639000EB602CE76FF0850429E7F0B587B007685C
:1063A00004AE04460D46D2E90021304600F00FFA53
:1063B0003B8DA3F5E063032B41D8DFE803F0021423
:1063C00021332B1D03936B6802932B680193E368C1
:1063D0000093A3687A6896E8030014F034FBF0B9E0
:1063E000002007B0F0BD6369029323690193E3685D
:1063F0000093A3687A6896E8030009F08BFEF0E743
:106400002B1D03936B6802932B680193E368009341
:10641000A3687A6896E8030014F02BFBDFE70023FB
:106420006B60DEE76369029323690193E36800937D
:10643000A3687A6896E8030009F0ACFED1E76FF034
:106440008500CEE7F0B589B0076806AE04460D4674
:10645000D2E90021304600F0BAF93B8DB3F5006F68
:1064600007D040F60102934218D06FF0850009B0C2
:10647000F0BD2B1D05936B6804932B680393636930
:10648000029323690193E3680093A3687A6896E80E
:10649000030009F0BFFEA0B90020E8E72B1D05931B
:1064A0006B6804932B6803936369029323690193D8
:1064B000E3680093A3687A6896E8030009F000FF98
:1064C000E9E700236B60D2E700232DE9F047066877
:1064D0008EB0B6F828900DF1140807460D46924686
:1064E000D2E900214046049300F071F9B9F5106F2C
:1064F0000FD12B1D03936B6802932B680193FB68EC
:106500000093BB68706898E8060014F036FD0446F6
:1065100026E040F60113994517D12F68002F74D05B
:106520006B68032B71D9B368394604203B6004AA19
:10653000FEF716FB044698B9716804980AF026FF26
:106540000446002872D100240AE00420B16804AA9D
:10655000FEF768FB044638B140F60A13994557D058
:1065600020460EB0BDE8F087A9F60219B9F1080F70
:106570006BD8DFE809F0050F14281B5F222F4D00B0
:106580002968002941D06B68042B3ED1049814F08F
:106590008FFCBCE7316B049814F093FCB7E7718D66
:1065A0000498D7E9022314F0A0FCB0E7718D049899
:1065B000D6E90C2314F0A2FCA9E70498D5E900124F
:1065C0000AF048FCA3E7718D049898E80C0014F0D9
:1065D000A4FC9CE72E68C6B16B68032B15D9B9687B
:1065E00099B1FA68182A10D107A813F0CCFBDAF891
:1065F000040007A900F0EEF84246049907A80AF043
:10660000B9FE059B04463360AAE76FF08004A7E754
:106610002F68002FF9D06B68032BF6D9B3683B6065
:10662000002C90D104980AF065FA04463846FEF72B
:10663000CBFA95E7FB68718D0193BB6804980093D2
:1066400098E80C000AF008FF61E76FF0850487E71F
:106650002DE9F0418EB003ACD0F8008006460D461F
:106660001746D2E90021204600F0B1F840F203229B
:10667000B8F82830934203D0A3F50273012B0ED84B
:10668000B16811B96FF0800426E0F268182AF9D1D8
:1066900007A813F078FB786807A900F09BF8B8F812
:1066A0002830A3F50073092B00F28A80DFE803F09D
:1066B0002F1824052A414D595E77D6E904122E6819
:1066C000002EDFD06B68032BDCD9234607A809F026
:1066D000A9F90446039B336020460EB0BDE8F08163
:1066E0002E68002ECED06B68032BCBD9D4E90001E5
:1066F000224615F037F9ECE794E8030015F053F95A
:106700000446E9E794E8030013F016FEF8E794E87E
:10671000030007AA2E6813F03AFE2B680446002BEC
:10672000B0D06A681C2AADD8304607A913F02BFBFD
:10673000D2E72B1D0093D5E9002394E8030009F06C
:106740003BF9044650B90024C6E72B1D0093D5E958
:10675000002394E8030013F0A9FEF2E700236B6026
:10676000BAE794E8030015F03FF9C9E7002205A84D
:1067700011462E6800F02BF82B68002B82D06B6836
:10678000032B7FF67FAF94E8030005AB07AA13F055
:10679000BDFE044600289FD1059B3360D3E72E68D9
:1067A000002E3FF46FAF6B68032B7FF66BAF214673
:1067B00007A80AF097FF044600288DD1039BECE759
:1067C0006FF0850488E7D1E9000114F03DBCC0E911
:1067D0000021704788617047F0B585B06C4684E849
:1067E0000300002403A816461F46039408F03AF855
:1067F0002146009A039D814202D16FF08B000BE08D
:106800002B4653F8184B944208D100202B69336073
:10681000D5E90223C7E9002305B0F0BD1D460131CB
:10682000E9E7FEF7EFBB73B504460D4605211AF004
:1068300062FB214604F1A00000F0CCF838B1032837
:1068400015D019280BD00323184602B070BD6E4630
:10685000204631461AF080FB0128034601D101236E
:10686000F2E730B996E8030085E80300ECE704237B
:10687000EAE70223E8E7704770B5044616461D466E
:106880000A46CB171AF0D9FA32462B462046BDE805
:1068900070401AF0D2BA73B5D2E9006504460A46D0
:1068A000CB171AF0CAFA02212046CDE9006502ABE7
:1068B00013E90C0002B0BDE870401AF0D3BA73B50A
:1068C000D2E9006504460A46CB171AF0B6FA03214E
:1068D0002046CDE9006502AB13E90C0002B0BDE82B
:1068E00070401AF0BFBA2DE9F0410446AAB0006A20
:1068F0000E4600F0E2F800286AD0A36B9A0704D491
:106900001222002330461AF0D0FA042130461AF041
:10691000D5FA182304AD1A4621462846276A019362
:1069200000941AF018FA052128461AF0C7FA012235
:10693000002328461AF081FA3A46FB1728461AF037
:106940007CFA052128461AF0D6FA284602A91AF040
:1069500003FB074638B10023C4E906330227384653
:106960002AB0BDE8F081029B039AA361E261002B8B
:10697000F4D0D4E9060185E80300022195E80C0073
:1069800030461AF06FFAA36BDB071FD4D4E90F84EB
:10699000052130461AF092FA7CB1B8F1000F0CD004
:1069A0000422002330461AF048FACDE9048402217B
:1069B00095E80C0030461AF055FA304605211AF0D9
:1069C0009AFA022130461AF079FAC8E71C27C6E77E
:1069D0000127C4E72DE9F041ACB01CAB0C93402378
:1069E0000E460D9314AB0E93202310AD04462A4699
:1069F000012130460F931AF087FAB37B0BB10123C4
:106A00003374337C012B54D0002B54D13268D4F82A
:106A100020C0F2B90BAB0293D4E90C018DE803005E
:106A20000A926046D4E90A23FEF79EFC0546DDE99A
:106A30000A0112AB83E8030002210CCB30461AF0A6
:106A400011FA042130461AF056FA28462CB0BDE857
:106A5000F0810DF1200802AFCDF81080DDE90E01C4
:106A600087E8030095E803008DE803006046D4E959
:106A70000612FEF7D9FB05460028E6D1A36BDB071B
:106A8000D5D4DDE90C010AAB069304AB83E803001F
:106A900098E8030087E80300D4E90C018DE80300BF
:106AA000206AD4E90A23FEF73BFC0028BFD0054644
:106AB000CBE71925C9E71825C7E7C31D0CBF6FF041
:106AC0000F000020704710F18D0F13D010F18C0FC4
:106AD00009DA10F1970F0FD010F1950F08BF0D20B4
:106AE00018BF1720704710F1860F07D0002808BF85
:106AF0000020F5E7102070471220704701207047F2
:106B000013B502AB03E90600436804461BB911B193
:106B100007F0DCFB606002B010BD73B502AD05E9A3
:106B200006001D46436804462BB92B1D0E4607F090
:106B3000EFFB60602E60606838B110F1860F06D000
:106B400010F18A0F14BF0420052002B070BD03208D
:106B5000FBE708B513F0F1F9003818BF012008BDB4
:106B6000FEF724BD08B5036800209B6898470028FD
:106B700018BF6FF0910008BD0020704770B5044643
:106B80000E460025E368AB4201D8002070BD606866
:106B900006FB030023682844DB69984710B9A36803
:106BA0001D44EFE76FF09100F0E72DE9F04F036827
:106BB0008FB006AA04460E46D3F80C8000F0F6FB10
:106BC00000285FD10BA800F0E0FE014600285CD150
:106BD000DDE9067A202206A8099D13F0F9F831466E
:106BE000204606AA00F026FD00284BD183468146A8
:106BF0002368DB8A5B4515D8002D35D12946204610
:106C000002AA00F05BFC00283CD12946204602AADB
:106C100000F070FEB0BB204600F055FE78B36FF078
:106C200083002FE0B3451CD05946204606AA00F049
:106C3000BDFB38BB069BBB420DD10BA800F0A5FEE7
:106C400048B9079B534506D9984528BF98465B1B12
:106C50000793099B99445946204606AA00F0EAFC8E
:106C600080B90BF1010BC3E743462A46394620465B
:106C7000CDE900A900F09AF920B9002FCBD1204628
:106C800000F07FFB0FB0BDE8F08F6FF08B00F9E7ED
:106C9000F8B50C461646054658B351B34AB30B8AAD
:106CA000012B26D9032B24D0C98A022BE268A08AA3
:106CB0004FEA410110D090421BD8023B0B441B010C
:106CC0000833934215D818220021284613F080F883
:106CD0000020C5E90046F8BD0131A2F108070B010B
:106CE000A7EB0111884204D8904202D808339A4297
:106CF000E9D26FF08600EEE737B5054600F086FD75
:106D0000044658B94FF08071284601AA00F0B8FB3C
:106D100038B928460199FFF748FF0446204603B0DA
:106D200030BD10F18C0F18BF0446F7E700F092BC9D
:106D300010B58AB0144602AB01AA00F072FB40B94C
:106D4000059B6360049B2360BDF81830A3600AB004
:106D500010BD6FF08B00FAE72DE9F04393B00DF111
:106D600028080446894615460021202240461F4631
:106D70001A9E13F02DF84FF6FF73CDE9043325B9B1
:106D80006FF0860013B0BDE8F083AB68B3F1807F8D
:106D9000F6D2236849465A8A6B682046013B134461
:106DA000524213406B6004AA434600F03AFB0028AD
:106DB00040F08580AB6804999A0306D50D9AD5F802
:106DC00004C062456ED10C900E9305914FF6FF738F
:106DD000059A9A427CD121686B68898A8B42CFD808
:106DE00006A9CDE9028105A90191A9682046009173
:106DF00004998A1A18BF0122494600F0BAFB0028FC
:106E0000C0D1002F6CD120460A9906AA00F072FD6D
:106E1000002851D105994246204600F00BFC01465E
:106E2000002849D1DDE904539D4228BF1D46204674
:106E30002A4600F0D5FC00283ED14FF6FF72049B95
:106E400093420FD0059A93420CD09A4238BF1A460B
:106E50002046691C00F0C4FC70BBDDE904539D4270
:106E600038BF1D4623682046DA8A691C00F0B8FC4A
:106E700010BB0A9B002B62D1002F60D0204600F08F
:106E800080FA00287FF47EAF4FF6FF730499994291
:106E90003FF478AF059B99423FF474AF2046FFF76B
:106EA00084FE6FE70E9B424643F0807320460E93AC
:106EB00000F0C0FB002889D06FF0830062E710F17A
:106EC0008C0F7FF45FAFAB68DB037FF55BAF7DE7D3
:106ED00020460A9906AA00F0F1FA002891D0EBE7C3
:106EE00023685B8A5A1E3242E6D17D1E1D445B42F6
:106EF0001D400C9B9E42DFD82A4631460D9800F07B
:106F000038FD0028D8D11B9B4246CDE900532046CE
:106F1000334606A900F0C0F80028CDD10C9B3E44B2
:106F20000A999E422046069D88BF0C9600F024FADE
:106F3000294606900A9A204600F079FB63E720462E
:106F400000F0C1FC002899D0B6E713B5002301AAD0
:106F5000044600F066FA28B920460199FFF725FE9D
:106F600002B010BD6FF08B00FAE770B58CB015461B
:106F70001C4603AA04AB064600F053FA98B92A4609
:106F80002146069800F0F5FC58B9109B2246009364
:106F900030462B4604A900F05EF8002818BF6FF0B9
:106FA00083000CB070BD6FF08B00FAE72DE9F0475D
:106FB00086B01646DDE90E9702AA054688469A462F
:106FC00000F07CFA044698B9049B414633442846B5
:106FD000049300F0D1F906467FB101464A4628469F
:106FE000CDE900A7029B00F0CDFB28B16FF0830430
:106FF000204606B0BDE8F0870127DDE902324A45A8
:107000000AD2A9EB0201CDE900212846314600F061
:10701000B9FB0028EAD1012742462846029900F030
:1070200006FB4146284602AA029600F063FC04468D
:1070300028B142463146284600F0F9FAD8E7B8F1BF
:10704000000FD5D0002FD3D06B683146DB6828689D
:1070500098470446CCE72DE9FF410D4616460968DE
:107060006A4604461F46DDF8288000F027FA70B90A
:1070700000994B1C0BD062686B680A9755684246B2
:10708000AC462068334404B0BDE8F04160476FF07F
:10709000830004B0BDE8F0812DE9F3471546DDE932
:1070A0000AA90F4698461168044600F065F96B6816
:1070B0007A689844A8EB0203CDE90023064601460E
:1070C0003B68204600F05EFB20BB6368CDF800A063
:1070D000D3F808A04A46434631462068D047C8B98D
:1070E000EB686A68B9681A4423682046DB685B1A53
:1070F0009B1ACDE9002331463B6800F043FB48B9B9
:107100002B683BB1314663682068DB6802B0BDE89C
:10711000F047184702B0BDE8F08713B510240B0103
:10712000416800948C68083341690068A04702B048
:1071300010BD436810B5416904461B690068984753
:1071400050B923681A8A022A06D96268A1681846CB
:10715000BDE810401269104710BD008A022814BF14
:1071600003380020704708B5FFF7F7FF00EB410038
:107170000001183008BD2DE9F04F002405460F46E8
:10718000904626464FF010098BB0D5F800A0504627
:10719000FFF7E3FF013086420ED300264FF02009AF
:1071A000D5F800A0BAF816309E421CD3002088F80B
:1071B00000400BB0BDE8F08F6A683301CDF8009055
:1071C000D2F804B039465046083302AAD8470028FE
:1071D000EFD102AB13F8012B0130102884EA02042E
:1071E000F8D10136D1E76B6831465046D3F804B088
:1071F000FFF7B9FF02AA034639465046CDF8009082
:10720000D8470028D5D102AB13F8012B0130202834
:1072100084EA0204F8D10136C2E737B5837B0168FE
:107220005A1CD2B28273097E04469142416904BF5E
:1072300002338373012900F10D020DD8FFF79BFF84
:1072400040B90822636800929D6861690346A218EC
:107250002068A84703B030BD6FF08600FAE713B589
:107260000C46114622790346012A09D10368627946
:107270001B7E9A4214BF00206FF0830002B010BD45
:10728000022A04D11B68A2791B7E9A4202D16FF0B8
:107290008300F3E701290DD80DF10702FFF76BFF1B
:1072A0000028EBD162799DF807309A4218BF6FF041
:1072B0009100E3E76FF08600E0E70822F0B543684D
:1072C00087B000925C6800236A440546194600684E
:1072D000A0470246002832D000264FF0FF34082293
:1072E0006B6800925F6801210023286804AAB847F0
:1072F00000283AD10122284604A9FFF7B0FF03462F
:10730000002832D1002E35D02A689DF81610127E42
:107310009DF80E00B2FA82F25209914218D100296A
:1073200014BF022301231B1A18BF01231C462C6122
:10733000B4FA84F4002064096C6107B0F0BD2846FB
:1073400002A9FFF78CFF04460028C5D10126C6E735
:10735000904205D1002814BF022201229142E5D1BA
:1073600088422CBF00230123E0E7002EDFD16FF01D
:107370008300E2E70124DAE709B9406970478068D1
:10738000704710B50446FFF748FF70B9636861693C
:10739000DB682068984740B9D4E904232046C4E953
:1073A0000432BDE81040FFF7C4BE10BDF7B5066853
:1073B00005463046FFF7D7FE034620206968009057
:1073C0004F68304629691446B847064640B92868D0
:1073D000FFF7C3FE23680130834204D36FF09706A2
:1073E000304603B0F0BD04F1140000F0CEFA0028DE
:1073F000F6D12D68E268AB8A9A42EFD8A3689A4228
:10740000ECD3D4E900372BB92846E98AFFF7ABFE65
:10741000B842E3D83946E86800F0ABFA0028DFD07C
:10742000DCE72DE9F0430746884691461C460025D7
:1074300089B03B68DB8AAB4202D86FF08B0616E05E
:107440006A4629463846FFF7B1FFB0B90C224146DB
:1074500005A812F058FD064668B9C9F8005034B1C5
:107460006D460FCD0FC495E80F0084E80F0030463D
:1074700009B0BDE8F0830135DBE76FF08306F6E77E
:10748000F0B505460E461746002489B02B68DB8A06
:10749000A34202D86FF08B0009E06A4621462846D5
:1074A000FFF784FF38B9049B1E4202D03C6009B04C
:1074B000F0BD0134EAE76FF08300F8E773B50B0124
:1074C00006464168102000904C68306831690833E6
:1074D0001546A047044630B9336829681A8A914294
:1074E00004D36FF09704204602B070BDD868D5E988
:1074F000011200F03EFA04460028F2D12B68012B5D
:1075000003D83068C18AFFF72EFE6B688342EAD049
:10751000E7E773B50B0105464168102000904E68FF
:107520000833296928681446B047034630B92B68E8
:1075300021681A8A914204D36FF09703184602B06B
:1075400070BDD868D4E9011200F013FA0346002890
:10755000F2D12268012A08D82A681046FFF7FDFDFB
:10756000D28A00EB42000001183062688242E5D006
:10757000E2E72DE9F04F05468B46914698460027F5
:1075800089B0DDE9146A2868FFF7E7FD013087421A
:1075900002D36FF08D0420E0524639462846FFF7AB
:1075A0008DFF044680BBDAF8082090452AD82B6866
:1075B0005946DB6837609B1A73600C22C6F80C8052
:1075C00006F1140012F0DFFB129BB4603361DAF8AD
:1075D0000830A3EB0803CAF8083000262B68DB8AC2
:1075E0009E4205D26A4631462846FFF7DFFE70B15B
:1075F0004FF6FF766FF08D042046139B1E6009B096
:10760000BDE8F08F0137BEE76FF08304E5E705A81A
:1076100000F0BBF948B1B9F1000F04D0002C18BF3D
:107620006FF08D04E8E74FF001090136D6E702B1AB
:107630008160704773B5056804462846FFF793FDDF
:1076400003462020616800908E6828466169B04733
:1076500002B070BD70B58CB00546FFF72EFE002855
:1076600061D16E696B6831461B692868984704468A
:10767000002878D1B6FA86F16B6828681B69490939
:107680009847044600286ED12A680126137EB3FA73
:1076900083F35B09AB73138AC5E90406022B14BF9D
:1076A00002230123AB6002232B73D18A1046FFF71C
:1076B0005AFDD36821461B1A01906A462846029358
:1076C0000096FFF72AFD044600284CD106462B6899
:1076D0000190DB6802932B681846FFF73EFDB0422D
:1076E00023D8002C4BD12B681846FFF736FDA0425B
:1076F00028D82022002104A812F06AFB00242B685D
:10770000DB8AA34232D82846FFF787FD48BB6B6867
:107710006969DB6828689847044620BBD5E90423DB
:10772000C5E904321FE000269CE7198A6A6802292D
:1077300014BF0321002118463144126990470136D5
:107740000443C8E71B8A6A46022B14BF03230023A5
:1077500023440134214628460093FFF7DEFC00282D
:10776000C1D06FF0830420460CB070BD214628467E
:1077700004AAFFF75FFF0028F3D10134BFE76FF0E1
:107780009104F0E72DE9F04F0446884616469946E5
:10779000C3B0DDE94CA51DB9284643B0BDE8F08F64
:1077A000B5F5807F2F4628BF4FF480776368009738
:1077B000D3F804B049465346206802AAD8470028A7
:1077C000EBD163680097D3F808B041463346206890
:1077D00002AAD8470028E0D13E44BA44ED1BDAE7BC
:1077E00073B5066804463046FFF7BDFC15460246F1
:1077F00029463046FFF7B7FC801ACDE90020204625
:10780000D4E90431FFF7BEFF02B070BD2DE9F041AD
:10781000436805461B68006886B09847044628B947
:107820002846FFF74AFD28B16FF08304204606B0D2
:10783000BDE8F08108266B6805F108070096D3F8CB
:1078400004803A46234629692868C0470028EBD1BE
:10785000394628462A69FFF702FD0028E4D1284668
:10786000FFF767FC04460028DED12B7B012B25D1D6
:1078700001460DEB06022846FFF74BFE04460028A2
:10788000D4D1049B2A68C3F1FF23D26803F57F0398
:10789000F8331344CDE90063324628462B69696901
:1078A000FFF770FF04460028C0D16B7B2846AB73FE
:1078B00002232B73FFF765FD0446B7E7022B18BFC1
:1078C0006FF08304B2E710B586B0002102AA044627
:1078D000FFF7F4FD60B92068039A049BD118C368D0
:1078E00020465B1ACDE90023D4E90431FFF74AFFB3
:1078F00006B010BDF0B505460C4687B009B943691E
:10790000136021462846FFF708FC0146C0B9D5E9B7
:1079100004767CB900212868FFF725FC2201183283
:10792000801ACDE900203B4631462846FFF72AFF62
:1079300007B0F0BD284602AAFFF7C0FD014610B10E
:107940006FF08300F4E7284602AA0296FFF7E5FBF2
:107950000028F5D1012CDDD018222301103B019322
:1079600031463B4628460092FFF70CFF0028D1D055
:10797000DEE7814206D8401A90422CBF00206FF00B
:10798000860070476FF08600704700F10C03984244
:1079900002D16FF08B00704710F8012B002AF6D04F
:1079A00000207047F0B503680446A3F2F233A7B095
:1079B000032B00F21B81DFE803F00259A1A400238E
:1079C000C269169300F11C03002A38D00421E26A30
:1079D00004F12C03002A3ED004222369042B43D156
:1079E000206A042840D801293ED1012A3CD1002137
:1079F000606806AA06F09CFA042835D1A268069BA6
:107A0000002A2ADB022B18462ED8B2F5807F2BD114
:107A1000216A16AA03F025FE30BB0146236A60687E
:107A200016AA06F08FFA002066E00029CFD053F89E
:107A3000040D0A4601390028F7D01146C7E7032193
:107A4000F5E7002AC9D053F8045D1046013A002D2D
:107A5000F7D00246C1E70322F5E703F10800022848
:107A6000069001D9022BD3D9012045E0C26900F16B
:107A70001C033AB30422E16A04F12C0371B304211C
:107A80002369042BF0D1012AEED10029ECD16068E2
:107A900016AA06F04DFA0428E6D1A268169B002A21
:107AA0001EDB022B1846DFD8B2F5807F1FD0DBE744
:107AB000002AE0D053F8040D1146013A0028F7D00F
:107AC0000A46D8E70322F5E70029D9D053F8045D28
:107AD00008460139002DF7D00146D1E70321F5E72B
:107AE00003F1080002281690BED9022BBCD803F07F
:107AF000EDFD003818BF012027B0F0BD03F076FC83
:107B000091E700253C22294607A8CDE90255CDE999
:107B10000455069512F05CF93C22294617A81695E3
:107B200012F056F9E269019504F11C0302B3042630
:107B3000E26A04F12C033AB30425731E012B93D897
:107B4000012D91D80423002160680DEB030206F09B
:107B5000EFF904281AD06FF08000CDE7002EE7D0AF
:107B600053F8041D3246013E0029F7D01646DFE7E0
:107B70000326F5E7002DE0D053F8041D2A46013D09
:107B80000029F7D01546D8E70325F5E7022E22D1C4
:107B90006669402E27D806AF33463A460121606811
:107BA00006F0C6F98642D6D1CDE9027602A9A5B182
:107BB000236A402BCFD816AACDE90423019804AA42
:107BC00003F017FCDDE9042305460021606806F098
:107BD000B9F9284690E70021E9E72A46019803F021
:107BE00008FC0546F5E76FF0890085E76FF0850032
:107BF00082E708B503F033FD002814BF6FF0920050
:107C0000002008BDCA0448BF41F480618B0448BF0E
:107C100041F4006181607047FD4E010CD94E010CAA
:107C2000A14E010C7D4E010C5D4E010C254E010C48
:107C3000ED4D010CB54D010C794D010CF9FFFFFF25
:107C400000000000656B010CB958010C7558010C5F
:107C5000796B010C7D6B010C01000000020000003B
:107C600004000000000070FF76FF7CFF79FF5B4995
:107C70004E465D5B43727970746F5D20496E697426
:107C800020485720616363656C657261746F722E62
:107C90002E2E0D0A005B494E465D5B43727970746F
:107CA0006F5D20496E697420485720616363656C7D
:107CB000657261746F722E2E2E201B5B303B333247
:107CC0006D636F6D706C6574651B5B306D2E0D0A96
:107CD000005B4552525D5B43727970746F5D205555
:107CE0006E737570706F72746564207265717565FE
:107CF0007374210D0A004D62656420544C53203387
:107D00002E362E33005369676E61747572653100CB
:107D10004372656174696E6720616E20656D707471
:107D2000792049545320666C617368206C61796FC7
:107D300075742E0D0A004372656174696E67206167
:107D40006E20656D70747920505320666C61736885
:107D5000206C61796F75742E0D0A00000000000020
:107D60006FF47A72F0B5474B0446186003688DB023
:107D70001344042B08D8DFE803F003274867770093
:107D800003698668082B02D06FF0800559E0856989
:107D9000042DF9D10021406808AA06F0C9F8082886
:107DA000F2D12B460221606806AA06F0C1F8042829
:107DB000EAD1069B3046019363690093DDE908230D
:107DC00000F002FD05463CE00369082BDCD1456963
:107DD000042DD9D10021406808AA06F0A9F8082886
:107DE000D2D12B460121606805AA06F0A1F804282B
:107DF000CAD106AB0293236A0193059B0093A06846
:107E0000DDE9082300F0F6FCDCE70369082BBBD1B1
:107E1000076A0C2FB8D10021406806AA06F088F83E
:107E20000828B1D1DDE9062308AE0096A06800F06D
:107E3000F5FC054628B901463B463246606806F027
:107E400081F828460DB0F0BD0369082B9CD10021B4
:107E5000406808AA06F06CF8082895D1DDE90823E7
:107E6000A06800F0EBFCADE7056A042D8CD100F0B2
:107E7000F8FC2B4608900021606808AA06F062F81A
:107E80000025DEE7101D023038B5074B02461D689D
:107E90000C460B466868012106F04AF8844214BF7C
:107EA0006FF08000002038BD101D02300B460449E1
:107EB00010B40C6802460021606810BC06F042B89D
:107EC000101D023008B50749074812F00BF800F002
:107ED0000DF830B100F0D3FC18B9BDE8084000F04F
:107EE00005B808BD00025005488A010C10B5044CC5
:107EF000204600F0C5F9034B383C5C6010BD00BF64
:107F0000680C0230141D02302DE9F047DFF860A044
:107F10001F46534681468846164600F0DBFA044663
:107F200000BB144DDAF800002946C5E90498AE619B
:107F300000F0D4FC044678B9AE6ABE4215D3089B63
:107F4000F61B9E4228BF1E4605F1380031463844D4
:107F5000FFF7ACFF099B1E6040F648020021054870
:107F600011F036FF2046BDE8F0876FF08604F3E796
:107F7000141D0230300C02302DE9F74FDDF830A02F
:107F80008046BAF5006F0F4691469B4668D8364E3C
:107F9000334600F09FFA0446002843D1334D306841
:107FA0002946C5E90487C5F8189000F097FC0446F7
:107FB00070BB2B6BDB0750D40123C5E90BABD6F8A4
:107FC00000B051462A480193FFF75EFF0446F8B916
:107FD000019B264D18462449C5F828A000F0F2F967
:107FE0000446A8B929463068C5E90487C5F8189041
:107FF00000F0B7FC044658B94A46404639461A4B89
:1080000000F012FA0446E8B10021306806F092FB55
:1080100040F648020021154811F0DAFE204603B070
:10802000BDE8F08F10F18C0FF2D1104C40F64802F1
:108030000021204611F0CCFEC4E90BAB02234FF027
:10804000000BBEE7BBF1000F03D100F07FFA04463E
:10805000DEE7584600F007FCF9E76FF08404D7E745
:108060006FF08604DAE700BF141D0230300C0230D6
:10807000680C02302DE9F047DFF844A01E46534655
:1080800081468846174600F025FA0446A0B90D4DF2
:10809000DAF800002946C5E90498AF6100F01EFC3B
:1080A000044618B9AB6A73602B6BB36040F64802A4
:1080B0000021044811F08CFE2046BDE8F08700BF87
:1080C000141D0230300C02302DE9F843DFF86080D7
:1080D000074643460E46914600F0FCF9044600BBB5
:1080E000144DD8F800002946C5E90476C5F8189063
:1080F00000F0F4FB044670B92B6BDB0714D44A463E
:108100003846314600F0FCF9044620B9D8F80000A2
:1081100000F0A9FB044640F648020021054811F092
:1081200057FE2046BDE8F8836FF08404F3E700BFF4
:10813000141D0230300C0230F0B500250A4CD4E991
:1081400010768E4208BF874205D1A66C964202D1B6
:1081500000201D60F0BD01350B2D04F12004EED18F
:108160006FF08B00F6E700BF78140230002070B586
:10817000DEB0029000F04EFC044618BB02A900F0ED
:108180003EFC0446F0B91021314800F0E9F90446FC
:10819000C0B9304D029E284600F040FA044678B936
:1081A0004FF4B47205F1280103A85D9611F0EBFDC0
:1081B0004FF4B672284603A900F0BEFA044620B177
:1081C00000F018FA20465EB070BD00F013FA0446C5
:1081D0000028F7D195F891612B4600904FF4C872B2
:1081E0000021701C06F048FA04460028EAD195F8F0
:1081F0009031039003A9012085F8913185F89061B1
:10820000029D00F0FCFB58B16FF08304DAE7012017
:1082100000F000FC04460028D4D1039B01330393F3
:10822000039B9D42F3D8022003A900F0E8FB00283D
:10823000EAD1039B9D4201D80024C3E7022000F04D
:10824000E9FB04460028BDD1039B01330393F0E70B
:10825000200C02307814023010B5084C4FF4CC7268
:108260002046002111F0B4FD0123A4F8903184F8D8
:108270002830BDE81040FFF779BF00BF7814023006
:10828000002270B54D4D88B002AE04904FF4C87313
:1082900001200021CDE90056CDE906220395ADF875
:1082A000142006F007FA10B101238DF81430049B56
:1082B0000022009302204FF4C8730021019606F0BB
:1082C000F9F910B101238DF8153000F005FB0446D3
:1082D00078BB10213A4800F043F9044648BB06A990
:1082E00000F08DFB044638BB3146012000F087FBCF
:1082F000044608BB022007A900F081FB0446D8B958
:10830000079A029B9A429DF8143018BF0790012BE0
:1083100003D0002003A900F0B4FA9DF81530012B1A
:1083200003D0012003A900F0ACFA00F063F9044681
:1083300028B1204608B070BD00F05CF9F9E7039B56
:10834000049993F82830012B1CBF01238DF81430B9
:1083500091F82830012B1CBF01238DF8153040F215
:108360000113BDF814209A4223D09DF81430012B3C
:1083700007D14FF4C8721148A5F8903111F003FDF0
:1083800007E09DF81530022B11D04FF48073A5F84B
:10839000903195F891010021013006F0CBF910B130
:1083A00010F18C0F08D1054800F030F9C1E7012326
:1083B000DFE76FF08304BCE70446BAE778140230C5
:1083C000200C023070B50D4648B300231C46154AF8
:1083D000D2E91016314304F1010106D00B2919D05E
:1083E0001C46203223460C46F2E70B2900F1FF30F1
:1083F0000FD020320028F5D12346DC1C2046002176
:1084000006F098F910B110F18C0F01D100202C600A
:1084100070BD0A230028F0D06FF08D00F8E76FF0F0
:108420008600F5E7781402302DE9F0471E46002358
:108430008146884617468AB0244D02AC01930FCD81
:108440000FC495E80F0084E80F003A4648464146BD
:1084500001ABFFF771FE1E4D824668B9019C2022D8
:1084600005EB44143034214602A811F08CFC202284
:108470005146204611F0ACFC33687168DC1E05EBF8
:10848000431343E9089805EB44131C46303410228B
:1084900020469F6411F077FCFFF768FE064688B11E
:1084A000DDE90632134308D0019B202205EB43157A
:1084B00002A905F1300011F066FC202200212046BF
:1084C00011F086FC30460AB0BDE8F087288A010C1E
:1084D0007814023037B51D4601ABFFF72DFE044678
:1084E00048B9019B0549DA1C2A606868102201EB33
:1084F000431111F048FC204603B030BDA8140230EF
:10850000002330B58BB0019301ABFFF715FE044695
:10851000B0B9019B0C4D202205EB4315294602A85A
:1085200011F031FC21462022284611F051FCFFF7C2
:108530001DFE044620B12022284602A911F023FC8A
:1085400020460BB030BD00BFA8140230034B002101
:1085500093F89101013006F0EDB800BF78140230B5
:1085600030B589B004460D461822002102A811F04A
:108570002FFC0023019385B37CB34FF44072184B5A
:108580001849CDE90423184B01A8029306F000F81E
:1085900008BB40F20111154A01A805F0B3FFA8B9C4
:1085A0002B46224640F2032101A806F015F868B9CF
:1085B0000F4C01A9224602A806F036F830B901A8EE
:1085C00005F0C4FF38B1206805F0F6FD01A805F0FC
:1085D000BDFF6FF0830009B030BD6FF08600FAE791
:1085E0000002500509010008002480005C81FF7F23
:1085F0001C1D023008B5044B186805F0DDFD00288D
:1086000018BF6FF0830008BD1C1D023000F11C0173
:108610000C22014811F0B7BB201D02301FB5082203
:10862000184904460DEB020011F0ADFB0422164977
:108630000DEB020011F0A7FB029B039A013342F1FC
:108640000002CDE90232134314D008220D480DEB8D
:10865000020111F098FB04220B480DEB020111F00E
:1086600092FB0C22074904F11C0011F08CFB002046
:1086700004B010BD019B01330193002BE5D16FF0D5
:108680008300F5E7201D0230281D0230F0B50546B5
:1086900089B010980F9FCDE90012CDE904700E98B3
:1086A000119ECDE902300C4806960C230B49006858
:1086B00005F11C0205F05AFE044650B9316810223B
:1086C000103931602846394411F05DFB204609B06D
:1086D000F0BD6FF08304F9E71C1D02300002500565
:1086E0002DE9F0411D460F469046044688B00E9E87
:1086F00001461022981911F046FB119B1036069383
:10870000109BCDE902560593CDE900780F9B0848F0
:10871000049308490C2304F11C02006805F076FE5E
:10872000002818BF6FF0940008B0BDE8F08100BFCA
:108730001C1D02300002500500B58BB009AB06933A
:108740001023CDE904030023CDE90012CDE9023363
:1087500000F11C0208480C230849006805F006FED9
:1087600038B9099B102B18BF6FF083000BB05DF870
:1087700004FB6FF08300F9E71C1D02300002500576
:1087800000B58BB009AB06930023CDE90433102369
:10879000CDE90012CDE9020300F11C0207480C23C9
:1087A0000749006805F032FE099B184314BF6FF0BB
:1087B000940000200BB05DF804FB00BF1C1D0230CC
:1087C00000025005FFF77EBB30B419460446104640
:1087D000DDE9022350EA010505D0072B07D8224620
:1087E00030BCFFF7C9BB6FF0860030BC70476FF03C
:1087F0008500FAE770B4194604461046DDE90332F5
:1088000050EA0106059D05D0CDE90325224670BC3E
:10881000FFF77ABB6FF0860070BC7047194610B442
:108820000446104650EA0102019B03D0224610BCC8
:10883000FFF720BC6FF0860010BC7047194652EA63
:10884000010310B50446104608D02246FFF73CFC51
:1088500010F1950F08BF6FF0830010BD6FF0860018
:10886000FBE70020704710B50446FFF76FFE014696
:1088700020B92046BDE8104005F05CBF10BDFFF7F1
:10888000EBBC70B551F82060DCB0CB684FF4B4722B
:1088900005460C4601A806F128015B9311F073FA16
:1088A0004FF4B672304601A9FFF76AFF80B1236921
:1088B00083B14FF4B672304601A95B93FFF760FFB6
:1088C00000280CBF032301232C4423725CB070BD2D
:1088D0000223F9E70123F7E700207047002270B573
:1088E0008EB005AB019301F11C030C4600931146B9
:1088F00040F61C03064605F0DDFE68BBD4E9042300
:10890000CDE90823A3690422069607A90BA808AE9F
:108910000793059D11F037FA314608220CA811F093
:1089200032FA0C210BA8FFF71BFEA8B94FF4026224
:108930000C3D04F12803CDE90132204604220396C0
:10894000009506A9FFF7CCFE10B9089B9D4205D003
:10895000FFF750FE6FF083000EB070BDFFF74AFEC8
:10896000FAE72DE9F041D1E904238CB0CDE90623E3
:108970008B6904228E6A049005460C4609A805A955
:1089800006AF059311F0FFF9082239460AA811F045
:10899000FAF90C2109A8FFF7E3FD0146E0B92046EA
:1089A000FFF73CFE0146B8B94FF4026206F1100829
:1089B00004F12803CDE90132204604220397CDF8C3
:1089C000008004A9FFF762FE10B9069B984507D006
:1089D000FFF710FE6FF0830108460CB0BDE8F08190
:1089E000FFF708FE01460028F6D1009004F11C03B1
:1089F000284606F11C0205F03FFE0146ECE70A4658
:108A000008B5042105F0C4FE002814BF6FF08300F0
:108A1000002008BD08B505F0A3FE002814BF6FF0C4
:108A20008300002008BD00000000000000000000DE
:108A30000000000000000000000000000000000036
:108A400000000000000000005B494E465D5B505393
:108A50005D20456E6372797074696F6E20616C671A
:108A60003A20307825780D0A000000000000000050
:108A700000000000000000000000000000000000F6
:108A8000684D000001000000C9D7010CA1D7010CFE
:108A9000A829030C009F0230350000007029030C48
:108AA000401D02300E0000006029030C200C023033
:108AB00004000000D49F0230B90D0000781D023080
:108AC00062200000300C023044040000000C023030
:108AD00008000000FEE7FEE7FEE7FEE7FEE7FEE730
:108AE000FEE7FEE7FEE7FEE7FEE7FEE7FEE7FEE75E
:108AF000FEE7FEE7FEE7FEE7FEE7FEE7FEE7FEE74E
:108B0000FEE7FEE7FEE7FEE7FEE7FEE7FEE7FEE73D
:108B1000FEE7FEE7FEE7FEE7FEE7FEE7FEE7FEE72D
:108B2000FEE7FEE7FEE7FEE7FEE7FEE7FEE7FEE71D
:108B3000FEE7FEE7FEE7FEE7FEE7FEE7FEE7FEE70D
:108B4000FEE7FEE7FEE7FEE7FEE7FEE7FEE7FEE7FD
:108B5000FEE7FEE7FEE7FEE7FEE7FEE7FEE7FEE7ED
:108B6000FEE7FEE7FEE7FEE7FEE7FEE7FEE7FEE7DD
:108B7000FEE7FEE7FEE7FEE7FEE7FEE7FEE7FEE7CD
:108B8000FEE7FEE7FEE7FEE7FEE7FEE7FEE7FEE7BD
:108B9000FEE7FEE7FEE7FEE7FEE7FEE7FEE7FEE7AD
:108BA000FEE7FEE7FEE7FEE7FEE70000000000004C
:108BB00008B572B61C4B83F309881C4B83F30A88F3
:108BC00083F30B881A4B16A1D1E90001C3E9000118
:108BD00000F038F8174B18498B4212D30020174B7E
:108BE00017498B4218D304F003FE186850F822404E
:108BF000586840F82240013298688242F5D30C331D
:108C0000EAE70022F8E71C6844F8220001325C68B9
:108C1000A242F8D30833E4E70022F8E7AFF300807C
:108C2000A5EDF5FEA5EDF5FEF80B023000040230CF
:108C3000F80B0230908A010CB48A010CB48A010C42
:108C4000D48A010C014A024B9A6070470044010C1F
:108C500000ED00E0F8B5044600680F46022830D069
:108C6000032835D0012831D1344B1B689D0735D5F9
:108C7000324D2B6823F080632B6004F045FE0646DE
:108C80002B68190107D504F03FFE801B0228F7D995
:108C90002B68180121D46068A56801382668274A26
:108CA0002D020001DFB1012F17693CD123695B0858
:108CB000591E234B3B4033432B43034343EA415369
:108CC00016E01E4B1B6813F4806FD1D1012005E024
:108CD0001A4B1B6813F4C02FF7E70320F8BD116986
:108CE000184B0B403343E1682B4343EAC163034312
:108CF000124D13612B6843F080632B6004F004FE77
:108D000006462B681B0107D404F0FEFD801B0228D9
:108D1000F7D92B681A01E0D5084AA1691369002028
:108D20000B431361DAE763695B08591E064B3B404E
:108D300033432B43034343EA4163D9E70010025016
:108D40000C809FFF0C80FF070C80FFF970B5044674
:108D50000068022844D0032849D0012845D1274B78
:108D60001B689D0749D5254D2B6823F080532B6048
:108D700004F0CAFD06462B68990007D504F0C4FD2F
:108D8000801B0228F7D92B68980035D41B4D1C4B4B
:108D90006A69134022681343A26843EA0223E26827
:108DA00043EAC2636268013A43EA02136B612B68CB
:108DB00043F080532B6004F0A7FD06462B689B0010
:108DC00007D404F0A1FD801B0228F7D92B689A0074
:108DD00012D50A4A2169536900200B4353610CE004
:108DE000064B1B6813F4806FBDD1012005E0034BD7
:108DF0001B6813F4C02FF7E7032070BD001002506A
:108E00000C80FF0703682DE9F3471A05044627D5B0
:108E1000C16E402926D016D851B320292FD0012663
:108E20002368DB040DD5216FB1F5007F00F03F8191
:108E300029D8002900F04181B1F5807F00F04281FE
:108E40000126354632E0602901D08029E7D1AB4ABE
:108E5000E16ED2F89C3023F0E0030B43C2F89C3063
:108E60000026DDE7A54AD36843F48033D360EEE7FC
:108E70000430FFF7EFFE06460028D1D1E7E72030A7
:108E8000FFF764FFF7E7B1F5407F02D0B1F5806FDF
:108E9000D6D13546002D40F01A81984A216FD2F87C
:108EA0009C3023F4E0630B43C2F89C3023689F039B
:108EB00032D5924B9A6DD00000F10B8101279A6D4B
:108EC00042F080529A659B6D03F080530193019BA1
:108ED000DFF82C82D8F8003043F48073C8F80030F3
:108EE00004F012FD8146D8F80030DA050AD404F007
:108EF0000BFDA0EB09000228F5D9D8F80030D90500
:108F000040F12B81002D00F0E6802E4627B17B4AF0
:108F1000936D23F0805393652368DA0708D577496A
:108F2000606BD1F8882022F003020243C1F8882048
:108F30009F0708D57149A06BD1F8882022F00C0258
:108F40000243C1F88820580708D56C49E06BD1F876
:108F5000882022F030020243C1F88820190708D582
:108F60006649206CD1F8882022F0C0020243C1F883
:108F70008820DA0608D56149606CD1F8882022F48F
:108F800040720243C1F888209F0608D55B49A06C57
:108F9000D1F8882022F440620243C1F88820980565
:108FA00008D55649E06DD1F8882022F440220243CA
:108FB000C1F88820590508D55049206ED1F888207D
:108FC00022F440120243C1F888205A0208D54B49C6
:108FD000606ED1F8882022F440020243C1F8882054
:108FE0009B0140F1CE80A36EB3F1807F00F0B8808A
:108FF000B3F1007F00F0C780002B00F0B6800125A0
:1090000023685F0608D53D49E06CD1F8882022F43A
:1090100040520243C1F888201E0608D53749206D0A
:10902000D1F8882022F440420243C1F88820D805B4
:1090300008D53249606DD1F8882022F440320243CD
:10904000C1F88820D90208D52C49A06DD1F89C2000
:1090500022F003020243C1F89C209A0411D5274A4A
:10906000616FD2F88830B1F1006F23F0406343EABA
:109070000103C2F8883040F08C80D36843F4801339
:10908000D3602F4623681B0340F1AE80A16F1B4BBA
:10909000B1F5804F40F08A80D3F89C2042F48042A2
:1090A000C3F89C20DA6842F48032DA609CE0134A0C
:1090B000D36843F48033D360EBE6201DFFF7CAFD8D
:1090C0000546E7E604F12000FFF740FEF8E72E46EC
:1090D000ECE60027FCE6094BD4F89020D3F890107A
:1090E00011F440710ED1054AD4F89010D2F89030A6
:1090F00023F440730B43C2F8903007E7001002508E
:1091000000700050914211D0D3F89020D3F8901005
:1091100022F4407241F48031C3F89010D3F89010DB
:1091200021F48031C3F89010C3F89020D307DAD52A
:1091300004F0EAFB41F2883A8046DFF88091D9F8E2
:1091400090309907CFD404F0DFFBA0EB0800504526
:10915000F5D9D9F890309807C5D403263546D5E619
:10916000564AD36843F48013D360002D7FF448AF90
:10917000524AA16ED2F8883023F040730B43C2F8F4
:10918000883035463CE70021201DFFF763FD05468A
:10919000EBE7B1F1806F7FF474AF0121201DFFF781
:1091A00059FD074600283FF46CAF6BE7D3F88820E1
:1091B000B1F1806F22F0406242EA0102C3F88820D8
:1091C000D3F89C2022F48042C3F89C2006D0B1F151
:1091D000006F09D1DA6842F4801266E70121201D90
:1091E000FFF738FD064600B93E4623685F0310D5F9
:1091F000324AE16FD2F88830B1F1006F23F040635A
:1092000043EA0103C2F8883046D1D36843F480139F
:10921000D360354623685E040DD52849D4F88020F4
:10922000D1F88830B2F1805F23F0405343EA020363
:10923000C1F888303BD028462268D50309D51F499C
:10924000D4F88450D1F89C3023F004032B43C1F8A8
:109250009C30910209D51949D4F88850D1F89C3036
:1092600023F018032B43C1F89C30D30111D5134AC6
:10927000D4F88C10D2F89C30B1F5001F23F44013C1
:1092800043EA0103C2F89C3002BFD36843F4801361
:10929000D36002B0BDE8F087B1F1806FB9D1012190
:1092A000201DFFF7D7FC05460028B2D0B2E7022107
:1092B000201DFFF7CFFC0028BDD0BDE700100250F5
:1092C00038B5044600283ED0437A03F0FF0213B9B4
:1092D000027201F0C9FD022322686372136861689B
:1092E00023F004031360136823F0804323F020036A
:1092F0000B4343F0804313601F4B13614AF2B323C7
:109300001361136823F08043136004F0FDFA0546EF
:1093100023681A68510009D41A6842F004021A60DE
:109320005B685A0611D5042363720CE004F0ECFA72
:10933000401B0228ECD923681B685800E8D501239C
:1093400063720223E360012038BD04F0DDFA0546B4
:109350002368586810F0040003D101236372E060B1
:10936000F2E704F0D1FA401B0228F1D923685B68C8
:109370005B07EDD50423E3E7BC0A591738B51D4652
:10938000384B394C5B68C3F308032360EFF3038366
:1093900063655306C4E90120E16039D502F00C028F
:1093A0000C2A08BF08460146206120222F4810F0F1
:1093B000EAFC25B1202229462D4810F0E4FC294B77
:1093C0009A6AA265D96AE165986B206602F400404A
:1093D0006066586BA06602F08000E0669A62D9620F
:1093E000D3F8E42023482267D3F8E810616702F03D
:1093F0004001A167C3F8E4200E2101F0C9FD2268F5
:10940000D31E042B22D8DFE803F00F15181B1E0013
:10941000EFF39483990704D5130702D5EFF38980FE
:10942000C1E7EFF38880BEE70C211348BDE8384060
:1094300001F0AEBD12211148F8E70B211048F5E705
:109440000D211048F2E70E210F48EFE70F2A98BFD1
:109450001421BDE8384089BF25210C480C48103A3A
:1094600002F09ABA00ED00E0DCA50230F0A502306F
:1094700010A60230F4D1010C02D2010C0ED2010C64
:1094800020D2010C2BD2010C38D2010C46D2010C97
:109490005AD2010C024A536843F400735360704778
:1094A000007000502DE9F04F00244FF00F09664F77
:1094B0000B6833FA04F201D1BDE8F08F012202FA01
:1094C00004FE1EEA030821D003234A684FEA440C35
:1094D00022F0100A03FA0CF50AF1FF33012B6FEAB0
:1094E00005058E6802F0030312D9D0F80CE006FAE5
:1094F0000CF60EEA050E46EA0E06C660066803FA8A
:109500000CF32E4033430360D3003ED40134CFE745
:10951000D0F80880D1F80CB008EA05080BFA0CFB6B
:109520004BEA080BC0F808B0D0F80480120928EA0A
:109530000E08A24042EA08024260C26806FA0CF62F
:109540002A401643BAF1020FC66006D0026803FA39
:109550000CF32A4013430360D8E7E60800EB8606C5
:1095600004F0070E326A4FEA8E0E09FA0EF822EA6C
:1095700008080A6903FA0CF302FA0EF242EA08023A
:109580003262026815402B43E5E724F0030505F13C
:10959000A04505F53D3504F003062B6EF60009FAEB
:1095A00006FC23EA0C0C294B984240D003F580635B
:1095B00098423ED003F5806398423CD003F5806327
:1095C00098423AD003F58063984238D003F580631F
:1095D000984236D003F58063984214BF07230623D0
:1095E000B34043EA0C032B666FEA0805D7F88030D6
:1095F000D60354BF2B4048EA0303C7F88030D7F89E
:109600008430960354BF2B4048EA0303C7F88430E4
:109610003B68D60254BF2B4048EA03033B607B689B
:10962000920254BF2B4048EA03037B606EE700239D
:10963000D6E70123D4E70223D2E70323D0E70423AC
:10964000CEE70523CCE700BF00F402500000025231
:10965000264A9368D16813F00C0305D00C2B16D161
:1096600001F0030101291CD11168090754BFD2F888
:10967000942012681E4954BFC2F30322C2F303129E
:1096800051F8220013B10C2B0CD0002070476FF45E
:10969000887242FA03F313F0010F164818BF002036
:1096A00070470020114AD168D36801F00301C3F369
:1096B0000313022903F1010308D0032906D0B0FBEC
:1096C000F3F0D268C2F30622504306E0D068094A9C
:1096D000C0F30620B2FBF3F35843044BDB68C3F33B
:1096E000416301335B00B0FBF3F0704700100250A0
:1096F0009CD1010C0024F40008B5FFF7A9FF044B2E
:10970000044A9B68C3F30313D35CD84008BD00BF71
:1097100000100250E4D1010C08B5FFF7EDFF044B37
:10972000044A9B68C3F30223D35CD84008BD00BF42
:1097300000100250DCD1010C08B5FFF7DDFF044B2F
:10974000044A9B68C3F3C223D35CD84008BD00BF62
:1097500000100250DCD1010C2DE9F34106460F4602
:109760000C4DD5F82C80C04710F00104FBD13946D0
:1097700030466B69984740B9C047C307FCD42B6A91
:10978000019302B0BDE8F0411847204602B0BDE8A1
:10979000F08100BF80D2010C10B5094C0020A368F5
:1097A00098472369022098474FF4E131A46A0120C9
:1097B000A04701211520A0470122024B1A6010BDCD
:1097C00080D2010C58A60230064B82B018680023E4
:1097D00082B262F30F03000C60F31F43184602B01D
:1097E000704700BFB8D2010C10B50C46014630B12D
:1097F0002CB10448A2B200F051FB204610BD6FF01E
:109800000400FBE75CA602300A4608B5014640B1F9
:109810003AB14FF47A73044892B201F0F5FC00209B
:1098200008BD6FF00400FBE75CA6023030B52C4C9D
:109830008BB0E36C082543F04003E364E36C03F072
:1098400040030193019BA36D43F08053A365A36D77
:1098500003F080530293029BFFF71CFEE36C80220F
:1098600043F04003E364E36C05A903F04003039372
:10987000039BE36D43F00103E365E36D194C03F0D3
:1098800001030493049B0223CDE9052308930123DC
:10989000204607930995FFF705FE4FF48073204695
:1098A00005A905930995FFF7FDFD4FF4E1330E4837
:1098B0000E490C22C0E900130023C0E905234FF430
:1098C0000042C0E90233C0E907230361436201F0AB
:1098D0002BFD003818BF012040420BB030BD00BF47
:1098E00000100250001802525CA6023000800050A6
:1098F00003682DE9F047DD69D3F800909E68D0F841
:1099000088200446222AB0F8608040F08180B0F8B8
:10991000683033B10027DFF804A106F00106AB067A
:1099200014D4B4F85E309BB273B1B4F868209A4294
:109930000AD923689A6822F080529A60384A2267CE
:109940001A6842F020021A60BDE8F0872368A26D11
:109950005B6A03EA08031370A36D0133A365B4F8CF
:109960005E30013B9BB2A4F85E302368DD696A0774
:109970002AD0E8070AD519F4807F07D001221A629D
:10998000D4F88C2042F00102C4F88C20A90708D535
:109990003EB102221A62D4F88C2042F00402C4F8CC
:1099A0008C206A0708D53EB104221A62D4F88C30A4
:1099B00043F00203C4F88C30D4F88C3023B1204635
:1099C00001F008FBC4F88C70B4F85E2092B2002A53
:1099D000A5D12368196821F480711960996801EA9A
:1099E0000A0199602021C4F888102267E26E012ADA
:1099F0000AD11A68204622F01002B4F85C101A60EE
:109A000001F0E9FAE7668AE7204601F0E2FAF9E7B1
:109A10009A6942F008029A6196E700BFFEFFFFEFE5
:109A2000D9AF010C03682DE9F047DD69D3F8009048
:109A30009E68D0F888200446222AB0F860807ED143
:109A4000B0F8683033B10027DFF8FCA006F001065B
:109A5000AB0614D4B4F85E309BB273B1B4F868208E
:109A60009A420AD923689A6822F080529A60374A4B
:109A700022671A6842F020021A60BDE8F087236866
:109A8000A26D596A08EA010122F8021BA265B4F826
:109A90005E20013A92B2A4F85E20DD696A072AD0FE
:109AA000E8070AD519F4807F07D001221A62D4F89A
:109AB0008C2042F00102C4F88C20A90708D53EB1E1
:109AC00002221A62D4F88C2042F00402C4F88C20DE
:109AD0006A0708D53EB104221A62D4F88C3043F0EC
:109AE0000203C4F88C30D4F88C3023B1204601F046
:109AF00071FAC4F88C70B4F85E2092B2002AA7D133
:109B00002368196821F480711960996801EA0A01D3
:109B100099602021C4F888102267E26E012A0AD1D8
:109B20001A68204622F01002B4F85C101A6001F0A6
:109B300052FAE7668CE7204601F04BFAF9E79A699A
:109B400042F008029A6198E7FEFFFFEF53B0010C64
:109B500038B504462169A26803680A4361691D6833
:109B6000C0690A438D49024329400A431A605A6872
:109B7000E16822F440520A435A60894AA16993423B
:109B80001CBF226A11439A6822F06E4222F43062AE
:109B90000A439A60DA6A616A22F00F020A43DA62C3
:109BA000804A934213D1804BD3F8883003F00303EB
:109BB000022B00F09180032B1CD0012B00F086803B
:109BC000B0F5004F40F0E480FFF7B6FD7CE0774A47
:109BD000934225D1744BD3F8883003F00C03082B43
:109BE0007AD005D8002B6AD0042B6FD0012098E0E2
:109BF0000C2BFBD1B0F5004F72D04FF40040616ADE
:109C00006B4A636832F81120B0FBF2F000EB5300AE
:109C1000B0FBF3F080B24FF6EF73A0F11002ACE0AE
:109C2000644A93420DD1604BD3F8883003F030037F
:109C3000202B51D003D8002B41D0102BD5E7302B4F
:109C4000D7E75D4A93420CD1574BD3F8883003F0E5
:109C5000C003802B40D002D88BB3402BC5E7C02B6C
:109C6000C7E7B3F1502F10D103F5E033D3F88830B4
:109C700003F44073B3F5007F2ED003D8FBB1B3F5E6
:109C8000807FB2E7B3F5407FB3E7454A9342ADD159
:109C9000454BD3F8883003F44063B3F5006F47D0E9
:109CA00007D8002B39D0B3F5806F9FD1FFF7D0FCD8
:109CB00035E0B3F5406F99D14FF4004039E0B0F58D
:109CC000004F60D1FFF728FD50B309E0B0F5004F19
:109CD00061D1FFF7BDFCF7E7B0F5004F37488ED1F3
:109CE000616A334B626833F811304FF6EF71B0FBA5
:109CF000F3F0530803EB4003B3FBF2F39AB2A2F183
:109D0000100088423FF672AF23F00F0321689BB228
:109D1000C2F342021343CB6002E0FFF7FDFC40B9FF
:109D200000204FF00113A3660023C4E91C3338BDA3
:109D300022481F4B626A656833F8122005EB450123
:109D4000B0FBF2F399423FF651AFB3EB053F3FF65C
:109D50004DAF002319460FF041FF090241EA10619F
:109D60006B080002C0182A464FF0000341F10001C1
:109D70000FF034FF124BA0F540729A423FF636AF17
:109D80002368D860CCE7FFF7C7FC0028C8D036E7C7
:109D9000FFF7D2FCF9E7FFF75BFCF6E7F369FFCFCB
:109DA0000080005000380150001002500044005064
:109DB000BCD2010C00480050004C00500024F400BC
:109DC000FFFC0F0010B581658168A0F85C20B1F53B
:109DD000805FA0F85E2031D10369002B40F2FF13B1
:109DE00018BFFF23A0F860300023C0F88C30222376
:109DF000C0F8883003689C6844F001049C60446E9D
:109E0000B4F1005F2ED1B0F8684094422AD8B1F581
:109E1000805F25D104691D4A1D49002C08BF0A46F0
:109E20000267002280F880201A6842F480721A606B
:109E30009A6842F080529A60002010BD29B90369E7
:109E4000002B14BF7F23FF23CCE7B1F1805F05D146
:109E50000369002B14BF3F237F23C3E70023C1E71F
:109E60000A4ADDE7B1F5805F0ED10469094A0A4963
:109E7000002C08BF0A460267002280F880201A687A
:109E800042F490721A60D7E7024AF4E7F198010CA5
