:020000040C00EE
:1000000078540330FD0C000C4927000C190C000C2F
:100010001B0C000C1D0C000C1F0C000C210C000C08
:10002000000000000000000000000000230C000C95
:10003000250C000C00000000270C000C290C000C03
:100040002B0C000C2D0C000C2F0C000C310C000C98
:10005000330C000C350C000C370C000C390C000C68
:100060003B0C000C3D0C000C3F0C000C410C000C38
:10007000430C000C450C000C470C000C490C000C08
:100080004B0C000C4D0C000C4F0C000C510C000CD8
:10009000530C000C550C000C570C000C590C000CA8
:1000A0005B0C000C5D0C000C5F0C000C610C000C78
:1000B000630C000C650C000C670C000C690C000C48
:1000C0006B0C000C6D0C000C6F0C000C710C000C18
:1000D000730C000C750C000C770C000C790C000CE8
:1000E0007B0C000C7D0C000C7F0C000C810C000CB8
:1000F000830C000C850C000C870C000C890C000C88
:100100008B0C000C8D0C000C8F0C000C910C000C57
:10011000930C000C950C000C970C000C990C000C27
:100120009B0C000C9D0C000C9F0C000CA10C000CF7
:10013000A30C000CA50C000CA70C000CA90C000CC7
:10014000AB0C000CAD0C000CAF0C000CB10C000C97
:10015000B30C000CB50C000CB70C000CB90C000C67
:10016000BB0C000CBD0C000CBF0C000CC10C000C37
:10017000C30C000C00000000C50C000C00000000C7
:10018000C70C000CC90C000CCB0C000CCD0C000CE7
:10019000CF0C000CD10C000CD30C000CD50C000CB7
:1001A000D70C000CD90C000CDB0C000CDD0C000C87
:1001B000DF0C000C00000000E10C000CE30C000C54
:1001C000E50C000C00000000E70C000CE90C000C32
:1001D000EB0C000CED0C000CEF0C000CF10C000C07
:1001E000F30C000CF50C000CF70C000CF90C000CD7
:1001F000FB0C000C0348044B834202D0034B03B1B9
:10020000184770472C0103302C0103300000000018
:100210000548064B1B1AD90F01EBA301491002D068
:10022000034B03B1184770472C0103302C010330F6
:100230000000000010B5064C237843B9FFF7DAFF41
:10024000044B13B10448AFF300800123237010BDA9
:100250002C01033000000000DC93000C08B5044BB7
:100260001BB104490448AFF30080BDE80840CFE764
:100270000000000030010330DC93000CA3F5803A4D
:10028000704700BF174B002B08BF134B9D46FFF76D
:10029000F5FF00218B460F461348144A121A07F047
:1002A00000F90E4B002B00D098470D4B002B00D0CF
:1002B00098470020002104000D000D48002802D0BE
:1002C0000C48AFF3008007F0A3F82000290000F0ED
:1002D0002DFB07F089F800BF0000080000000000B7
:1002E00000000000785403302C010330783C0330C8
:1002F000000000000000000040B1521805D2C068A4
:10030000904234BF00200120704700207047000059
:100310000B4B30B51A6800230A4C9A4203DC06D115
:100320004FF0FF3008E01D01655D854205D10020DA
:10033000044A02EB03130B6030BD0133EDE700BF4D
:100340000484000C0884000C704700002DE9F3477A
:1003500016461A4607460D461C46FFF7CDFF0028F5
:100360006FD07B685B689847374BC0F3410013F848
:100370002090C9F1000303EA050835EA03032BD0F6
:10038000D7E9013001225B6901A940449847002860
:1003900016DB2B19A3EB08034B4538BF22464FF061
:1003A000000124BFA9EB05024244A5EB08035FFA54
:1003B00081F8904501F1010105D3A41A7CB9002010
:1003C00002B0BDE8F08708F108006844184410F84E
:1003D000040C06F80800EAE74FF00008EEE77B6837
:1003E0004C45B4FBF9FA5B69B8680BD32844524614
:1003F00006EB0801404498470028E1DB09FB1A445A
:10040000002CDCD0BB680AFB09F91D447B6845441D
:1004100001225B6901A905EB090098470028CFDBA1
:1004200000231A464E4403F1080169440133DBB24C
:1004300011F8041C3244A34202F808101A46F2D301
:10044000BDE74FF0FF30BBE7F883000C2DE9F04F1C
:1004500089B002921A46064689461D4621F0070ACF
:1004600001F00708FFF748FF28B94FF0FF3318469F
:1004700009B0BDE8F08F73680DF1180B5B68984701
:100480005D4BC0F3410053F820305A46009351466B
:1004900043463046FFF75AFF0028E6D1EB1D4344A0
:1004A00023F00703AAEB09077F1B1A465146304683
:1004B00001931F44FFF720FF0028D6D03B4630466B
:1004C00004AA09EB0501FFF741FF03460028CCD140
:1004D000B8F1000F4AD14446AC42C8D2A5EB040A99
:1004E0003AF0070A00F08480B06871689DF8002037
:1004F0004844D1F818B0BAFBF2F2029920440393B1
:10050000D8470028B1DB039B002FB0D05444A5424C
:1005100060D92246002306A902980133805C082B8B
:1005200001F8010B02F1010259D09542F4D1A44621
:10053000002204A906A8082B01D0BA4252D108F122
:100540000808082BE04490D1BA428ED1019A424566
:100550008BD1B06871689DF800204844B3FBF2F27B
:100560008C69604406A9A047C31780E7414604464A
:1005700007E0AC4209D0029A125D01340BF8012069
:1005800001310729F5D9AC4208D1002204A80DF1A8
:10059000180C072915D9BA427FF467AF08290393CD
:1005A0007FF463AFD6E901309DF80020D3F818B08E
:1005B000B1FBF2F2504406A9D8470028039B8BDA1E
:1005C00053E7BA42EAD010F801EB013201F80CE02F
:1005D0000131DEE7A4460023A542A9D045E7A446A1
:1005E0001446F9E711F8014B01321C540133A2E71C
:1005F000002F3FF43CAF8CE7F883000C2DE9F0416D
:1006000005460E469046FFF777FEA8B16B689B6AD9
:1006100098470468074664B10020BDE8F081D5E939
:100620000130DB69304498470028F6D1BB681C4490
:100630001E444445F3D3EFE74FF0FF30EDE708B534
:1006400043689B6A9847006908BD000008B503F03D
:100650006BFC10B1024B186808BD024BFBE700BFF2
:100660002C000330A421033037B50B4D0C462A680B
:1006700061B1011D0AD80330042807D8042101AA5A
:1006800003F054FC28B12A68019B2360104603B094
:1006900030BD024B1A68F7E72C000330A421033069
:1006A00008B5031D0DD8C31C052B184628BF05200F
:1006B000042B06D803F042FC003818BF012040424A
:1006C00008BD4FF0FF30FBE71FB5082102AA02204A
:1006D00003F0F4FEDDE902020B490C4B9A4208BF1D
:1006E000884207D10A4B0B4A00930B490B4B0C482D
:1006F00006F092FF082200210DEB020006F0D1FE69
:1007000005B05DF804FB00BFA9B454B26D6F90A4AE
:10071000AF84000C6884000C9684000C4884000CA4
:100720009E84000C07B50421072001AA03F0C6FE31
:1007300020B9019801288CBF0020012003B05DF88A
:1007400004FB000008B544210C20084A03F057FFC1
:1007500018B14CF25A32904206D1BDE8084044210B
:100760000D20034A03F04BBF08BD00BF1385000CEA
:100770005785000C1FB50421072003AA03F09EFE35
:100780000446B8B90D4806F047FF0D4B0D4A0093DB
:100790000D490E4B0E4806F03FFF039B53B903F083
:1007A000A5FF044630B9FFF7CDFF044610B903F0AA
:1007B0009FFF0446204604B010BD00BFB484000C67
:1007C000AF84000CD784000C9684000C4884000C85
:1007D0009E84000C0020704710B50446006830B1BC
:1007E000012805D1201D05F00BFB0023236010BD5F
:1007F0006FF08800F9E770B50D46061D002104462C
:100800006C22304606F04DFE2946304605F00AFBC4
:1008100008B90123236070BD2AB10368012B04D1FC
:10082000043005F02BBB104670476FF0880070470E
:1008300038B500251D6004460068012808D1201D38
:1008400005F02EFB05462046FFF7C6FF284638BDBB
:100850006FF08805F7E7000070B5002686B06D469A
:100860000B4C442200210B4806F01BFE0834314695
:100870001822684644F8046C06F013FE0FCD0FC42E
:1008800095E8030084E80300304606B070BD00BF61
:1008900000000330480103307FB50C461546442163
:1008A000154A0B301E4603F009FEF8B94FF42053E9
:1008B00041221248C0E90434114BC0E90123C36846
:1008C0001B0A16D124F4FF7323F00103B3F1062FA2
:1008D0000FD1099B00950393089BCDE90163234643
:1008E00050F8081B05F096FF04B070BD6FF0830050
:1008F000FAE76FF08600F7E74801033000000330A5
:1009000012410001002818BF6FF08300704710B536
:100910001446184606F0B8FD039B00201C6010BD6D
:100920007047704770477047704700002DE9F347E4
:100930004FF400514F4805F01BFA03F023FA01F081
:1009400065FB18B14C4806F067FEFEE74B4806F021
:1009500063FE03F04FFD18B1494806F05DFEFEE767
:10096000FFF7E0FE30B1FFF705FF18B1454806F08C
:1009700053FEFEE7FFF7A8FEFFF768FE424E33681E
:10098000834203D0414806F047FEFEE703F0C6F974
:1009900018B13F4806F040FEFEE7FFF71BFF014697
:1009A00018B13C4806F038FEFEE73B493B4806F0EC
:1009B00033FE012003F0BDF9002839D00124204680
:1009C000254603F0B2F908BBDFF8D480DFF8D490F5
:1009D000DFF8D4A00C220021404606F062FD294633
:1009E000404600F009FE07463368834216D0484669
:1009F00006F012FE284603F09EF960B13268DAF87C
:100A000000309A4207D0FEE70024D8E72146274865
:100A100006F002FEFEE73368BB42DBD1284603F056
:100A200086F920B12146224806F0F6FDFEE724B102
:100A3000002003F07EF90028E6D1194D1D48A96871
:100A400006F0EAFD1C4806F0E7FD01A9287900F050
:100A500035F82B681A691C8912F0200F05BFAB68A6
:100A6000019A5B689B181C4403F0A4F920460CF023
:100A7000D8FE00BF980103309B85000CB885000CA0
:100A8000D485000CFD85000CA42103301986000CD0
:100A90004F86000C7186000CA386000CAB86000C00
:100AA0008C0103300087000C2C000330D686000C2C
:100AB0002687000C5187000C8387000C642808B53A
:100AC00007D001466422054806F0A6FD4FF0FF302E
:100AD00008BD4FF0406300200B60F9E7B087000CC1
:100AE000012908D002290CD069B978B1012814BFB6
:100AF000FF200220704758B1012814BFFF200420B6
:100B00007047052070474FF0FF3070470120704755
:100B10000320704708B543689B6A9847007D08BD6D
:100B20002DE9F341D1F8008006460D46C0B201A977
:100B30001746FFF7EDFB044688BB2B68CBB1034695
:100B40004FF48050019AD1682B6009B1434506D318
:100B5000434510D93146134806F05EFD09E0B1F572
:100B6000805F0FD24FF480533146D2680E4806F0B2
:100B700053FD4FF0FF340198FFF7E6FB204602B02B
:100B8000BDE8F0814FEA033C47F833C02B68A1F57C
:100B9000805107EBC30358602B680133D4E74FF053
:100BA000FF34EBE71588000CD987000C054B0020BB
:100BB0001A684FF0E023013A5A61052298611A61E0
:100BC000704700BF300003304FF0E02130B50E48D1
:100BD0000E4C8A690568236893422B444FF47A755A
:100BE0003CBF49695B180A499B1A09680360B1FB5D
:100BF000F5F19942074B04D20025196805600131CF
:100C000019601868226030BD9C210330A021033098
:100C10003000033098210330FEE7FEE7FEE7FEE7F1
:100C2000FEE7FEE7FEE7FEE7FEE7FEE7FEE7FEE79C
:100C3000FEE7FEE7FEE7FEE7FEE7FEE7FEE7FEE78C
:100C4000FEE7FEE7FEE7FEE7FEE7FEE7FEE7FEE77C
:100C5000FEE7FEE7FEE7FEE7FEE7FEE7FEE7FEE76C
:100C6000FEE7FEE7FEE7FEE7FEE7FEE7FEE7FEE75C
:100C7000FEE7FEE7FEE7FEE7FEE7FEE7FEE7FEE74C
:100C8000FEE7FEE7FEE7FEE7FEE7FEE7FEE7FEE73C
:100C9000FEE7FEE7FEE7FEE7FEE7FEE7FEE7FEE72C
:100CA000FEE7FEE7FEE7FEE7FEE7FEE7FEE7FEE71C
:100CB000FEE7FEE7FEE7FEE7FEE7FEE7FEE7FEE70C
:100CC000FEE7FEE7FEE7FEE7FEE7FEE7FEE7FEE7FC
:100CD000FEE7FEE7FEE7FEE7FEE7FEE7FEE7FEE7EC
:100CE000FEE7FEE7FEE7FEE7FEE7FEE7FEE7FEE7DC
:100CF000FEE7FEE7FEE7FEE7FEE7FEE708B5174B77
:100D000083F30988164B83F30A8883F30B8801F079
:100D100031F9144B14498B4212D30020134B144960
:100D20008B4218D3FFF7AEFA186850F82240586883
:100D300040F82240013298688242F5D30C33EAE74A
:100D40000022F8E71C6844F8220001325C68A242E5
:100D5000F8D30833E4E70022F8E700BF7854033003
:100D6000783C0330B883000CD083000CD083000C97
:100D7000E083000C0020704703469A2213B5084612
:100D800093F8B810019299B1012903D0FF2811D02E
:100D900001201DE002280DD004228242F8D15824FF
:100DA00004FB013204FB0133126D03F1540409E02A
:100DB00001280FD1582404FB013204FB0133526A8D
:100DC00003F1280401A9FFF7ABFE08B9019B2360DA
:100DD00002B010BD0322E0E738B590F8B830044601
:100DE000F3B1012B06D0FF21FFF7C6FFF8B10125B3
:100DF000284638BD0221FFF7BFFF0028F7D10421A4
:100E00002046FFF7B9FF054698B9582294F8B83044
:100E100002FB0343186AFFF712FCC4F8B400E7E7CB
:100E20000121FFF7A9FF0028E1D10321E8E7FF2115
:100E3000E6E70925DCE7F8B51546582790F8B8200D
:100E40000E462B46002102FB0702044600F040FC40
:100E500068B994F8B8202B4607FB024201212046CE
:100E60002C3200F035FC10B1002E08BF0020F8BD78
:100E700037B50C46002105460091FFF731FE694663
:100E8000C0B2FFF745FA88B92046009901AA00F0E0
:100E9000E7FE044620B928460199FFF701FC044605
:100EA0000098FFF751FA204603B030BD0124F7E760
:100EB0002DE9F043404F89B0044690F8B8000E4643
:100EC0003D68FFF70DFE06A9C0B2FFF721FAF8B999
:100ED00094F8B88031464046FFF702FE2C2507A95A
:100EE000C0B27543FFF714FAB0B14FF058092C2384
:100EF00009FB08F103FB061104EB010CDCF8100000
:100F0000069BC2061ED52D4B1D680698FFF71CFADE
:100F1000284609B0BDE8F0830798FFF7FBFD81463E
:100F20000798FFF711FA582394F8B82002FB0353EF
:100F300023445A1E033312F8011F4945D5D1934269
:100F4000F9D1E0E754F801E01D498E4530D1BCF8F5
:100F50000810DCF80C2089182AD2BCF80AC01CEB57
:100F6000010C25D2D9688C4522D240F60C6108408C
:100F70001ED14FF4807108FB09520191CDE90300A5
:100F800010490290009194F8B810224400F098FEA5
:100F900005460D4B1B68AB42B7D05EB106980021E9
:100FA000C268FFF72BFB0949094806F035FBAAE7A1
:100FB0003D68EEE70749F7E72C00033028000330CF
:100FC0003DB8F396A8210330A42103304988000CD2
:100FD0005388000C4188000C0123036003F10123B6
:100FE00043600023C0E9023370474379012B07D1E6
:100FF0000368012B04D10079431E584258417047C1
:10100000002070472DE9F04B0E469046994600248B
:10101000099FDFF844B0BC4201D300200EE03D1B25
:10102000B5F5806F28BF4FF4806530462B460A4ADD
:1010300004EB0901FFF78AF910B10120BDE8F08B3C
:1010400008992B465A4640466118FFF7FFF90028D9
:10105000F3D12C44DFE700BFA82203302DE9F04F85
:101060004FF0000A04460F46D046DFF8E091DFF863
:10107000E0B195B0BAF1010F84F8B8A007D9B8F182
:10108000000F00F05C81002058252C26D9E004EBED
:101090000A0393F8B930002B56D14FF49A615826C1
:1010A00001FB0AF106FB0A4001EB090501F51A6193
:1010B000494445620165194650460393FFF710FD08
:1010C00094F8B810054606FB0141C0B22031FFF785
:1010D0001FF9039B70B901215046FFF701FD94F8F9
:1010E000B810054606FB0141C0B24C31FFF710F9BC
:1010F00038B10123009052462946564806F08CFA32
:10110000FEE72046FFF768FE054688B90022204624
:101110001146FFF790FEE8B1584694F8B81006F073
:101120007BFA012294F8B830234483F8B0200BE016
:101130009A21494806F070FA012294F8B830954295
:10114000234483F8B020E1D194F8B82001325FFA4B
:1011500082FA8FE7204600F06BFA0028E1D00AA857
:10116000FFF73AFFFFF741FF0646C8B994F8B830D9
:101170002BB9002120460AAAFFF75DFED1E794F8BB
:10118000B020042A04BF012284F8B020012BF0D043
:1011900094F8B130042BECD1012384F8B130E8E7A6
:1011A0009DF82FA0BAF1010F33D194F8B80000F0E8
:1011B000CDFC831E022B05460DD851462046FFF775
:1011C00077FE264B1B68984205D0254B1D68A84228
:1011D00014BF0525012594F8B830234483F8B05096
:1011E00094F8B8306BB1E21892F8B020012AABD075
:1011F000042A0CD094F8B020042A02D1012284F8E9
:10120000B020234493F8B030023B022B9CD8B04668
:101210009AE701212046FFF74BFE104B1B689842CE
:1012200018BF052294F8B83008BF9DF82F2023443A
:1012300083F8B020D4E7231893F8B92092B1013095
:10124000C0B2012884F8B800F5D978E0A8260330A8
:101250001389000C7E88000CCE88000CA42103307A
:101260002800033093F8B08008F0FB08B8F10108BB
:1012700018BF4FF001084146FFF732FC05A9C0B284
:10128000FFF746F8002873D106FB08F194F8B83050
:10129000059A03FB05110123214400930EA8402366
:1012A00000F032FA8046002862D100230DF11202CC
:1012B00006A90EA800F074FA00283CDB05985BD163
:1012C000BDF812300C2B55D1069907AAFFF73EF84E
:1012D00000285AD19DF81C30012B59D8E21892F8F9
:1012E000B0206B43023A022A8CBF0022012206FB87
:1012F00002332344197D9DF820209142D5D80AD38A
:10130000597D9DF821209142CFD804D3DA8ABDF8C7
:1013100022309A42C9D294F8B8300598234493F801
:10132000B020012A22D0023A012A02D8012283F8F1
:10133000B020FFF709F840F20113A4F8B0300025FF
:10134000DFF88CB2012D84F8B85024D90023A14DC8
:10135000A14EDFF888820E93012B84F8B83040F25A
:10136000B1800E9A022A00F01C81FEE70422DEE71B
:101370000598DEE74FF003080598FEF7E5FFB8F1A2
:10138000000FD8D194F8B80059E74FF00108F3E7FF
:101390004FF00708F0E7621992F8B930002B40F0DF
:1013A0008C800AA8FFF718FE92F8B030042B8DF855
:1013B0002F3006D8012B06D83CD0FF2382F8B0305E
:1013C00038E0052BF8E72946854806F025F98548D9
:1013D00006F022F907A9C5BB0120FEF799FF0320FB
:1013E00000264FF05809B0460EA9FEF791FF94F879
:1013F000B83009FB0343D3F828A0C2452AD13246AE
:101400002946584606F008F900232046079A0E9907
:1014100001960093FFF7F6FD60B9582594F8B800DF
:1014200005FB00412C31FFF723FD014620B36E4838
:1014300006F0F2F894F8B830234493F8B030FF2B5C
:101440003BD16A4806F0E8F8FEE70220FEF760FFAD
:101450000420C5E794F8B820314609FB0242526ADD
:10146000079802EBC802526808F101080392FFF7DF
:10147000C5F8039A1644C0E794F8B8300E9805FBF7
:1014800003431B6D5A68FFF7B9F894F8B83005FBB1
:101490000343D3E91423013B52F8331002EBC3009A
:1014A00013684268C91A0E98FFF7A8F80798FEF764
:1014B0004BFF0E98FEF748FFBCE794F8B850013593
:1014C000EDB23FE7234493F8B9208DF81C209DF836
:1014D0001C1001F0FF0239B10E9B01330E9394F8FA
:1014E000B8300133DBB237E793F8B030012B14D0BA
:1014F00011462046FFF79FFC78B12D68102200218D
:101500000AA805F0CEFF58260023012B84F8B83036
:1015100032D9284615B0BDE8F08F00212046FFF7EC
:10152000C7FC33688342E8D12A689A42E5D0D8F8EC
:1015300000209A42E1D094F8B800231893F8B03014
:10154000012B09D1582100FB0141FFF791FC18B193
:10155000274806F061F8D0E7582194F8B80001FB5D
:10156000004319461A6A00F0E9F90028B4D021486E
:10157000EFE784F8B82028E0E21892F8B9205AB9C9
:1015800006FB0343D86CFEF7DFFE94F8B83006FB89
:101590000343186AFEF7D8FE94F8B8300133DBB283
:1015A000B3E794F8B93023B194F8BA30002BE0D106
:1015B000012384F8B8301A46582303FB0242136A09
:1015C000597839719B683A60BB60034B1D6895E799
:1015D0009B89000C2C000330A42103302800033029
:1015E0004289000C7A89000CE889000C248A000CDE
:1015F000338A000C728A000C38B50A4B0129054663
:101600000C4618680CD802220121074805F049FF52
:1016100000230648044484F8B9302946FFF71EFD2C
:1016200038BD00BF2C000330A13A0330E839033045
:101630005822F8B590F8B83002FB0300D0F828C063
:10164000466DBCF19A0F01D89A2E33D91D4805F08A
:10165000E3FF0020F8BDAC4215D1476A07EBC20793
:101660007F6801323C44076D07EBC3077F68013395
:101670003D446245EFD3B342EDD3624501D1B3425D
:101680001ED01148E3E70BD2476A022907EBC207D5
:101690007F683C4401D10D48D9E701210132E8E7D8
:1016A000076D012907EBC3077F683D44F3D0022192
:1016B0000133DEE700210B460A460D460C46D8E70B
:1016C0000120C7E7A28A000C0E8B000CD48A000C04
:1016D00013B590F8B8001446FFF702FA01A9C0B29A
:1016E000FEF716FE014668B9224620230198FEF750
:1016F0002DFE04460198FEF727FE201E18BF01208C
:1017000002B010BD0120FBE72DE9F7430E46174656
:101710009946044628B94FF0FF38404603B0BDE86B
:10172000F0830029F7D0002AF5D0CB680D89384620
:101730001D44042329460DEB0302FEF707FE8046F5
:101740000028E8D146F60812BDF8041073899142CA
:1017500023D1BDF806109942DDD1042338460DEBA4
:1017600003022944FEF7F2FD0028D4D146F6071300
:10177000BDF804209A42CED19DF82830C4E9006714
:10178000A4F80890A3727389BDF806202B44E36087
:101790000435134463612561BFE7002BE6D0BAE747
:1017A0002DE9F7430F4690461E46044620B94FF0F8
:1017B000FF3003B0BDE8F0830368002BF7D0436827
:1017C000002BF4D04FF6FF79D4E904239A4216D2C5
:1017D00023685B8923B1E368934204BF0433236128
:1017E0000423216960680DEB0302FEF7AFFD0028BA
:1017F000DDD1A37A256923B1E368AB4201D801208A
:10180000D7E72189BDF80620494502F1040303D03A
:10181000BDF804C08C450BD116B1BDF80410318061
:1018200004353D60A8F8002022691A442261C0E70F
:101830002B442361C8E748B103683BB143682BB12F
:10184000C068884294BF0020012070474FF0FF30ED
:10185000704700002DE9F74F1646002282460C46DD
:101860001D4601921BB9032003B0BDE8F08F2E4F37
:10187000397851B94FF480622C4805F012FE2C4B98
:101880002C4AC3F8002C01233B70DFF8ACB0274B87
:10189000D8465F8807F1405909F57F39CB452AD3EF
:1018A000C4F30B0444EA0A30B4B2DFF880A0ADF808
:1018B0000400ADF80640BAF80230201D13FA80F09B
:1018C000B0F5803FCFDA80B2B0F5806F29D804221E
:1018D00048460DEB020105F0D7FD3246294607EBDD
:1018E000080005F0D1FDBAF80230002004331C4492
:1018F000AAF80240B8E7042259460DEB020005F0B1
:10190000C3FDBDF80430BAEB133F03D1C3F30B039F
:101910009C4204D0BDF8063004339B44BEE702204D
:10192000A2E70120A0E700BFA43A033000FC033087
:1019300000F003301620040004FC03300023F0B54F
:10194000B5B0009305464FF6FF7305A81746FFF79D
:10195000DBFE044618B14FF0FF3035B0F0BD06464F
:101960000DF10E0303AA04A905A8FFF719FF00282B
:10197000F1D1BDF80E30602B0ED1BDF80C30842BA8
:10198000E9D83846049913AAFEF7E0FC0028E2D112
:101990000124BDF80C60E3E7102BE1D1BDF80C3059
:1019A000202BD8D8384604990BAAFEF7CFFC002884
:1019B000D1D1002CCFD01F2ECDD913ABA6F1200052
:1019C00004900BA92022184405F05EFDA9013246BF
:1019D00013AB41F03F010120FFF73CFFBDE705F0ED
:1019E00043BD00F000B8C068183820F00700103878
:1019F0007047042809D0052803D1481E18BF0120CC
:101A00007047431A5842584170470120704738B513
:101A100015460C4661B15AB1FFF77CF821462544C2
:101A200011F8013B834203D1A942F9D1012038BD0D
:101A30000020FCE738B50C46012311462246054636
:101A4000FEF784FC00280FDB012221462846FFF721
:101A5000DEFF38B92378012B14BF022301230020B5
:101A6000237038BD0323FAE70120FAE7C268183A69
:101A700022F00702FFF7DEBF30B50D46C16887B020
:101A8000102302AA10390446FEF760FC002802DA8F
:101A9000012007B030BD1022204602A9FFF7B7FF92
:101AA00000283AD110221E4902A805F0DDFC0028CA
:101AB0000CBF012302232B702046FFF794FF012364
:101AC00001460DF107022046FEF740FC0028DFDB4F
:101AD0009DF80730204603F00F021B096A702B7136
:101AE00001220DF10701FFF792FF10B96B78042B6B
:101AF00003D901236B7000232B71E2682046183A4A
:101B000022F00702083AA91CFFF794FF0028BFD172
:101B10002046E91CFFF7AAFFBBE70323CBE700BF82
:101B2000128C000C13B50C46C0B201A9FEF7F0FBF5
:101B300050B921460198FFF79FFF04460198FEF730
:101B400003FC204602B010BD0124FAE7F0B585B0D1
:101B50000546694600284BD0012807D0FF20FFF733
:101B6000E1FF00284BD0FF2005B0F0BD0220FFF7B9
:101B7000D9FF0028F7D1042002A9FFF7D3FF0128DD
:101B80003FD129462D4805F047FD2D4B02930023F8
:101B90008DF80C3000229DF800609DF80870294CEB
:101BA00031462078FFF725FF90B339466078FFF77C
:101BB00020FF68B3A378042B03D09DF8031099424B
:101BC00026D1E378042B03D09DF80B1099421FD146
:101BD0002379042B18D16379022B24D11A4A294680
:101BE0001A4805F019FD6079831E022BBCD9BAE7AB
:101BF0000120FFF797FF0028B5D10320BCE7FF20A5
:101C0000BAE70028C6D0AEE79DF802109942E2D0AC
:101C10000132032A04F10604C2D129460C4805F01A
:101C2000FBFC0120A0E7032B05D00A4A0A49042B3C
:101C300008BF0A46D3E7094AD1E700BF628B000C10
:101C400003010303008C000C448B000CB08B000CD0
:101C5000D78B000C498B000C5B8B000C3F8B000C6E
:101C600030B50C46154601468BB020B31CB312B3F9
:101C7000438913B903200BB030BD012322460093E2
:101C800004A85023FFF740FD0028F4D103460DF1CE
:101C90000A0203A904A8FFF783FD70B9BDF80A3052
:101CA000042BE7D12A4620460399FEF74FFB003864
:101CB00018BF0120DFE70720DDE74FF0FF30DAE74C
:101CC0002DE9F04FCDB003911D46DDE9588A6FF044
:101CD00000430021DFF8DC9114462CA87022CDE9E6
:101CE00006315A9FD9F8006005F0DBFB2CA9702261
:101CF00010A805F0C9FB704910A8FEF77CFDB8F1EB
:101D0000000F07D0BAF1000F04DD5246414610A87B
:101D1000FEF782FD4FF0000823896289D4F80CB0E9
:101D200013449B44C3455FD8002320222C930DEB22
:101D300002012CAB10A8FEF77BFD10A8FEF74CFDAE
:101D40002FB1202238460DEB020105F09DFB002348
:101D50002A46009321464FF6FF7310A8FFF7D4FCE4
:101D60000746002850D12846159CFFF73AFE8442CA
:101D70004AD8B046039CDFF844A1DFF844B10DF126
:101D8000120304AA05A910A8FFF70AFD00283BDBEF
:101D900040F08780059910A8FFF74DFD50B94FF628
:101DA000FF71BDF81200474A32F8023B8B422BD03C
:101DB0009842F9D1BDF81230102B2FD1BDF8107018
:101DC000202F21D13B46284605992CAAFEF7BEFAC2
:101DD000D0B93A462CA908A8FFF701FEDAF800307E
:101DE000834211D10127CAE7579BABEB080A9A45FA
:101DF00028BF9A46414653462846569AFEF7A6FA09
:101E000028B110A8FEF7E8FC2A4B186846E05246B5
:101E1000569910A8FEF700FDD04483E7222B1ED16F
:101E2000002C19DBDBF80030A34215DDBDF81030C3
:101E3000802BE9D8284605992CAAFEF787FA0028B6
:101E4000E2D12021E4B2BDF8103000942CAA0DEBB1
:101E5000010000F039F880464FF0FF348FE7502B37
:101E60008DD1BDF81030042BCED12846059907AA94
:101E7000FEF76CFA0028C7D1039806A9FEF7F4FB19
:101E8000DAF800608642BFD1DDE906239A427FF688
:101E900076AFD9F8000086423FF471AF4DB0BDE88F
:101EA000F08F002FB0D0054B1B68B342ACD1404639
:101EB000F4E700BF2C00033009000002A421033026
:101EC000AC87000C228C000C2DE9F04314468946A7
:101ED00000219BB080465C2203A89DF88860029197
:101EE00005F0DFFAE57801361F2D04F1040402AF96
:101EF0002FD9A5F120031C4420222146384605F0A5
:101F0000C3FAEB0700D5013D63195A7802351F2A41
:101F10008CBFA2F12003C2F1400004EB050183BF96
:101F2000C91820220AA8C01905F0AEFA402342467B
:101F3000CDE9007330464B460B49FEF7ADFC80B14E
:101F40000A4B1C683046FEF787FC20461BB0BDE8F4
:101F5000F083C5F120002A462146384405F094FA62
:101F6000D2E7034BEDE700BF090600062C00033063
:101F7000A4210330704700001F4A204913681B0743
:101F800055BFD2F894301368C3F30323C3F303138C
:101F900051F82330916801F00C01082929D00C294F
:101FA0000DD0174A042908BF1346134A15499268F1
:101FB000C2F303128A5CD340134A13607047D1689E
:101FC000D26801F003010239012998BF0C4BC2F31A
:101FD00003120132B3FBF2F20749CB68C968C3F3BD
:101FE00006235343C1F3416201325200B3FBF2F3C3
:101FF000DBE7034BD9E700BF00100250408C000C18
:102000000024F400888C000C3000033030B599B007
:1020100000F0CFFB01F02CFE20B13B4805F0FCFAAC
:102020000BF04EFCFEF7A6FE20B1384805F0F4FA9E
:102030000BF046FC364C1422002101A805F031FAC1
:102040004822002106A805F02CFAA36D002043F0D9
:102050008053A365A36D022503F080530093009B7A
:1020600000F03AFFA36D002223F08053A3651023F4
:10207000069301233021CDE911530D931393372398
:1020800006A8CDE90E21CDE916551493159500F05B
:10209000F7FF00B1FEE70F230321CDE901318023D3
:1020A0000590CDE9033001A801F036FB00B1FEE751
:1020B0000390052101A8019501F02EFB054600B112
:1020C000FEE701F05FFE00F029F800F09BF8A36D39
:1020D00043F08053A365A36D03F080530693069BE2
:1020E00000F0E8FE00F01AF800F08CF8094B2846E2
:1020F0009B68984720B1084805F08EFA0BF0E0FB8A
:10210000002019B030BD00BF988C000CC08C000CB2
:10211000001002509890000CEB8C000C6FF0010244
:10212000314B00B5C3F80021304B9DB0D3F8D0201F
:1021300022F00102C3F8D0200022C3F8D8204FF0CB
:102140000052C3F8DC20E132C3F8E0200122C3F8DA
:10215000D820274AC3F8DC2002F57F42E132C3F8D9
:10216000E0200222C3F8D820224AC3F8DC2002F57E
:102170007F42E132C3F8E0200322C3F8D8201E4A90
:10218000C3F8DC2002F5D92202F2E172C3F8E020A4
:10219000BFF34F8FBFF36F8FD3F8D020174842F0B3
:1021A0000102C3F8D020164B01A99A6C42F48002B8
:1021B0009A649B6C03F480030093009B01F024FD60
:1021C00008B10BF07DFB1B9B0C4843F0800301A979
:1021D0001B9301F0C1FC08B10BF072FB01201DB094
:1021E0005DF804EB00F0B8BD002C035000ED00E0FA
:1021F0000000F90B0020024000100408000003302A
:102200000010025073B501230426704C704D204617
:102210006360E361266300F021FD02232846EB6141
:102220006E6000F01BFD0023C5E90033236063608E
:10223000A369002B04DB674805F0EEF90BF040FBC7
:10224000A3695B0204D4644805F0E6F90BF038FB9F
:10225000616BB1F1406F07D0604805F0DDF960486F
:1022600005F0DAF90BF02CFBD4E908320BB97F2A20
:1022700015D0002100925B487F2205F0CDF95A4825
:1022800005F0CAF97F234FF0000CC4E908C32368A6
:1022900043F010032360E36943F01103E361D5E9E0
:1022A00008320BB9012A12D0002100924F480122B6
:1022B00005F0B2F94E4805F0AFF900260123C5E953
:1022C000086310232B60EB6943F01203EB61A16AF2
:1022D000236A192904D9E26902F480721A4316D0DC
:1022E0001A2200914348002105F096F9424805F072
:1022F00093F9002323621A23A362236843F0100397
:102300002360E36923F4807343F0A103E361A369CD
:10231000990104D5394805F07FF90BF0D1FA23680B
:102320002A68134342D000F073FA00F0A5FA23683C
:102330009A0704D5324805F06FF90BF0C1FA2B6803
:102340009B0704D52E4805F067F90BF0B9FA6B68C6
:1023500023B12C4805F060F90BF0B2FA6368012B49
:1023600004D9294805F058F90BF0AAFA236843B1BB
:10237000164800F03FFB20B1244805F04DF90BF062
:102380009FFA2B6843B1124800F034FB20B11F487C
:1023900005F042F90BF094FA00F080FA20B11C48E5
:1023A00005F03AF90BF08CFA01F0EEFAE16A51B15E
:1023B000184805F031F9184805F02EF902B0BDE8CB
:1023C00070400BF07DBA02B070BD00BFE43A03303C
:1023D000AC3A03301C8D000C448D000C798D000C40
:1023E0008F8D000CBD8D000CF08D000C318E000C1B
:1023F000648E000CA68E000CDE8E000C238F000C69
:102400005C8F000C8B8F000CC68F000C0190000CB1
:102410002D90000C5590000C6B90000C042A09DBE9
:102420000B68036000F1040001F10401A2F1040251
:10243000042AF5DA002A09D00B78037000F10100B4
:1024400001F10101A2F10102012AF5DA7047000051
:10245000064B82B01868002382B262F30F03000CAF
:1024600060F31F43184602B0704700BFDC90000CB9
:102470000C20704700207047012805D902280CBFA6
:1024800000206FF0040070476FF0030070476FF09A
:1024900003007047014B1868704700BF1C3B0330B6
:1024A00000487047C490000C08B54FF47A7000F0F3
:1024B000FFF9002008BD00000C4B70B55A6992B1BD
:1024C0001C69002301390144151DA34201D10020DC
:1024D00070BD52F83360864203D855F83360B1427C
:1024E00001D90133F1E70120F2E700BF54000330C6
:1024F0002DE9F0411446204B96001A6807466FF309
:1025000041021A60421E02EB8402B2F5002F0D4612
:1025100011D31A4A94693CB16FF004001A6842F072
:1025200002021A60BDE8F0813246FF21284604F01D
:10253000B8FF2046F6E70023DFF844803146C8F8AC
:102540000030FFF7B9FF324690B107F140612846ED
:10255000FFF764FFD8F8003023B132460021284647
:1025600004F09FFF002324F04040C8F80030D9E772
:1025700007F10061EBE700BF1C3B03305400033060
:10258000203B03302DE9F04F3C4D4FEA82082B6889
:1025900007466FF341032B60894685B041461646D6
:1025A000FFF78AFF364B7A1E002842440BBF9B463A
:1025B0004FF0010B4FF0006A4FF0406AB2F5002F68
:1025C0000CD248EA070414F0070407D12D4BD3E9D5
:1025D0000210234600F1040E8B4208D16FF0040074
:1025E0002B6843F002032B6005B0BDE8F08F50F874
:1025F00033C0674503D35EF833C0624514D9013355
:10260000EAE70AEB0401584600F08EF9B8450346A4
:102610003C4625D078B12B686FF300032B6000F0A7
:1026200017F94FF0FF30DFE700F0F2F82B68BA44FB
:1026300043F001032B60082209EB04010DEB0200BB
:1026400004F022FFDDE90223B3F1FF3F08BFB2F13E
:10265000FF3F04F10807D4D147453C46EBD10023A6
:1026600001932A686FF300022A6000F0F1F8019BE1
:1026700026F04040002BB7D0D3E700BF1C3B03300F
:10268000010000805400033030B5B0F5002F04463F
:1026900087B008D2C0F30B032BB9284AD2E9001245
:1026A000101D8B4208D16FF00400254A136843F0D7
:1026B0000203136007B030BD52F83350AC4203D36D
:1026C00050F83350AC4206D90133EAE7012114E057
:1026D0000221802311E004212046FFF7EDFE0028AF
:1026E000184A18BF0222B4F5802F4FEAD423EDD345
:1026F000B4F5812FECD30221803BCDE902210222E7
:10270000CDE904320E4D2B686FF341032B6000F0CE
:102710007FF82B6801A943F001032B6002A800F0A9
:1027200059FB04462B686FF300032B6000F090F810
:10273000201E18BF01204042BCE700BF54000330F8
:102740001C3B033002000080174B1A6B02F0204242
:10275000B2F1204F27D11A6B42F020421A63134A7C
:10276000136801331360734603F00F030D2B14D16C
:10277000EFF30982D2E90631C9010CD523F001013A
:10278000098801F46840B0F5684F04D001F478413D
:10279000B1F5704F04D1043303E0EFF30882E9E7A9
:1027A000023393617047FEE700200250203B033064
:1027B000704710B5042001F0D5F8FFF7DDFB0720C6
:1027C000FEF7F4F9044618B9FFF7F2FF204610BDF2
:1027D0000124FBE70B4930B58D680B4C0B4911EA1E
:1027E000250138BF2146EFF3108572B60C6844F01E
:1027F00001040C600260BFF36F8F436085F31088A3
:1028000030BD00BF380003302C2002502820024089
:102810000D4B9A6A002A04DBDA6A002A0BDB0020DF
:1028200070470A4A9A6002F188329A609A6A002ACE
:10283000F2DA01207047054ADA6002F18832DA6084
:10284000D86AC00F704700BF0020025023016745BF
:10285000084B9A6A42F000429A629A6A002ABFBF05
:10286000DA6A002042F00042DA62ACBF0120DB6A83
:10287000704700BF00200250064B986A10F080405D
:1028800007D0054A1A6102F144321A61986AC0F30E
:1028900080707047002002503B2A1908034A01202B
:1028A000936A43F000639362704700BF00200250B8
:1028B00070B50446FEF788F9174D06196B6AD903FF
:1028C0001AD41648164B8168164A12EA210238BFFC
:1028D0001A4611682B6A01F0FA0103F400530B4306
:1028E00012D041681943416013609A0402D54FF435
:1028F00000532B6201200BE0601CDFD0FEF764F96F
:10290000B042DBD3032003E01368DB0701D40020CF
:1029100070BD01231360FAE7002002503800033035
:1029200024200250202002402DE9F843164C9846FE
:1029300023780646012B0F46914623D001232370AE
:1029400000234FF47A706360FFF7B2FFB0B90F4B0A
:102950000F4D4A4615EA260538BF1D463846434600
:10296000A660FFF737FF4FF47A70FFF7A1FFA26868
:102970002B6822F0004223EA02032B60002323701D
:10298000BDE8F8830220FBE7380003302C2002501A
:102990002820024010B5EFF3108172B6124B134A93
:1029A0009C68134B13EA240338BF13462C3A126C6D
:1029B000520212D5C40742BF1A6842F004021A60DC
:1029C000820703D51A6842F400421A601A6842F47A
:1029D00080321A6081F3108810BD1A6842F40042F8
:1029E00042F00402F1E700BF380003302C2002500F
:1029F00028200240F8B5974E05463378012B00F0A9
:102A000027810123337000234FF47A707360FFF73E
:102A10004FFF002840F0E5802868C10717D5D5E9A9
:102A200002416A688C4B013A072A10D8DFE812F09D
:102A30000800DC000F00E4000F000F000F00EC00A6
:102A40009A6D22F07F12224342EA01429A65820780
:102A500006D5814A2969136C23F0FF030B431364E5
:102A6000430779D5D5E9054114F001030EBF1A4695
:102A70004FF4E06201F4E063A70742BF01F480571E
:102A80003B4342F48052670742BF01F400573B4387
:102A900042F40052270742BF01F480473B4342F40F
:102AA0008042E70642BF01F480373B4342F4803264
:102AB000A70642BF01F400373B4342F400326706E9
:102AC00042BF01F480273B4342F48022270642BFE5
:102AD00001F400273B4342F40022E70542BF01F422
:102AE00080173B4342F48012A70542BF01F4001750
:102AF0003B4342F40012270542BF01F080773B437D
:102B000042F08072E70442BF01F000773B4342F09D
:102B10000072A70442BF01F080673B4342F080622D
:102B2000670442BF01F000673B4342F000622704A4
:102B300042BF01F080573B4342F08052E403464CD1
:102B400044BF01F000410B43216C48BF42F00042FA
:102B500021EA020213432364C30624D5D5E90714EE
:102B6000D5E909EC11F001073B4B55D01A6D5B6DAF
:102B700011F0100F1EBF44EA0E4422F07F122243D0
:102B80008C0644BF23F4FE0343EA0C430C0648BF03
:102B900043F00043CC0548BF23F000432E4C002FE8
:102BA00041D022656365820606D52B4AE96AD36C5B
:102BB00023F001030B43D364030709D5D5E90C21A6
:102BC000012A254B34D15A6C02F07F020A435A6421
:102BD000214A4FF47A70936A43F400339362FFF70B
:102BE00067FE00233370F8BDDA6D22F07F122243B6
:102BF00042EA0142DA652AE79A6E22F07F12224306
:102C000042EA01429A6622E7DA6E22F07F122243FC
:102C100042EA0142DA661AE711F0020216BF1A6EA2
:102C200013465B6EA4E7890744BF22666366BAE772
:102C3000022A05D19A6C02F07F020A439A64C7E720
:102C4000042A01BFDA6C02F07F020A43DA64BFE7AC
:102C50000220C8E7380003300020025006234268F3
:102C60000360531E012B10B53A4B5BD9042A4FD198
:102C7000072202609A6E02F07F0282609B6EC3F3AD
:102C80000643C360334A136CDBB2AA2B05D0552B25
:102C900003D0CC2B0CBFCC23BB230361136C23F0DC
:102CA000FF038361C369591E01291AD80168012BEA
:102CB00041F0100101600BBF116D116E526D526E2B
:102CC00001F07F04002AC1F306414162A8BF43F42A
:102CD0008073C2F30641B8BF43F08003046281628F
:102CE000C361036843F0200202601A4AD16C01F00C
:102CF0000101C162016B4C1E012C23D9042906D1AC
:102D000043F028030360D36C23F07F03436310BDBB
:102D1000082AB7D107220260DA6E02F07F028260D1
:102D2000DB6EACE70721022A016015BF9A6DDA6DF0
:102D300002F07F0202F07F0215BF826082609B6D0D
:102D4000DB6D9CE743F02803036001290CBF536C43
:102D5000936CD9E700200250044AD2F8C43023F023
:102D600001030343C2F8C430704700BF0020025083
:102D700030B5EFF3108472B6134B144A9D68144BB0
:102D800013EA250338BF13462C3A126C12F4800F55
:102D90001A6813D122F400621A601A6822F47E7253
:102DA00022F0020242EAC00242F002021A601A68ED
:102DB00042F480321A6084F3108830BDC907E9D428
:102DC00042F40062E8E700BF380003302C200250D4
:102DD000282002402DE9F843264E054633788946DF
:102DE000012B45D00123337000234FF47A707360B8
:102DF000FFF75EFD0446F0B92B681F4A1F49B36018
:102E000031EA230828BF904648F2040223F0004329
:102E1000934215D16868FFF7BDFD4FF47A70FFF754
:102E200047FD0446B268D8F8003022F0004223EA99
:102E30000203C8F80030002333702046BDE8F88351
:102E40004FF0FF33C9F80030AF68D5E902321344C0
:102E5000BB42E7D938466968FFF78AFF4FF47A70BA
:102E6000FFF726FD10B1C9F80070DAE70137ECE78B
:102E70000224E2E738000330282002402C200250D0
:102E8000024B186800F4C060704700BF007000502B
:102E9000024A536843F40073536070470070005057
:102EA000034A936823F44073034393600020704700
:102EB000007000504FF48070FFF7F2BF054B1869A7
:102EC000C3045ABF80F4004000F400404FF4805027
:102ED000704700BF00700050174A10B501461468D3
:102EE000FFF7ECFFB0F5004F23D0D368180420D4CF
:102EF00004F4C0648C4201D1002010BD136823F497
:102F0000C0630B4313600D4B0D491B68B3FBF1F31A
:102F100032214B430A21B3FBF1F3013351694905D7
:102F200000D523B953695B05E6D50320E5E7013BEE
:102F3000F4E70120E1E700BF0070005030000330EB
:102F4000A086010037B51A4D0446AB6DDB0017D5DE
:102F5000FFF796FF30F4007322D1302C94BF00238A
:102F600001235B0013490A6822F00F021A430A602A
:102F7000086800F00F00C01A18BF012003B030BD70
:102F8000AB6D43F08053AB65AB6D03F080530193A1
:102F9000019BFFF775FFAB6D23F08053AB65D9E75D
:102FA000302C03D80CBF01230023DAE70323D9E731
:102FB0000010025000200250264A9368D16813F096
:102FC0000C0305D00C2B16D101F0030101291CD1F3
:102FD0001168090754BFD2F8942012681E4954BFE3
:102FE000C2F30322C2F3031251F8220013B10C2BD7
:102FF0000CD0002070476FF4887242FA03F313F08C
:10300000010F164818BF002070470020114AD168F0
:10301000D36801F00301C3F30313022903F1010391
:1030200008D0032906D0B0FBF3F0D268C2F3062221
:10303000504306E0D068094AC0F30620B2FBF3F320
:103040005843044BDB68C3F3416301335B00B0FBBF
:10305000F3F0704700100250408C000C0024F40084
:1030600008B5FFF7A9FF044B044A9B68C3F3031399
:10307000D35CD84008BD00BF00100250888C000C03
:103080002DE9F341044600285AD08D4B02689E6812
:10309000DF68D50606F00C0607F0030771D51EB1F0
:1030A0000C2E4FD1012F4DD11B68990702D5E36932
:1030B000002B45D0824B606A1A68120756BFD3F8BE
:1030C00094201A68120902F0F002904222D9FFF708
:1030D00039FF002834D17A4B1A6842F008021A608E
:1030E0001A68616A22F0F0020A431A605A68216A7B
:1030F00022F47F4242EA01225A60FFF7B1FF714B8E
:103100001860714B1868FDF751FD002839D002B0E6
:10311000BDE8F0811A6842F008021A601A6822F0CD
:10312000F00202431A605A68216A22F47F4242EA9E
:1031300001225A60002EE0D1FFF704FF0028DCD006
:103140000120E4E7E3695E4D002B3ED02B6843F09D
:1031500001032B60FDF738FD80462B68990729D5C0
:103160002B6843F008032B602B68626A23F0F0039E
:1031700013432B606B68226A23F47F4343EA0223E4
:103180006B602368DD0734D42368990700F18180E0
:1031900023681E0700F1CF8023685D0700F10E81D0
:1031A00023689A0600F1D681E36A002B40F00B8277
:1031B0000020ACE7FDF708FDA0EB08000228CCD901
:1031C0002B689B07C9D40320A1E72B6823F00103D8
:1031D0002B60FDF7F9FC80462B689B07D1D5FDF7E6
:1031E000F3FCA0EB08000228F6D92B689A07EAD472
:1031F000F2E7082E324A03D00C2E08D1032F06D155
:1032000013689A03C0D56368002BBDD198E7636843
:10321000B3F5803F16D1136843F480331360FDF794
:10322000D3FC0546DFF89880D8F800309903ABD47A
:10323000FDF7CAFC401B6428F6D9D8F800309B0380
:10324000C1D5F1E7B3F5A02F1D4D08D12B6843F48C
:1032500080232B602B6843F480332B60DFE72A68E0
:1032600022F480322A602A6822F480222A60002B0D
:10327000D5D1FDF7A9FC80462B689B0384D5FDF7CB
:10328000A3FCA0EB08006428F6D92B689A039AD413
:10329000F2E7042E0A4B03D00C2E17D1022F15D1C2
:1032A0001B685D0503D5E368002B3FF449AF044A72
:1032B0002169536823F0FE4343EA0163536067E7E3
:1032C000001002503000033034000330E268E2B1F5
:1032D0001A68AE4D42F480721A60FDF775FC06461E
:1032E0002B685A0507D56B68226923F0FE4343EA31
:1032F00002636B604CE7FDF767FC801B0228EFD987
:103300002B6859057FF55FAFEAE71A689F4E22F4F4
:1033100080721A60FDF758FC054633685F057FF53B
:1033200037AFFDF751FC401B0228F6D933685B0527
:103330003FF549AFF1E76369944D33B3A369FBB936
:10334000D5F8943023F01003C5F89430D5F89430B4
:103350008E4E43F00103C5F89430FDF735FC054669
:10336000D6F894309A073FF517AFFDF72DFC401BB8
:103370000728F5D9D6F8943099077FF524AFEFE701
:10338000D5F8943043F01003DEE7D5F8943023F0FD
:103390000103C5F89430FDF717FC0646D5F89430C4
:1033A0009F077FF5F9AEFDF70FFC801B0728F5D9C5
:1033B000D5F894309B073FF506AFEFE7734B9A6D56
:1033C000D50046D401279A6D42F080529A659B6DD4
:1033D00003F080530193019B6D4D2B68D8053AD5BE
:1033E000A3686A4D13F0010F49D1D5F8902022F05F
:1033F0000102C5F89020D5F8902022F00402C5F80B
:103400009020002B4AD1FDF7DFFB41F288380646B9
:10341000D5F89030990700F19180D5F890301A06D0
:1034200057D541F28838D5F8903023F08003C5F89D
:103430009030564DD5F8903019054AD5FDF7C4FBAC
:10344000801B4045F6D9D5F890301B053FF5BBAE43
:10345000F0E70027C0E72B6843F480732B60FDF78B
:10346000B3FB06462B68DA05BAD4FDF7ADFB801B2B
:103470000228F7D92B68D9057FF5A5AEF2E713F03E
:10348000040FD5F890301EBF43F00403C5F8903008
:10349000D5F8903043F00103C5F89030FDF794FB68
:1034A00041F288380646394DD5F89030990719D53C
:1034B000A36813F0800FD5F8903029D041F28838F6
:1034C00043F08003C5F89030304DD5F890301B059F
:1034D00013D5002F3FF464AE2C4A936D23F0805334
:1034E00093655DE6FDF770FB801B4045DCD9D5F8A0
:1034F00090309B077FF567AED6E7FDF765FB801B35
:103500004045E2D9D5F890301A057FF55CAEDCE78E
:1035100041F2883823F08003C5F890301B4DD5F870
:1035200090301A05D5D5FDF74FFB801B4045F6D9E5
:10353000D5F8903019053FF546AEF0E7FDF744FBAE
:10354000801B40457FF664AFD5F890309B073FF570
:103550003AAE5DE7A36A0D4DE3B1D5F8983043F07C
:103560000103C5F89830FDF72FFB0646D5F89830D3
:103570009F073FF519AEFDF727FB801B0228F5D901
:10358000D5F898309B077FF51EAEEFE7001002508C
:1035900000700050D5F8983023F00103C5F898303A
:1035A000FDF712FB0646D5F898309A077FF5FCAD7B
:1035B000FDF70AFB801B0228F5D9D5F8983099074A
:1035C0003FF501AEEFE7524DAA6802F00C020C2A5B
:1035D00069D0022B2B6823F080732B6043D1FDF759
:1035E000F3FA06462B689F0133D4EA68494B13402F
:1035F000226B1343A26B43EA0223E26B43EAC263EA
:10360000626B013A43EA0213226C5208013A43EA20
:103610004253626C5208013A43EA4263EB602B6802
:1036200043F080732B60EB6843F08073EB60FDF731
:10363000CBFA0446364D2B6899013FF5B9ADFDF73D
:10364000C3FA001B0228F6D92B6898017FF5BBADA1
:10365000F1E7FDF7B9FA801B0228C3D92B689B015B
:103660003FF5B1ADBEE72B68294C13F0205F02BFD8
:10367000EB6823F00303EB60E36823F0887323F423
:103680008033E360FDF7A0FA054623689B017FF5D0
:103690008FADFDF799FA401B0228F6D923689A01ED
:1036A0003FF591ADF1E7012B3FF44AADEB68226B9A
:1036B00003F0030191427FF443AD616B03F0F0022C
:1036C0000139B2EB011F7FF43BADA16B03F4FE4265
:1036D000B2EB012F7FF434ADE16B03F07842B2EB33
:1036E000C16F7FF42DAD226C03F4C0015208013A82
:1036F000B1EB425F7FF424AD626C03F0C06352080B
:10370000013AB3EB426F14BF01200020FFE400BF79
:10371000001002500C809F012DE9F8430D4604462D
:1037200010B90120BDE8F883774A136803F00F034E
:103730008B4223D32268D7072BD4960700F18280CF
:1037400071490B6803F00F03AB4200F2C8805107C8
:1037500000F1D180130707D56C4A2169936823F4DF
:10376000605343EAC1039360FFF77AFC684B18602B
:10377000684B1868BDE8F843FDF718BA136823F0E2
:103780000F030B431360136803F00F038B42C8D180
:10379000D0E766685D4B032E6FD119688801C0D5EC
:1037A000D96801F00301012921D11968090754BF23
:1037B000D3F894301B68584954BFC3F30323C3F3B1
:1037C000031351F82300514BDF68D96807F0030752
:1037D000C1F30311022F01F101010AD0032F08D018
:1037E000B0FBF1F0DB68C3F30623434308E000209D
:1037F000E9E74A48DB68B0FBF1F1C3F306234B432A
:103800004248C168C1F3416101314900B3FBF1F3A2
:1038100043498B421ED84FF000083C4F41F2883993
:10382000BB6823F003033343BB60FDF7CDF90646C5
:10383000BB68626803F00C03B3EB820F38D12268D7
:10384000900743D53149A0688B6823F0F003034308
:103850008B6075E7836813F0F00F08D1836823F05D
:10386000F00343F0800383604FF08008D5E79707AB
:10387000D1D5A368002BCED1F0E7022E1B6810D162
:1038800013F4003F3FF44DAFFFF796FB244B9842F3
:10389000C1D91E4A936823F0F00343F0800393607C
:1038A000E2E716B913F0020FECE713F4806FE9E7D3
:1038B000FDF78AF9801B4845BAD9BB68626803F0F6
:1038C0000C03B3EB820FB3D003202BE7B8F1000F4A
:1038D0003FF436AFBB6823F0F003BB6030E70B6802
:1038E00023F00F032B430B600B6803F00F03AB4275
:1038F0007FF417AF2BE70549E0688B6823F4E0639A
:1039000003438B6026E700BF0020025000100250E6
:103910003000033034000330408C000C0024F400ED
:1039200000B4C40408B5FFF79BFB044B044A9B6832
:10393000C3F30223D35CD84008BD00BF001002507F
:10394000808C000C08B5FFF78BFB044B044A9B6886
:10395000C3F3C223D35CD84008BD00BF001002509F
:10396000808C000C07490302CA6803F4E06322F468
:10397000E0621204120C134343F0BF6343F40033BC
:10398000CB60704700ED00E0BFF34F8F0549064B59
:10399000CA6802F4E0621343CB60BFF34F8F00BFED
:1039A000FDE700BF00ED00E00400FA052DE9F04F4F
:1039B00000244FF00F09664F0B6833FA04F201D16F
:1039C000BDE8F08F012202FA04FE1EEA030821D0AE
:1039D00003234A684FEA440C22F0100A03FA0CF55C
:1039E0000AF1FF33012B6FEA05058E6802F003032D
:1039F00012D9D0F80CE006FA0CF60EEA050E46EAEB
:103A00000E06C660066803FA0CF32E4033430360CB
:103A1000D3003ED40134CFE7D0F80880D1F80CB001
:103A200008EA05080BFA0CFB4BEA080BC0F808B0D3
:103A3000D0F80480120928EA0E08A24042EA0802DF
:103A40004260C26806FA0CF62A401643BAF1020F29
:103A5000C66006D0026803FA0CF32A4013430360E1
:103A6000D8E7E60800EB860604F0070E326A4FEA54
:103A70008E0E09FA0EF822EA08080A6903FA0CF316
:103A800002FA0EF242EA08023262026815402B4343
:103A9000E5E724F0030505F1A04505F53D3504F003
:103AA00003062B6EF60009FA06FC23EA0C0C294BE0
:103AB000984240D003F5806398423ED003F580637E
:103AC00098423CD003F5806398423AD003F5806376
:103AD000984238D003F58063984236D003F580636E
:103AE000984214BF07230623B34043EA0C032B6616
:103AF0006FEA0805D7F88030D60354BF2B4048EA58
:103B00000303C7F88030D7F88430960354BF2B40A6
:103B100048EA0303C7F884303B68D60254BF2B4001
:103B200048EA03033B607B68920254BF2B4048EA9B
:103B300003037B606EE70023D6E70123D4E702236B
:103B4000D2E70323D0E70423CEE70523CCE700BF69
:103B500000F4025000000252B0F1005F30B525D1F0
:103B60000B68002B3AD14B6813B1B3F1804F43D1AE
:103B70004FF44030214A1468400B24F04044234362
:103B800013604FF0FF331469834023408C6E04317F
:103B900023431361002303F1400451F8045F013310
:103BA000984242F82450F6D1002030BDB0F1405F79
:103BB000D6D0134B984203D003F1805398421BD1C7
:103BC0000B685BB94B682BB1B3F1804F14D1B0F1E6
:103BD000405FCDD04FF480300A4ACCE7B3F1004FBC
:103BE0000AD14B6813B1B3F1804F05D1B0F1005F3A
:103BF00043F00043EBD1BBE70120D6E7002C035094
:103C0000000003200030035020F08050B0F1005F2E
:103C100010B521D0134B984222D14FF48033124873
:103C200002685B0B02F080444C604FF0FF3402F0FE
:103C300000420A6002699C4022EA04028A6600226D
:103C4000043102F1400450F824400132934241F81B
:103C5000044FF6D1002010BD4FF440330348DFE796
:103C60000120F8E70000032000300350002C03502F
:103C700030B5A9B01B4CD4E84F3F0133DBB2C4E8E8
:103C8000453F002DF7D1012B0AD84FF48023039331
:103C90004FF0406303A8229300F0B6FE20B12570D8
:103CA0004FF0FF3029B030BD0F4B104DDA6C42F4AD
:103CB0008022DA64DB6C287203F480230293029B77
:103CC0000B4B687228462B6001F0D6FD044628B9DC
:103CD000284601A901F0ADFE2046E3E76FF00100A0
:103CE000E0E700BF243B033000100250283B0330C4
:103CF00000080C5208B5064801F01DFE054AD36CB9
:103D000023F48023D3640022034B1A7008BD00BF44
:103D1000283B033000100250243B033008B5FDF768
:103D200029F8003818BF012008BD00207047002086
:103D30007047012070470120704700002DE9F341D2
:103D400006460F460C4DD5F82C80C04710F00104F4
:103D5000FBD1394630466B69984740B9C047C30725
:103D6000FCD42B6A019302B0BDE8F041184720460D
:103D700002B0BDE8F08100BFEC90000C084611468F
:103D8000FFF7DCBF10B5094C0020A36898472369F2
:103D9000022098474FF4E131A46A0120A047012195
:103DA0001520A0470122024B1A6010BDEC90000CB8
:103DB0003C3B033010B5054C002023699847E3686D
:103DC00098470022024B1A6010BD00BFEC90000C17
:103DD0003C3B033037B50422E03084000D462046DA
:103DE0000DEB020100F046F958B9019B5A1C0AD0AC
:103DF000AB420BD8042220460DEB0201019500F0E6
:103E000077F903B030BD45F2A350FAE74AF2C53066
:103E1000F7E770B5A2B00D4601A9064600F0ECFA2E
:103E2000044610BB019B802B28BF8023B5EBC30F3A
:103E3000019321D80146802202A803F032FBFF2122
:103E4000EA0802ABA24213D104F188030DEB03048C
:103E5000012305F00705AB40013B3046019902AA5A
:103E600004F8803C00F0CBFB0446204622B070BD35
:103E700003F8011B0134E5E745F2A354F5E7F0B57B
:103E8000A3B00D466946064600F0B6FA0446C8B926
:103E900000993046802928BF802102AA009100F0B5
:103EA0000DFB044670B901460246009F019002AB2B
:103EB000B8420AD102B10191042228460DEB020159
:103EC00003F0E2FA204623B0F0BD002213F801CB44
:103ED0004CFA02F6013206F00106082A3144F7D105
:103EE00001220130E4E706281BD8DFE800F00409CE
:103EF0000D111416180004224FF4607000F0BAB8C7
:103F000004224FF46170F9E704224FF46270F5E780
:103F10001020FFF7B4BF1120FBE71220F9E71320B0
:103F2000F7E74CF25A30704700F0BAB9042902D1D1
:103F30001146FFF7D8BF43F65C20704737B50546FA
:103F40000C46062824D8DFE800F0041517191D1FB9
:103F500021000020FFF73EFF50B9284601A9FFF7D6
:103F6000C2FF28B943F65C23019AA24218BF184643
:103F700003B030BD0120EDE70220EBE71020FFF792
:103F800048FFE9E71120FAE71220F8E71320F6E7E7
:103F90004CF25A30ECE70000F8B5C0F30B0686B9D6
:103FA00020F47F650A4F25F00F054418AC4201D874
:103FB0003046F8BD2846FB69984728B905F5805575
:103FC000F4E74AF2C536F3E743F65C26F0E700BFB4
:103FD0009890000C2DE9F74FDFF864A08346DAF8DB
:103FE00004300F46154698470024164BC0F3410095
:103FF00013F82090DFF8508004F18003AB4294BFA7
:1040000080262E1BB6FBF9F24146DAF8143004EB99
:104010000B000192984700280EDB4146DAF8183071
:10402000019AE0199847002806DB3444A542E3D8FA
:10403000002003B0BDE8F08F43F65C20F9E700BF35
:104040009890000CE090000C403B033008B54FF412
:1040500080514FF47040FFF79FFF48B9BDE808401A
:104060004FF480524FF470414FF46040FFF7B2BFFD
:1040700008BD00002DE9F3471B4D81466B680F46D4
:1040800014469847194BC0F3410013F820A0B9FB20
:10409000FAF60AFB16961EBB6CB1D5F81480B4FB79
:1040A000FAF509F560492A4639464846C0470028CE
:1040B00005DA43F65C26304602B0BDE8F0870AFB1D
:1040C00005F5641BF7D0012201A909EB0500C047E3
:1040D0000028EEDB224601A9781903F0D5F9EAE7BA
:1040E0004AF2C536E7E700BF9890000CE090000C5C
:1040F0002DE9F04F861806F6FF7525F47F6525F04B
:104100000F0585B0B5F5805F0446019104D943F6EB
:104110005C2005B0BDE8F08FDFF87481D8F804307A
:10412000984704225B4BC0F3410053F82070D8F845
:1041300014304FF28C300093FBB2B2FBF3F203A9C0
:10414000009B9847039A531C023208BF0123039334
:10415000002D36D024F47F6B2BF00F0BA5EB0B0159
:104160000BF56040FFF718FF0028D2D1B5F5627F4C
:10417000AA4628BF4FF4627ADA452BD8B5F5627F9C
:1041800060D3FBB20827B7FBF3F7434D3A46294605
:104190004FF28830009B9847B6F5627F5DD80422C5
:1041A00003A93E4803F070F9394B3A464EF2883085
:1041B00039499B69984708B18742A8D1FFF746FF64
:1041C000A7E74FF480514FF46040FFF7E5FE002869
:1041D000C0D09EE70BF180039A452CBF4FF08009B9
:1041E000AAEB0B095FFA87F8B9FBF8F82A494246AF
:1041F000009B0BF5704098475E4516D909EB0B0301
:104200009C4212D2A3455A4638BF2246111BA2EB4C
:104210000B009E4294BFC2EB0602C2EB0302019B5D
:1042200019441D4B184403F02FF9194B42469B6962
:1042300019490BF56040984710B180457FF467AF8E
:10424000CB4499E74FF462724FF460414FF47040F1
:10425000FFF7C0FE002894D05BE7B4F5647F9ED2E0
:10426000B4F5627F224638BF4FF46272019B111B86
:10427000A2F562700B44B6F5647F94BFC2EB0602F0
:10428000C2F564721946284403F0FEF887E700BFC0
:104290009890000CE090000C403B0330443B03300E
:1042A0002DE9F0414F4F86B00020BB6898470028A9
:1042B0006ED104226946FFF7DDFE0446002875D161
:1042C00004224FF463700DEB0201FFF7D3FE0446A6
:1042D00000286BD1444D009BAB4203D1019B013BB5
:1042E000033367D97B689847404BC0F3410053F8CC
:1042F000206004224FF4805004A9FFF7BBFE04465F
:10430000002853D1042241F28C3005A9FFF7B2FEF8
:10431000044600284AD1049B4FF48051AB424FF42D
:10432000604012D1059B013B03330ED8FFF734FEEA
:10433000044600283AD14FF480524FF460414FF4C4
:104340007040FFF747FE044630E0FFF725FE0446C5
:1043500060BB01468022264803F0A3F8F3B2802612
:10436000B6FBF3F6DFF8888004F56040324641463C
:10437000BB6980349847B4F5805FF5D3FFF766FEDC
:10438000044698B9042202A90295FFF7B1FE10B1C4
:1043900043F65C240AE0012304224FF4637003A96E
:1043A0000393FFF7A5FE04460028F1D1204606B08E
:1043B000BDE8F081042241F28C3005A9FFF75AFED6
:1043C00004460028F2D1059B5A1E033206D8019AF2
:1043D000934203D30233E9D1012AE7D1FFF736FE36
:1043E000B1E700BF9890000C1281DEC0E090000C95
:1043F000403B0330FFF754BF07280ED8012383400A
:1044000013F0650F40D113F0980F3FD14CF25A30A2
:104410007047442300200B60704708381628F5D8F1
:104420001628F3D801A353F820F000BF8944000CEC
:104430008944000C8944000C8944000C1344000C8E
:104440001344000C1344000C1344000C9144000C62
:104450009144000C9144000C9144000C0D44000C5C
:104460000D44000C0D44000C0D44000C0D44000CD8
:104470000D44000C0D44000C0D44000C0D44000CC8
:104480009144000C8944000C2023C3E70423C1E7B6
:104490004023BFE737B50C4601A91D46FFF7ACFF27
:1044A00050B9019B29469A4228BF1A46204603B0BC
:1044B000BDE83040FFF7DEBD03B030BD13461E2817
:1044C00070D8DFE800F0106F15191D2125292D3156
:1044D00035393D42474C51565B606F6F6F6F6F6F60
:1044E0006F6F6F656A000A4600200421FFF7D2BF94
:1044F0000A4602202421F9E70A4603204421F5E771
:104500000A4604204821F1E70A4605204C21EDE740
:104510000A4606206C21E9E70A4607208C21E5E7D8
:104520000A4608209021E1E70A460920B021DDE78C
:104530000A460A20D021D9E70A460B20F021D5E708
:104540000A460C204FF48871D0E70A460D204FF43C
:10455000AA71CBE70A460E204FF42671C6E70A4639
:104560000F204FF43771C1E70A4610204FF4CC7189
:10457000BCE70A4611204FF4EC71B7E70A46122057
:104580004FF40671B2E70A4613204FF41671ADE7F7
:104590000A461D204FF44871A8E70A461E204FF432
:1045A0005871A3E74CF25A307047F0B593B00E46FD
:1045B000694615461C46FFF71FFF20B9009B934232
:1045C00003D24AF2C53013B0F0BD442BF9D83046BF
:1045D00001A9FFF74FFD0028F5D1224601AB2819AC
:1045E000824205D12A4621463046FFF781FDEAE79F
:1045F00013F8011B12F8017BB943F1D0E1E7134630
:104600001E2870D8DFE800F0106F15191D2125292C
:104610002D3135393D42474C51565B606F6F6F6F9E
:104620006F6F6F6F6F656A000A4600200421FFF705
:10463000BCBF0A4602202421F9E70A460320442190
:10464000F5E70A4604204821F1E70A4605204C21F7
:10465000EDE70A4606206C21E9E70A4607208C218F
:10466000E5E70A4608209021E1E70A460920B02143
:10467000DDE70A460A20D021D9E70A460B20F021BF
:10468000D5E70A460C204FF48871D0E70A460D2082
:104690004FF4AA71CBE70A460E204FF42671C6E705
:1046A0000A460F204FF43771C1E70A4610204FF435
:1046B000CC71BCE70A4611204FF4EC71B7E70A460B
:1046C00012204FF40671B2E70A4613204FF4167118
:1046D000ADE70A461D204FF44871A8E70A461E20A0
:1046E0004FF45871A3E74CF25A30704700207047DE
:1046F00000207047064B82B01868002382B262F334
:104700000F03000C60F31F43184602B0704700BF50
:104710002491000C01207047002070470020704752
:104720006FF003007047002070470020704700239F
:1047300082B00193019802B070476FF00300704798
:10474000002382B00193019802B0704710B50C4667
:10475000014630B12CB10448A2B201F065F8204600
:1047600010BD6FF00400FBE7C03B03300A4608B5FC
:10477000014640B13AB14FF47A73044892B200F066
:1047800027FF002008BD6FF00400FBE7C03B0330AB
:1047900030B52C4C8BB0E36C082543F04003E36448
:1047A000E36C03F040030193019BA36D43F080533E
:1047B000A365A36D03F080530293029BFEF768FB91
:1047C000E36C802243F04003E364E36C05A903F04B
:1047D00040030393039BE36D43F00103E365E36D43
:1047E000194C03F001030493049B0223CDE9052334
:1047F00008930123204607930995FFF7D7F84FF454
:104800008073204605A905930995FFF7CFF84FF46B
:10481000E1330E480E490C22C0E900130023C0E921
:1048200005234FF40042C0E90233C0E907230361C6
:10483000436200F05DFF003818BF012040420BB01A
:1048400030BD00BF0010025000180252C03B0330C0
:104850000080005000207047F8B5044600680F46FD
:10486000022830D0032835D0012831D1344B1B68C1
:104870009D0735D5324D2B6823F080632B60FCF704
:10488000A3F906462B68190107D5FCF79DF9801B93
:104890000228F7D92B68180121D46068A56801386F
:1048A0002668274A2D020001DFB1012F17693CD18C
:1048B00023695B08591E234B3B4033432B4303437F
:1048C00043EA415316E01E4B1B6813F4806FD1D1AD
:1048D000012005E01A4B1B6813F4C02FF7E70320F3
:1048E000F8BD1169184B0B403343E1682B4343EA91
:1048F000C1630343124D13612B6843F080632B6047
:10490000FCF762F906462B681B0107D4FCF75CF93B
:10491000801B0228F7D92B681A01E0D5084AA16943
:10492000136900200B431361DAE763695B08591EC2
:10493000064B3B4033432B43034343EA4163D9E7F0
:10494000001002500C809FFF0C80FF070C80FFF9C5
:1049500070B504460068022844D0032849D00128D5
:1049600045D1274B1B689D0749D5254D2B6823F062
:1049700080532B60FCF728F906462B68990007D571
:10498000FCF722F9801B0228F7D92B68980035D450
:104990001B4D1C4B6A69134022681343A26843EA0B
:1049A0000223E26843EAC2636268013A43EA0213FF
:1049B0006B612B6843F080532B60FCF705F90646CA
:1049C0002B689B0007D4FCF7FFF8801B0228F7D95F
:1049D0002B689A0012D50A4A2169536900200B43BB
:1049E00053610CE0064B1B6813F4806FBDD10120AE
:1049F00005E0034B1B6813F4C02FF7E7032070BDDD
:104A0000001002500C80FF0703682DE9F3471A05D8
:104A1000044627D5C16E402926D016D851B3202987
:104A20002FD001262368DB040DD5216FB1F5007F5F
:104A300000F03F8129D8002900F04181B1F5807F45
:104A400000F042810126354632E0602901D08029FC
:104A5000E7D1AB4AE16ED2F89C3023F0E0030B4380
:104A6000C2F89C300026DDE7A54AD36843F48033C2
:104A7000D360EEE70430FFF7EFFE06460028D1D101
:104A8000E7E72030FFF764FFF7E7B1F5407F02D09A
:104A9000B1F5806FD6D13546002D40F01A81984A85
:104AA000216FD2F89C3023F4E0630B43C2F89C30B2
:104AB00023689F0332D5924B9A6DD00000F10B8191
:104AC00001279A6D42F080529A659B6D03F08053E6
:104AD0000193019BDFF82C82D8F8003043F48073F7
:104AE000C8F80030FCF770F88146D8F80030DA05D5
:104AF0000AD4FCF769F8A0EB09000228F5D9D8F828
:104B00000030D90540F12B81002D00F0E6802E46C3
:104B100027B17B4A936D23F0805393652368DA07AE
:104B200008D57749606BD1F8882022F00302024350
:104B3000C1F888209F0708D57149A06BD1F888205B
:104B400022F00C020243C1F88820580708D56C49AE
:104B5000E06BD1F8882022F030020243C1F88820AF
:104B6000190708D56649206CD1F8882022F0C002C8
:104B70000243C1F88820DA0608D56149606CD1F893
:104B8000882022F440720243C1F888209F0608D58D
:104B90005B49A06CD1F8882022F440620243C1F83E
:104BA0008820980508D55649E06DD1F8882022F470
:104BB00040220243C1F88820590508D55049206E8B
:104BC000D1F8882022F440120243C1F888205A020A
:104BD00008D54B49606ED1F8882022F44002024388
:104BE000C1F888209B0140F1CE80A36EB3F1807F95
:104BF00000F0B880B3F1007F00F0C780002B00F018
:104C0000B680012523685F0608D53D49E06CD1F8E0
:104C1000882022F440520243C1F888201E0608D59D
:104C20003749206DD1F8882022F440420243C1F870
:104C30008820D80508D53249606DD1F8882022F443
:104C400040320243C1F88820D90208D52C49A06D12
:104C5000D1F89C2022F003020243C1F89C209A0460
:104C600011D5274A616FD2F88830B1F1006F23F077
:104C7000406343EA0103C2F8883040F08C80D36877
:104C800043F48013D3602F4623681B0340F1AE80AA
:104C9000A16F1B4BB1F5804F40F08A80D3F89C2068
:104CA00042F48042C3F89C20DA6842F48032DA6031
:104CB0009CE0134AD36843F48033D360EBE6201DB5
:104CC000FFF7CAFD0546E7E604F12000FFF740FEC6
:104CD000F8E72E46ECE60027FCE6094BD4F89020D6
:104CE000D3F8901011F440710ED1054AD4F8901009
:104CF000D2F8903023F440730B43C2F8903007E7AA
:104D00000010025000700050914211D0D3F8902052
:104D1000D3F8901022F4407241F48031C3F890101F
:104D2000D3F8901021F48031C3F89010C3F890208C
:104D3000D307DAD5FBF748FF41F2883A8046DFF81F
:104D40008091D9F890309907CFD4FBF73DFFA0EBC5
:104D500008005045F5D9D9F890309807C5D40326F6
:104D60003546D5E6564AD36843F48013D360002D08
:104D70007FF448AF524AA16ED2F8883023F04073D6
:104D80000B43C2F8883035463CE70021201DFFF771
:104D900063FD0546EBE7B1F1806F7FF474AF01214D
:104DA000201DFFF759FD074600283FF46CAF6BE765
:104DB000D3F88820B1F1806F22F0406242EA01020C
:104DC000C3F88820D3F89C2022F48042C3F89C20AA
:104DD00006D0B1F1006F09D1DA6842F4801266E7BB
:104DE0000121201DFFF738FD064600B93E46236825
:104DF0005F0310D5324AE16FD2F88830B1F1006F0D
:104E000023F0406343EA0103C2F8883046D1D368F7
:104E100043F48013D360354623685E040DD52849DA
:104E2000D4F88020D1F88830B2F1805F23F040536D
:104E300043EA0203C1F888303BD028462268D503F4
:104E400009D51F49D4F88450D1F89C3023F00403CD
:104E50002B43C1F89C30910209D51949D4F88850E8
:104E6000D1F89C3023F018032B43C1F89C30D301B8
:104E700011D5134AD4F88C10D2F89C30B1F5001F2C
:104E800023F4401343EA0103C2F89C3002BFD36805
:104E900043F48013D36002B0BDE8F087B1F1806FB6
:104EA000B9D10121201DFFF7D7FC05460028B2D05B
:104EB000B2E70221201DFFF7CFFC0028BDD0BDE7DF
:104EC000001002507047704770477047D0F8882034
:104ED00010B5222A0446B0F8601003682ED15B6A30
:104EE000826D0B401370836D01338365B0F85E30C3
:104EF000013B9BB2A0F85E30B0F85E2092B2CAB916
:104F00000368196821F490711960996821F0010112
:104F100099602021C0F888100267C26E012A0AD168
:104F20001A68B0F85C1022F010021A60FFF7CDFF8B
:104F30000023E36610BDFFF7C6FFF9E79A6942F068
:104F400008029A61F6E7D0F8882010B5222A0446B4
:104F5000B0F8601003682CD15A6A1140826D22F8B3
:104F6000021B8265B0F85E20013A92B2A0F85E2082
:104F7000B0F85E2092B2C2B9196821F4907119603C
:104F8000996821F0010199602021C0F8881002671A
:104F9000C26E012A0AD11A68B0F85C1022F0100221
:104FA0001A60FFF792FF0023E36610BDFFF78BFF47
:104FB000F9E79A6942F008029A61F6E703682DE979
:104FC000F047DD69D3F800909E68D0F88820044649
:104FD000222AB0F8608040F08180B0F8683033B1A8
:104FE0000027DFF804A106F00106AB0614D4B4F8DC
:104FF0005E309BB273B1B4F868209A420AD9236834
:105000009A6822F080529A60384A22671A6842F001
:1050100020021A60BDE8F0872368A26D5B6A03EA8C
:1050200008031370A36D0133A365B4F85E30013B30
:105030009BB2A4F85E302368DD696A072AD0E807CE
:105040000AD519F4807F07D001221A62D4F88C2087
:1050500042F00102C4F88C20A90708D53EB1022213
:105060001A62D4F88C2042F00402C4F88C206A073B
:1050700008D53EB104221A62D4F88C3043F0020302
:10508000C4F88C30D4F88C3023B12046FFF71CFFD5
:10509000C4F88C70B4F85E2092B2002AA5D12368BF
:1050A000196821F480711960996801EA0A01996010
:1050B0002021C4F888102267E26E012A0AD11A68FA
:1050C000204622F01002B4F85C101A60FFF7FDFED3
:1050D000E7668AE72046FFF7F6FEF9E79A6942F0AD
:1050E00008029A6196E700BFFEFFFFEFCD4E000C6D
:1050F00003682DE9F047DD69D3F800909E68D0F889
:1051000088200446222AB0F860807ED1B0F868304A
:1051100033B10027DFF8FCA006F00106AB0614D47B
:10512000B4F85E309BB273B1B4F868209A420AD9E1
:1051300023689A6822F080529A60374A22671A6878
:1051400042F020021A60BDE8F0872368A26D596A18
:1051500008EA010122F8021BA265B4F85E20013AB8
:1051600092B2A4F85E20DD696A072AD0E8070AD562
:1051700019F4807F07D001221A62D4F88C2042F003
:105180000102C4F88C20A90708D53EB102221A6298
:10519000D4F88C2042F00402C4F88C206A0708D5A9
:1051A0003EB104221A62D4F88C3043F00203C4F8F2
:1051B0008C30D4F88C3023B12046FFF785FEC4F83C
:1051C0008C70B4F85E2092B2002AA7D123681968C7
:1051D00021F480711960996801EA0A01996020211F
:1051E000C4F888102267E26E012A0AD11A682046A4
:1051F00022F01002B4F85C101A60FFF766FEE76652
:105200008CE72046FFF75FFEF9E79A6942F0080253
:105210009A6198E7FEFFFFEF474F000C38B5044650
:105220002169A26803680A4361691D68C0690A436D
:105230008D49024329400A431A605A68E16822F402
:1052400040520A435A60894AA16993421CBF226AAC
:1052500011439A6822F06E4222F430620A439A6047
:10526000DA6A616A22F00F020A43DA62804A9342E4
:1052700013D1804BD3F8883003F00303022B00F0E6
:105280009180032B1CD0012B00F08680B0F5004FDD
:1052900040F0E480FEF756FB7CE0774A934225D14C
:1052A000744BD3F8883003F00C03082B7AD005D860
:1052B000002B6AD0042B6FD0012098E00C2BFBD17F
:1052C000B0F5004F72D04FF40040616A6B4A6368DA
:1052D00032F81120B0FBF2F000EB5300B0FBF3F01A
:1052E00080B24FF6EF73A0F11002ACE0644A934233
:1052F0000DD1604BD3F8883003F03003202B51D010
:1053000003D8002B41D0102BD5E7302BD7E75D4ACF
:1053100093420CD1574BD3F8883003F0C003802B55
:1053200040D002D88BB3402BC5E7C02BC7E7B3F101
:10533000502F10D103F5E033D3F8883003F44073D5
:10534000B3F5007F2ED003D8FBB1B3F5807FB2E771
:10535000B3F5407FB3E7454A9342ADD1454BD3F80F
:10536000883003F44063B3F5006F47D007D8002BB3
:1053700039D0B3F5806F9FD1FDF71EFE35E0B3F550
:10538000406F99D14FF4004039E0B0F5004F60D143
:10539000FEF7C8FA50B309E0B0F5004F61D1FDF750
:1053A0000BFEF7E7B0F5004F37488ED1616A334BFB
:1053B000626833F811304FF6EF71B0FBF3F0530829
:1053C00003EB4003B3FBF2F39AB2A2F11000884260
:1053D0003FF672AF23F00F0321689BB2C2F3420283
:1053E0001343CB6002E0FEF79DFA40B900204FF076
:1053F0000113A3660023C4E91C3338BD22481F4BA8
:10540000626A656833F8122005EB4501B0FBF2F3E0
:1054100099423FF651AFB3EB053F3FF64DAF002346
:10542000194601F071FE090241EA10616B080002A1
:10543000C0182A464FF0000341F1000101F064FE5C
:10544000124BA0F540729A423FF636AF2368D860FF
:10545000CCE7FEF767FA0028C8D036E7FEF772FA05
:10546000F9E7FDF7A9FDF6E7F369FFCF00800050EB
:105470000038015000100250004400502891000CE8
:1054800000480050004C00500024F400FFFC0F00C6
:10549000836A10B5DA0706D50168C46A4A6822F43F
:1054A000003222434A609C0706D50168046B4A68B3
:1054B00022F4803222434A60590706D50168446BC2
:1054C0004A6822F4802222434A601A0706D50168FE
:1054D000846B4A6822F4004222434A60DC0606D507
:1054E0000168C46B8A6822F4805222438A6099065C
:1054F00006D50168046C8A6822F4005222438A604F
:105500005A0610D50168446C4A68B4F5801F22F42D
:10551000801242EA04024A6005D14A68846C22F48F
:10552000C00222434A601B0606D50268C16C53685C
:1055300023F400230B43536010BD2DE9F8430546C7
:105540000F4616469846DDF820902A68D36937EA58
:1055500003030CBF01230023B34201D000201DE050
:10556000B9F1FF3FF2D0FBF72FFB2C68A0EB08004E
:105570004845236802D8B9F1000F11D123F4D07344
:105580002360A36823F00103A3602023C5F88430BF
:10559000C5F888300023032085F88030BDE8F88303
:1055A0005A07D2D5E3691B05CFD54FF400632362B8
:1055B000236823F4D0732360A36823F00103A3605E
:1055C0002023C5F88430C5F88830C5F88C30E1E771
:1055D0002DE9F7439846D0F884300446202B0E4638
:1055E00017464FD100294BD0002A49D090F880307F
:1055F000012B47D00123002580F880302123C0F8FB
:105600008C50C0F88430FBF7DFFAA3688146B3F50D
:10561000805FA4F85470A4F8567003D123690BB9C5
:1056200035461E46002384F88030B4F856204B4699
:1056300092B2CDF8008042B940212046FFF77DFFAD
:1056400048B92023C4F8843006E000228021204697
:10565000FFF773FF18B1032003B0BDE8F0832268A1
:105660005EB935F8023BC3F308039362B4F85620E1
:10567000013A92B2A4F85620D7E716F8013BF4E7B6
:105680000120E9E70220E7E773B500260446C0F8E9
:105690008C60FBF799FA236805461B681A0718D433
:1056A00023681B685B070AD56FF07E4300220093D6
:1056B0004FF480012B462046FFF73FFFA8B9202377
:1056C0000020C4F8843084F88000C4F88830E06694
:1056D0000CE06FF07E43324600934FF40011034616
:1056E0002046FFF72AFF0028DAD0032002B070BD61
:1056F00010B5044650B3D0F884301BB980F8803020
:10570000FFF7E0FB24232268C4F8843013682046A6
:1057100023F001031360FFF781FD012816D0A36A6F
:1057200013B12046FFF7B4FE23682046BDE81040C1
:105730005A6822F490425A609A6822F02A029A60CB
:105740001A6842F001021A60FFF79EBF012010BDE7
:1057500010B581658168A0F85C20B1F5805FA0F884
:105760005E2031D10369002B40F2FF1318BFFF23E5
:10577000A0F860300023C0F88C302223C0F88830B5
:1057800003689C6844F001049C60446EB4F1005FBF
:105790002ED1B0F8684094422AD8B1F5805F25D167
:1057A00004691D4A1D49002C08BF0A4602670022F1
:1057B00080F880201A6842F480721A609A6842F079
:1057C00080529A60002010BD29B90369002B14BFD4
:1057D0007F23FF23CCE7B1F1805F05D10369002B64
:1057E00014BF3F237F23C3E70023C1E70A4ADDE755
:1057F000B1F5805F0ED10469094A0A49002C08BF3F
:105800000A460267002280F880201A6842F49072EB
:105810001A60D7E7024AF4E7BD4F000CF150000CC4
:10582000CD4E000C474F000CD0F8883010B4202B20
:105830001BD1B9B1B2B190F88030012B15D0012342
:1058400080F8803000230A4CC3660368A34206D068
:105850005C68240242BF1C6844F080641C6010BC79
:10586000FFF776BF012010BC70470220FBE700BFA6
:10587000008000507047000038B5044600283ED034
:10588000437A03F0FF0213B90272FFF7F3FF02231A
:10589000226863721368616823F00403136013685D
:1058A00023F0804323F020030B4343F08043136035
:1058B0001F4B13614AF2B3231361136823F0804333
:1058C0001360FBF781F9054623681A68510009D473
:1058D0001A6842F004021A605B685A0611D5042364
:1058E00063720CE0FBF770F9401B0228ECD92368C7
:1058F0001B685800E8D5012363720223E36001208E
:1059000038BDFBF761F905462368586810F00400BC
:1059100003D101236372E060F2E7FBF755F9401B06
:105920000228F1D923685B685B07EDD50423E3E720
:10593000BC0A5917704770B50446002833D0026876
:10594000136823F0804323F0200343F08043136067
:10595000136823F080431360FBF736F9064623688B
:105960001D6815F080450FD11A68204622F00C0200
:105970001A605A6822F060025A60FFF7DBFF657216
:105980002846E56025720FE0FBF71EF9801B022810
:10599000E5D923681B685B00E1D50123637202230C
:1059A000E36000232372012070BD7047002307B518
:1059B000019303685A68510709D45A6822F04002DB
:1059C0005A60C36823F00803C360002018E01A6817
:1059D00042F080421A601A6822F080421A60022265
:1059E0000192019A013A0192019A62B9012343722C
:1059F000C368027243F00203C360FFF7D6FF0120C1
:105A000003B05DF804FB1A685200EAD45A685106E4
:105A100042BF5A6822F040025A6002220192019A63
:105A2000013A0192019A002AE0D05A685207F6D44E
:105A3000C7E72DE9F041037A0446012B0F4645D014
:105A40000123427A03729A42D6B23BD102234372B7
:105A500003685D6815F0400506D00823C360FFF7B2
:105A6000A5FF012805462AD0FBF7AEF8804623683B
:105A70005A68D00713D59A6859682261490642BF0F
:105A80000822E2605A682E4644BF22F001025A60A2
:105A90004FF0010358BF3A60637200230EE0FBF73A
:105AA00093F8A0EB08000228E1D923685B6813F0A3
:105AB0000103DCD1012262720222E26023723046CD
:105AC000BDE8F08104221E46C260E6E70226F6E742
:105AD00001680E4A0346914215D1C169A2F1102214
