:020000040C04EA
:101000003DB8F3960000000000046C0018C7010012
:1010100000000000000000000000000000000000D0
:1010200000000000000000000000000000000000C0
:1010300000000000000000000000000000000000B0
:1010400000000000000000000000000000000000A0
:10140000E8350120ED4B04080D490408D94B0408C8
:10141000D94B0408D94B0408D94B0408D94B04080C
:10142000000000000000000000000000654D0408FE
:10143000D94B040800000000154D04089D5F040806
:10144000A54E0408A54E0408A54E0408A54E0408A0
:10145000A54E0408A54E0408A54E0408A54E040890
:10146000A54E0408A54E0408A54E0408A54E040880
:10147000A54E0408A54E0408A54E0408A54E040870
:10148000A54E0408A54E0408A54E0408A54E040860
:10149000A54E0408A54E0408A54E0408A54E040850
:1014A000A54E0408A54E0408A54E0408A54E040840
:1014B000A54E0408A54E0408A54E0408A54E040830
:1014C000A54E0408A54E0408A54E0408A54E040820
:1014D000A54E0408A54E0408A54E0408A54E040810
:1014E000A54E0408A54E0408A54E0408A54E040800
:1014F000A54E0408A54E0408A54E0408A54E0408F0
:10150000A54E0408A54E0408A54E0408A54E0408DF
:10151000A54E0408A54E0408A54E0408A54E0408CF
:10152000A54E0408A54E0408A54E0408A54E0408BF
:10153000A54E0408A54E0408A54E0408A54E0408AF
:10154000A54E0408A54E0408A54E0408A54E04089F
:10155000A54E0408A54E0408A54E0408A54E04088F
:10156000A54E0408A54E0408A54E0408A54E04087F
:10157000A54E0408A54E0408A54E0408A54E04086F
:10158000A54E0408A54E0408A54E0408A54E04085F
:10159000A54E0408A54E0408A54E0408A54E04084F
:1015A000A54E0408A54E0408A54E0408A54E04083F
:1015B000A54E0408A54E0408A54E0408A54E04082F
:1015C000A54E0408A54E0408A54E0408A54E04081F
:1015D000A54E0408A54E0408A54E0408A54E04080F
:1015E000A54E0408A54E0408A54E0408A54E0408FF
:1015F000844641EA000313F0030349D1403A23D360
:101600000B6803604B6843608B688360CB68C36082
:101610000B6903614B6943618B698361CB69C3616A
:101620000B6A03624B6A43628B6A8362CB6AC36252
:101630000B6B03634B6B43638B6B8363CB6BC3633A
:1016400040304031403ADBD230320BD30B6803607C
:101650004B6843608B688360CB68C3601030103187
:10166000103AF3D20C3205D351F8043B40F8043B56
:10167000043AF9D2043208D0D2071CBF11F8013B5A
:1016800000F8013B01D30B8803806046704700BF20
:10169000082A13D38B07B1D010F00303AED0C3F1E7
:1016A0000403D21ADB071CBF11F8013B00F8013B11
:1016B000A4D331F8023B20F8023B9FE7043AD9D388
:1016C000013A11F8013B00F8013BF9D20B780370A5
:1016D0004B7843708B7883706046704780EA010CCA
:1016E0001CF0030F37D110F0030C20F0030021F0A1
:1016F000030150F8042B08BF51F8043B0ED08CF0C6
:10170000030C6FF07F434FEACC0C23FA0CFC51F82A
:10171000043B42EA0C0243EA0C0300BFA2F1013C85
:101720009A4201BF2CEA020C1CF0803F50F8042BB7
:1017300051F8043BF2D04FEA02604FEA122201282E
:1017400028BFB0EB036F08BF1B0AF4D003F0FF0300
:10175000000EC01A704710F0030F0AD010F8012BCA
:1017600011F8013B012A28BF9A42F4D0A2EB0300F2
:1017700070474DF8045D50F8042B01F0030521F08B
:10178000030151F8043B022D26D04DD822F07F45AD
:10179000B5EB132FA2F1013C2CEA020C0DD11CF089
:1017A000803C08BF51F8043B0AD185EA0205B5EB3D
:1017B000036F0CD150F8042BE8E74FEA13235BE0EA
:1017C0003CF07F4C54D10B784FEA126554E04FEA5D
:1017D000126503F0FF034FE04FEA0245A2F1013C1E
:1017E0004FEA15452CEA020CB5EB134F18D11CF04B
:1017F000803C08BF51F8043B07D185EA0205B5EBF0
:10180000034F09D150F8042BE6E75FEA0C4C2FD1C7
:101810000B884FEA12452FE04FEA03434FEA124587
:101820004FEA134328E000BF02F0FF05B5EB136F4A
:10183000A2F1013C2CEA020C0DD11CF0803C08BF47
:1018400051F8043B0AD185EA0205B5EB032F0AD112
:1018500050F8042BE8E74FEA13630DE012F0FF0F96
:1018600006D051F8043B4FEA122523F07F4303E0F2
:101870004FF0000020BC704705F0FF0203F0FF00AE
:10188000012828BF904204BF2D0A1B0AF4D0A2EB06
:10189000000020BC704700BF81F0004102E000BFA3
:1018A00083F0004330B54FEA41044FEA430594EA20
:1018B000050F08BF90EA020F1FBF54EA000C55EA5B
:1018C000020C7FEA645C7FEA655C00F0E2804FEA2C
:1018D0005454D4EB5555B8BF6D420CDD2C4480EA0E
:1018E000020281EA030382EA000083EA010180EA3E
:1018F000020281EA0303362D88BF30BD11F0004F8C
:101900004FEA01314FF4801C4CEA113102D04042C1
:1019100061EB410113F0004F4FEA03334CEA1333FC
:1019200002D0524263EB430394EA050F00F0A78014
:10193000A4F10104D5F1200E0DDB02FA0EFC22FA0F
:1019400005F2801841F1000103FA0EF2801843FA03
:1019500005F359410EE0A5F120050EF1200E012AF4
:1019600003FA0EFC28BF4CF0020C43FA05F3C01832
:1019700051EBE37101F0004507D54FF0000EDCF1AB
:10198000000C7EEB00006EEB0101B1F5801F1BD354
:10199000B1F5001F0CD349085FEA30004FEA3C0C58
:1019A00004F101044FEA445212F5800F80F09A804E
:1019B000BCF1004F08BF5FEA500C50F1000041EB52
:1019C000045141EA050130BD5FEA4C0C404141EB56
:1019D0000101013C28BFB1F5801FE9D291F0000F51
:1019E00004BF01460020B1FA81F308BF2033A3F100
:1019F0000B03B3F120020CDA0C3208DD02F1140CF7
:101A0000C2F10C0201FA0CF021FA02F10CE002F131
:101A10001402D8BFC2F1200C01FA02F120FA0CFC2A
:101A2000DCBF41EA0C019040E41AA2BF01EB045173
:101A3000294330BD6FEA04041F3C1CDA0C340EDC71
:101A400004F11404C4F1200220FA04F001FA02F3B4
:101A500040EA030021FA04F345EA030130BDC4F172
:101A60000C04C4F1200220FA02F001FA04F340EA67
:101A70000300294630BD21FA04F0294630BD94F018
:101A8000000F83F4801306BF81F480110134013DFF
:101A90004EE77FEA645C18BF7FEA655C29D094EA70
:101AA000050F08BF90EA020F05D054EA000C04BFEE
:101AB0001946104630BD91EA030F1EBF00210020D9
:101AC00030BD5FEA545C05D14000494128BF41F078
:101AD000004130BD14F580043CBF01F5801130BDDC
:101AE00001F0004545F0FE4141F470014FF0000067
:101AF00030BD7FEA645C1ABF194610467FEA655C18
:101B00001CBF0B46024650EA013406BF52EA0335B9
:101B100091EA030F41F4002130BD00BF90F0000FA7
:101B200004BF0021704730B54FF4806404F13204E3
:101B30004FF000054FF0000150E700BF90F0000F9C
:101B400004BF0021704730B54FF4806404F13204C3
:101B500010F0004548BF40424FF000013EE700BF93
:101B600042004FEAE2014FEA31014FEA02701FBF23
:101B700012F07F4393F07F4F81F06051704732F055
:101B80007F4208BF704793F07F4F04BF41F40021AC
:101B9000704730B54FF4607401F0004521F000410A
:101BA0001CE700BF50EA010208BF704730B54FF094
:101BB00000050AE050EA010208BF704730B511F095
:101BC000004502D5404261EB41014FF4806404F1CD
:101BD00032045FEA915C3FF4D8AE4FF003025FEA53
:101BE000DC0C18BF03325FEADC0C18BF033202EBD7
:101BF000DC02C2F1200300FA03FC20FA02F001FA31
:101C000003FE40EA0E0021FA02F11444BDE600BFD3
:101C100070B54FF0FF0C4CF4E06C1CEA11541DBF82
:101C20001CEA135594EA0C0F95EA0C0F00F0DEF84D
:101C30002C4481EA030621EA4C5123EA4C5350EA32
:101C4000013518BF52EA033541F4801143F4801383
:101C500038D0A0FB02CE4FF00005E1FB02E506F014
:101C60000042E0FB03E54FF00006E1FB03569CF069
:101C7000000F18BF4EF0010EA4F1FF04B6F5007F6F
:101C800064F5407404D25FEA4E0E6D4146EB0606E1
:101C900042EAC62141EA55514FEAC52040EA5E506A
:101CA0004FEACE2EB4F1FD0C88BFBCF5E06F1ED814
:101CB000BEF1004F08BF5FEA500E50F1000041EB4B
:101CC000045170BD06F0004646EA010140EA0200F8
:101CD00081EA0301B4EB5C04C2BFD4EB0C0541EA1A
:101CE000045170BD41F480114FF0000E013C00F32F
:101CF000AB8014F1360FDEBF002001F0004170BD53
:101D0000C4F10004203C35DA0C341BDC04F114046B
:101D1000C4F1200500FA05F320FA04F001FA05F2F7
:101D200040EA020001F0004221F0004110EBD370C4
:101D300021FA04F642EB06015EEA430E08BF20EAF0
:101D4000D37070BDC4F10C04C4F1200500FA04F393
:101D500020FA05F001FA04F240EA020001F0004125
:101D600010EBD37041F100015EEA430E08BF20EA98
:101D7000D37070BDC4F1200500FA05F24EEA020EE0
:101D800020FA04F301FA05F243EA020321FA04F00F
:101D900001F0004121FA04F220EA020000EBD370C6
:101DA0005EEA430E08BF20EAD37070BD94F0000FC6
:101DB0000FD101F00046400041EB010111F4801FFA
:101DC00008BF013CF7D041EA060195F0000F18BFAB
:101DD000704703F00046520043EB030313F4801FE7
:101DE00008BF013DF7D043EA0603704794EA0C0FA1
:101DF0000CEA135518BF95EA0C0F0CD050EA4106B7
:101E000018BF52EA4306D1D181EA030101F0004133
:101E10004FF0000070BD50EA410606BF104619465B
:101E200052EA430619D094EA0C0F02D150EA013667
:101E300013D195EA0C0F05D152EA03361CBF1046A8
:101E400019460AD181EA030101F0004141F0FE4147
:101E500041F470014FF0000070BD41F0FE4141F4CB
:101E6000780170BD70B54FF0FF0C4CF4E06C1CEACB
:101E700011541DBF1CEA135594EA0C0F95EA0C0F80
:101E800000F0A7F8A4EB050481EA030E52EA03353B
:101E90004FEA013100F088804FEA03334FF080555C
:101EA00045EA131343EA12634FEA022245EA111589
:101EB00045EA10654FEA00260EF000419D4208BF3A
:101EC000964244F1FD0404F5407402D25B084FEAE7
:101ED0003202B61A65EB03055B084FEA32024FF493
:101EE00080104FF4002CB6EB020E75EB030E22BFF0
:101EF000B61A754640EA0C005B084FEA3202B6EBB0
:101F0000020E75EB030E22BFB61A754640EA5C005E
:101F10005B084FEA3202B6EB020E75EB030E22BFEE
:101F2000B61A754640EA9C005B084FEA3202B6EBEF
:101F3000020E75EB030E22BFB61A754640EADC00AE
:101F400055EA060E18D04FEA051545EA16754FEA10
:101F500006164FEAC30343EA52734FEAC2025FEA2E
:101F60001C1CC0D111F4801F0BD141EA00014FF0BD
:101F700000004FF0004CB6E711F4801F04BF01438E
:101F80000020B4F1FD0C88BFBCF5E06F3FF6AFAEAA
:101F9000B5EB030C04BFB6EB020C5FEA500C50F13A
:101FA000000041EB045170BD0EF0004E4EEA1131BD
:101FB00014EB5C04C2BFD4EB0C0541EA045170BDC4
:101FC00041F480114FF0000E013C90E645EA060E08
:101FD0008DE60CEA135594EA0C0F08BF95EA0C0F36
:101FE0003FF43BAF94EA0C0F0AD150EA01347FF47E
:101FF00034AF95EA0C0F7FF425AF104619462CE755
:1020000095EA0C0F06D152EA03353FF4FDAE1046B7
:10201000194622E750EA410618BF52EA43067FF408
:10202000C5AE50EA41047FF40DAF52EA43057FF498
:10203000EBAE12E74FF0FF3C06E000BF4FF0010CA3
:1020400002E000BF4FF0010C4DF804CD4FEA410C07
:102050007FEA6C5C4FEA430C18BF7FEA6C5C1BD0D4
:1020600001B050EA410C0CBF52EA430C91EA030F55
:1020700002BF90EA020F0020704710F1000F91EAB2
:10208000030F58BF994208BF90422CBFD8176FEA80
:10209000E37040F0010070474FEA410C7FEA6C5C4E
:1020A00002D150EA013C07D14FEA430C7FEA6C5C55
:1020B000D6D152EA033CD3D05DF8040B704700BF81
:1020C0008446104662468C461946634600E000BFCF
:1020D00001B5FFF7B7FF002848BF10F1000F01BDA1
:1020E0004DF808EDFFF7F4FF0CBF012000205DF86C
:1020F00008FB00BF4DF808EDFFF7EAFF34BF0120F1
:1021000000205DF808FB00BF4DF808EDFFF7E0FF89
:1021100094BF012000205DF808FB00BF4DF808EDDA
:10212000FFF7CEFF94BF012000205DF808FB00BF41
:102130004DF808EDFFF7C4FF34BF012000205DF823
:1021400008FB00BF4FEA410C7FEA6C5C02D150EA09
:10215000013C0AD14FEA430C7FEA6C5C02D152EA9F
:10216000033C02D14FF0000070474FF00100704770
:102170004FEA410212F5001215D211D56FF47873AF
:10218000B3EB625212D94FEAC12343F0004343EA52
:10219000505311F0004F23FA02F018BF404270472D
:1021A0004FF00000704750EA013005D111F00040B7
:1021B00008BF6FF0004070474FF00000704700BF4D
:1021C00080F0004002E000BF81F0004142001FBFEC
:1021D0005FEA410392EA030F7FEA226C7FEA236CF5
:1021E0006AD04FEA1262D2EB1363C1BFD2184140EA
:1021F00048404140B8BF5B42192B88BF704710F080
:10220000004F40F4000020F07F4018BF404211F022
:10221000004F41F4000121F07F4118BF494292EA8A
:10222000030F3FD0A2F1010241FA03FC10EB0C00B6
:10223000C3F1200301FA03F100F0004302D5494243
:1022400060EB4000B0F5000F13D3B0F1807F06D3F0
:1022500040084FEA310102F10102FE2A51D2B1F1E8
:10226000004F40EBC25008BF20F0010040EA0300DD
:102270007047490040EB0000013A28BFB0F5000F5D
:10228000EDD2B0FA80FCACF1080CB2EB0C0200FA13
:102290000CF0AABF00EBC25052421843BCBFD04062
:1022A0001843704792F0000F81F4000106BF80F4DC
:1022B00000000132013BB5E74FEA41037FEA226C9F
:1022C00018BF7FEA236C21D092EA030F04D092F06A
:1022D000000F08BF0846704790EA010F1CBF00209E
:1022E000704712F07F4F04D1400028BF40F00040FB
:1022F000704712F100723CBF00F50000704700F01B
:10230000004343F0FE4040F4000070477FEA226241
:1023100016BF08467FEA23630146420206BF5FEA12
:10232000412390EA010F40F4800070474FF0000312
:1023300004E000BF10F0004348BF40425FEA000CD9
:1023400008BF704743F0964301464FF000001CE081
:1023500050EA010208BF70474FF000030AE000BFD7
:1023600050EA010208BF704711F0004302D5404215
:1023700061EB41015FEA010C02BF84460146002087
:1023800043F0B64308BFA3F18053A3F50003BCFAA2
:102390008CF2083AA3EBC25310DB01FA02FC63444F
:1023A00000FA02FCC2F12002BCF1004F20FA02F256
:1023B00043EB020008BF20F00100704702F1200249
:1023C00001FA02FCC2F1200250EA4C0021FA02F2AA
:1023D00043EB020008BF20EADC7070474FF0FF0CAF
:1023E0001CEAD0521EBF1CEAD15392EA0C0F93EAAA
:1023F0000C0F6FD01A4480EA010C400218BF5FEA4C
:1024000041211ED04FF0006343EA501043EA5111BE
:10241000A0FB01310CF00040B1F5000F3EBF4900B8
:1024200041EAD3715B0040EA010062F17F02FD2ABC
:102430001DD8B3F1004F40EBC25008BF20F001009F
:10244000704790F0000F0CF0004C08BF49024CEAB6
:10245000502040EA51207F3AC2BFD2F1FF0340EA48
:10246000C250704740F400004FF00003013A5DDCB9
:1024700012F1190FDCBF00F000407047C2F10002FA
:10248000410021FA02F1C2F1200200FA02FC5FEAE7
:10249000310040F1000053EA4C0308BF20EADC7031
:1024A000704792F0000F00F0004C02BF400010F4A3
:1024B000000F013AF9D040EA0C0093F0000F01F050
:1024C000004C02BF490011F4000F013BF9D041EA72
:1024D0000C018FE70CEAD15392EA0C0F18BF93EA74
:1024E0000C0F0AD030F0004C18BF31F0004CD8D19E
:1024F00080EA010000F00040704790F0000F17BF25
:1025000090F0004F084691F0000F91F0004F14D06A
:1025100092EA0C0F01D142020FD193EA0C0F03D1C2
:102520004B0218BF084608D180EA010000F00040C5
:1025300040F0FE4040F40000704740F0FE4040F4A0
:10254000400070474FF0FF0C1CEAD0521EBF1CEA3F
:10255000D15392EA0C0F93EA0C0F69D0A2EB03025D
:1025600080EA010C49024FEA402037D04FF08053F7
:1025700043EA111143EA10130CF000408B4238BFBC
:102580005B0042F17D024FF4000C8B4224BF5B1ACA
:1025900040EA0C00B3EB510F24BFA3EB510340EA18
:1025A0005C00B3EB910F24BFA3EB910340EA9C00C6
:1025B000B3EBD10F24BFA3EBD10340EADC001B0136
:1025C00018BF5FEA1C1CE0D1FD2A3FF650AF8B42DA
:1025D00040EBC25008BF20F0010070470CF0004CE7
:1025E0004CEA50207F32C2BFD2F1FF0340EAC25012
:1025F000704740F400004FF00003013A37E792F0D3
:10260000000F00F0004C02BF400010F4000F013A30
:10261000F9D040EA0C0093F0000F01F0004C02BF2B
:10262000490011F4000F013BF9D041EA0C0195E794
:102630000CEAD15392EA0C0F08D142027FF47DAF2D
:1026400093EA0C0F7FF470AF084676E793EA0C0F1D
:1026500004D14B023FF44CAF08466EE730F0004C1B
:1026600018BF31F0004CCAD130F000427FF45CAFAB
:1026700031F000437FF43CAF5FE700BF4FEA400218
:10268000B2F1FE4F0FD34FF09E03B3EB12620DD9A0
:102690004FEA002343F0004310F0004F23FA02F00A
:1026A00018BF404270474FF00000704712F1610FB1
:1026B00001D1420205D110F0004008BF6FF0004088
:1026C00070474FF0000070477BB972B90029BEBF58
:1026D00000204FF0004106E008BF00281CBF6FF04B
:1026E00000414FF0FF3000F057B8ADF1080C6DE934
:1026F00004CE002909DB002B1ADB00F04FF8DDF8CF
:1027000004E0DDE9022304B07047404261EB41017F
:10271000002B1BDB00F042F8DDF804E0DDE90223CA
:1027200004B0404261EB4101524263EB4303704706
:10273000524263EB430300F031F8DDF804E0DDE9D9
:10274000022304B0404261EB41017047524263EB07
:10275000430300F023F8DDF804E0DDE9022304B0D0
:10276000524263EB4303704753B94AB9002908BF8B
:1027700000281CBF4FF0FF314FF0FF3000F00CB8C5
:10278000ADF1080C6DE904CE00F008F8DDF804E0C6
:10279000DDE9022304B07047704700BF2DE9F04720
:1027A00086468C460846089E154674461946002BF8
:1027B00040F0C1808542B2FA82F245D94AB1C2F1F5
:1027C000200300FA02FC954094402EFA03F343EAFA
:1027D0000C0C4FEA154EA8B2230CBCFBFEF80EFB06
:1027E00018CC08FB00F943EA0C43994528D9EB18AB
:1027F00008F1FF3704D2994502D9A8F102072B440A
:10280000A3EB0903A4B2B3FBFEFC0EFB1C330CFBD1
:1028100000F044EA0344A04214D92C190CF1FF3310
:1028200004D2A04202D9ACF102032C44241A43EA98
:1028300007401EB1D440002334607360BDE8F087C8
:102840004746DDE76346F1E792BB431B01214FEAB0
:10285000154EAFB2200CB3FBFEFC0EFB1C330CFB81
:1028600007F840EA0343984561D9EB180CF1FF30B3
:1028700004D2984502D9ACF102002B44A3EB080323
:10288000A4B2B3FBFEFC0EFB1C330CFB07F744EABF
:102890000344A7424DD92C190CF1FF3304D2A742AF
:1028A00002D9ACF102032C44E41B43EA0040C0E728
:1028B000C2F120039540944020FA03F12EFA03F36D
:1028C0004FEA154E9040AFB20343B1FBFEFC0EFB46
:1028D0001C10190C0CFB07F841EA0041884522D96D
:1028E00069180CF1FF3004D2884502D9ACF102001E
:1028F0002944A1EB08019BB2B1FBFEFC0EFB1C11AD
:102900000CFB07F743EA01439F420ED9EB180CF189
:10291000FF3104D29F4202D9ACF102012B44DB1BF0
:1029200041EA004193E76046E3E76146F7E7604626
:10293000A4E76346B8E7834206D916B900210846E2
:102940007CE7C6E900E0F9E7B3FA83F78FB9834281
:1029500001D3724508D8BEEB020460EB03030120EB
:102960009C461EB9002169E73846FAE7C6E9004CE3
:10297000F8E7C7F1200CBB400EFA07F522FA0CF479
:102980002EFA0CF1BA401C4320FA0CF3B8404FEA7F
:10299000144901431FFA84FEB3FBF9F809FB183010
:1029A0000B0C08FB0EFA43EA00439A4540D9E318A2
:1029B00008F1FF3004D29A4502D9A8F1020023445D
:1029C000A3EB0A0389B2B3FBF9F809FB183308FB40
:1029D0000EFE41EA03418E452CD9611808F1FF3300
:1029E00004D28E4502D9A8F10203214443EA0040F3
:1029F000A1EB0E01A0FB02984145CE46434602D30F
:102A000006D14D4504D20138B9EB020E68EB040340
:102A1000002EA7D0B5EB0E0261EB030101FA0CFC0E
:102A200022FA07F3F9404CEA0303C6E9003199E7BB
:102A30004046C5E74346D9E710B5374BBAB00193D6
:102A4000364B374A374900930120374B05F0BEFF1C
:102A500006A805F01FFF002206AB11460BA805F0E3
:102A600027FE024620B13921304811F065F9FEE712
:102A70002F4A30490BAB04A805F064FE024620B192
:102A80003D212A4811F058F9FEE706F0BDFC294B1C
:102A9000024604A9284805F091FE024620B14021D3
:102AA000224811F049F9FEE7244B0BA9009303A833
:102AB00017A3D3E9002305F0B5FE024620B1492152
:102AC0001A4811F039F9FEE7012206AB0BA918A844
:102AD00000F03AF8024620B15121144811F02CF9C7
:102AE000FEE703A918A805F0F3FB024620B1522126
:102AF0000E4811F021F9FEE7114B124C18606422C8
:102B0000002318A805F074FC204602F0E9FCF6E763
:102B100000CA9A3B0000000009670408A9B2050832
:102B20009966040898060020A5B2050805CD050899
:102B300068CD05082ECD05083C4D0020813D0408D8
:102B4000384D0020A086010000285BD02DE9F0431D
:102B50000D46B1B0002951D00446184616461F460E
:102B600005F0A8FE002849D0002E47D00FF2A80992
:102B7000D9E90089882226490EA8FEF739FD882266
:102B80000EA92046FEF734FD25606D466846A66016
:102B90000BF0B6FB0FCD04F1140CACE80F000FCD19
:102BA000ACE80F000FCDACE80F002B68B001CCF8FB
:102BB0000030C4E91A8927613B6839699847606029
:102BC00010B3002500E0606800EB85103146013548
:102BD00005F05CFDAE42F6D104F1480005F04CFD75
:102BE00000230C496268C4E91E132AB122691AB194
:102BF000A2680AB184F88030002000E00B2031B0D8
:102C0000BDE8F0830B2070470A20F8E7AFF300809F
:102C1000D8BC0508857F040800CA9A3B0000000064
:102C2000002800F04B812DE9F04F066B05468FB070
:102C3000002E00F0FB8019464368924673B9C368C2
:102C400063B9436953B9C36943B9436A33B9C36AC2
:102C500023B940F285300FB0BDE8F08FBAF1010F13
:102C600071F10003D6F840C0C0F2D880D0460F46BC
:102C7000BCF1000F00F0288100240791A3463046E4
:102C80006146CDE9054A14E00028E4D1DDE90A23D4
:102C9000424573EB070103DA1F4601239046059373
:102CA000286B016C01344BF1000B8C427BF100036B
:102CB00030D22B69A60053F8242003EB8403002AAA
:102CC000F0D0EA68D0F814C022445CF822200AA9A7
:102CD0003AB103694CF823200369013303612B697E
:102CE00033444FF0FF396FF0004ACDE90A9A186873
:102CF0000BF0CCFA40F221339842C5D100222B6967
:102D000001349A51286B4BF1000B016C8C427BF122
:102D10000003CED3DDE906A15AEA01030646DDF839
:102D2000149040F0888000200021CDE90A01CDE90F
:102D30000C010AAB0293F26B06F13403CDE90032C9
:102D400006F1100106F11C0306F12802301D0EF0F9
:102D500063F82B6B80461A6CCAB1002427462A6997
:102D6000A60052F8240070B10DF127018DF82770EC
:102D70000BF054FA00287FF46EAF9DF827300BB9A2
:102D80002A6993512B6B1A6C0134A242E7D838F0B0
:102D9000020066D16C6802463CB1996851F8221075
:102DA00000296AD00132A242F7D3EC68002244B174
:102DB0002B6B596951F82210002967D00132A242C9
:102DC000F7D3EC69002244B12B6B196A51F8221039
:102DD000002963D00132A242F7D36C6A002244B1C9
:102DE0002B6BD96A51F8221000295FD00132A24220
:102DF000F7D3EC6A002244B12B6B996B51F8221087
:102E0000002932D00132A242F7D3B8F1020F7FF489
:102E100022AF89F0010A4FEA4A001CE7BCF1000F1B
:102E200054D04FF0FF386FF0004725E74FF4617042
:102E30000FB0BDE8F08FBAF1010F71F100033FDB75
:102E400027A3D3E90023002FABBF4046002039461B
:102E50000021FFF739FCCDE90C23CDE90A010AABCB
:102E600068E701200FB0BDE8F08FAB6A43F822108D
:102E7000EC6A0132A242BFD3C7E72B6843F82210A5
:102E80006C680132944290D92B6B86E7AB6843F8AB
:102E90002210EC68013294428AD892E7AB6943F879
:102EA0002210EC69013294428ED896E72B6A43F8DF
:102EB00022106C6A0132A24292D39AE70B2070472B
:102EC0004B46002BBCD135E7E146B9E75AEA01028F
:102ED00001D1E14627E76346E1462BE7AFF30080E7
:102EE00000CA9A3B000000002DE9F04F016C9BB036
:102EF00016461F46279D0490CDE9026749B1426CF2
:102F00000123044693404A608B6015F04DFE002378
:102F10002364B7F10009C0F2B68000232B607E4B1A
:102F200033EA090300F0BA800022DDE902341846D2
:102F300021460023CDE90801FFF7D2F8804668B1A9
:102F40000123269A1360289B13B1744B289A1360AF
:102F5000DFF8CC8140461BB0BDE8F08F18AB049879
:102F6000019319AB0093DDE9082316F04BF9834672
:102F70005FEA195540F0A980DDE91885454405F25E
:102F80003243202B40F34D82C3F1400309FA03F989
:102F900005F2124326FA03F349EA0300FEF7BEFDE9
:102FA000013D0123A1F1F871109300225D4BFEF762
:102FB00077FC53A3D3E90023FEF72AFE52A3D3E9FB
:102FC0000023FEF76FFC06460F462846FEF7B6FDC7
:102FD0004FA3D3E90023FEF71BFE02460B46304603
:102FE0003946FEF75FFC06460F46FFF7C1F80022A0
:102FF0008246002330463946FFF77CF8002840F02F
:103000000382A8EB0508BAF1160F08F1FF33069307
:1030100000F2A781444E06EBCA06DDE90801D6E9B5
:103020000023FFF767F8002800F0848000230AF1EE
:10303000FF3A0F9308F1FF33002BC0F29981002370
:103040000A93BAF1000F7BDA0A9BCDF82CA0A3EB10
:103050000A030A93CAF100034FF0000A0E93249B5F
:10306000092B77D8052B40F3E181043B00272493FB
:10307000249B023B032B00F25986DFE813F0540433
:10308000510447042C04012329F000492B60224BF2
:10309000CDF80C9033EA09037FF446AFC9F3130966
:1030A00042F20F73269A59EA060913601DD0289B35
:1030B000DFF87880002B3FF44DAF08F10303289A26
:1030C000404613601BB0BDE8F08FDDE90812CDF873
:1030D0004080A5F2FF35C2F313030846DDF8608097
:1030E00043F07F5141F440115FE7289BDFF84080B7
:1030F000002B3FF42FAF08F10803E0E7AFF30080A7
:1031000061436F63A787D23FB3C8608B288AC63FED
:10311000FB799F501344D33F0000F07F35CB050867
:1031200034CB05080000F83FD8BD050884CB05085E
:1031300078CB0508B8F1000F40F3B1840F900A90E6
:10314000069BCDF82CA05344069300230E93249B9A
:10315000092B87D900230127CDE924334FF0FF3312
:103160000C970793049B00215964079B11930498C3
:1031700015F0F4FC0590002800F0E185079B0E2B6C
:103180008CBF002707F00107DDE904321A64002F25
:1031900000F01B810B9A002A40F34A81BC4E02F0DA
:1031A0000F03D4054FEA221806EBC303D3E90067E7
:1031B00040F17083B74B08F00F080325D3E90823CB
:1031C000DDE90801FEF74EFECDE91201B8F1000F6E
:1031D00012D0DFF8C09218F0010F08D030463946FF
:1031E0000135D9E90023FEF713FD06460F465FEAD5
:1031F000680809F10809EED132463B46DDE91201C3
:10320000FEF730FE804689460F9B43B10022A24B59
:1032100040464946FEF76EFF002840F047842846A6
:10322000FEF78CFC42464B46FEF7F2FC9B4B00221D
:10323000FEF738FB079B0646A1F15077002B00F004
:10324000AB80079B0B9C1293059B404612995D1C1B
:10325000CDE914678E4E06EBC10353E90212CDE9A6
:1032600016124946FEF784FF00F13007FEF766FCB0
:1032700002460B4640464946FFB2FEF711FB89461F
:103280000C998046DDE91623002900F00F8100200B
:103290008349FEF7E7FDDDE91423FEF701FB059EF8
:1032A00042464B46377006460F46FEF741FF002860
:1032B00040F02F850023CDF858A0CDF850B09A46A5
:1032C000DDF848B012942BE00AF1010ADA4580F2E9
:1032D000BD84304639460022724BFEF799FC00222D
:1032E000704B06460F4640464946FEF791FC89461C
:1032F0008046FEF73DFF0446FEF720FC02460B46E3
:10330000303440464946FEF7CBFA32463B4605F894
:10331000014B80468946FEF7EDFE002840F09C8474
:1033200042464B4600205C49FEF7BAFA32463B461D
:10333000FEF7E0FE0028C7D0DDF850B02F46129C03
:10334000059902E08F4200F05F843A4617F8013D8C
:10335000392BF7D00133DBB23B70DDF814800592D6
:103360006BE101230F9308F1FF33002BBFF667AE2B
:10337000C8F101030A930023069362E62846FEF78C
:10338000DDFB42464B46FEF743FC0022434BFEF773
:1033900089FA0646A1F15077404649460022424B41
:1033A000FEF77EFA32463B4680468946FEF7C0FE6F
:1033B000002840F0AD8340464946324607F10043BD
:1033C000FEF798FE002840F0D5810B9A199B0E2A33
:1033D00002DC002B80F2AD810C9A002A00F0B5804F
:1033E000249A012A40F38583079A0E9B551EAB420F
:1033F000C0F2C782002AA3EB050580F25B840A9B1A
:10340000079AA3EB0208C9E25046FEF797FB324643
:103410003B46FEF765FE00287FF4F3AD0AF1FF3A64
:10342000EFE5C3F1200306FA03F0B7E501271FE635
:1034300000F0A3820B9B164E5D4205F00F0306EBD6
:10344000C303DDE90801D3E90023FEF7E1FB2E11F8
:10345000CDE9120100F052840E4C00230225804673
:103460008946F00709D5404649460135D4E900238D
:10347000FEF7CEFB3B4680468946761004F10804F1
:10348000EFD1002B7FF4C0AEDDE91289BCE600BFAE
:10349000D8BD0508B0BD05080000F03F00001C4085
:1034A0000000E03F0000244000001440DDE914016A
:1034B000FEF7AEFB059B1F70129B012BCDE90C01A3
:1034C00000F00984129F059BCDF840A01F44002204
:1034D000AA4B40464946FEF79BFB89468046FEF7CD
:1034E00047FE8246FEF72AFB02460B460AF1300AE7
:1034F00040464946FEF7D4F905F801ABAF42804695
:103500008946E4D1DDF840A000229D4BDDE90C01A5
:10351000FEF7C8F942464B46FEF7ECFD002840F0A6
:103520007B8300209649DDE90C23FEF7B9F942467A
:103530004B46FEF7FDFD002840F01982199B002B39
:1035400003DB0B9B0E2B40F3F58000230E9DDDF873
:1035500028801E460C93B8F1000F0DDD0699002956
:103560000B4609DD41450A9AA8BF4346D21AA8EB8B
:103570000308CB1A0A9206930E9B53B10C9B13B10E
:10358000002D40F01E8259460E9A049815F09CFCBE
:1035900083460121049815F0B7FB0746BAF1000FE6
:1035A00040F06381249B012B40F37A81012306992B
:1035B0000B4413F01F0308D0C3F12002042A00F3C8
:1035C000B5810AD0C3F13C0300E01C230A9A984459
:1035D0001A440A92069A1A4406920A9B002B05DDA9
:1035E00059461A46049815F0C9FC8346069B002BE1
:1035F00005DD39461A46049815F0C0FC0746249BA1
:10360000022B0F9BD4BF00250125002B40F0BE806C
:10361000079B002B24DC1DB3079B002B00F08F8140
:10362000259BDDF81480DC433946049815F0BCFA7C
:103630001EB13146049815F0B7FA5946049815F0B2
:10364000B3FA00220599631C0A70269A1360289B1E
:10365000002B3FF47FAC404619601BB0BDE8F08FF3
:103660000C9B002B00F0AF80B8F1000F00F3C0817D
:10367000BAF1000F40F0D382B146059D079C6B1E46
:103680001C44029B089403F00103049C0A933946EE
:10369000584614F0E3FC31468246584615F0E2FCE9
:1036A0004A4639468046204615F0FCFCC268014671
:1036B0000AF13003002A40F0A281CDE90603584602
:1036C00015F0D0FC06990690204615F06DFA249B63
:1036D000069A52EA0301079B40F0C2810A9A002A27
:1036E00000F0F282B8F1000FC0F2AD81089AA8464E
:1036F000AA4208F8013B00F0D282594600230A2270
:10370000204615F05BFA4E45834631464FF00003E4
:103710004FF00A02204600F09D8115F04FFA49460D
:10372000064600230A22204615F048FA45468146FF
:10373000ADE7144E0B9B06EBC306D6E90034CDE98A
:103740000234259B002B80F2E881079B002B00F3BD
:10375000E481079B73B900220B4BDDE90201FEF700
:1037600057FA02460B46DDE90801FEF7CDFC0028BA
:1037700000F0CE8100273E4652E700BF0000244003
:103780000000E03FD8BD0508000014403946584607
:1037900015F068FC0028BFF63BAF0B9B59460A2288
:1037A0000498013B0B93002315F008FA0C9B834609
:1037B000002B40F09282119B002B119B079302DC9F
:1037C000002D7FF429AFDDF814800125079CDDF87A
:1037D000109007E0594600230A22484615F0EEF9FA
:1037E000013583463946584614F038FCA54200F1AD
:1037F000300308F8013BEDDB079A0025002ACCBF17
:1038000090464FF00108059A9044594601220498C9
:10381000029315F0B3FB3946834615F023FC0028CC
:1038200040F3E481059A02E0904500F0D48118F855
:10383000013CC24608F1FF38392BF5D001330B9C0F
:1038400088F800303946049815F0AEF9002E00F0E3
:10385000C8812DB1B54203D02946049815F0A4F9CA
:10386000DDF81480CDF814A0E3E601465246049832
:1038700015F02AFB249B0746012B40F395804FF05F
:10388000000A3B6907EB8303186915F0E9F9C0F1F9
:1038900020038CE6DDE908340225CDE9123495E4F5
:1038A000029B002B7FF482AEDDE90212C2F3130308
:1038B000002B7FF47BAEAD4B134033B10A9B013339
:1038C0000A93069B013306930123BAF1000F40F0DF
:1038D000F9819A466AE601230C93259B0B9A1344BF
:1038E00011930133012B1D460793B8BF0125172DF6
:1038F00040F31382012204235B001146013203F1DD
:103900001400A842F8D9049B596430E401230C93B5
:10391000259B002B40F3BE801D4611930793E6E7DD
:1039200000230C93D9E700230C93F1E7C3F11C03A8
:103930000A9A19441A4498440A9206914DE6394667
:103940000522049815F03AF907465846394615F00D
:1039500089FB00287FF764AEDDF81480059B0B9C83
:10396000013301340593312388F800305CE63A4690
:1039700017F8013D302BFAD0EFE40225DDE9088984
:1039800042E40E9B0E95EB1A00259A44DDE90632BF
:10399000134406930A9B984613440A930121049802
:1039A00015F0B2F90646D6E5029B002B7FF467AF0F
:1039B000DDE90201C1F313030A46002B3FF47BAF9C
:1039C0005DE7049C31462A46204615F07DFA0646FE
:1039D0005A462046314615F0C5F9594683462046D9
:1039E00015F0E2F80E9B5B1B0E933FF4D2ADCAE5D7
:1039F00031464246049815F0C1FA064638E6049866
:103A0000069315F0D1F8B8F1000F069B08DB029A77
:103A1000249902F0010248EA010852EA08022ED174
:103A2000594601220498029315F0A8FA39468346B4
:103A300015F018FB0028029B40F36581392B00F03C
:103A400031810AF13103AA460B9C35464E460AF8ED
:103A5000013BF7E615F0B2F845460646814616E604
:103A6000B8F1000FC0F25E81249948EA01080A9972
:103A700051EA080800F05681002A7FF737AE392B4B
:103A800000F01081AA46013335460B9C4E460AF8D9
:103A9000013BD7E6012325930793FFF763BBC8F1EA
:103AA000010306900F900A93FFF74ABB079B002B78
:103AB0003FF464AC119B002B7FF787AC0B9A404618
:103AC00049461293541E2A4B0022FEF7A1F8804665
:103AD0008946681CFEF732F842464B46FEF798F8D6
:103AE0000022244BFDF7DEFE0646A1F15077FFF7DA
:103AF000ABBB109A002A00F08B8003F23343069A86
:103B00000E9D1A4406920A9A90461A440A9245E774
:103B10000027DDF814803E4620E7DDE90889DDE96D
:103B2000022340464946FEF79DF9059FFEF720FB1C
:103B30000546FEF703F8DDE90223FEF769F80B46B8
:103B4000024649464046FDF7ABFE05F1300307F853
:103B5000013B079B012B00F08980CDF818B00126AE
:103B6000DDF81C90DDE902AB22E000BF0000F07F31
:103B70000000244000001C4052465B462046294677
:103B8000FEF770F90136FEF7F3FA8046FDF7D6FF2F
:103B900052465B46FEF73CF80B4602462946204655
:103BA000FDF77EFE08F13003B14507F8013B5AD01E
:103BB0000022704BFEF72CF80022002304460D462D
:103BC000FEF78EFA0028D7D0DDF818B0DDF81480A3
:103BD0000B9C059731E50B9C3123059A013413703A
:103BE00030E6DDF81480CDF814A026E503D1029B61
:103BF000DB073FF517AE18F8013CC24608F1FF3865
:103C0000302BF8D00B9C1DE601343123FFF7A4BB09
:103C1000189BC3F1360372E70599FFF796BB7168ED
:103C2000049814F09BFF0546002800F08F8033694C
:103C300006F10C010C3002339A00FDF7D9FC29463D
:103C40000122049815F09AF9814616E5DDF858A08E
:103C5000DDF850B0FFF7B9BBDDF81480DDF850B0E7
:103C6000129C0595E9E4DDF818B0454602460B467E
:103C7000FDF718FE80468946DDE90223FEF758FA73
:103C800048B940464946DDE90223FEF729FA0028F3
:103C90009CD0E9079AD50B9C0599FFF756BB354692
:103CA0004E46B2E5A84639233546059A4E4608F8F1
:103CB000013BBCE5069B134406930A9B98461344BC
:103CC0000A936BE69A46DCE5392BEBD0B8F1000F8E
:103CD0003FF7B7AEB7E62F4616E4314600230A2277
:103CE000049814F06BFF119B0646002B119B079361
:103CF0003FF7BAAC002D7FF48FACB5E4DDE9128953
:103D00000225FFF781BA7FF49EAEDA077FF59BAEFE
:103D100094E6DDF8148005958FE40021049B596436
:103D2000FFF725BA002A3FF77BAE8CE6049B0025FF
:103D3000184629465D6414F011FF059068B90E4BD2
:103D400000224FF4D5710D4816F000FB02460A4BD5
:103D500040F2EA21094816F0F9FADDE90432259526
:103D60001A644FF0FF33012211930C920793FFF76F
:103D70002CBB00BF0000244088CB05089CCB050865
:103D800008B570B100220749074803F0E9FE024672
:103D900018B1252105480FF0CFFF024A13680133FF
:103DA000136008BD384D00203C4D0020DACC0508DA
:103DB000014B1B68184700BFA0060020014B18608C
:103DC000704700BFA006002007B50B460021024641
:103DD0000091034800F0AAF903B05DF804FB00BFAE
:103DE000B13D04080F2808B506D916F03BFD09239C
:103DF00003604FF0FF3008BD3022044B02FB00335C
:103E0000D3E8AF3F002BF0D00020F4E7AC06002051
:103E10000EB42DE9F741302545431B4C05F10C0646
:103E200026444FF0FF324FF0FF3304EB05080746FE
:103E3000304616F0E7FBD8F8043060590AAA40F281
:103E40000111DB6801929847051E10DBD8F82C3071
:103E500003F47042B2F5E04F05D011D803F450439B
:103E6000B3F5804F03D1302303FB0744A5623046EE
:103E700016F0CAFB284603B0BDE8F04103B0704716
:103E8000B2F5004FEEE700BFA40600202DE9F74F82
:103E90000C9E0546884691460193FFF7A3FF002834
:103EA00055DB302101FB05FB2A4C0BF10C072744A5
:103EB0004FF0FF334FF0FF32384616F0A3FB04EB10
:103EC0000B03DB6A03F47043B3F5E04F14D11EBB60
:103ED0004FF0010A0BF12801214430206843019A78
:103EE00023185B68E2B1D3F804B0BBF1000F1AD11C
:103EF00016F0B8FC052303E066B116F0B3FC862388
:103F00004FF0FF380360384616F07EFB404603B0A2
:103F1000BDE8F08FB246DDE731464FF0010ADCE73D
:103F2000D3F800B0E1E70B684A4641462058D8472D
:103F300000288046E7DDBAF1000FE4D0002EE2D180
:103F4000302303FB0544A36A0344A362DBE74FF07D
:103F5000FF38DBE7A40600203023434330B50D498A
:103F600008330B44D3E8AF2F92B1541ED3E8EF5F70
:103F7000954204D1C3E8EC4FBCF1000FF6D1F1D16A
:103F8000012A05D13023584300230A180B505360EF
:103F900030BD00BFA4060020F8B50546FFF722FF9C
:103FA000002824DB30246C43124F04F10C063E44FD
:103FB0004FF0FF324FF0FF33304616F023FB3A1933
:103FC00053689B688BB1D26A385912F4404F0AD0BB
:103FD000294698470446304616F016FB2846FFF758
:103FE000BBFF2046F8BD9847F4E71C46F3E74FF0C7
:103FF000FF34F6E7A406002070B504460D46FFF72F
:10400000F1FE00280DDB302303FB04F006492B46AC
:104010000C184FF4837209586068BDE8704016F0C0
:10402000E2BA4FF0FF3070BDA406002073B504461D
:104030000D461646FFF7D6FE00280EDB3022084B51
:1040400040F2011102FB04339B6A2A46009320468A
:104050003346FFF7DDFE02B070BD4FF0FF30FAE7E8
:10406000A4060020F0B5024601680A270020074E8A
:104070000B461C780131355D6D0701D41360F0BD2E
:1040800007FB0043A3F13000F2E700BFE9C90508D0
:104090002DE9F84F15469A46D378234A6F2B12F82C
:1040A00003B081460F460BF0030B2BD026D8582BBC
:1040B0000CBF10260A26DDF8288032460023484629
:1040C0003946FEF751FB092A08F1FF38D4B21ED851
:1040D0003034B145E4B277F1000788F8004001D3ED
:1040E000D04511D82B789B0605D5082E15D1AB7875
:1040F00043F00803AB704046BDE8F88F03F0F703C8
:10410000702BD5E70826D6E781460F46D5E7BBF1E9
:10411000010F0CBF37345734DBE7102EEBD1AB78EF
:1041200043F01003E6E700BFE9C905082DE9F04FA9
:104130008A4616461C46002597B00390307808B989
:10414000284655E325280AD05146039B9847002866
:10415000C0F24E83731C01350493049EEEE71822CF
:10416000002110A80FF088FD7378252B00F0A380A4
:10417000002398469E469C461846711C0F4611F82F
:10418000012B2B2A00F0C68000F2BD80202A00F00F
:10419000C480232A00F0C4802BB19DF8483043F03E
:1041A00040038DF84830B8F1000F05D09DF8483035
:1041B00043F020038DF84830BEF1000F05D09DF884
:1041C000483043F010038DF84830BCF1000F05D0A3
:1041D0009DF8483043F008038DF8483028B19DF829
:1041E000483043F004038DF848309DF8483003F020
:1041F0004401442903D16FF386138DF848309DF8AC
:1042000048302A2A43F0800309978DF8483040F05F
:104210008C809DF8493043F001038DF849307B1CB8
:104220001A782E2A0CBF012100219DF8492061F344
:1042300041028DF849200CD15A1C09925A782A2A39
:1042400040F083809DF84920023342F004028DF84B
:1042500049201A786C2A00F0A48000F28680682A2F
:1042600000F08C806A2A00F0A5804C2A00F0AA8019
:104270001A4612F8013B782B04928DF84B309DF8CA
:10428000492000F217816D2B00F2A980692B00F202
:104290001181572B00F2BE80412B03D0453B022BEE
:1042A00000F2088104229DF84A3062F302038DF87F
:1042B0004A300123CAE08DF84B30B31C04939DF8BB
:1042C0004930D90740F1FD8054F8048BB8F1000F54
:1042D00007DA9DF84820C8F1000842F004028DF882
:1042E00048205A0740F1F68054F804BBBBF1000F98
:1042F00080F2F5809DF849306FF341038DF8493025
:104300004FF0FF3BEBE02D2A0DD0302A7FF444AF75
:10431000012333E74FF0010C30E74FF0010E2DE79A
:104320004FF001082AE7012028E709A8FFF79AFEC5
:10433000099BBB423FF474AF9DF848201390C00F17
:1043400060F341028DF848206AE709A8FFF78AFE6A
:104350009DF848301490C3F3400242EAD07262F3F1
:1043600041038DF84830099B73E7742A26D07A2AD6
:104370007FF47EAF06219DF849200CE05A78682A28
:104380009DF8492006D1012161F3C6028DF849202C
:1043900002336DE7022161F3C6028DF84920013333
:1043A00066E75A786C2A9DF8492001D10421EBE791
:1043B0000321F0E705219DF84920ECE707219DF84E
:1043C0004920E8E7BDF8482022F4F04222F002023A
:1043D00042F4804242F00202ADF84820DFE76E3B33
:1043E000D9B201238B4040F282410B4238D113F005
:1043F000240F52D1DF075DD503219DF84A3061F3C8
:1044000002038DF84A3002F07803A3F140004342E2
:1044100043411BE00120A3F15801C9B200FA01F1A8
:1044200011F4624F7FF43EAF40F6010739421DD1CF
:1044300011F4043F3ED09DF84A3060F3020302F0CD
:104440007802402A8DF84A3034D000239DF8482065
:10445000C2F340010B4363F341028DF848202EE77D
:1044600002219DF84A3061F30203E8E702209DF83B
:104470004A1002F0780260F30201402A8DF84A10D7
:1044800002BF9DF8481041F001018DF84810632BE0
:10449000DBD1131E18BF0123D8E703219DF84A3052
:1044A00012F0780F61F302038DF84A3014BF012334
:1044B0000023CBE79DF8483043F001038DF84830E6
:1044C000C3E79DF94820002AACBF4FF0FF38DDF864
:1044D0004C8006E79F077FF513AFDDF850B000234F
:1044E000CDE913339DF84A309DF8491003F00703D6
:1044F000012BC1F3C30132D1CB1E042B04D8DFE85A
:1045000003F0204545202000236801294FEAE3728B
:10451000CDE910321BD19DF94030DA17CDE91032C8
:1045200004349DF8483013F003074FD0324651460B
:10453000049B039816F07AF80028C0F259810544CC
:104540000BE654F8043BDA17CDE91032E9E702290B
:10455000E6D11AB243F3C033CDE91023E0E7022BD2
:1045600024D1CB1E042B04D8DFE803F01810101858
:10457000180001294FF0000254F8043B14D002291E
:10458000CDE91032CDD19BB21093CAE7073424F0A5
:104590000704F4E80223CDE91023C2E754F8043BF2
:1045A000109300231193BCE7DBB2CDE7042B08D1B5
:1045B000073424F00704D4E900230834CDE910239C
:1045C000AFE7032BADD154F8043BDDE79DF84B007A
:1045D00078283FF6C2AD62281ED8252850D058282A
:1045E0007FF4BBADDDE910010DF13E03009312AA8B
:1045F0000AABFFF74DFDBBF1000F814680F2C18091
:10460000B9F1000F3FF4A9AD0DF13E06A6EB090389
:10461000002F7BD0013379E0633815283FF69DAD3C
:1046200001A252F820F000BFFB46040859470408D5
:104630005B4104085B4104085B4104085B410408DA
:10464000594704085B4104085B4104085B410408C6
:104650005B410408A54704087D470408B9460408DF
:104660005B4104085B410408914604085B4104086F
:104670007D4704085B4104085B4104087D4704084A
:104680005146039B98470028C0F2B280013564E58B
:10469000BBF1000FDDF840900ADB594648460FF0A9
:1046A0004BFFB9F1000F3FF458AD09EB000620E0D5
:1046B00048460FF09DFEF8E71098002800F086802D
:1046C0000DF13E060AAB0021009612AAFFF7E0FCAE
:1046D000BDF84A30BBF1000F03F0EF0343F4F043A1
:1046E00043F010038146ADF84A3049DA00283FF420
:1046F00034AD0027A6EB090308E0109B00278DF8D6
:10470000283001230DF129060DF128099DF84A10E2
:1047100011F0100206925FD00233139A13440592EF
:104720004A0644BF14995B18B8F1000F6DDDA8EB81
:1047300003089DF848305807C3F3800B65D4590629
:1047400059D53FB151463846039B984700284FDB67
:104750005F46013530234FE01E075ABFC3F30013F5
:104760005F012B27DDE91023002BBFF63BAF524240
:1047700063EB43032D27CDE9102333E7002731E70F
:1047800000279DF848100DF13E03A3EB09036FF3DA
:1047900086119B458DF848107FF632AFABEB0303D3
:1047A00013932DE7109B07293FF6D7ACDFE801F004
:1047B0000C04060C08080C0C1D70CEE41D80CCE423
:1047C000EA17C3E90052C8E41D60C6E4304E07464C
:1047D0000523A6F1050999E7080748BF01339CE7BF
:1047E000184607935146039B98470028079B04DA15
:1047F00017B0BDE8F08F2023C346594600290BF1BE
:10480000FF3BEDDC4544D8466D1A37B1514638467A
:10481000039B98470028EBDB01359DF84A30DA0608
:1048200001D41B0706D551463020039B984700282A
:10483000DEDB0135069B3BB151469DF84B00039BE7
:1048400098470028D4DB0135059F2F4406E05146E8
:104850003020039B98470028CADB01357B1B002BC7
:10486000F5DC33464A465146039815F0DFFE002832
:10487000BEDB0544A844A8EB0503002B7FF76DAC15
:1048800051462020039B98470028B1DB0135F2E711
:104890004ACD0508034A0020536823F00203536001
:1048A000704700BF004004E0104B82B05A68D20746
:1048B000FCD41A6842F001021A600D4B0D4A1A60CE
:1048C0000D4B9A6D42F080529A659B6D03F08053B8
:1048D0000193019B094B1A6822F4C0621A609A681E
:1048E00042F480429A6002B0704700BF0004034067
:1048F000F409002000093D00001002400070004053
:10490000014B036000207047B0BE050808B5034B9B
:104910001B689847BDE8084000F006B8A4090020CD
:1049200030BFFFF7FDBF00BF074A936893F90E1031
:10493000002907DB526993421FBF044A536843F0C2
:1049400080535360704700BFF84F002000ED00E037
:10495000154B9A6A12F0007F9A6A14BF1E201D2020
:1049600012F0807F9A6A18BF1F2012F4801F9A6A83
:1049700018BF202012F4002F9A6A18BF212012F4C9
:10498000802F9A6A18BF222012F4003F9A6A18BF3B
:10499000232012F4803F9A6A18BF24206FEA024253
:1049A0006FEA12429A62704700ED00E010B5194BB1
:1049B0000246986A9C6A10F4805F14BF1720162084
:1049C00014F4006F9C6A18BF1820A40509D5986BD1
:1049D000986A000404D51AB19A6A22F400429A62D5
:1049E00019200C4B9A6A12F4806F9A6A18BF1A2029
:1049F000D2050CD49B6A13F4005F18BF1C20054A33
:104A0000936A43F47F43936200230B7010BD1B2015
:104A1000F5E700BF00ED00E010B51C4B0246986AB8
:104A20009C6A10F0100F14BF1120102014F0080F12
:104A30009C6A18BF1220A40709D5586B986A000613
:104A400004D51AB19A6A22F080029A6213200F4BA1
:104A50009A6A12F0010F9A6A18BF142012F0200F00
:104A60009A6A18BF1520D40658BF9B6A074B9A6AEA
:104A7000920642BF5A6A22F400525A629A6A42F07F
:104A8000FF029A6200230B7010BD00BF00ED00E032
:104A9000F0B54A4B04465B6800258BB0C3F30803AE
:104AA00085F31188BFF36F8F02F07F40B0F17F4F25
:104AB00016D1D60714D4550603D4100704D4012503
:104AC00004E012F0040200D00C4600250022033B53
:104AD0008DF80720032B05D8DFE803F02462665F1A
:104AE0002C46F3E700239DF80720CAB902AE04F173
:104AF0002007324620686168083403C2BC4216466B
:104B0000F7D1099A002D53D0C2F3080121B96FEAF9
:104B100052226FEA42220992184602A915F040FE7D
:104B20000BB0F0BD254BDA6A9107DBD4DA6A002AB4
:104B3000D8DBDA6A5200D5D55A69A16942F480728D
:104B40005A61BFF34F8FBFF36F8F5A6931F8021C60
:104B500022F480725A61BFF34F8FBFF36F8F4DF60F
:104B60000272914201D12368BDE79A6AD2B232B192
:104B700001200DF10701FFF74FFF0346B3E79A6AE3
:104B800012F47F4F05D001200DF10701FFF70EFF52
:104B9000F3E79B6AB3F5803FA4D3FFF7D9FEECE7B8
:104BA00000200DF10701E6E700200DF10701EDE718
:104BB00022F4FF7222F00102ADE700BF00ED00E039
:104BC000044B5A6942F010025A615A6922F00802F5
:104BD0005A61704700ED00E0EFF30880EFF30981C0
:104BE00001B57246FFF754FF01BD00BF002080F3FE
:104BF0001488BFF36F8F002080F30A8880F30B883E
:104C000000200E490860BFF34F8F0D4880F30888DD
:104C100000F02CF8202080F311880A484FF400613E
:104C2000401880F30988EFF314800221084380F3D1
:104C30001488BFF36F8F00F0CBF8000094ED00E014
:104C4000E8350120A8DC0020002318460649D1F8E9
:104C50009020C2F30722934200DB7047C1F89830DE
:104C6000C1F8A0000133F6E700ED00E010B572B620
:104C7000002484F31388FFF7E7FF23464FF0FF304B
:104C80000C4A03F120010133102B42F82100F8D126
:104C900000234FF0FF30074A03F160010133102B6E
:104CA00042F82100F8D162B6BFF34F8FBFF36F8F88
:104CB00010BD00BF00E100E0084B9B6883420BD1B0
:104CC000EFF3058343B1064B5A6842F080525A60B5
:104CD0005A6A22F400425A6216F034BCF84F00209F
:104CE00000ED00E06FF00A01084A9368D9670849AF
:104CF00098674B6843F080534B60002383F311881F
:104D0000BFF36F8F9368D86F704700BFF84F0020D4
:104D100000ED00E011498A6882F881E04FF0300030
:104D20001044EFF3098C80E8F01F202080F31288F4
:104D3000BFF36F8F0A4F4FF000664A698A603E608A
:104D400092F981E0906F0023936780F3118802F15C
:104D5000300090E8F01F8CF309887047F84F00206E
:104D600004ED00E01EF0040F0CBFEFF30880EFF33A
:104D70000980816911F8021C0229FFD001B5724631
:104D800015F014FD01BD00BF40B2002807DB012370
:104D90004109034A00F01F00834042F82130704768
:104DA00000E100E040B2002801F10101ACBF00F1D8
:104DB0006040064B4FEA4111C9B2ABBF00F56140FC
:104DC00000F00F0080F800131954704714ED00E054
:104DD0000B4A08B50B4B22F07F029A60BFF34F8F4E
:104DE000BFF36F8FD3F8882022F47002C3F88820B5
:104DF00001F078FD02F05AFC00F048F801F0B2FD35
:104E00000014040800ED00E042F8203C009B0D492E
:104E100042F81C3C019B21F0010142F8183C029B26
:104E200042F8081C42F8143C4FF0807342F8043CEE
:104E3000002383674FF43C43203A0265C0F880307A
:104E4000704700BFB7A505080A4B00B50E461546CA
:104E500098602C4686F309884FF00000064B98476F
:104E600020464FF000014FF000024FF00003034CCA
:104E7000204700BFF84F0020BDA70508B7A50508CB
:104E80001022014B1A61704700ED00E00023202141
:104E90000348C21801336C2B82F80013F9D1704714
:104EA00000E100E008B5EFF30583064A103B02EB92
:104EB000C30152F8330049688847BDE80840FFF74E
:104EC00033BD00BFB0B805081FB5094C094A2346D9
:104ED0000121094800F0FAF800230393074B012150
:104EE000E41A01A80193029400F0FAF804B010BD8E
:104EF0000000032000000020B0BE0508900C002038
:104F000010B50C7A0B6804F01F0223F01F031A433C
:104F1000CB68640923F01F03054943EA440343F0C7
:104F20000103C1F89800C1F89C20C1F8A03010BD61
:104F300000ED00E010B5074BD3F89030C3F3072322
:104F4000013B984202D8FFF7DBFF10BD6FF0150060
:104F5000FBE700BF00ED00E02DE9F04F0F461446DF
:104F600006464FF000084D4D85B0B84580F292805E
:104F7000D6F80490B9F1000F36D0B9F11F0F40F206
:104F8000878019F01F0F40F08380D6F800A01AF038
:104F90001F0F7DD1504615F025FC834609EB0A0012
:104FA000013815F01FFC834572D11BF1160F6FD02D
:104FB0005C456DDDC5F898B0D5F89C10C5F898B083
:104FC000D5F8A03021F01F0143F01F0AD6E90032C6
:104FD0001A44994202F1FF391ED1CA4508D131461F
:104FE0005FFA8BF015F007FC08F101080C36BCE7FE
:104FF0003146C5F898B0D5F89C3022F01F0203F076
:105000001F031343C5F89C30E0B215F0F4FB10F118
:10501000160F3DD0441CE7E7C5F898B0D5F8A0209E
:10502000013B23F01F0302F01F021343CA45314620
:10503000E0B2C5F8A030E8D015F0DDFB10F1160F96
:1050400026D0C5F898B0D5F89C209DF808300AF114
:10505000FF3A62F304038DF80830D5F8A0309DF8CC
:1050600008205B0863F347128DF80820D6E9003268
:105070001344009323F01F035344A3EB09030130AF
:1050800023F01F036946C0B20393FFF753FFBEE747
:105090006FF01504204605B0BDE8F08F00ED00E08C
:1050A0000522044BC3F89420BFF34F8FBFF36F8FDB
:1050B000704700BF00ED00E0BFF35F8F0022024B9E
:1050C000C3F89420704700BF00ED00E010B5034C1A
:1050D0002278FFF741FF207010BD00BF98540020D8
:1050E0002DE9F74F294D8A4606464FF00008AB469A
:1050F000274FD0451BDAD6F80490B9F1000F3FD006
:1051000031680846019115F06DFB0199044609EBE1
:105110000100013815F066FB84424FF014021D4B6C
:1051200008D002FB08F36FF015024BF8032003B020
:10513000BDE8F08F14F1160F2C60F8D01978A14259
:10514000F5DD02FB08B0C7F89840C7F89840D7F8DB
:105150009C4000F10801007B64F304000871D7F85B
:10516000A0000C79400860F347140C71D7F89C102C
:1051700021F01F016960D7F8A01021F01F012961FB
:1051800008F1010814350C36B3E700BF404D00208C
:1051900000ED00E098540020F0B54149414CD1F8B1
:1051A00090302568C3F307239D4287B075D800204F
:1051B000FFF782FF3C4BC1F8C030854216D13B4C13
:1051C00001A82570FFF79CFB00250646384FAE422C
:1051D00013D1002023783249D1F89020C2F307225E
:1051E000934254DBFFF75CFF00202FE0616801EB86
:1051F0000011FFF785FE0130DFE70199280101EB7F
:105200000513DA683A40B2F5001F21D0B2F5800FDD
:105210002BD0B2F5801F38D15A689B680958013BE2
:1052200022F01F0003440120844623F01F0340EABC
:105230004C10CDE902218DF8100002A920780593C9
:10524000FFF778FE00281DDA6FF0150007B0F0BDFB
:105250005A689B680958013B22F01F0003444FF035
:10526000020C012023F01F03E1E75A689B680958EC
:10527000013B22F01F0003444FF0000C062023F0F6
:105280001F03D4E723780133237001359FE7C1F86A
:105290009830C1F8A00001339EE74FF0FF30D5E70A
:1052A00000ED00E0BCBE0508AAFF440098540020B1
:1052B0000000F0FF014B1860704700BFA8090020F4
:1052C000F8B50D46094F461EC0F10104A3199D42D1
:1052D00001DC2846F8BD73780A2B02D10D203B680B
:1052E00098473B6816F8010F9847EFE7A809002098
:1052F0000522012008B5024915F0BBFAFEE700BF00
:105300005ACD050810B5074C2368C2180648C0F1ED
:10531000005101F540318A4236BF22604FF0FF3024
:10532000C01810BD544D0020E849012008B50548BB
:1053300015F034F9002383F31188BFF36F8F042332
:10534000184602DF60CD050838B50025074C204619
:1053500016F022F804F11400013516F049F8052D75
:1053600004F12404F3D1002038BD00BF584D0020C3
:105370002DE9F8430D46064608B301B33D210EF072
:1053800071FFE0B90F4BD3F80090B9F1000F04D0D2
:10539000C846444658F8047B17B96FF001000CE08A
:1053A0002A46314638460FF051F80028F1D17B5D8E
:1053B0003D2BEED1A4EB09008010BDE8F8836FF01F
:1053C0001500FAE70C4E002070B50546E0B10FF06D
:1053D0000FF80446EFF31186202383F31288BFF3FE
:1053E0006F8F21462846FFF7C3FF0028A3BF074B56
:1053F00001341B680020A4BF53F82000001986F375
:105400001188BFF36F8F70BD0446E3E70C4E002098
:10541000012838B50C4609D0042817D100230022F2
:10542000C1E9002300238B60002038BDEFF3118514
:10543000202383F31288BFF36F8F084B0FCB84E8D0
:105440000F0085F31188BFF36F8FEDE715F00AFAAF
:10545000162303604FF0FF30E7E700BF900C0020F9
:1054600030B501280C4685B01FD0042821D1002377
:105470000022CDE900230023029316F0C0F84FF478
:105480007A720023FDF770F9009B124DC018019B42
:1054900043EB0101029BC4E9000105FB02320E4B04
:1054A000A2609A420DD8002009E06946FFF7B0FFDC
:1054B000E3E715F0D7F9162303604FF0FF3005B08E
:1054C00030BD064B013041F100011344C4E9000135
:1054D000A360E8E740420F00FFC99A3B003665C46D
:1054E00008B50A4B984206D915F0BCF9162303609B
:1054F0004FF0FF3008BD16F011F8002803DD15F05D
:10550000B1F90423F3E70020F4E700BF3F420F00A6
:1055100038B50024054D2846013415F069FF052CE7
:1055200005F10805F7D1002038BD00BF104E00205E
:1055300038B50024054D2846013415F02DFF052C03
:1055400005F11405F7D1002038BD00BF384E00200A
:105550000A4B30B51C460025094A191BB1F5407F9E
:1055600001D9002030BD506803F19001C3E9242027
:105570000160C03303F8085C5160EEE7A00C002026
:10558000AC090020F8B505460024104E104F012349
:105590002A7852FA84F2D1B203FA01F0F36830EAC1
:1055A000030303D0336930EA030308D1F0603061AC
:1055B00057F832301BB107EBC202516898476A783E
:1055C0000134E3B29A42E2D2F8BD00BF00F40240D7
:1055D0009C4E0020014B1954704700BF240C002042
:1055E000034670B1B0FA80F2C2F11F02D2B206498E
:1055F0008856064AD2F880100B43C2F88030FFF775
:10560000C3BBFF22F3E700BF240C002000F40240DC
:10561000034AD2F8803023EA0003C2F88030704792
:1056200000F40240032921D8DFE801F0020C101930
:105630000F4B1A6822EA00021A605A6822EA000236
:105640005A6070470A4B1A680243F5E7084B5A68DC
:1056500002435A601A6822EA00021A607047044B3B
:105660001A6802431A605A6810435860704700BFB6
:1056700000F4024030B5B0B1B0FA80F3C3F11F03BB
:10568000DBB20B4850F833408C4204D100EBC30529
:105690006D68954205D044B940F8331000EBC30063
:1056A0004260002030BDFF23EBE76FF00F00F9E709
:1056B0009C4E002060B1B0FA80F3C3F11F03DBB24F
:1056C0000021044A42F8331002EBC30251607047D4
:1056D000FF23F5E79C4E0020C300074AC0F381007A
:1056E000183052F8202003F018000723834013409D
:1056F00023FA00F0704700BF00F4024010B51F4BC2
:10570000144618680B68072B15D00A2B0AD893B1DA
:10571000013B092B0FD8DFE803F0161515152F27CD
:105720000E192121582B0ED008D84C2B0BD0502B02
:1057300009D0482B07D06FF0850006E05C2B02D023
:10574000602BF7E700202060002010BD00F0C4F8B7
:10575000372358430723B0FBF3F0F4E700F0BCF81D
:10576000372358434008EEE7054B064A1B68C3F34E
:10577000031352F82300E6E70348E4E7F4090020A6
:10578000001002400CC10508006CDC02F8B54E4F59
:1057900000F0BAF8384615F095F900F0CBFC4B4C08
:1057A0004B4AA3681578C3F30313D35C47FA05F596
:1057B00020FA03F6AE4202D2284600F013FD236819
:1057C00043F008032360236823F0F00343F06003F1
:1057D0002360636823F47F43636023689A0706D4D9
:1057E000236843F00103236023689B07FCD5D4F8AA
:1057F000983043F00103C4F89830D4F898309807F3
:10580000FBD5A36803F00C030C2B18D123685905B2
:1058100006D4236843F48073236023685A05FCD5BB
:10582000A36823F0030343F00103A360A36803F01C
:105830000C03042BFAD1A36823F0F003A3602368C0
:1058400023F080732360E36823F0605323F4003374
:1058500043F06053E360E36843F48033E360E3685C
:1058600023F4C003E360E36843F48013E36000F0D3
:1058700039F8236843F08073236023689B01FCD5CB
:10588000A36823F0F00343F08003A360A36843F010
:105890000303A360A36803F00C030C2BFAD1A368E5
:1058A000AE4223F0F003A36002D3284600F09AFC36
:1058B000084B00201F60A36823F4E063A360A36883
:1058C00023F46053A360F8BD80778E060010024079
:1058D0004ECE0508F4090020014B9869704700BFBF
:1058E0000CC10508064A074BD1680B4043F45C53D2
:1058F00043F00103D360D36843F08073D3607047F3
:10590000001002400C80FFF9064B82B09A6D42F005
:1059100080529A659B6D03F080530193019B02B006
:10592000704700BF0010024008B5074815F0CEFCD4
:1059300038B10648FFF7BEFC0448FEF73FFA0020E6
:1059400008BD6FF01200FBE788B80508515904083C
:105950000A2838B50446074D04D1AB680D21284606
:105960005B689847AB6803485B68E1B2984720469C
:1059700038BD00BF88B805082DE9F843D0F8048089
:105980001746D0F81090D8F808000D461E4615F0BE
:105990000AF8B7F5001F044616D12846D8F8084083
:1059A000FFF79AFE84420CD1294614F0FCFF04460E
:1059B000FFF72EFE2046FFF77DFE00212046FFF771
:1059C00031FE0020BDE8F883B7F5800F20D0B6F196
:1059D000806F19D0B6F1C06F18D0B6F1007F1AD120
:1059E00002264A4620460F49FFF744FEB0B9284632
:1059F000D8F8081014F0DAFF20463146FFF712FEFF
:105A00002046FFF7EDFDDCE70126EAE70326E8E79D
:105A10006FF08500D6E76FF01500D3E76FF00F0049
:105A2000D0E700BF7FAD050838B50369044658606C
:105A30000A4D284615F04AFC68B1094A28465368C1
:105A400043F4007353606168AB680C311B6898477E
:105A500000EAE07038BD6FF01200FBE7ACB7050854
:105A6000007000402DE9F047044600251D4F00EB73
:105A7000C106B44201D1002014E02068C30600F042
:105A80001F0911D4656845F02005C0F3481AC0F31A
:105A900044200F2823D857F82080B8F1000F0DD1EB
:105AA0006FF01200BDE8F087B9F1100F04D0B9F122
:105AB000110FEAD16568E8E73025E6E7404615F0C2
:105AC00005FC0028ECD04B462A4640460AF00F0160
:105AD00015F06BF9002804F10804CADAE2E76FF068
:105AE0001500DFE7C4BF0508012912D0022907D03D
:105AF00089B90068094BC01A18BF0120000370471C
:105B00000068064B984214BF4FF440504FF40050C9
:105B10007047002070474FF40050704700800040ED
:105B200043681B6803F1080252E8002F42F00102AB
:105B300003F1080040E800210029F3D10F4A934205
:105B40000FD0A2F5744293420BD002F580629342CB
:105B500007D002F58062934203D002F5806293423F
:105B600003D15A6842F040025A6053E8002F42F4D1
:105B7000807243E800210029F7D1704700380140C6
:105B800043681B6803F1080252E8002F22F001026B
:105B900003F1080040E800210029F3D10F4A9342A5
:105BA0000FD0A2F5744293420BD002F5806293426B
:105BB00007D002F58062934203D002F580629342DF
:105BC00003D15A6822F040025A6053E8002F22F4B1
:105BD000807243E800210029F7D170470038014066
:105BE00070B500261D46094B6C0833F81220334669
:105BF000FCF7BAFD090241EA1061000220182A46AA
:105C0000334641F10001FCF7AFFD70BDC2CC050881
:105C1000F7B50269436810680C461D68D968836847
:105C2000DB68B3B101AA9847002812DB214B9D42E3
:105C300032D10025019F204E234638460021AAB2CA
:105C4000FFF7CEFFA0F54070B04204D901350C2D0E
:105C5000F2D103B0F0BD174EF36A23F00F032B43CC
:105C6000F362002CF5D0154B384633F8152000238D
:105C70001946FCF779FD090241EA10616308000248
:105C8000C01822464FF0000341F10001FCF76CFD03
:105C9000C0F31300F060DCE72B6823F400432B60B3
:105CA000019B002CD5D003EB5403B3FBF4F39BB260
:105CB000EB60CEE700800040FFFC0F00C2CC05087F
:105CC0002DE9F84306460A7940683369012A0D46F2
:105CD00004685F6858D0931ED3F1000848EB0308AE
:105CE0004FEA88286979FFF7FFFE95F8069003468A
:105CF000B9F1020F4BD0B9F1040F4CD0002A54D0A7
:105D0000033A012A49D94FF48050B3F5805F4ED051
:105D1000B3F5405F4DD0002B0CBF01230323994204
:105D20003BD1414615F0A1F8814536D1EB79C3B19D
:105D3000012B40D1214B9C4213D0A3F574439C42CC
:105D40000FD003F580639C420BD003F580639C4227
:105D500007D003F580639C4203D003F540539C4277
:105D60001BD12368294623F001033046236015F038
:105D7000F5F9236843F00103236095E8030087E801
:105D800003000020BDE8F8834FF4C068AAE73AB9E1
:105D90004FF08050B9E7002AB5D06FF08500F1E7E9
:105DA000033A012AF9D90020AFE71046ADE70023F6
:105DB000B5E70223B3E7032BBCD0EEE70038014080
:105DC0002DE9F3410646476804695148206015F003
:105DD0007DFA20B96FF0120002B0BDE8F0812068B2
:105DE000F96883681B6898470028F5DB0021386A4A
:105DF00001AA14F0EFFF0028EEDB019B00221979C5
:105E00001868FFF72FFE0028E6DB756833692C68F9
:105E1000D3F80480236823F001032360686815F039
:105E200055FA0028D6D0D5E901018368DB6803B1B3
:105E3000984754E8003F43F00C0344E80032002A3E
:105E4000F7D14146304615F089F92B7D1BB1A36887
:105E500043F00803A3606B7D1BB1636843F4004308
:105E60006360AB7D1BB1636843F480336360EB7D9B
:105E70001BB1636843F4003363602B7E83B3254B0F
:105E80009C4213D0A3F574439C420FD003F580636A
:105E90009C420BD003F580639C4207D003F58063DE
:105EA0009C4203D003F540539C422ED173681A687C
:105EB000936843F48043936023686A7E23F0787389
:105EC00043EA425323602368AA7E23F4F81343EA8B
:105ED00002432360EB7E1BB1A36843F40043A3603D
:105EE0002B7F1BB1236843F000532360236843F0EA
:105EF00001032360E3699A02FCD5E3695B02FCD5E8
:105F000030467B6A9847002066E76FF0150063E72C
:105F1000ACB70508003801404FF0E02310B50F4939
:105F20009C691A6908689B690D4902F4803234B98A
:105F300093B903464AB90A681044C01A10BD002B31
:105F400008BF03460AB9A342F5D90A6802440A60A9
:105F50004FF0E0221269EEE70446F3E7C04F00205D
:105F6000BC4F002020220020084B83F82320084B40
:105F7000084A1A60084B013A18604FF0E0235A6152
:105F800098611A6942F007021A61704700ED00E05B
:105F9000C04F0020B0AD0100BC4F0020684620F08B
:105FA00007018D4619B5FFF7B7FF1049104B086878
:105FB000D3E90042001942F10002C3E900020023C4
:105FC0000C4A0B600C4BD2E90041001BB0FBF3F014
:105FD00043431B1941F10001C2E9003101F042FCC9
:105FE000FEF7A2FCBDE8194085467047BC4F002073
:105FF0006810002060100020B0AD01002DE9F041D4
:10600000DFF8DC8099B1421C0BD14FF0E02213691C
:1060100023F0010313614FF07F43C8F80030BDE85F
:10602000F081D8F80060012806DC002708E0431C56
:10603000D8F80060F7D197209828A8BF9820471E6D
:10604000EFF31185202383F31288BFF36F8FFFF7DF
:1060500063FF4FF0E023234C9969D4E900238018B3
:106060004FF0000243F10003C4E900031E4B1A6025
:106070001E4B1A68831A2FD4DFF874C00CFB073349
:1060800003F5D63303F2AF13B3FBFCF7131A41F653
:10609000DB220CFB0733934238BF1346154A934269
:1060A00028BF13464FF0E022C8F80030013B90694A
:1060B0005361002381429361A1EB000338BF9B1918
:1060C000D4E900125B1842F10002C4E9003285F302
:1060D0001188BFF36F8FA2E741F6DB23E2E700BF31
:1060E000C04F002068100020BC4F0020601000202E
:1060F000B0AD0100D072FD0038B5EFF3118520235B
:1061000083F31288BFF36F8F074B1C68074B1B6824
:10611000E41AFFF701FF85F31188BFF36F8F044B7B
:106120002044B0FBF3F038BD681000206010002060
:10613000B0AD0100274B9A68D96812F00C0205D067
:106140000C2A15D101F00301012918D11968224840
:10615000090755BFD3F894101968C1F30321C1F39F
:10616000031150F8210012B10C2A09D00020704709
:10617000042A2CD0082A194818BF00207047002094
:10618000D968DA6801F00301C2F30312022902F1AF
:10619000010208D0032915D0B0FBF2F0D968C1F391
:1061A0000621484306E0D8680D49C0F30620B1FB3C
:1061B000F2F25043DB68C3F3416301335B00B0FB91
:1061C000F3F07047D8680549C0F30620EFE70448AC
:1061D000704700BF001002400CC1050800127A0091
:1061E0000024F400F0B5344C91B004AD07460FCC58
:1061F0000FC594E8030085E803006D4604F1080329
:106200000AAE18340FCB85E80F000FCC0FC694E808
:10621000030086E803003FB3284A136813F4C06301
:1062200024D1274A97421FD804AA52F8041BB94226
:1062300017D310AA02EB830353F8180C214A1368F2
:1062400023F00F0303431360136803F00F03984216
:106250001CBF136803F00F03C01A18BF012011B050
:10626000F0BD0133062BE0D10120F8E7136803F4F9
:10627000C063B3F5007F0BD1134B9F42F4D80023CA
:1062800055F8042BBA42D4D20133042BF8D1EBE7F2
:106290000E4B9F42E8D80E4B9F420AD90D4B9F42AE
:1062A0008CBF0220012010AB03EB800050F8180CCB
:1062B000C4E70020F7E700BF30BC050800700040CD
:1062C00080778E060020024000B4C40480BA8C019E
:1062D00000127A000024F40001680E4A034691423D
:1062E00015D1C169A2F11022A2F1EF1291420ED193
:1062F0008268012A0BD8C26812B101698A4206D0AD
:10630000586928B19B691B1A5842584170470120AF
:10631000704700BF55AA00FF70B50D4B9E68A6B12F
:106320003046FFF7D9FF044678B9F3686BB9356991
:106330000DB9204670BD2846FFF7CEFF28B9EB689F
:10634000B34202D12E462D69F2E70124F1E700BFE6
:10635000C44F00202DE9F8433F4F3C68D4B1BC68DE
:10636000C4B100284AD0002948D001FB00F5B5FB94
:10637000F0F0884242D1281D40D8A9070DD025F061
:1063800003060436FC6803E06368B34238D2A469AC
:10639000002CF9D12046BDE8F8832E46F2E7FB60D9
:1063A00041E006F120016318203A5A600022C3E957
:1063B00002242A4822691A6160502949D96102B130
:1063C000D36062695A61A1699961AAB193619A69BE
:1063D00002B153614FF0010923610023C4E901694F
:1063E000C4E905333B69DB072ED5FFF795FF58B3AA
:1063F0001C4B48461B6826E0FB60E8E70024C9E721
:10640000A3681BB1174B01201B689847626804F111
:106410002008921B232AC4D80123A360D4E90523B2
:10642000002ABCD09361A3690BB162695A61002351
:10643000C4E905333B69DA0706D5FFF76DFF18B1EC
:106440000120084B1B6898472A46002140464446D5
:106450000DF012FC9EE700BFC44F002055AA00FFBC
:10646000669911EEF809002070B50546002800F085
:106470008880444E3368002B00F08380B268002A85
:106480007FD0834203D872681344984203D33E4BB3
:1064900001201B689847A5F120042046FFF71CFF48
:1064A00018B1394B01201B68984755F8183C012B4F
:1064B00003D0354B01201B689847002345F8183C52
:1064C00055F8143C3BB39A682ABB55F81C2C02F1D2
:1064D00020015A680A445A6055E905321A6155F894
:1064E000145C2B6903B1DD602022002120460DF0F1
:1064F000C3FB286910B18368002B2ED033699B073A
:106500003FD5FFF709FF00283BD0BDE870401E4B88
:1065100001201B68184755F8100C00282AD0836802
:1065200043BB42686368134420336360036923619B
:10653000D4E905239AB9CBB9436963618269A26141
:10654000B3B19C61A36903B15C61236903B1DC60F1
:10655000202200210DF090FBD0E72C46E1E793616B
:10656000A369002BE8D062695A61E5E7F360F7E7B9
:10657000F460E7E7F36845F8083C03B15C61F46058
:10658000BCE770BDC44F0020F809002038B50C46A8
:1065900014220021054613480DF06EFB12491348E2
:1065A00000F028F8232C1CD915F003031FBF043C6E
:1065B000E418C3F10403ED182246002128460DF02B
:1065C0005BFB084B0A49C3E90054203C9D606C60AA
:1065D0009A6811609A68A1F11021A1F1EF11D161BF
:1065E000DA6038BDC44F00206964040855630408AC
:1065F00055AA00FF024B1860024B0020196070473B
:10660000000A0020FC0900204FF4004108B50548AD
:10661000FFF7BCFF14F03FFE002818BF6FF0040026
:1066200008BD00BF9954002010B5044690B0A3687F
:106630005B6C23BBA3681B6C3BBBA3685B6B1BB190
:10664000204698470028F2D0124A53685169D2690F
:106650005B1AD21A3F2A0DD8002AE8D0A3689B699A
:1066600053B169462046984702466946094814F0E6
:1066700026F8DCE74022F1E76FF05702F5E7204605
:1066800098470028D6D110B010BD20469847002862
:10669000D3D1F8E7D84F002030B587B0D0F88C526E
:1066A000144901A80DF046FE01A800F05BF804466D
:1066B000686028B910480DF093FB204607B030BD44
:1066C0004FF400620D4BDA610D4A1A600022C3E9F3
:1066D0000222C3E905225A601A61686883681BB107
:1066E0009B6C0BB107499847686814F0D6FD0120F0
:1066F000E4E700BF35CE05085ECE0508D84F002080
:1067000099D40020296604082DE9F8430C46154663
:106710001E460027D0F88C82DFF84490D9F810206C
:10672000D9F808309A4201D1B74212DBD8F80400F8
:106730008368DB6A03B1984721462A46084814F06B
:106740000EF80446D8F8040014F0A7FD2046BDE872
:10675000F8834FF47A70FEF7C3FE0137DEE700BF1F
:10676000D84F002070B5054600B304783CB1104CFA
:10677000104EB44205D30E4CB4420BD30024204635
:1067800070BD204614F0A2FD10B12368AB42F6D0D4
:106790001434EEE7204614F099FD28B1284621680C
:1067A000FAF79CFF0028EAD01434E5E70446E6E750
:1067B000ACB70508B0B80508014B9868643070475D
:1067C000F84F002038B5EFF31185202383F31288AA
:1067D000BFF36F8F064B9C6814F08BFD85F3118817
:1067E000BFF36F8F2046BDE83840FEF765BA00BFA3
:1067F000F84F002038B5094B53F82040013053F8CA
:106800002050A54200D838BD636823B1204614F05B
:1068100073FD0834F5E723689847FAE74CC105088B
:10682000012270B52A4B032086B01A70FFF7E2FFF1
:1068300014F047FF14F07CFD0420FFF7DBFF254C2C
:10684000254D2646AE4204F1300410D300F0B6FDCB
:10685000204C224EAC4226D300F0C4FDFCF7ECF8ED
:106860001F4A137B23F00103137306B070BD54F865
:106870000C3C059354F8103C049354F8143C0393D7
:1068800054F8183C029354F81C3C019354F8203CF3
:10689000009354E90A2354E90C0100F033FB54F847
:1068A000303C5E65CDE7D4E90A23B3F1FF3F08BF72
:1068B000B2F1FF3F05D052EA0301206803D114F082
:1068C000A4FD3034C6E73146183000F051FFF8E738
:1068D00099DC002010BC050810BC050805B50508AA
:1068E000F810002008B50348034A0021121A14F0DA
:1068F0001BFD08BD900C0020A4DC0020882370B58F
:10690000134E012203FB0066002386B0CDE9042369
:106910000F220193CDE9023214234FF4A0720D4DE2
:106920000D4903FB0055044602FB00110B4B30469A
:10693000009500F0E7FA737B2C7423F00403737363
:10694000074B013403EBC423EE606B6006B070BDEF
:1069500070100020F84F0020A8E4002073B3050851
:10696000A8DC0020BFB50020FFF744FF2B4B83F3CA
:1069700008880024E0232A4D2A4E85F82230EC773F
:106980002C766C76AC7685F820406B6A264F43F403
:10699000E0236B62FEF714F9FEF772FA4FF0FF3353
:1069A000AB62EB62FEF7F8FBFEF78EFA40F20113E2
:1069B0001E4D2846AB81C5E91A4400F0D3FFB560EF
:1069C00014F083FCFDF770FF0120FFF713FF022096
:1069D000174DFFF70FFF00F039FD164B75610122CF
:1069E000059303231449CDE9033228463B464FF46F
:1069F000A042CDE90144009400F084FA06466A7B87
:106A0000284622F004026A7314F03BFD2046FFF78B
:106A100075FF3A4631462846FEF716FAA8E40020EC
:106A200000ED00E0F84F00202168040880110020EC
:106A3000F810002076CE0508E8E5002038B5054CB2
:106A4000256804EB850405B938BD54F80439013DC7
:106A50009847F8E710BC050838B5044C044DAC4223
:106A600000D338BD54F8043B9847F8E71CBC050830
:106A700020BC0508002038B5054C064DAC4200D3BB
:106A800038BD204614F05BFC0028F9DB2034F5E724
:106A90004E0C00204E0C00202DE9F3410446174611
:106AA0001E46EFF31188202383F31288BFF36F8F04
:106AB000C368334A7BB180689168884219D057EA2D
:106AC000060318D188F31188BFF36F8F6FF00F00A2
:106AD00002B0BDE8F081916891F90E100133E360D6
:106AE00093682161A36088F31188BFF36F8F002042
:106AF000EEE72169F2E791F90E1090F90E306FF090
:106B00007E029942A8BF19469142B8BF11468B42F6
:106B10002DDD14F039FC054622464146CDE90076CC
:106B2000184800F08DFB0028E1D0EFF311862023F8
:106B300083F31288BFF36F8FA068D0B123682169F7
:106B40009C420AD04BB193F90E309942A8BF194626
:106B50006FF07E039942B8BF194614F015FC40B19E
:106B60003146084800F0E6FB6FF00A00B0E7002568
:106B7000D2E7002DF4D186F31188BFF36F8FF3E7CE
:106B8000F84F00209ADC0020F8B583680546002BFA
:106B90003FD0234A926893423ED1C368012B03D968
:106BA000013BC3600020F8BDEFF31187202383F37E
:106BB0001288BFF36F8F0169806814F0E5FB2C68C1
:106BC000A54207D10023C5E9023387F31188BFF33B
:106BD0006F8FE7E7002CF5D0D4E900320026136070
:106BE0005A60637BC4E9006623F002036373A66006
:106BF00004F1180014F0EAFCAC6094F90E30204661
:106C00002B61E66714F03DFC3946064800F092FB24
:106C1000C8E76FF01500C6E74FF0FF30C3E700BFCD
:106C2000F84F00209ADC002070B5EFF31186202386
:106C300083F31288BFF36F8F0468A0421AD0CCB1DF
:106C4000D4E90032002513605A60637BC4E9005523
:106C500023F002036373A56004F1180014F0B6FC7E
:106C60002046E56714F00DFC3146BDE8704007484A
:106C700000F060BBD0E902329A4218BF0133022112
:106C80008360103014F003FDEEE700BF9BDC0020B2
:106C90002DE9F04305464FF0FF364FF0FF37DFF8A0
:106CA0002C8185B0EFF31189202383F31288BFF381
:106CB0006F8FD5F888408CB9022105F1A00014F03F
:106CC00072FB002860D100234946CDE9006702939A
:106CD00005F190023E4800F051FCE3E7D5F88C2026
:106CE00023689442C5F8883008BFC5F88C30D5F8C1
:106CF000A03043F00203C5F8A030E36823F004039A
:106D000043F00103E360636889F31188BFF36F8F79
:106D100020469847EFF31189202383F31288BFF3AD
:106D20006F8FE368D90623F0010237D4E260E3688D
:106D30009A071AD5D8F8000023F00203E360A0B147
:106D40000021026888B143689C4237D1036869BB5F
:106D5000D8F80420C8F80030824201D1C8F80430C5
:106D6000002340F8083BFFF75FFFD5F8A03023F081
:106D70000203C5F8A03089F31188BFF36F8FDB05DC
:106D800090D400F06BFB8DE705F1980400220121FF
:106D9000204614F0F9FB0028F8D194E723F0110302
:106DA000E36004F11000FFF73FFFC0E70B60D8F885
:106DB0000430834208BFC8F80410D1E722B1136839
:106DC000014610461A46BDE71346F9E71850002061
:106DD0009CDC0020F8B5C36804469A070F46C3F34D
:106DE00040062CD45B071AD40B680BB983680B6080
:106DF000E368DD0742BFA36802263B603D6858BFD9
:106E00000126002D3AD01F4B9B68AB420AD0D5F823
:106E1000A030D807C3F3800214D46FF01206002309
:106E20003B6025E014F0E8FAD5F8A0300028F0D156
:106E3000D907C3F3C002F0D552B15B0708D46FF095
:106E40000F06ECE7002AFAD1C3F3C003002BF6D1FA
:106E500000232360D5F88C3063B9C5E92244284665
:106E600014F0ACFAE36843F00403E3603B68A3600A
:106E70003046F8BD1C60C5F88C40F0E76FF0150691
:106E8000CDE700BFF84F0020F0B50446002089B0E0
