:020000040800F2
:10000000C01B012005F80008091C0308F1F70008CF
:10001000F1F70008F1F70008F1F70008F1F7000820
:1000200000000000000000000000000011F90008BE
:10003000F1F700080000000091F80008A133010862
:10004000BDFB0008BDFB0008BDFB0008BDFB0008B0
:10005000BDFB0008BDFB0008BDFB0008BDFB0008A0
:10006000BDFB0008BDFB0008BDFB0008BDFB000890
:10007000BDFB0008BDFB0008BDFB0008BDFB000880
:10008000BDFB0008BDFB0008BDFB0008BDFB000870
:10009000BDFB0008BDFB0008BDFB0008BDFB000860
:1000A000BDFB0008BDFB0008BDFB0008BDFB000850
:1000B000BDFB0008BDFB0008BDFB0008BDFB000840
:1000C000BDFB0008BDFB0008BDFB0008BDFB000830
:1000D000BDFB0008BDFB0008BDFB0008BDFB000820
:1000E000BDFB0008BDFB0008BDFB0008BDFB000810
:1000F000BDFB0008BDFB0008BDFB0008BDFB000800
:10010000BDFB0008BDFB0008BDFB0008BDFB0008EF
:10011000BDFB0008BDFB0008BDFB0008BDFB0008DF
:10012000BDFB0008BDFB0008BDFB0008BDFB0008CF
:10013000BDFB0008BDFB0008BDFB0008BDFB0008BF
:10014000BDFB0008BDFB0008BDFB0008BDFB0008AF
:10015000BDFB0008BDFB0008BDFB0008BDFB00089F
:10016000BDFB0008BDFB0008BDFB0008BDFB00088F
:10017000BDFB0008BDFB0008BDFB0008BDFB00087F
:10018000BDFB0008BDFB0008BDFB0008BDFB00086F
:10019000BDFB0008BDFB0008BDFB0008BDFB00085F
:1001A000BDFB0008BDFB0008BDFB0008BDFB00084F
:1001B000BDFB0008BDFB0008BDFB0008BDFB00083F
:1001C000BDFB0008BDFB0008BDFB0008BDFB00082F
:1001D000BDFB0008BDFB0008BDFB0008BDFB00081F
:1001E000BDFB0008BDFB0008BDFB0008BDFB00080F
:1001F0000A49C0F307230246C0B2CB5C095C0B443A
:100200006F2B08DC0C2043430549C818CB589A4291
:1002100018BF002070470020704700BFB0180408C6
:10022000A42B0120F8B506460F467025054C23681F
:1002300013B139462046B047013D04F10C04F6D114
:10024000F8BD00BFA42B012000000000000000004A
:10025000000000000000000000000000000000009E
:10026000000000000000000000000000000000008E
:10027000000000000000000000000000000000007E
:10028000000000000000000000000000000000006E
:10029000000000000000000000000000000000005E
:1002A000000000000000000000000000000000004E
:1002B000000000000000000000000000000000003E
:1002C000000000000000000000000000000000002E
:1002D000000000000000000000000000000000001E
:1002E000000000000000000000000000000000000E
:1002F000844641EA000313F0030349D1403A23D373
:100300000B6803604B6843608B688360CB68C36095
:100310000B6903614B6943618B698361CB69C3617D
:100320000B6A03624B6A43628B6A8362CB6AC36265
:100330000B6B03634B6B43638B6B8363CB6BC3634D
:1003400040304031403ADBD230320BD30B6803608F
:100350004B6843608B688360CB68C360103010319A
:10036000103AF3D20C3205D351F8043B40F8043B69
:10037000043AF9D2043208D0D2071CBF11F8013B6D
:1003800000F8013B01D30B8803806046704700BF33
:10039000082A13D38B07B1D010F00303AED0C3F1FA
:1003A0000403D21ADB071CBF11F8013B00F8013B24
:1003B000A4D331F8023B20F8023B9FE7043AD9D39B
:1003C000013A11F8013B00F8013BF9D20B780370B8
:1003D0004B7843708B7883706046704780EA010CDD
:1003E0001CF0030F37D110F0030C20F0030021F0B4
:1003F000030150F8042B08BF51F8043B0ED08CF0D9
:10040000030C6FF07F434FEACC0C23FA0CFC51F83D
:10041000043B42EA0C0243EA0C0300BFA2F1013C98
:100420009A4201BF2CEA020C1CF0803F50F8042BCA
:1004300051F8043BF2D04FEA02604FEA1222012841
:1004400028BFB0EB036F08BF1B0AF4D003F0FF0313
:10045000000EC01A704710F0030F0AD010F8012BDD
:1004600011F8013B012A28BF9A42F4D0A2EB030005
:1004700070474DF8045D50F8042B01F0030521F09E
:10048000030151F8043B022D26D04DD822F07F45C0
:10049000B5EB132FA2F1013C2CEA020C0DD11CF09C
:1004A000803C08BF51F8043B0AD185EA0205B5EB50
:1004B000036F0CD150F8042BE8E74FEA13235BE0FD
:1004C0003CF07F4C54D10B784FEA126554E04FEA70
:1004D000126503F0FF034FE04FEA0245A2F1013C31
:1004E0004FEA15452CEA020CB5EB134F18D11CF05E
:1004F000803C08BF51F8043B07D185EA0205B5EB03
:10050000034F09D150F8042BE6E75FEA0C4C2FD1DA
:100510000B884FEA12452FE04FEA03434FEA12459A
:100520004FEA134328E000BF02F0FF05B5EB136F5D
:10053000A2F1013C2CEA020C0DD11CF0803C08BF5A
:1005400051F8043B0AD185EA0205B5EB032F0AD125
:1005500050F8042BE8E74FEA13630DE012F0FF0FA9
:1005600006D051F8043B4FEA122523F07F4303E005
:100570004FF0000020BC704705F0FF0203F0FF00C1
:10058000012828BF904204BF2D0A1B0AF4D0A2EB19
:10059000000020BC704700BF431810B501D21F2ACD
:1005A00001D9002010BD013902F014030144102BC1
:1005B00080EA01043CD009DC8BB1042BF1D11F2C63
:1005C00040E840F315D941E840F10EE0142BE8D1A2
:1005D0001F2C40E8C0F30CD941E8C0F105E01F2C06
:1005E00040E800F305D941E800F11C460B468C4277
:1005F000D7D122F01402013A0A2AD2D801A151F827
:1006000022F000BF530600084D0600083F06000810
:10061000A3050008A3050008A3050008A30500081A
:100620005906000853060008470600083F06000860
:100630001F2C40E880F3DCD941E880F1D5E713F4C2
:10064000001FAFD1ADE713F4801FFAE75B02A9D515
:10065000A7E713F4002FF4E713F4802FF1E700BFAE
:1006600081F0004102E000BF83F0004330B54FEA63
:1006700041044FEA430594EA050F08BF90EA020FD0
:100680001FBF54EA000C55EA020C7FEA645C7FEA63
:10069000655C00F0E2804FEA5454D4EB5555B8BF86
:1006A0006D420CDD2C4480EA020281EA030382EAF7
:1006B000000083EA010180EA020281EA0303362D89
:1006C00088BF30BD11F0004F4FEA01314FF4801C5C
:1006D0004CEA113102D0404261EB410113F0004F6E
:1006E0004FEA03334CEA133302D0524263EB430325
:1006F00094EA050F00F0A780A4F10104D5F1200EC3
:100700000DDB02FA0EFC22FA05F2801841F100011D
:1007100003FA0EF2801843FA05F359410EE0A5F1F1
:1007200020050EF1200E012A03FA0EFC28BF4CF022
:10073000020C43FA05F3C01851EBE37101F00045D8
:1007400007D54FF0000EDCF1000C7EEB00006EEBE5
:100750000101B1F5801F1BD3B1F5001F0CD349086F
:100760005FEA30004FEA3C0C04F101044FEA4452C6
:1007700012F5800F80F09A80BCF1004F08BF5FEA4D
:10078000500C50F1000041EB045141EA050130BD2D
:100790005FEA4C0C404141EB0101013C28BFB1F53F
:1007A000801FE9D291F0000F04BF01460020B1FA8A
:1007B00081F308BF2033A3F10B03B3F120020CDA5D
:1007C0000C3208DD02F1140CC2F10C0201FA0CF03B
:1007D00021FA02F10CE002F11402D8BFC2F1200CA0
:1007E00001FA02F120FA0CFCDCBF41EA0C01904056
:1007F000E41AA2BF01EB0451294330BD6FEA04049F
:100800001F3C1CDA0C340EDC04F11404C4F1200289
:1008100020FA04F001FA02F340EA030021FA04F39B
:1008200045EA030130BDC4F10C04C4F1200220FAF2
:1008300002F001FA04F340EA0300294630BD21FA30
:1008400004F0294630BD94F0000F83F4801306BFF6
:1008500081F480110134013D4EE77FEA645C18BFEA
:100860007FEA655C29D094EA050F08BF90EA020F81
:1008700005D054EA000C04BF1946104630BD91EA79
:10088000030F1EBF0021002030BD5FEA545C05D17C
:100890004000494128BF41F0004130BD14F58004BB
:1008A0003CBF01F5801130BD01F0004545F0FE412F
:1008B00041F470014FF0000030BD7FEA645C1ABF64
:1008C000194610467FEA655C1CBF0B46024650EA9B
:1008D000013406BF52EA033591EA030F41F40021C7
:1008E00030BD00BF90F0000F04BF0021704730B54D
:1008F0004FF4806404F132044FF000054FF0000122
:1009000050E700BF90F0000F04BF0021704730B5E2
:100910004FF4806404F1320410F0004548BF4042B7
:100920004FF000013EE700BF42004FEAE2014FEA0C
:1009300031014FEA02701FBF12F07F4393F07F4FE7
:1009400081F06051704732F07F4208BF704793F0EA
:100950007F4F04BF41F40021704730B54FF46074FD
:1009600001F0004521F000411CE700BF50EA010200
:1009700008BF704730B54FF000050AE050EA0102A9
:1009800008BF704730B511F0004502D5404261EB19
:1009900041014FF4806404F132045FEA915C3FF45A
:1009A000D8AE4FF003025FEADC0C18BF03325FEAF7
:1009B000DC0C18BF033202EBDC02C2F1200300FAA8
:1009C00003FC20FA02F001FA03FE40EA0E0021FACD
:1009D00002F11444BDE600BF70B54FF0FF0C4CF4BB
:1009E000E06C1CEA11541DBF1CEA135594EA0C0F6D
:1009F00095EA0C0F00F0DEF82C4481EA030621EAA8
:100A00004C5123EA4C5350EA013518BF52EA0335E2
:100A100041F4801143F4801338D0A0FB02CE4FF094
:100A20000005E1FB02E506F00042E0FB03E54FF0C4
:100A30000006E1FB03569CF0000F18BF4EF0010EBC
:100A4000A4F1FF04B6F5007F64F5407404D25FEAB8
:100A50004E0E6D4146EB060642EAC62141EA55516B
:100A60004FEAC52040EA5E504FEACE2EB4F1FD0CAD
:100A700088BFBCF5E06F1ED8BEF1004F08BF5FEA2B
:100A8000500E50F1000041EB045170BD06F00046DD
:100A900046EA010140EA020081EA0301B4EB5C048A
:100AA000C2BFD4EB0C0541EA045170BD41F4801182
:100AB0004FF0000E013C00F3AB8014F1360FDEBFA7
:100AC000002001F0004170BDC4F10004203C35DA83
:100AD0000C341BDC04F11404C4F1200500FA05F306
:100AE00020FA04F001FA05F240EA020001F00042A7
:100AF00021F0004110EBD37021FA04F642EB06011D
:100B00005EEA430E08BF20EAD37070BDC4F10C0446
:100B1000C4F1200500FA04F320FA05F001FA04F20A
:100B200040EA020001F0004110EBD37041F10001F6
:100B30005EEA430E08BF20EAD37070BDC4F1200501
:100B400000FA05F24EEA020E20FA04F301FA05F269
:100B500043EA020321FA04F001F0004121FA04F211
:100B600020EA020000EBD3705EEA430E08BF20EAE1
:100B7000D37070BD94F0000F0FD101F0004640001B
:100B800041EB010111F4801F08BF013CF7D041EA9D
:100B9000060195F0000F18BF704703F000465200A1
:100BA00043EB030313F4801F08BF013DF7D043EA72
:100BB0000603704794EA0C0F0CEA135518BF95EA28
:100BC0000C0F0CD050EA410618BF52EA4306D1D1AF
:100BD00081EA030101F000414FF0000070BD50EACE
:100BE000410606BF1046194652EA430619D094EA58
:100BF0000C0F02D150EA013613D195EA0C0F05D142
:100C000052EA03361CBF104619460AD181EA030195
:100C100001F0004141F0FE4141F470014FF000004D
:100C200070BD41F0FE4141F4780170BD70B54FF0E8
:100C3000FF0C4CF4E06C1CEA11541DBF1CEA135568
:100C400094EA0C0F95EA0C0F00F0A7F8A4EB05044A
:100C500081EA030E52EA03354FEA013100F0888041
:100C60004FEA03334FF0805545EA131343EA12630A
:100C70004FEA022245EA111545EA10654FEA0026BF
:100C80000EF000419D4208BF964244F1FD0404F578
:100C9000407402D25B084FEA3202B61A65EB0305D4
:100CA0005B084FEA32024FF480104FF4002CB6EB91
:100CB000020E75EB030E22BFB61A754640EA0C0011
:100CC0005B084FEA3202B6EB020E75EB030E22BF51
:100CD000B61A754640EA5C005B084FEA3202B6EB92
:100CE000020E75EB030E22BFB61A754640EA9C0051
:100CF0005B084FEA3202B6EB020E75EB030E22BF21
:100D0000B61A754640EADC0055EA060E18D04FEADE
:100D1000051545EA16754FEA06164FEAC30343EA7E
:100D200052734FEAC2025FEA1C1CC0D111F4801F4B
:100D30000BD141EA00014FF000004FF0004CB6E744
:100D400011F4801F04BF01430020B4F1FD0C88BFE3
:100D5000BCF5E06F3FF6AFAEB5EB030C04BFB6EBEE
:100D6000020C5FEA500C50F1000041EB045170BDE1
:100D70000EF0004E4EEA113114EB5C04C2BFD4EB0E
:100D80000C0541EA045170BD41F480114FF0000E92
:100D9000013C90E645EA060E8DE60CEA135594EA0E
:100DA0000C0F08BF95EA0C0F3FF43BAF94EA0C0F11
:100DB0000AD150EA01347FF434AF95EA0C0F7FF486
:100DC00025AF104619462CE795EA0C0F06D152EADA
:100DD00003353FF4FDAE1046194622E750EA4106BE
:100DE00018BF52EA43067FF4C5AE50EA41047FF4CF
:100DF0000DAF52EA43057FF4EBAE12E74FF0FF3C34
:100E000006E000BF4FF0010C02E000BF4FF0010C04
:100E10004DF804CD4FEA410C7FEA6C5C4FEA430C7D
:100E200018BF7FEA6C5C1BD001B050EA410C0CBFCC
:100E300052EA430C91EA030F02BF90EA020F00202E
:100E4000704710F1000F91EA030F58BF994208BF95
:100E500090422CBFD8176FEAE37040F00100704752
:100E60004FEA410C7FEA6C5C02D150EA013C07D1A9
:100E70004FEA430C7FEA6C5CD6D152EA033CD3D0F4
:100E80005DF8040B704700BF8446104662468C46EE
:100E90001946634600E000BF01B5FFF7B7FF002821
:100EA00048BF10F1000F01BD4DF808EDFFF7F4FF4A
:100EB0000CBF012000205DF808FB00BF4DF808EDD5
:100EC000FFF7EAFF34BF012000205DF808FB00BFF8
:100ED0004DF808EDFFF7E0FF94BF012000205DF81A
:100EE00008FB00BF4DF808EDFFF7CEFF94BF0120CF
:100EF00000205DF808FB00BF4DF808EDFFF7C4FFC8
:100F000034BF012000205DF808FB00BF4FEA410C10
:100F10007FEA6C5C02D150EA013C0AD14FEA430CF3
:100F20007FEA6C5C02D152EA033C02D14FF0000030
:100F300070474FF0010070474FEA410212F500126E
:100F400015D211D56FF47873B3EB625212D94FEA10
:100F5000C12343F0004343EA505311F0004F23FAFA
:100F600002F018BF404270474FF00000704750EA4F
:100F7000013005D111F0004008BF6FF0004070470C
:100F80004FF00000704700BF80F0004002E000BF5B
:100F900081F0004142001FBF5FEA410392EA030F64
:100FA0007FEA226C7FEA236C6AD04FEA1262D2EBAE
:100FB0001363C1BFD218414048404140B8BF5B42B3
:100FC000192B88BF704710F0004F40F4000020F04C
:100FD0007F4018BF404211F0004F41F4000121F062
:100FE0007F4118BF494292EA030F3FD0A2F10102AC
:100FF00041FA03FC10EB0C00C3F1200301FA03F1EA
:1010000000F0004302D5494260EB4000B0F5000F0C
:1010100013D3B0F1807F06D340084FEA310102F1CB
:101020000102FE2A51D2B1F1004F40EBC25008BF7D
:1010300020F0010040EA03007047490040EB000047
:10104000013A28BFB0F5000FEDD2B0FA80FCACF148
:10105000080CB2EB0C0200FA0CF0AABF00EBC25075
:1010600052421843BCBFD0401843704792F0000F63
:1010700081F4000106BF80F400000132013BB5E7B6
:101080004FEA41037FEA226C18BF7FEA236C21D02C
:1010900092EA030F04D092F0000F08BF0846704791
:1010A00090EA010F1CBF0020704712F07F4F04D15F
:1010B000400028BF40F00040704712F100723CBF72
:1010C00000F50000704700F0004343F0FE4040F49C
:1010D000000070477FEA226216BF08467FEA23635A
:1010E0000146420206BF5FEA412390EA010F40F445
:1010F000800070474FF0000304E000BF10F0004391
:1011000048BF40425FEA000C08BF704743F0964377
:1011100001464FF000001CE050EA010208BF704792
:101120004FF000030AE000BF50EA010208BF704719
:1011300011F0004302D5404261EB41015FEA010C2E
:1011400002BF84460146002043F0B64308BFA3F126
:101150008053A3F50003BCFA8CF2083AA3EBC25308
:1011600010DB01FA02FC634400FA02FCC2F1200227
:10117000BCF1004F20FA02F243EB020008BF20F05E
:101180000100704702F1200201FA02FCC2F12002C4
:1011900050EA4C0021FA02F243EB020008BF20EAB9
:1011A000DC7070474FF0FF0C1CEAD0521EBF1CEAE7
:1011B000D15392EA0C0F93EA0C0F6FD01A4480EAD5
:1011C000010C400218BF5FEA41211ED04FF00063BE
:1011D00043EA501043EA5111A0FB01310CF00040EA
:1011E000B1F5000F3EBF490041EAD3715B0040EA10
:1011F000010062F17F02FD2A1DD8B3F1004F40EBE0
:10120000C25008BF20F00100704790F0000F0CF0B2
:10121000004C08BF49024CEA502040EA51207F3A76
:10122000C2BFD2F1FF0340EAC250704740F4000051
:101230004FF00003013A5DDC12F1190FDCBF00F042
:1012400000407047C2F10002410021FA02F1C2F1F0
:10125000200200FA02FC5FEA310040F1000053EA8C
:101260004C0308BF20EADC70704792F0000F00F0DA
:10127000004C02BF400010F4000F013AF9D040EAE0
:101280000C0093F0000F01F0004C02BF490011F474
:10129000000F013BF9D041EA0C018FE70CEAD15372
:1012A00092EA0C0F18BF93EA0C0F0AD030F0004CF2
:1012B00018BF31F0004CD8D180EA010000F00040A6
:1012C000704790F0000F17BF90F0004F084691F064
:1012D000000F91F0004F14D092EA0C0F01D142029E
:1012E0000FD193EA0C0F03D14B0218BF084608D167
:1012F00080EA010000F0004040F0FE4040F40000B1
:10130000704740F0FE4040F4400070474FF0FF0C43
:101310001CEAD0521EBF1CEAD15392EA0C0F93EA8A
:101320000C0F69D0A2EB030280EA010C49024FEADC
:10133000402037D04FF0805343EA111143EA101395
:101340000CF000408B4238BF5B0042F17D024FF44D
:10135000000C8B4224BF5B1A40EA0C00B3EB510F28
:1013600024BFA3EB510340EA5C00B3EB910F24BF11
:10137000A3EB910340EA9C00B3EBD10F24BFA3EB96
:10138000D10340EADC001B0118BF5FEA1C1CE0D15E
:10139000FD2A3FF650AF8B4240EBC25008BF20F011
:1013A000010070470CF0004C4CEA50207F32C2BF65
:1013B000D2F1FF0340EAC250704740F400004FF002
:1013C0000003013A37E792F0000F00F0004C02BF33
:1013D000400010F4000F013AF9D040EA0C0093F0FD
:1013E000000F01F0004C02BF490011F4000F013B57
:1013F000F9D041EA0C0195E70CEAD15392EA0C0FBF
:1014000008D142027FF47DAF93EA0C0F7FF470AFF6
:10141000084676E793EA0C0F04D14B023FF44CAF39
:1014200008466EE730F0004C18BF31F0004CCAD1CE
:1014300030F000427FF45CAF31F000437FF43CAF0A
:101440005FE700BF4FEA4002B2F1FE4F0FD34FF00B
:101450009E03B3EB12620DD94FEA002343F0004321
:1014600010F0004F23FA02F018BF404270474FF0CF
:101470000000704712F1610F01D1420205D110F056
:10148000004008BF6FF0004070474FF00000704709
:101490007BB972B90029BEBF00204FF0004106E0C1
:1014A00008BF00281CBF6FF000414FF0FF3000F074
:1014B00057B8ADF1080C6DE904CE002909DB002B0B
:1014C0001ADB00F04FF8DDF804E0DDE9022304B098
:1014D0007047404261EB4101002B1BDB00F042F8FA
:1014E000DDF804E0DDE9022304B0404261EB410194
:1014F000524263EB43037047524263EB430300F0F5
:1015000031F8DDF804E0DDE9022304B0404261EB8C
:1015100041017047524263EB430300F023F8DDF8CA
:1015200004E0DDE9022304B0524263EB4303704759
:1015300053B94AB9002908BF00281CBF4FF0FF313A
:101540004FF0FF3000F00CB8ADF1080C6DE904CE9F
:1015500000F008F8DDF804E0DDE9022304B070478C
:10156000704700BF2DE9F04786468C460846089E26
:10157000154674461946002B40F0C1808542B2FAE8
:1015800082F245D94AB1C2F1200300FA02FC95402B
:1015900094402EFA03F343EA0C0C4FEA154EA8B21E
:1015A000230CBCFBFEF80EFB18CC08FB00F943EA49
:1015B0000C43994528D9EB1808F1FF3704D2994517
:1015C00002D9A8F102072B44A3EB0903A4B2B3FB91
:1015D000FEFC0EFB1C330CFB00F044EA0344A0426B
:1015E00014D92C190CF1FF3304D2A04202D9ACF16A
:1015F00002032C44241A43EA07401EB1D4400023BE
:1016000034607360BDE8F0874746DDE76346F1E785
:1016100092BB431B01214FEA154EAFB2200CB3FB26
:10162000FEFC0EFB1C330CFB07F840EA0343984515
:1016300061D9EB180CF1FF3004D2984502D9ACF116
:1016400002002B44A3EB0803A4B2B3FBFEFC0EFB89
:101650001C330CFB07F744EA0344A7424DD92C196D
:101660000CF1FF3304D2A74202D9ACF102032C449F
:10167000E41B43EA0040C0E7C2F1200395409440D8
:1016800020FA03F12EFA03F34FEA154E9040AFB261
:101690000343B1FBFEFC0EFB1C10190C0CFB07F8FE
:1016A00041EA0041884522D969180CF1FF3004D283
:1016B000884502D9ACF102002944A1EB08019BB294
:1016C000B1FBFEFC0EFB1C110CFB07F743EA0143C8
:1016D0009F420ED9EB180CF1FF3104D29F4202D980
:1016E000ACF102012B44DB1B41EA004193E7604669
:1016F000E3E76146F7E76046A4E76346B8E783425D
:1017000006D916B9002108467CE7C6E900E0F9E7EA
:10171000B3FA83F78FB9834201D3724508D8BEEB81
:10172000020460EB030301209C461EB9002169E717
:101730003846FAE7C6E9004CF8E7C7F1200CBB4091
:101740000EFA07F522FA0CF42EFA0CF1BA401C43FB
:1017500020FA0CF3B8404FEA144901431FFA84FE03
:10176000B3FBF9F809FB18300B0C08FB0EFA43EA3F
:1017700000439A4540D9E31808F1FF3004D29A4556
:1017800002D9A8F102002344A3EB0A0389B2B3FBF8
:10179000F9F809FB183308FB0EFE41EA03418E45B8
:1017A0002CD9611808F1FF3304D28E4502D9A8F173
:1017B0000203214443EA0040A1EB0E01A0FB029882
:1017C0004145CE46434602D306D14D4504D20138A9
:1017D000B9EB020E68EB0403002EA7D0B5EB0E02A6
:1017E00061EB030101FA0CFC22FA07F3F9404CEA21
:1017F0000303C6E9003199E74046C5E74346D9E708
:1018000010B5BAB02AF0F4FB474B484A0193484B55
:10181000484900930120484B18F084FD2AF0DAFB78
:101820002AF0E6FB06A818F0E1FC2AF0D3FB2AF028
:10183000DFFB002206AB11460BA818F0E5FB0246C1
:1018400020B141213D4824F05BFBFEE72AF0C2FBBA
:101850002AF0CEFB3A4A3B490BAB04A818F01EFC19
:10186000024620B14721354824F04AFBFEE72AF022
:10187000B1FB2AF0BDFB19F073FA324B024604A902
:10188000314818F047FC024620B14C212B4824F087
:1018900037FBFEE72AF09EFB2AF0AAFB2B4B0BA995
:1018A000009303A81EA3D3E9002318F067FC0246A7
:1018B00020B15721214824F023FBFEE72AF08AFBC0
:1018C0002AF096FB012206AB0BA918A800F0F4F849
:1018D000024620B16121194824F012FBFEE703A95A
:1018E00018A818F0A1F9044628B10246622113484D
:1018F00024F006FBFEE72AF06DFB154B1C60154C2F
:101900002AF076FB6422002318A818F01DFA2AF0AA
:1019100061FB20460EF0EAFEF2E700BFAFF3008065
:1019200000CA9A3B000000008945010809450108EA
:10193000A7320308F0240120A3320308EDE50308D1
:101940009EEC030816E603082C500020F12C00083A
:1019500028500020A08601002DE9F04F012984467F
:101960008E4687B064D8002942D033A3D3E9002340
:1019700033A7D7E9006734A5D5E900450FF2D00BAE
:10198000DBE900AB34A1D1E90001CDE9042334A3A4
:10199000D3E90023CDE9002333A3D3E90023CDE924
:1019A000022333A3D3E900234FF000084FF00009CE
:1019B000CCE90A01DDE90401CCE90C01DDE9000113
:1019C000CCE90E01DDE90201CCE910010020CCE9EF
:1019D0000089CCE90289CCE90467CCE90645CCE969
:1019E00008ABCCE91223CCF8D0E007B0BDE8F08F0B
:1019F00021A3D3E9002322A7D7E90067CDE9042377
:101A000021A5D5E9004522A3D3E900230FF2880BD5
:101A1000DBE900ABCDE9002321A1D1E9000122A33C
:101A2000D3E90023CDE9022321A3D3E90023BBE7B7
:101A30006FF07400D9E700BF310BC0FF6726336732
:101A4000D89E05C15D9DBBCB07D57C362A299A62FD
:101A500017DD70305A01599139590EF7D8EC2F150E
:101A600011155868874AB48EA78FF9640D2E0CDBC8
:101A7000A44FFABE1D48B547D182E6AD7F520E5144
:101A800008C9BCF367E6096A3BA7CA8485AE67BB91
:101A90001F6C3E2B8C68059B2BF894FE72F36E3CFA
:101AA000F1361D5F3AF54FA56BBD41FBABD9831FE6
:101AB00079217E1319CDE05B00285BD02DE9F0433E
:101AC0000D46B1B0002951D00446184616461F46AF
:101AD00018F09CFB002849D0002E47D00FF2A8092F
:101AE000D9E90089882226490EA8FEF701FC882240
:101AF0000EA92046FEF7FCFB25606D466846A660F1
:101B00001EF092F90FCD04F1140CACE80F000FCDCC
:101B1000ACE80F000FCDACE80F002B68B001CCF89B
:101B20000030C4E91A8927613B68396998476060C9
:101B300010B3002500E0606800EB851031460135E8
:101B400018F050FAAE42F6D104F1480018F040FA0D
:101B500000230C496268C4E91E132AB122691AB134
:101B6000A2680AB184F88030002000E00B2031B078
:101B7000BDE8F0830B2070470A20F8E7AFF3008040
:101B8000304E0308DD98010800CA9A3B00000000AF
:101B9000002800F04B812DE9F04F066B05468FB011
:101BA000002E00F0FB8019464368924673B9C36863
:101BB00063B9436953B9C36943B9436A33B9C36A63
:101BC00023B940F285300FB0BDE8F08FBAF1010FB4
:101BD00071F10003D6F840C0C0F2D880D0460F465D
:101BE000BCF1000F00F0288100240791A346304685
:101BF0006146CDE9054A14E00028E4D1DDE90A2375
:101C0000424573EB070103DA1F4601239046059313
:101C1000286B016C01344BF1000B8C427BF100030B
:101C200030D22B69A60053F8242003EB8403002A4A
:101C3000F0D0EA68D0F814C022445CF822200AA947
:101C40003AB103694CF823200369013303612B691E
:101C500033444FF0FF396FF0004ACDE90A9A186813
:101C60001EF0A8F840F221339842C5D100222B691A
:101C700001349A51286B4BF1000B016C8C427BF1C3
:101C80000003CED3DDE906A15AEA01030646DDF8DA
:101C9000149040F0888000200021CDE90A01CDE9B0
:101CA0000C010AAB0293F26B06F13403CDE900326A
:101CB00006F1100106F11C0306F12802301D20F088
:101CC0003FFE2B6B80461A6CCAB1002427462A6956
:101CD000A60052F8240070B10DF127018DF827708D
:101CE0001EF030F800287FF46EAF9DF827300BB956
:101CF0002A6993512B6B1A6C0134A242E7D838F051
:101D0000020066D16C6802463CB1996851F8221015
:101D100000296AD00132A242F7D3EC68002244B114
:101D20002B6B596951F82210002967D00132A24269
:101D3000F7D3EC69002244B12B6B196A51F82210D9
:101D4000002963D00132A242F7D36C6A002244B169
:101D50002B6BD96A51F8221000295FD00132A242C0
:101D6000F7D3EC6A002244B12B6B996B51F8221027
:101D7000002932D00132A242F7D3B8F1020F7FF42A
:101D800022AF89F0010A4FEA4A001CE7BCF1000FBC
:101D900054D04FF0FF386FF0004725E74FF46170E3
:101DA0000FB0BDE8F08FBAF1010F71F100033FDB16
:101DB00027A3D3E90023002FABBF404600203946BC
:101DC0000021FFF765FBCDE90C23CDE90A010AAB41
:101DD00068E701200FB0BDE8F08FAB6A43F822102E
:101DE000EC6A0132A242BFD3C7E72B6843F8221046
:101DF0006C680132944290D92B6B86E7AB6843F84C
:101E00002210EC68013294428AD892E7AB6943F819
:101E10002210EC69013294428ED896E72B6A43F87F
:101E200022106C6A0132A24292D39AE70B207047CB
:101E30004B46002BBCD135E7E146B9E75AEA01022F
:101E400001D1E14627E76346E1462BE7AFF3008087
:101E500000CA9A3B000000002DE9F04F016C9BB0D6
:101E600016461F46279D0490CDE9026749B1426C92
:101E70000123044693404A608B6028F0C5FC002390
:101E80002364B7F10009C0F2B68000232B607E4BBB
:101E900033EA090300F0BA800022DDE90234184673
:101EA00021460023CDE90801FEF7FEFF804668B118
:101EB0000123269A1360289B13B1744B289A136050
:101EC000DFF8CC8140461BB0BDE8F08F18AB04981A
:101ED000019319AB0093DDE9082328F0C3FF834683
:101EE0005FEA195540F0A980DDE91885454405F2FF
:101EF0003243202B40F34D82C3F1400309FA03F92A
:101F000005F2124326FA03F349EA0300FEF7EAFC5E
:101F1000013D0123A1F1F871109300225D4BFEF702
:101F2000A3FB53A3D3E90023FEF756FD52A3D3E945
:101F30000023FEF79BFB06460F462846FEF7E2FC11
:101F40004FA3D3E90023FEF747FD02460B46304678
:101F50003946FEF78BFB06460F46FEF7EDFF0022E3
:101F60008246002330463946FEF7A8FF002840F09D
:101F70000382A8EB0508BAF1160F08F1FF330693A8
:101F800000F2A781444E06EBCA06DDE90801D6E956
:101F90000023FEF793FF002800F0848000230AF15D
:101FA000FF3A0F9308F1FF33002BC0F29981002311
:101FB0000A93BAF1000F7BDA0A9BCDF82CA0A3EBB1
:101FC0000A030A93CAF100034FF0000A0E93249B00
:101FD000092B77D8052B40F3E181043B002724939C
:101FE000249B023B032B00F25986DFE813F05404D4
:101FF000510447042C04012329F000492B60224B93
:10200000CDF80C9033EA09037FF446AFC9F3130906
:1020100042F20F73269A59EA060913601DD0289BD5
:10202000DFF87880002B3FF44DAF08F10303289AC6
:10203000404613601BB0BDE8F08FDDE90812CDF813
:102040004080A5F2FF35C2F313030846DDF8608037
:1020500043F07F5141F440115FE7289BDFF8408057
:10206000002B3FF42FAF08F10803E0E7AFF3008047
:1020700061436F63A787D23FB3C8608B288AC63F8E
:10208000FB799F501344D33F0000F07F1DE4030809
:102090001CE403080000F83F304F03086CE4030819
:1020A00060E40308B8F1000F40F3B1840F900A9088
:1020B000069BCDF82CA05344069300230E93249B3B
:1020C000092B87D900230127CDE924334FF0FF33B3
:1020D0000C970793049B00215964079B1193049864
:1020E00028F06CFB0590002800F0E185079B0E2B83
:1020F0008CBF002707F00107DDE904321A64002FC6
:1021000000F01B810B9A002A40F34A81BC4E02F07A
:102110000F03D4054FEA221806EBC303D3E9006787
:1021200040F17083B74B08F00F080325D3E908236B
:10213000DDE90801FEF77AFDCDE91201B8F1000FE3
:1021400012D0DFF8C09218F0010F08D0304639469F
:102150000135D9E90023FEF73FFC06460F465FEA4A
:10216000680809F10809EED132463B46DDE9120163
:10217000FEF75CFD804689460F9B43B10022A24BCF
:1021800040464946FEF79AFE002840F0478428461C
:10219000FEF7B8FB42464B46FEF71EFC9B4B002267
:1021A000FEF764FA079B0646A1F15077002B00F07A
:1021B000AB80079B0B9C1293059B404612995D1CBC
:1021C000CDE914678E4E06EBC10353E90212CDE947
:1021D00016124946FEF7B0FE00F13007FEF792FBFB
:1021E00002460B4640464946FFB2FEF73DFA894695
:1021F0000C998046DDE91623002900F00F810020AC
:102200008349FEF713FDDDE91423FEF72DFA059E41
:1022100042464B46377006460F46FEF76DFE0028D5
:1022200040F02F850023CDF858A0CDF850B09A4645
:10223000DDF848B012942BE00AF1010ADA4580F289
:10224000BD84304639460022724BFEF7C5FB0022A2
:10225000704B06460F4640464946FEF7BDFB894691
:102260008046FEF769FE0446FEF74CFB02460B462D
:10227000303440464946FEF7F7F932463B4605F80A
:10228000014B80468946FEF719FE002840F09C84E9
:1022900042464B4600205C49FEF7E6F932463B4693
:1022A000FEF70CFE0028C7D0DDF850B02F46129C78
:1022B000059902E08F4200F05F843A4617F8013D2D
:1022C000392BF7D00133DBB23B70DDF81480059277
:1022D0006BE101230F9308F1FF33002BBFF667AECC
:1022E000C8F101030A930023069362E62846FEF72D
:1022F00009FB42464B46FEF76FFB0022434BFEF7BD
:10230000B5F90646A1F15077404649460022424BB6
:10231000FEF7AAF932463B4680468946FEF7ECFDB9
:10232000002840F0AD8340464946324607F100435D
:10233000FEF7C4FD002840F0D5810B9A199B0E2AA8
:1023400002DC002B80F2AD810C9A002A00F0B580EF
:10235000249A012A40F38583079A0E9B551EAB42AF
:10236000C0F2C782002AA3EB050580F25B840A9BBA
:10237000079AA3EB0208C9E25046FEF7C3FA3246B9
:102380003B46FEF791FD00287FF4F3AD0AF1FF3ADA
:10239000EFE5C3F1200306FA03F0B7E501271FE6D6
:1023A00000F0A3820B9B164E5D4205F00F0306EB77
:1023B000C303DDE90801D3E90023FEF70DFB2E116D
:1023C000CDE9120100F052840E4C00230225804614
:1023D0008946F00709D5404649460135D4E900232E
:1023E000FEF7FAFA3B4680468946761004F1080467
:1023F000EFD1002B7FF4C0AEDDE91289BCE600BF4F
:10240000304F0308084F03080000F03F00001C4055
:102410000000E03F0000244000001440DDE914010A
:10242000FEF7DAFA059B1F70129B012BCDE90C0118
:1024300000F00984129F059BCDF840A01F440022A4
:10244000AA4B40464946FEF7C7FA89468046FEF742
:1024500073FD8246FEF756FA02460B460AF1300A31
:1024600040464946FEF700F905F801ABAF42804609
:102470008946E4D1DDF840A000229D4BDDE90C0146
:10248000FEF7F4F842464B46FEF718FD002840F0F0
:102490007B8300209649DDE90C23FEF7E5F84246F0
:1024A0004B46FEF729FD002840F01982199B002BAE
:1024B00003DB0B9B0E2B40F3F58000230E9DDDF814
:1024C00028801E460C93B8F1000F0DDD06990029F7
:1024D0000B4609DD41450A9AA8BF4346D21AA8EB2C
:1024E0000308CB1A0A9206930E9B53B10C9B13B1AF
:1024F000002D40F01E8259460E9A049828F014FBD5
:1025000083460121049828F02FFA0746BAF1000FFC
:1025100040F06381249B012B40F37A8101230699CB
:102520000B4413F01F0308D0C3F12002042A00F368
:10253000B5810AD0C3F13C0300E01C230A9A9844F9
:102540001A440A92069A1A4406920A9B002B05DD49
:1025500059461A46049828F041FB8346069B002BF7
:1025600005DD39461A46049828F038FB0746249BB7
:10257000022B0F9BD4BF00250125002B40F0BE800D
:10258000079B002B24DC1DB3079B002B00F08F81E1
:10259000259BDDF81480DC433946049828F034F993
:1025A0001EB13146049828F02FF95946049828F0B6
:1025B0002BF900220599631C0A70269A1360289B48
:1025C000002B3FF47FAC404619601BB0BDE8F08F94
:1025D0000C9B002B00F0AF80B8F1000F00F3C0811E
:1025E000BAF1000F40F0D382B146059D079C6B1EE7
:1025F0001C44029B089403F00103049C0A9339468F
:10260000584627F081FE31468246584628F05AFB4C
:102610004A4639468046204628F074FBC268014687
:102620000AF13003002A40F0A281CDE906035846A2
:1026300028F048FB06990690204628F0E5F8249BF0
:10264000069A52EA0301079B40F0C2810A9A002AC7
:1026500000F0F282B8F1000FC0F2AD81089AA846EE
:10266000AA4208F8013B00F0D282594600230A2210
:10267000204628F0D3F84E45834631464FF00003FC
:102680004FF00A02204600F09D8128F0C7F8494625
:10269000064600230A22204628F0C0F84546814617
:1026A000ADE7144E0B9B06EBC306D6E90034CDE92B
:1026B0000234259B002B80F2E881079B002B00F35E
:1026C000E481079B73B900220B4BDDE90201FEF7A1
:1026D00083F902460B46DDE90801FEF7F9FB002805
:1026E00000F0CE8100273E4652E700BF00002440A4
:1026F0000000E03F304F03080000144039465846C0
:1027000028F0E0FA0028BFF63BAF0B9B59460A229F
:102710000498013B0B93002328F080F80C9B834620
:10272000002B40F09282119B002B119B079302DC3F
:10273000002D7FF429AFDDF814800125079CDDF81A
:10274000109007E0594600230A22484628F066F810
:10275000013583463946584627F0D6FDA54200F19B
:10276000300308F8013BEDDB079A0025002ACCBFB7
:1027700090464FF00108059A90445946012204986A
:10278000029328F02BFA3946834628F09BFA00285A
:1027900040F3E481059A02E0904500F0D48118F8F6
:1027A000013CC24608F1FF38392BF5D001330B9CB0
:1027B00088F800303946049828F026F8002E00F0FA
:1027C000C8812DB1B54203D02946049828F01CF8E1
:1027D000DDF81480CDF814A0E3E6014652460498D3
:1027E00028F0A2F9249B0746012B40F395804FF077
:1027F000000A3B6907EB8303186928F061F8C0F110
:1028000020038CE6DDE908340225CDE9123495E495
:10281000029B002B7FF482AEDDE90212C2F31303A8
:10282000002B7FF47BAEAD4B134033B10A9B0133D9
:102830000A93069B013306930123BAF1000F40F07F
:10284000F9819A466AE601230C93259B0B9A13445F
:1028500011930133012B1D460793B8BF0125172D96
:1028600040F31382012204235B001146013203F17D
:102870001400A842F8D9049B596430E401230C9356
:10288000259B002B40F3BE801D4611930793E6E77E
:1028900000230C93D9E700230C93F1E7C3F11C0349
:1028A0000A9A19441A4498440A9206914DE6394608
:1028B0000522049827F0B2FF07465846394628F00B
:1028C00001FA00287FF764AEDDF81480059B0B9CAD
:1028D000013301340593312388F800305CE63A4631
:1028E00017F8013D302BFAD0EFE40225DDE9088925
:1028F00042E40E9B0E95EB1A00259A44DDE9063260
:10290000134406930A9B984613440A9301210498A2
:1029100028F02AF80646D6E5029B002B7FF467AF25
:10292000DDE90201C1F313030A46002B3FF47BAF3C
:102930005DE7049C31462A46204628F0F5F8064615
:102940005A462046314628F03DF8594683462046EF
:1029500027F05AFF0E9B5B1B0E933FF4D2ADCAE5E6
:1029600031464246049828F039F9064638E604987C
:10297000069327F049FFB8F1000F069B08DB029A87
:10298000249902F0010248EA010852EA08022ED115
:10299000594601220498029328F020F939468346CB
:1029A00028F090F90028029B40F36581392B00F054
:1029B00031810AF13103AA460B9C35464E460AF88E
:1029C000013BF7E627F02AFF45460646814616E614
:1029D000B8F1000FC0F25E81249948EA01080A9913
:1029E00051EA080800F05681002A7FF737AE392BEC
:1029F00000F01081AA46013335460B9C4E460AF87A
:102A0000013BD7E6012325930793FFF763BBC8F18A
:102A1000010306900F900A93FFF74ABB079B002B18
:102A20003FF464AC119B002B7FF787AC0B9A4046B8
:102A300049461293541E2A4B0022FDF7CDFF8046D3
:102A40008946681CFDF75EFF42464B46FDF7C4FF12
:102A50000022244BFDF70AFE0646A1F15077FFF74E
:102A6000ABBB109A002A00F08B8003F23343069A26
:102A70000E9D1A4406920A9A90461A440A9245E715
:102A80000027DDF814803E4620E7DDE90889DDE90E
:102A9000022340464946FEF7C9F8059FFEF74CFA67
:102AA0000546FDF72FFFDDE90223FDF795FF0B46F5
:102AB000024649464046FDF7D7FD05F1300307F8C9
:102AC000013B079B012B00F08980CDF818B001264F
:102AD000DDF81C90DDE902AB22E000BF0000F07FD2
:102AE0000000244000001C4052465B462046294618
:102AF000FEF79CF80136FEF71FFA8046FDF702FF4D
:102B000052465B46FDF768FF0B46024629462046C3
:102B1000FDF7AAFD08F13003B14507F8013B5AD093
:102B20000022704BFDF758FF0022002304460D469B
:102B3000FEF7BAF90028D7D0DDF818B0DDF8148018
:102B40000B9C059731E50B9C3123059A01341370DA
:102B500030E6DDF81480CDF814A026E503D1029B01
:102B6000DB073FF517AE18F8013CC24608F1FF3805
:102B7000302BF8D00B9C1DE601343123FFF7A4BBAA
:102B8000189BC3F1360372E70599FFF796BB71688E
:102B9000049827F013FE0546002800F08F80336963
:102BA00006F10C010C3002339A00FDF7A1FB294617
:102BB0000122049828F012F8814616E5DDF858A0A5
:102BC000DDF850B0FFF7B9BBDDF81480DDF850B088
:102BD000129C0595E9E4DDF818B0454602460B461F
:102BE000FDF744FD80468946DDE90223FEF784F9BE
:102BF00048B940464946DDE90223FEF755F9002869
:102C00009CD0E9079AD50B9C0599FFF756BB354632
:102C10004E46B2E5A84639233546059A4E4608F891
:102C2000013BBCE5069B134406930A9B984613445C
:102C30000A936BE69A46DCE5392BEBD0B8F1000F2E
:102C40003FF7B7AEB7E62F4616E4314600230A2217
:102C5000049827F0E3FD119B0646002B119B079378
:102C60003FF7BAAC002D7FF48FACB5E4DDE91289F3
:102C70000225FFF781BA7FF49EAEDA077FF59BAE9F
:102C800094E6DDF8148005958FE40021049B5964D7
:102C9000FFF725BA002A3FF77BAE8CE6049B0025A0
:102CA000184629465D6427F089FD059068B90E4BEA
:102CB00000224FF4D5710D4829F02EF902460A4B37
:102CC00040F2EA21094829F027F9DDE90432259587
:102CD0001A644FF0FF33012211930C920793FFF710
:102CE0002CBB00BF0000244070E4030884E4030808
:102CF00008B570B100220749074816F0DDFB02460F
:102D000018B12821054823F0FBF8024A1368013363
:102D1000136008BD285000202C500020C2E5030895
:102D20002DE970418FB029F04EF9E8B10024072158
:102D30000423CDE90844CDE90A13CDE90C44164833
:102D400016494FF48042164B08AD4FF4917603DFDD
:102D5000044629F038F9D0B112482146FE2603DF97
:102D600000200FB0BDE8708100220023CDE90623CA
:102D700007230422CDE90100CDE9033200904FF48E
:102D80008042074B0549044813F0C8FCE0E70548BA
:102D9000214631F0B4FAE3E760080020C08B002040
:102DA000011800083C46030870B505469CB010B9F0
:102DB00000201CB070BD68460BF00EFF0028F7D055
:102DC0000D4C0E4EB4F5806F2246684628BF4FF476
:102DD0008062311B2EF06FFE0028E9D0A4F58064DC
:102DE00014F5177FEED1694628462EF08AFE00388A
:102DF00018BF0120DDE700BFA43D0400A43D040886
:102E00007FB508230393074B049202934023019359
:102E1000054B0A4600932023194629F05FF907B0B5
:102E20005DF804FB2DE6030899E6030810B586B0AB
:102E30001C46049302230393084B029340230193FF
:102E4000074B009313460A46142129F047F918B995
:102E5000237803F07F03237006B010BD36E6030825
:102E600059E603082DE9F04F1D46F9B004466648BF
:102E70000E4690462DF0D5FD2B460DF1DC0C05F1EC
:102E8000400E624618685968083303C27345944679
:102E9000F7D195F84830002B40F0898005F14903BF
:102EA0000DF58E7C05F1890E624618685968083365
:102EB00003C273459446F7D105F194030DF5AE7C3A
:102EC00005F1D40E624618685968083303C2734589
:102ED0009446F7D195F8DC300DF29D128DF89C31B7
:102EE00005F21D1105F1DD0353F8040B8B4242F886
:102EF000040BF9D10DF15C0B5B4640F20112204648
:102F000037A929F0DAF8074600285DD10DF19C09B0
:102F10004B468122204657A929F0CFF807460028C2
:102F200052D1859B4FF0400A04930A230393374BF9
:102F300032460293202320461946CDE900BA29F0F3
:102F4000CDF8074600283FD1869B424604930823CC
:102F500003932F4B2046CDE901A32023CDF8009009
:102F6000194629F0BBF8074670BB839B1BB9849BAD
:102F70000BB9829B43B33146204607AAFFF740FFB7
:102F8000074608BB204685990FAAFFF739FF074679
:102F9000D0B9849B20460293839B07AA0193829B0E
:102FA0000FA900932B4600F073F807460CE0D5F804
:102FB0008C1039B32046D5F8902047AB29F07DF826
:102FC000074600283FF478AF204637AA40F20111A7
:102FD00029F01CF8204617AA402129F017F82046AE
:102FE00027AA402129F012F8204607AA202129F01B
:102FF0000DF8204620210FAA29F008F8384679B0AC
:10300000BDE8F08F0127DFE739E6030845E603084E
:1030100050E6030830B504469DB002200D4603F08B
:1030200061FD0146284603F069FD60BB03A82BF053
:10303000F8FF0B2002F088FE22460146202303A859
:103040002CF049F8044630B1032403A82CF0D4F83E
:1030500020461DB030BD01AB95E8030083E80300B6
:1030600018462CF093FA0238022888BF21464FF008
:10307000030098BF0299054A03AB2BF08AFA044675
:103080000028E2D0E0E70324E2E700BFE9F102080C
:103090002DE9F04F1446ADF58E5D83B0054606A8C8
:1030A0000E4698462CF043FA08A82CF040FA44A8A3
:1030B0002DF0E5F8204606A9FFF7ACFF04460028EE
:1030C00040F0C38128460AAA06A928F0CCFF04468E
:1030D000002840F0BA814A4928A823F059FA282349
:1030E00014210DEB03000DF1AD0200F0EBF91AAB6A
:1030F00010330DF15009CDF8C839494614230AAAF6
:103100000DF6C8108DF8D54029F074F8041E72AF82
:10311000C0F29A81224649460DF6C81028F0F9FF00
:10312000B0F1000AC0F29081802249460DF6C81025
:1031300029F013F80028C0F2878154440444224641
:1031400049460DF6C81028F0E4FF0028C0F27C8143
:103150003022494604440DF6C81028F0FEFF00282E
:10316000C0F2728123181A46DDF8C8194846049344
:1031700022F0E6FD304608A9FFF74CFF0446002880
:1031800040F0638128460FAA08A928F06CFF044686
:10319000002840F05A811A4936A823F0F9F928236B
:1031A00014210DF1E5020FA800F08CF922AB1833C1
:1031B0000DF1780ACDF8C839514614230FAA0DF63F
:1031C000C81007F8BB4C29F018F9031E0393C0F28E
:1031D0003B811A46DDF8C81950460DF6C81559AEA0
:1031E00022F0AEFD3946304698F8DC2047F8645CA2
:1031F00029F098F8B0F1000B04DA1BF16C0F22E112
:10320000D9E6030857F8643C0A22013339463046B0
:1032100047F8643C28F0A1FF051EC0F23C810BF189
:10322000FF3B5D442A463946304628F072FF031EB4
:10323000C0F23381A62239463046059328F08DFF2F
:10324000B0F1000BD9DB059B1D445D446B1C00F005
:10325000FB80D8F8D82052B1009733460520D8F823
:10326000D41028F0DBFE0028C0F219810544334653
:1032700040220420009708F1940128F0CFFEB0F11D
:10328000000BBADB98F84830AB44012B40F0F180DA
:103290000B2002F059FDD8E923120DF6C81302F0F5
:1032A00077FE0546002840F0DF8000973346D8E9D6
:1032B0002312032028F0B2FE051EC0F2C38033465D
:1032C0004022022000970DF6C81128F0A7FE002822
:1032D000C0F2E5805D4405EB000BD8F844205AB1FC
:1032E00072AB009301203346D8F8401028F096FEC8
:1032F0000028C0F2D480834472AB0093402233464E
:103300004146002028F08AFE0028C0F2C88000EB69
:103310000B052A46304672A928F0FBFEB0F10008E2
:10332000C0F2B6803022304672A928F016FF00287D
:10333000C0F2B580454405442A4657F8641C384617
:1033400022F0FEFC594A5A4944A808F0ADFB002877
:103350007AD128A944A82CF0BBFF002874D136A943
:1033600044A82CF0B2FF804600286DD108A944A8DB
:103370002CF0A7FF06A944A82CF0A5FF092144A81A
:103380002CF09CFF049B0322CDE90093494943465E
:1033900044A82CF0A0FF0346002855D1039A4649C3
:1033A000CDE900A244A803222CF095FF00284BD1C0
:1033B000042144A808F0E8FB002845D14FF0FF3273
:1033C000012144A808F096FB00283DD101230A22E0
:1033D000CDE90075394944A82CF07DFFA0BB3046EB
:1033E0002BF01FFE0B2002F0AFFC52460146039B60
:1033F00030462BF070FE4FF40062314B0DF6C811D1
:10340000009644A808F0F2FB054630462BF0F4FE87
:10341000002D19DB0DF58F5318331B681D600DF55A
:103420008F5310331B689D4221D80DF6C813C5F584
:10343000006119440DF58F532A4658691433FCF77F
:1034400057FF02E06C3512D0032444A82CF021FF72
:1034500006A82CF070F808A82CF06DF820460DF5A1
:103460008E5D03B0BDE8F08F10F16C0F19D102240E
:10347000EBE7002B7FF431AF334640220320009767
:1034800008F1490128F0CAFD002808DB834424E73D
:1034900018F16C0FD7E7AB46AFE69B46ADE66C3054
:1034A000D1E70028BFF648AFCEE700BFE7E6030844
:1034B000F6E6030805E7030809E703080DE7030834
:1034C000E9F10208F0B585B004460E46EC46154D0C
:1034D00005F1100E674628686968083503C7754509
:1034E000BC46F7D1204626440024B04201D09C427D
:1034F00001D305B0F0BD017804AF07EB111111F84D
:10350000101C651CAB42115508D9017801F00F0160
:103510001031694411F8101C5155A51C2C4601307E
:10352000E3E700BF18E703082DE9F04F834699B0A1
:103530000F46184600211646039329F098FA0028F2
:1035400000F0898100240125774B304614930399BC
:1035500015ABCDE90B45CDE90D45CDE90F45CDE9DD
:103560001145139329F00CFAA04228DABBF1000FA1
:1035700005D1E7B90024204619B0BDE8F08F2146F7
:10358000584629F040F904460028F2D00BA829F04B
:1035900028F80DA829F025F80FA829F022F811A87D
:1035A00029F01FF80C2115A803F0C2FBE3E7314610
:1035B000384629F0F3F804460028E7D1DAE7314627
:1035C0000BA829F0EBF804460028DFD103990DA8D9
:1035D00029F0E4F804460028D8D1F1880FA8023178
:1035E000ADF83850ADF8305029F009F804460028FD
:1035F000CCD101460FA829F006F904460028C5D110
:10360000F18811A8023128F0FAFF04460028BDD144
:103610000DA829F063F900F01F001F2873D0C0F136
:103620001F0319460BA8019329F084F904460028CA
:10363000ACD101990DA829F07DF904460028A5D147
:10364000BDF83250BDF83A800DA8A5EB080A4FEA44
:103650004A19494629F06EF90446002896D14FEAE6
:103660008A0A0DA90BA829F0BAF900284DDA4946B3
:103670000DA829F07CF90446002887D108F1FF3312
:1036800005939B0005F1FF3A069305F1804508F18B
:103690008043023B013D9B00A5EB08050893AB006E
:1036A0000293059B9A4541D8BBF1000F0DD05846B7
:1036B0000FA929F073F8002840F0C980039AB38855
:1036C000928813FB02F3ABF80430002F3FF45EAF97
:1036D00001990BA829F04BF9002840F0B880B38875
:1036E0000BA93846ADF8303029F058F801460028CB
:1036F00040F0AF80384629F0BAF900287FF446AF91
:103700000123BB8042E701949AE70F9A0BA952F874
:103710000A300846013342F80A300DAA29F08CFA23
:10372000044600289DD031E7010003000D9B069A56
:1037300004931344DDF82C900793049B4FEA8A0806
:103740009A5859F82A10A8F104030F9D0993029B77
:1037500091421D4476D2A8F10400002359F80000DC
:10376000FDF7E6FE002914BF4FF0FF330346BAF120
:10377000010F2B600EBF002309EB080353F8083C30
:103780001593A8F1040359F80330169359F808303B
:10379000DDF8108017932B6801332B60089B984449
:1037A0002B680021013B2B6011A829F02CF8002880
:1037B0004DD1059B002B48D0D8F80020119B11A9B2
:1037C0001A60079A084612685A602A6829F0D4FAE3
:1037D00000283CD113A911A829F001F90028DFDC49
:1037E0002A680DA911A829F0C7FA80BB029B11A86D
:1037F0004FEAC308414629F09DF840BB0BA9084693
:1038000011AA29F019FA014618BB0BA829F02FF9C3
:10381000002812DA0DA911A828F0C0FFB8B9414656
:1038200011A829F087F890B90BA9084611AA29F028
:1038300000FA60B92B68013B2B60029B0AF1FF3A4A
:10384000043B2DE74FF0FF3391E7059AB6E70446B6
:103850009CE60C469AE66FF00B048CE6F7B503681D
:1038600004461B68DB0703D46FF00D0003B0F0BD06
:10387000032500260C4F2A46214601A829F0CCFB3F
:103880000028F3D1019B3BB92946204629F0EFF8E7
:103890000028E9D10120E9E717F8013B0136A72EFE
:1038A0001D44E8D1E2E700BF29E703088B4228BFA7
:1038B0000B462DE9F04104460020069DC91ADE089A
:1038C00003F00703013E05D2013B44D201394BD23C
:1038D000BDE8F08152F8087B54F808CB52F804ECAC
:1038E00054F8048CE5FB67C0E5FB6E8044F808CC17
:1038F00044F8048C52F8087B54F808CB52F804ECD6
:1039000054F8048CE5FB67C0E5FB6E8044F808CCF6
:1039100044F8048C52F8087B54F808CB52F804ECB5
:1039200054F8048CE5FB67C0E5FB6E8044F808CCD6
:1039300044F8048C52F8087B54F808CB52F804EC95
:1039400054F8048CE5FB67C0E5FB6E8044F808CCB6
:1039500044F8048CB6E700BF52F8046B2768E5FB17
:10396000667044F8047BAFE723681B182CBF012066
:10397000002044F8043BA9E72DE9F04F054693B039
:1039800000780F46144698462AF02AFB002800F0DB
:10399000B9806B6B002B00F0B5800121404629F007
:1039A00066F8002804DA5849084613B0BDE8F08FDD
:1039B00005F134063146404629F011F80028F2DAC4
:1039C0000CA82AF09AFC06A828F006FE08A828F001
:1039D00003FE0AA828F000FE4FF00C0905F11C0BAD
:1039E000B9F1010900F08C804FF00C0ABAF1010A1C
:1039F00000F08680DDE91E2306A9284601F08AFB37
:103A0000014600286DD1219B02900193209B0CA9B7
:103A1000009328465B4606AA01F070FB0146002889
:103A20005FD10CA93246384629F0D7F90146002863
:103A300057D1384629F01BF80028D7D008A92846C6
:103A4000DDE91C232AF0A0FA0146002849D1DDE96E
:103A500020230AA9284601F05DFB0146002840D139
:103A600039464246204629F01BF90146002838D144
:103A700008A90846224629F0DCF8014688BB08A9B7
:103A800008460AAA29F00CF9014650BB06A90846C7
:103A90000AAA29F005F9014618BB06A908463246CC
:103AA00029F09BF90146E0B906A93246204629F0E3
:103AB0006FFC0146A8B92146204608AA29F0F0F873
:103AC000014670B921463246204629F086F9014662
:103AD00038B90590204628F0CAFF059900283FF420
:103AE0007FAF0CA805912AF045FC06A828F079FDC7
:103AF00008A828F076FD0AA828F073FD059953E779
:103B00000249EEE702494FE780B3FFFF00B3FFFF32
:103B100080B0FFFF2DE9F04FC5B0046C05469DF85D
:103B20004001894692461F4602F00EF9073480464E
:103B3000E408002843D008A80AAE28F04DFD30461E
:103B40002BF06FFA2246384623A928F0EDFE834673
:103B500058BBDDE94E23284608A92AF015FA83460A
:103B600018BB23AB2246191908A828F0DDFE8346AE
:103B7000D8B941463046630023AA2BF0ACFA8346FD
:103B800098B9539B52460693529B49460593519BC5
:103B90002846CDE903630B4B02934F9B01934E9B49
:103BA00000933B46FFF7E8FE834630462BF024FBAC
:103BB00008A828F016FD584645B0BDE8F08FDFF89C
:103BC00008B0F8E7E9F1020880B0FFFF2DE9F047FF
:103BD000054692B00CA80C46DDE91A699246984653
:103BE0002AF08BFB04A828F0F7FC06A828F0F4FCC8
:103BF00008A828F0F1FC0AA828F0EEFC28782AF0A2
:103C0000EFF9002800F088806B6B002B00F08480B7
:103C10000121304628F02BFF002813DB05F1340783
:103C20003946304628F0DBFE00280BDA01214846F1
:103C300028F01DFF002805DB3946484628F0CFFE56
:103C4000002813DB354C0CA82AF094FB04A828F0BC
:103C5000C8FC06A828F0C5FC08A828F0C2FC0AA8E1
:103C600028F0BFFC204612B0BDE8F087224653463C
:103C7000284604A92AF088F904460028E3D13A46E8
:103C8000494606A829F084FB04460028DBD106AA91
:103C900004A908A829F004F804460028D3D108A9EB
:103CA0003A46084629F099F804460028CBD10DF190
:103CB00028093146484606AA28F0F2FF04460028A3
:103CC000C1D13A464946484629F087F804460028BB
:103CD000B9D1CDE90180CDF80090284605F11C034B
:103CE00008AA0CA901F0CAF904460028ABD10CA817
:103CF0002AF0B2FB0028A5D10CA93A46084629F0C3
:103D00006CF8044600289ED131460CA828F067FEC6
:103D10000446002897D095E7014CA3E700B2FFFFC7
:103D200080B0FFFF2DE9F041AEB0DDF8DC80044645
:103D30000F4615461E46B8F1000F5BD007A828F0C5
:103D40004BFC09A828F048FC399B00950593389B4B
:103D50002046CDE90383CDE9016704F1600309AA98
:103D600007A9FFF7D7FE0546002833D10146872271
:103D70000B900CA822F064F80DF1B70309AA0BA967
:103D800006A8069328F04BFA041E22DB07AA0BA90B
:103D900006A828F044FA061E26DB264432460BA964
:103DA00006A828F0B6F9041E13DB30220BA906A8DA
:103DB00028F0D3F9002819DB359B34440444A3428E
:103DC00016D3224606993498FCF792FA369B1C606B
:103DD0002C46254607A828F004FC09A828F001FC79
:103DE00028462EB0BDE8F0813446F2E70446F0E7FD
:103DF000014CEEE7014DF3E700B1FFFF80B0FFFF9C
:103E00002DE9F0478AB0924606AF129A804608AE76
:103E100038469D188946049328F0DEFB304628F08A
:103E2000DBFB3023294605AA04A828F081FB58B102
:103E3000A0F59F44384628F0D4FB304628F0D1FB4B
:103E400020460AB0BDE8F087DDE9043213449D4204
:103E500021D13A46294604A828F07EFB0028E7D164
:103E60003246294604A828F077FB0028E0D1139BAE
:103E70005246CDE9016349464046009708F1680380
:103E8000FFF7A4FE04460028D4D1049A034BAA42AB
:103E900018BF1C46CEE7024CCCE700BF00B4FFFFC2
:103EA0001AB0FFFF38B50C460546114620461A46A3
:103EB00028F0F6FE38B9AB6C33B9214620462A1DEE
:103EC00028F08BFF48B338BDB4F90430002B08DB71
:103ED000204628F003FDEB6BB0EB430F08D91A48DE
:103EE000F1E70146204628F0C2FD0028F0D0F6E7B1
:103EF0002046AB6C98470028E5D10435B4F904306E
:103F0000002B04DA0021204628F0B1FD58B92946DB
:103F1000204628F064FD00280DDA0C4A00201368C2
:103F200001331360CFE72A462146204628F081FE60
:103F30000028E3D0C7E72A462146204628F0F7FDAF
:103F40000028E4D0BFE700BF80B0FFFF3050002062
:103F5000F0B514461F46064685B002A80D4628F067
:103F60003BFB234602210097321D02A829F0F2F9FB
:103F7000044678B92A462946304602ABFFF792FF3D
:103F8000044638B905F110021146304602ABFFF77E
:103F900089FF044602A828F024FB034814F10E0F01
:103FA00018BF204605B0F0BD00B3FFFFF0B51446C2
:103FB0001F46054685B002A80E4628F00DFB234695
:103FC000022100972A1D02A829F0C4F9044648BB23
:103FD00006F110021146284602ABFFF763FF0446C4
:103FE00000BB06F108073A463946284602ABFFF700
:103FF00059FF0446B0B902AB1A4619462846FFF7E6
:1040000051FF044670B932463146284602ABFFF7ED
:1040100049FF044630B93A463946284602ABFFF715
:1040200041FF044602A828F0DCFA034814F10E0F01
:1040300018BF204605B0F0BD00B3FFFF2DE9F04FDB
:10404000012A80460E46914685B005D8096805B01C
:10405000BDE8F04F2AF07AB80821104620F0D4FFCE
:104060000746002800F0AA8002A828F0B5FA4946C1
:10407000384629F0D6FF31683846103128F08EFBDB
:104080000446002846D1B24607F108014FEAC905A7
:1040900007EBC90B5AF8043F40461033A1F1080260
:1040A0000191FFF7FFFE0446A0BB019908318B4543
:1040B000F0D1A5F108013944084608F1040229F0BD
:1040C00067F9044630BB103D09F1FF3A06EB89065B
:1040D0003D44BAF1000F2BD005F1080B2B465A4690
:1040E000404602A9FFF7DEFE044698B956F8043CA4
:1040F0005A46294640461033FFF7D4FE044648B9D5
:1041000056F8042C40460832114602ABFFF7CAFEAF
:10411000044690B102A828F064FA3846494629F0CE
:104120008CFF384621F0C8FA204605B0BDE8F08F74
:10413000394602A828F032FBE0E702AB1A461946DE
:104140004046FFF7AFFE04460028E3D156F8042CA2
:104150004046114602ABFFF7A5FE04460028D9D120
:1041600056F8042C40460832114602ABFFF79AFE7F
:1041700004460028CED1B8F80A1056F8040C28F0EE
:10418000D5FA04460028C5D156F8040CB8F80A1030
:10419000083028F0CBFA04460028BBD156F8040DAD
:1041A0000121103028F02FFB04460028B2D1083D31
:1041B000BAF1000FAED00AF1FF3A8AE7004CB3E73C
:1041C00080B2FFFF2DE9F84F1E468A468249044619
:1041D0000B68904601330B60C36806F10805002B9D
:1041E00040F0C08002F110031A462946FFF75AFE3C
:1041F000002840F0EF8006F110072B464246394672
:10420000204629F0E7FF002840F0E48006F1180975
:104210002B4642464946204629F079FF002840F0C7
:10422000D9804B463A4629462046FFF73BFE0028F8
:1042300040F0D08003222946304628F09DFD00281A
:1042400040F0C8803146204629F0E0FF002840F0C9
:10425000C18008F1080B06F110075B465A46394643
:104260002046FFF71FFE002840F0B4803946204664
:1042700029F0EDFF002840F0AD803B46424629463C
:104280002046FFF70FFE002840F0A4802946204674
:1042900029F0DDFF002840F09D8006F118093B461B
:1042A0003A4649462046FFF7FDFD002840F092803F
:1042B0004946204629F0CBFF002840F08B8033464A
:1042C000324639462046FFF7EDFD002840F0828057
:1042D0002B463A463946204629F019FF002879D165
:1042E0002B463A463946204629F011FF002871D165
:1042F0003B462A462946204629F009FF002869D175
:1043000033462A4629462046FFF7CCFD002861D1D6
:104310004B462A462946204629F0F9FE002859D165
:104320005A464946204608F11003FFF7BBFD002816
:1043300050D14946204629F08AFF00284AD1394603
:10434000504628F02BFA002844D129460AF10800EB
:1043500028F024FAF0BB49460AF11000BDE8F84FF6
:1043600028F01CBA13462946FFF79CFD90BB032298
:104370002946304628F000FD60BB3146204629F032
:1043800045FF38BB04F10C070146384628F06FFBA7
:1043900000283FF45EAF08F110031A462946204674
:1043A000FFF780FDB0B906F110092B462A464946B1
:1043B0002046FFF777FD68B93B464A462946204626
:1043C000FFF770FD30B92B4632463146204629F0C2
:1043D00001FF3BE7BDE8F88F345000202DE9F14F95
:1043E0009A469146774A044613680E460133136095
:1043F000DAF810300A9D1BB9734801B0BDE8F08FA0
:1044000009F110070021384628F031FB30B9514638
:10441000304601B0BDE8F04F29F0F1BF0AF11008B5
:104420000021404628F023FB08B94946F0E7012166
:10443000404628F01CFB0028DED13B463A46294680
:104440002046FFF72FFD0028D7D105F108083B468D
:104450002A4641462046FFF725FD0028CDD1534688
:104460002A4629462046FFF71DFD0028C5D14246B1
:10447000414620460AF10803FFF714FD0028BCD18D
:104480004B462A462946204629F041FE0028B4D151
:1044900009F1080B5B4642464146204629F037FEAB
:1044A0000028AAD10021284628F0E1FA014690B957
:1044B000404628F0DCFA40B92B464A4631462046B1
:1044C00001B0BDE8F04FFFF77DBE304601B0BDE85A
:1044D000F04F29F0ADBF2B463A46204606F11001B9
:1044E000FFF7E0FC002888D105F110072B462A468B
:1044F00039462046FFF7D6FC00287FF47EAF05F151
:10450000180A2B463A4651462046FFF7CBFC0028B6
:104510007FF473AF4B463A4639462046FFF7C2FC5C
:1045200000287FF46AAF3946284628F037F900287A
:104530007FF463AF2946204629F089FE00287FF4E6
:104540005CAF4346424631462046FFF7ABFC0028AD
:104550007FF453AF2B4632463146204629F0D7FD33
:1045600000287FF44AAF534632463146204629F0B0
:10457000CEFD00287FF441AF33463A463946204607
:1045800029F0C5FD00287FF438AF43463A46394646
:104590002046FFF787FC00287FF42FAF5B4652468A
:1045A00051462046FFF77EFC00287FF426AF534695
:1045B0003A46204606F1080101B0BDE8F04F29F067
:1045C000A6BD00BF3850002080B0FFFF2DE9F04F9E
:1045D0000446D9B002939DF8883108A803939DF84A
:1045E0008C310D46DDE964690593669B9046049322
:1045F00004F1340A27F0F0FF0EA827F0EDFF0021A8
:10460000504628F01CF9012805D0DFF8DCB15846E7
:1046100059B0BDE8F08F0021404628F010F941461E
:10462000074608A828F0BAF8834630B10EA827F04C
:10463000D8FF08A827F0D5FFE9E7424651460EA863
:1046400028F0FAFA83460028F0D1B7FA87F77F09F5
:104650003A460EA908A827F0FBFF83460028E5D1BB
:104660000146721C16A80DF1580821F0E9FBC2465C
:104670005E4540D100224FF0010C66453ED20DF15F
:104680003808404627F0ADFF08A827F0AAFF08A881
:1046900029F033FE0421404629F0C3FC16AB9B5D94
:1046A000294600932046DDE9022329F0F6FC8346E3
:1046B000002840D008A829F0BCFD0421404629F07C
:1046C000BCFCA4E708A8CDE9061328F0B8F8079BBE
:1046D000069900FA03FC9AF80000013340EA0C0046
:1046E0008AF800003144059A9342EBD30BF1010B99
:1046F0000AF1010ABCE759460023F4E798F80100E3
:1047000098F8003080EA020E6FEA0E0101F0010114
:1047100013FB01F3104003EA0E0283EA0E0308F8CC
:10472000013F18F8013C024343EAC11308F8013C79
:104730000CF1010CA1E7B9F1000F08D04A46294657
:104740002046049BFFF732FC83460028B2D10DF1CE
:10475000580A0EB9B3461EE043462A46294620466B
:10476000FFF730FD013E8346A8B916F80A3020460F
:10477000009308A9DDE9022329F08FFC834650B994
:104780002A4629462046CDF8008008ABFFF726FED2
:1047900083460028DDD008A829F04BFD04210EA88F
:1047A00029F04BFCBBF1000F7FF431AF3A462946AC
:1047B000204629F04EFC834600287FF428AFB9F14B
:1047C000000F06D12946204659B0BDE8F04F29F028
:1047D000BDBC4A4629462046049BFFF7E7FB8346BB
:1047E0000028EFD013E700BF80B0FFFF2DE9F84F9E
:1047F000012A8346DDE90A690F46924698465CD84D
:10480000043028F06FF80546584629F06DFD02285F
:1048100023D14D45C8F8005003D9294C2046BDE8A6
:10482000F88F2A463146384628F078F804460028A2
:10483000F4D1584629F058FD01288346EED10021D5
:1048400007F1100028F013F9044640B9B9F1000F40
:10485000E3D03070C8F800B0E0E71A4CE9E7BAF1ED
:10486000000F19D16B0001334B45C8F80030D4D884
:10487000314604232A46384601F8013B28F054F813
:1048800004460028CAD12A46691C314407F10800B1
:10489000BDE8F84F28F048B86B1C4B45C8F800300D
:1048A000BBD8002107F1080027F0C9FF31460230CC
:1048B00001F8010B2A463846EAE7034CAEE700BF91
:1048C00000B1FFFF80B1FFFF80B0FFFFF0B50E46E3
:1048D0000546012185B006F1100028F0C8F804460D
:1048E00018B14D4C204605B0F0BD284629F0FCFC1F
:1048F000022850D1304627F0F5FF2B6C0733B0EB80
:10490000D30FEED82146304628F0B1F80028E8DB76
:1049100002A82F7827F060FE314602A827F03EFF5C
:104920000446B0B90435294602A828F058F80028F2
:1049300007DA012102A828F09AF800280DDC364C8D
:1049400007E002A92A46084628F076F9044600281E
:10495000E9D002A827F045FEC4E7092F0ED002A92E
:104960000122084628F06CF904460028F1D12946B6
:1049700002A828F034F80028EBD1E0E7274902A884
:1049800028F02DF80028DAD0254902A828F027F8C9
:104990000028E4D1D3E701283BD12146304628F056
:1049A00066F800289DDB06F108072146384628F006
:1049B0005EF8002895DB2C1D2146304628F00FF8C4
:1049C00000288EDA2146384628F009F8002888DACF
:1049D000684627F001FE02A827F0FEFD3B463A4656
:1049E00069462846FFF75EFA044670B93246284603
:1049F00002A929F03BFC044638B9684602A927F011
:104A0000EEFF054B041E18BF1C46684627F0E9FD63
:104A10009FE7044C66E700BF80B3FFFF0050030828
:104A2000F84F030880B0FFFF70B5064629F05CFC24
:104A300002280C4605461DD10021204627F0FFFE26
:104A400008B1154870BD0121204627F0F8FE002866
:104A5000F7D1204627F042FF336C5A1C9042F0D128
:104A6000FE2B05D12946204627F0E9FE0028E8D193
:104A70000020E7E701280DD10146204627F0F7FF87
:104A80000028DEDB204606F1340127F0A8FF0028CD
:104A9000EEDBD6E70148D5E780B3FFFF80B0FFFF2C
:104AA0002DE9F04FA1B00791114604469A460C92A9
:104AB000FFF7BAFF0746D0B951462046FFF706FF79
:104AC000002840F0D582204629F00EFC022840F054
:104AD000DF8111A829F011FC0FA827F07DFD04212A
:104AE00018A829F09EFA2A9B2BB9A7F59F473846AC
:104AF00021B0BDE8F08F51460FA827F04FFE0746C2
:104B000050B111A829F095FB0FA827F06AFD0421E8
:104B100018A829F092FAEAE7514611A829F06FFC8B
:104B200007460028EDD10121079827F06CFE0746C3
:104B30000028E6D1079B014603F11005284627F01F
:104B400062FE07460028DCD1079B04F1040903F14B
:104B5000080027F046FD494611A827F040FF00282D
:104B60002EDA2046DDE92A2311A9FFF7F1F90746DD
:104B70000028C6D1D4F84080B8F1FF3F40F0A780AC
:104B80002046DDE92A230799FFF7E2F907460028C6
:104B9000B7D14A462946284628F0FAFB074600289E
:104BA000AFD1079A2B4611462046FFF77BF90746FF
:104BB0000028A6D10121284627F025FE074607E058
:104BC00011A94A46084627F0B2FF07460028C2D07E
:104BD00011A829F02EFB0FA827F003FD042118A827
:104BE00029F02BFA002F82D1204629F07DFB0128E5
:104BF00080467FF47CAF04F124010AF1080027F01D
:104C0000EEFE0890002800F04581236CB3F5C07FCC
:104C1000C0F0868103339B080A93002308934FF06A
:104C2000080904264FF0030BCDF8249018210998A9
:104C300020F0EAF90546002800F018820027182223
:104C400002FB0750013729F058FBF9B289454FF0B4
:104C50001802F5D81C22002111A821F0F1F8042136
:104C600018A829F0DEF95146284629F0C8FB074666
:104C700008BB82460A9B03FB0BF30B930B9B9A45E5
:104C800040F0558111AB18460B930022012303EB32
:104C900043015B00DBB205EBC101994502F1010262
:104CA00040F8041BF3D8204611A9FFF7C7F90746BF
:104CB000002800F09381042118A829F0BEF9A36D03
:104CC0009D4240F06A81079829F054FB0FE7414666
:104CD0000C9827F0B4FDC6B23246079811A927F008
:104CE000E0FC074600287FF473AF3246284615A93A
:104CF00027F0D7FC074600287FF46AAF2B462046F2
:104D0000079A18A929F066FA074600287FF460AFD1
:104D10002B462046079A1AA929F0F9F907460028D8
:104D20007FF456AF204615AB11AA1CA929F052FA00
:104D3000074600287FF44CAF204615AB11AA1EA9E8
:104D400029F0E5F9074600287FF442AF1EAA114674
:104D5000204618ABFFF7A6F8074600287FF438AFC7
:104D60001CAA114620461AABFFF79CF807460028FC
:104D70007FF42EAF18AB1A4619462046FFF792F87B
:104D8000074600287FF424AF1AAB1A46194620467E
:104D9000FFF788F8074600287FF41AAF20460799E6
:104DA0001AAB18AAFFF77EF8074600287FF410AF69
:104DB00018AA114620461AAB29F0A9F9074600287F
:104DC0007FF406AF2946204618AB04F10C02FFF72A
:104DD00069F8074600287FF4FBAE2B46294620469B
:104DE0001AAA29F0F7F9074600287FF4F1AE204609
:104DF0001CAB1EAA11A929F0EDF9074600287FF483
:104E0000E7AE11AB1A4619462046FFF74BF80746A6
:104E100000287FF4DDAE20461CAB1EAA15A929F0A0
:104E200076F9074600287FF4D3AE15AB1A4619462B
:104E30002046FFF737F8074600287FF4C9AE15ABC8
:104E4000194620460FAAFFF72DF8074600287FF4E1
:104E5000BFAE2B462946204618AAFFF723F807467F
:104E600000287FF4B5AE3246079811A927F019FC47
:104E7000074600287FF4ACAE3246284615A927F035
:104E800010FC08F1FF38074600283FF475AE9FE696
:104E9000784FA9E6504604F11C0127F0A0FD226CD2
:104EA000134630B1B2F5C07F3CD3033293080A9366
:104EB000B5E6B2F5C07FA16D25D3A1B1E26D6AB3AD
:104EC0000426CDF82080013B3344B3FBF6F30122E6
:104ED00006F1FF3B02FA0BF20A93089B09929DF838
:104EE000249053B9A2E64FF0080904264FF0030BB3
:104EF000033293080A93CDF82490A56D002D39D183
:104F00000123089392E679B1E26D6AB90426012281
:104F1000013608929E4228BF0226D4E70526F6E70E
:104F2000002208920426F5E7CDF82080FAE70A9BD4
:104F30001821BAFBF3F201239340DBB201FB035BC0
:104F40000A9901FB12A2002A38D05A465946204637
:104F500018ABFFF737F9074600283CD0042118A802
:104F600029F06BF8002F7FF4AAAE089B13B1099BC0
:104F7000A565E3652B9B204604932A9B0C9A03931B
:104F80000A9B0799CDE90163CDF800902B46FFF706
:104F90001DFBA36D07469D420CD00024182606FB7E
:104FA0000450013429F0E6F9E3B29945F7D82846D0
:104FB00020F082FB002F3FF49AAD84E603F0FE015F
:104FC00001EB5301584605EBC10129F018FA0746D9
:104FD0000028BAD0C2E70AF1010A4FE6C3460FFA29
:104FE00088FA0AEB4A0A05EBCA03DA460BF1FF3BE3
:104FF000BAF1000F2AD14FEA48085FFA88F8C14594
:10500000ECD81821099B05F1180201FB03510B9BF9
:1050100043F8042B183291420B93F8D1099B204698
:105020005A1E11A9FFF70AF8074600287FF443AE7D
:1050300005F1100840460AF1010A27F0D2FA5FFA9A
:105040008AF1894508F11808F4D887E7182202FB8D
:105050000BF118AA009220466A1819440D93FFF725
:10506000BDF90D9B07460028BFD077E7024F2AE61F
:1050700007463CE580B0FFFF80B2FFFF2DE9F0411D
:1050800090B00546984629F02FF901280E4614469F
:1050900030D102A808AF29F030F90421384628F0B1
:1050A000C0FF22464346284602A929F0DEF90446FD
:1050B000A8B9DDE916233146284629F0D6F9044679
:1050C00068B9334631462846009702AAFFF786F9A9
:1050D000044620B93146284629F038F804463846B7
:1050E000042128F0AAFF02A829F0A3F8204610B056
:1050F000BDE8F081004CF9E780B1FFFF10B4019CDE
:1051000014B110BCFFF7CCBC014810BC704700BF05
:1051100080B0FFFFF7B506460C46194629F0E4F8C3
:10512000022805462DD1366C0B46F7080137394663
:10513000204628F036F8024698BBC6EBC701204649
:10514000013927F014FC024658BB012231462046A3
:1051500027F085FB024620BB0146204627F07FFB57
:105160000246F0B90121204627F079FB0246C0B97A
:10517000FE2E16D12946204603B0BDE8F04027F0A8
:105180006EBB012810D11346009106F1340201468E
:10519000204628F0DFF8054B10F10E0F14BF024631
:1051A0001A46104603B0F0BD014AFAE700B3FFFF0C
:1051B00080B0FFFF2DE9F0479A46037805460C467C
:1051C0001646A0B023B9284C204620B0BDE8F08791
:1051D0000A789A42F7D101F168094946683027F008
:1051E000FEFB0028EFD104F17008414605F1700084
:1051F00027F0F5FB0028E6D104F17807394605F1E0
:10520000780027F0ECFB0028DDD102A829F075F822
:1052100008A829F080F8214608A829F006F904F129
:105220001C0304F16002CDE9006A02A908A829F074
:105230007FF9044680B9494602A827F0D0FB50B94F
:10524000414604A827F0CBFB28B9394606A827F029
:10525000C6FB044600B1044C02A828F0EAFF08A8E7
:1052600029F08CF8B0E700BF80B0FFFFF0B5C5882B
:1052700004460E2DA3B069D901230E3DADB20E2D0B
:10528000ADF80830ADF80A5062D813AE3C220021C8
:105290003046019620F0D4FD216830463831AA000E
:1052A000FBF726F80E230021E2889A4249D801AD87
:1052B0002A462146204627F0BCFC00283FD195E82D
:1052C000030005AB9C4603AF87E8030003930FCEB2
:1052D000ACE80F000FCEACE80F000FCEACE80F002B
:1052E00096E803008CE80300E021384627F03FFBF6
:1052F00028BB3A462146204627F09BFCF8B9BDF86A
:105300000A300146062BA3F107024FEA82021AA8CF
:1053100098BF002220F094FD3A462946284627F0FF
:1053200088FC60B90F23E0212846ADF80A3027F049
:1053300001FB20B92A462146204627F07AFC23B0FB
:10534000F0BD226842F823100133ADE70020F6E7F4
:105350000048F4E780B0FFFFF0B5C4880546082C8C
:105360008BB017D9083C082C17D80668A700203640
:105370003A46314602A8FAF7BBFF3A4600213046CA
:1053800020F05EFD2623009309212346286802AA07
:10539000FEF78CFA00200BB0F0BD0148FBE700BF20
:1053A00080B0FFFF2DE9F047C488054694421646B9
:1053B00090B06FD31FFA82F8374BA4EB0804A4B265
:1053C000A24238BF44460493012305AF2C22039127
:1053D00038460021ADF80830ADF80A40019720F0BA
:1053E0002FFD2968A20001EB86013846FAF780FFFD
:1053F0003346002102344FEA8609ADF80A40EA88B4
:1054000093423DD301A9084603AA27F049FC04466C
:1054100090BB2946284601AA27F041FB044658BB09
:10542000B5F806A00146AAEB080A1FFA8AFA564503
:1054300038BFC2462C223846ADF80AA020F000FD45
:1054400029684FEA8A0238464944FAF751FFBDF805
:1054500012309A44ADF80AA0EB889E4215D301A9F8
:10546000084603AA27F01CFC044628B9294628460A
:1054700001AA27F014FB0446204610B0BDE8F087CF
:105480002A6842F823100133B9E72B6843F8264015
:105490000136E1E70024EFE701000200062201499E
:1054A000FFF780BF4850030807220149FFF77ABF82
:1054B0005050030808220149FFF774BF58500308F1
:1054C00073B504460D4628F059FF204628F023FF07
:1054D0002570013D0C2D00F22B83DFE815F00D0047
:1054E00037005C008000A400B001D501FA011F0262
:1054F000C800EF0089016802844B854AA364854B8C
:105500006260A360A361A3632362A362824B834AA8
:1055100063624FF001136261814A23636263814BCE
:10552000814AE362E261201D27F0D8F9E06304F1CB
:10553000340027F0D3F9012363647C4B2064A36516
:105540000023E3650025284602B070BD784B794AF8
:10555000A364794B6261A360784B794A6360794BAD
:105560006263A361A3632362A362774B774A63629A
:105570004FF0011323636B4BE261E362201D27F0C0
:10558000ADF9E06304F1340027F0A8F901232064A9
:1055900063646F4BD3E76F4B6F4AA364664B6260E3
:1055A000A360A361A3632362A3626C4B6C4A636232
:1055B0004FF0011362616B4A23636263594B6A4A7D
:1055C000E362E261201D27F089F9E06304F1340011
:1055D00027F084F9012320646364644BAFE7644BD4
:1055E000644AA364644B6260A360A361A363236203
:1055F000A362624B624A63624FF001136261614AC7
:1056000023636263474B604AE362E261201D27F037
:1056100065F9E06304F1340027F060F901232064A8
:1056200063645A4B8BE75A4B5A4AA3645A4B6260E5
:10563000A360A361A3632362A362584B584A6362C9
:105640004FF001136261574A23636263354B564A38
:10565000E362E261201D27F041F9E06304F13400C8
:1056600027F03CF9012320646364504B67E7504AFC
:10567000504B62604FF001124F49A364E160254B2B
:105680004E49A3606161A3634D492362A3624D4B00
:10569000616363624C49234B2261E362A261E16171
:1056A0002263201D27F01AF9E06304F1340027F08B
:1056B00015F9012320646364444B40E7444B45499A
:1056C000A364454BE16063604FF0011343491D4AF9
:1056D00061611949A260A16341492361A3616163CA
:1056E00022624049A26223633F4A0E4BE161E362BA
:1056F0006262201D27F0F2F8E06304F1340027F025
:10570000EDF8012320646364384B18E7F9EE0208D2
:1057100080C303080100060038C3030868C30308F8
:1057200020C3030898C3030850C30308A0BE03089E
:105730003BED020864BE03080100080080BE0308B8
:1057400010BE0308010007002CBE030848BE030872
:1057500090B8030879EA020870B8030810B8030883
:1057600050B80308F0B7030830B8030870B2030854
:10577000BDE6020840B2030801000C00B0B1030806
:1057800010B2030880B10308E0B1030880A2030847
:1057900057E602083CA203080100110070A10308AB
:1057A000F8A103082CA10308B4A103082C8C03085A
:1057B000148C03089D540008108C03080C8C0308FB
:1057C000C48B0308DC8B0308F48B030844870308AD
:1057D000A9540008248703082887030820870308A2
:1057E000C886030804870308E8860308488103087D
:1057F000A94AAA4B62604FF00112A949A364E16073
:10580000A84BA949A3606161A363A8492362A3626D
:10581000A74B61636362A749A74B2261E362A26160
:10582000E1612263201D27F059F8E06304F13400A0
:1058300027F054F8012320646364A04B7FE6994B62
:105840009F4AA3602361A361A3632362A3629D4B6C
:10585000626063624FF001139B4A2363E2609B4ADC
:10586000954B62619A4AE36262639A4A201DE26143
:1058700027F034F8E06304F1340027F02FF8012317
:1058800020646364944B5AE6944B954AA360236169
:10589000A361A3632362A362924B626063624FF0D1
:1058A0000113914A2363E260904A834B6261904AFC
:1058B000E36262638F4A201DE26127F00FF8E06324
:1058C00004F1340027F00AF80123206463648A4B52
:1058D00035E68A4B8A4AA3602361A361A3632362EE
:1058E000A362884B626063624FF00113864A2363B0
:1058F000E260864A704B6261854AE3626263854A70
:10590000201DE26126F0EAFFE06304F1340026F096
:10591000E5FF0123206463647F4B10E67F4B8049E1
:10592000A36404F10C0026F06EFF054600284ED15A
:10593000261D0121304626F066FF0546002846D187
:10594000FF21304626F0F6FF054600283FD11322FE
:105950003146304627F08CF90546C0BB304626F06C
:10596000BDFF04F13406E063102230466D4926F095
:10597000BFFF054658BB0122FC21304626F06FFFD1
:10598000054620BB092104F11C0026F03CFF05461A
:10599000E8B9012104F12C0026F035FF0546B0B925
:1059A00004F1240026F01DFEFE232364CAE55E4BAD
:1059B0006846A36426F010FE49F6AA0104F10C0023
:1059C00026F021FF054630B1684626F00AFE204643
:1059D00028F0D4FCB7E5261D0121304626F013FF40
:1059E00005460028F0D1E021304626F0A3FF054609
:1059F0000028E9D101223146304627F039F9054621
:105A00000028E1D1E021304626F094FF0546002829
:105A1000DAD101223146304627F02AF9054600281E
:105A2000D2D1304626F05AFF0521E06304F11C0074
:105A300026F0E9FE05460028C6D1012104F12C001C
:105A400026F0E1FE05460028BED104F1240004F151
:105A5000340626F0C6FD01224FF4DF71304626F0F1
:105A6000FEFE05460028AFD11C2268462F4926F0CD
:105A70003FFF05460028A7D16A463146304627F049
:105A8000DBF8054600289FD140F2BF136846236427
:105A900026F0A7FD57E500BF28810308B55400088C
:105AA000248103080100080020810308C080030846
:105AB000E08003080081030898C30308407B0308C3
:105AC000207B0308A07A0308007B0308E07A030820
:105AD000807A0308C07A03080075030801000C00EF
